{
	"contracts/Lesson_4.sol": {
		"MerkleTree": {
			"abi": [
				{
					"inputs": [],
					"stateMutability": "nonpayable",
					"type": "constructor"
				},
				{
					"inputs": [
						{
							"internalType": "string",
							"name": "input",
							"type": "string"
						}
					],
					"name": "encode",
					"outputs": [
						{
							"internalType": "bytes",
							"name": "",
							"type": "bytes"
						}
					],
					"stateMutability": "pure",
					"type": "function"
				},
				{
					"inputs": [
						{
							"internalType": "uint256",
							"name": "",
							"type": "uint256"
						}
					],
					"name": "hashes",
					"outputs": [
						{
							"internalType": "bytes32",
							"name": "",
							"type": "bytes32"
						}
					],
					"stateMutability": "view",
					"type": "function"
				},
				{
					"inputs": [
						{
							"internalType": "string",
							"name": "input",
							"type": "string"
						}
					],
					"name": "makeHash",
					"outputs": [
						{
							"internalType": "bytes32",
							"name": "",
							"type": "bytes32"
						}
					],
					"stateMutability": "pure",
					"type": "function"
				}
			],
			"devdoc": {
				"kind": "dev",
				"methods": {},
				"version": 1
			},
			"evm": {
				"assembly": "    /* \"contracts/Lesson_4.sol\":78:1409  contract MerkleTree... */\n  mstore(0x40, 0x80)\n    /* \"contracts/Lesson_4.sol\":216:380  string[4] transactions = [... */\n  mload(0x40)\n  dup1\n  0x80\n  add\n  0x40\n  mstore\n  dup1\n  mload(0x40)\n  dup1\n  0x40\n  add\n  0x40\n  mstore\n  dup1\n  0x15\n  dup2\n  mstore\n  0x20\n  add\n  0x5458313a20536865726c6f636b202d3e204a6f686e0000000000000000000000\n  dup2\n  mstore\n  pop\n  dup2\n  mstore\n  0x20\n  add\n  mload(0x40)\n  dup1\n  0x40\n  add\n  0x40\n  mstore\n  dup1\n  0x15\n  dup2\n  mstore\n  0x20\n  add\n  0x5458323a204a6f686e202d3e20536865726c6f636b0000000000000000000000\n  dup2\n  mstore\n  pop\n  dup2\n  mstore\n  0x20\n  add\n  mload(0x40)\n  dup1\n  0x40\n  add\n  0x40\n  mstore\n  dup1\n  0x11\n  dup2\n  mstore\n  0x20\n  add\n  0x5458333a204a6f686e202d3e204d617279000000000000000000000000000000\n  dup2\n  mstore\n  pop\n  dup2\n  mstore\n  0x20\n  add\n  mload(0x40)\n  dup1\n  0x40\n  add\n  0x40\n  mstore\n  dup1\n  0x15\n  dup2\n  mstore\n  0x20\n  add\n  0x5458343a204d617279202d3e20536865726c6f636b0000000000000000000000\n  dup2\n  mstore\n  pop\n  dup2\n  mstore\n  pop\n  0x01\n  swap1\n  0x04\n  tag_1\n  swap3\n  swap2\n  swap1\n  tag_2\n  jump\t// in\ntag_1:\n  pop\n    /* \"contracts/Lesson_4.sol\":389:1118  constructor()... */\n  callvalue\n  dup1\n  iszero\n  tag_3\n  jumpi\n  0x00\n  dup1\n  revert\ntag_3:\n  pop\n    /* \"contracts/Lesson_4.sol\":520:526  uint i */\n  0x00\n    /* \"contracts/Lesson_4.sol\":516:636  for(uint i = 0; i < transactions.length; i++)... */\ntag_6:\n    /* \"contracts/Lesson_4.sol\":536:555  transactions.length */\n  0x04\n    /* \"contracts/Lesson_4.sol\":532:533  i */\n  dup2\n    /* \"contracts/Lesson_4.sol\":532:555  i < transactions.length */\n  lt\n    /* \"contracts/Lesson_4.sol\":516:636  for(uint i = 0; i < transactions.length; i++)... */\n  iszero\n  tag_7\n  jumpi\n    /* \"contracts/Lesson_4.sol\":586:592  hashes */\n  0x00\n    /* \"contracts/Lesson_4.sol\":598:623  makeHash(transactions[i]) */\n  tag_9\n    /* \"contracts/Lesson_4.sol\":607:619  transactions */\n  0x01\n    /* \"contracts/Lesson_4.sol\":620:621  i */\n  dup4\n    /* \"contracts/Lesson_4.sol\":607:622  transactions[i] */\n  0x04\n  dup2\n  lt\n  tag_10\n  jumpi\n  tag_11\n  tag_12\n  jump\t// in\ntag_11:\ntag_10:\n  add\n    /* \"contracts/Lesson_4.sol\":598:623  makeHash(transactions[i]) */\n  dup1\n  sload\n  tag_14\n  swap1\n  tag_15\n  jump\t// in\ntag_14:\n  dup1\n  0x1f\n  add\n  0x20\n  dup1\n  swap2\n  div\n  mul\n  0x20\n  add\n  mload(0x40)\n  swap1\n  dup2\n  add\n  0x40\n  mstore\n  dup1\n  swap3\n  swap2\n  swap1\n  dup2\n  dup2\n  mstore\n  0x20\n  add\n  dup3\n  dup1\n  sload\n  tag_16\n  swap1\n  tag_15\n  jump\t// in\ntag_16:\n  dup1\n  iszero\n  tag_17\n  jumpi\n  dup1\n  0x1f\n  lt\n  tag_18\n  jumpi\n  0x0100\n  dup1\n  dup4\n  sload\n  div\n  mul\n  dup4\n  mstore\n  swap2\n  0x20\n  add\n  swap2\n  jump(tag_17)\ntag_18:\n  dup3\n  add\n  swap2\n  swap1\n  0x00\n  mstore\n  keccak256(0x00, 0x20)\n  swap1\ntag_19:\n  dup2\n  sload\n  dup2\n  mstore\n  swap1\n  0x01\n  add\n  swap1\n  0x20\n  add\n  dup1\n  dup4\n  gt\n  tag_19\n  jumpi\n  dup3\n  swap1\n  sub\n  0x1f\n  and\n  dup3\n  add\n  swap2\ntag_17:\n  pop\n  pop\n  pop\n  pop\n  pop\n    /* \"contracts/Lesson_4.sol\":598:606  makeHash */\n  shl(0x20, tag_20)\n    /* \"contracts/Lesson_4.sol\":598:623  makeHash(transactions[i]) */\n  0x20\n  shr\n  jump\t// in\ntag_9:\n    /* \"contracts/Lesson_4.sol\":586:624  hashes.push(makeHash(transactions[i])) */\n  swap1\n  dup1\n  0x01\n  dup2\n  sload\n  add\n  dup1\n  dup3\n  sstore\n  dup1\n  swap2\n  pop\n  pop\n  0x01\n  swap1\n  sub\n  swap1\n  0x00\n  mstore\n  keccak256(0x00, 0x20)\n  add\n  0x00\n  swap1\n  swap2\n  swap1\n  swap2\n  swap1\n  swap2\n  pop\n  sstore\n    /* \"contracts/Lesson_4.sol\":557:560  i++ */\n  dup1\n  dup1\n  tag_22\n  swap1\n  tag_23\n  jump\t// in\ntag_22:\n  swap2\n  pop\n  pop\n    /* \"contracts/Lesson_4.sol\":516:636  for(uint i = 0; i < transactions.length; i++)... */\n  jump(tag_6)\ntag_7:\n  pop\n    /* \"contracts/Lesson_4.sol\":648:658  uint count */\n  0x00\n    /* \"contracts/Lesson_4.sol\":661:680  transactions.length */\n  0x04\n    /* \"contracts/Lesson_4.sol\":648:680  uint count = transactions.length */\n  swap1\n  pop\n    /* \"contracts/Lesson_4.sol\":691:702  uint offset */\n  0x00\n    /* \"contracts/Lesson_4.sol\":719:1111  while(count > 0)... */\ntag_24:\n    /* \"contracts/Lesson_4.sol\":733:734  0 */\n  0x00\n    /* \"contracts/Lesson_4.sol\":725:730  count */\n  dup3\n    /* \"contracts/Lesson_4.sol\":725:734  count > 0 */\n  gt\n    /* \"contracts/Lesson_4.sol\":719:1111  while(count > 0)... */\n  iszero\n  tag_25\n  jumpi\n    /* \"contracts/Lesson_4.sol\":765:771  uint i */\n  0x00\n    /* \"contracts/Lesson_4.sol\":760:1043  for (uint i = 0; i < count - 1; i += 2)... */\ntag_26:\n    /* \"contracts/Lesson_4.sol\":789:790  1 */\n  0x01\n    /* \"contracts/Lesson_4.sol\":781:786  count */\n  dup4\n    /* \"contracts/Lesson_4.sol\":781:790  count - 1 */\n  tag_29\n  swap2\n  swap1\n  tag_30\n  jump\t// in\ntag_29:\n    /* \"contracts/Lesson_4.sol\":777:778  i */\n  dup2\n    /* \"contracts/Lesson_4.sol\":777:790  i < count - 1 */\n  lt\n    /* \"contracts/Lesson_4.sol\":760:1043  for (uint i = 0; i < count - 1; i += 2)... */\n  iszero\n  tag_27\n  jumpi\n    /* \"contracts/Lesson_4.sol\":832:838  hashes */\n  0x00\n    /* \"contracts/Lesson_4.sol\":920:926  hashes */\n  dup1\n    /* \"contracts/Lesson_4.sol\":936:937  i */\n  dup3\n    /* \"contracts/Lesson_4.sol\":927:933  offset */\n  dup5\n    /* \"contracts/Lesson_4.sol\":927:937  offset + i */\n  tag_31\n  swap2\n  swap1\n  tag_32\n  jump\t// in\ntag_31:\n    /* \"contracts/Lesson_4.sol\":920:938  hashes[offset + i] */\n  dup2\n  sload\n  dup2\n  lt\n  tag_33\n  jumpi\n  tag_34\n  tag_12\n  jump\t// in\ntag_34:\ntag_33:\n  swap1\n  0x00\n  mstore\n  keccak256(0x00, 0x20)\n  add\n  sload\n    /* \"contracts/Lesson_4.sol\":940:946  hashes */\n  0x00\n    /* \"contracts/Lesson_4.sol\":960:961  1 */\n  0x01\n    /* \"contracts/Lesson_4.sol\":956:957  i */\n  dup5\n    /* \"contracts/Lesson_4.sol\":947:953  offset */\n  dup7\n    /* \"contracts/Lesson_4.sol\":947:957  offset + i */\n  tag_36\n  swap2\n  swap1\n  tag_32\n  jump\t// in\ntag_36:\n    /* \"contracts/Lesson_4.sol\":947:961  offset + i + 1 */\n  tag_37\n  swap2\n  swap1\n  tag_32\n  jump\t// in\ntag_37:\n    /* \"contracts/Lesson_4.sol\":940:962  hashes[offset + i + 1] */\n  dup2\n  sload\n  dup2\n  lt\n  tag_38\n  jumpi\n  tag_39\n  tag_12\n  jump\t// in\ntag_39:\ntag_38:\n  swap1\n  0x00\n  mstore\n  keccak256(0x00, 0x20)\n  add\n  sload\n    /* \"contracts/Lesson_4.sol\":876:985  abi.encodePacked(... */\n  add(0x20, mload(0x40))\n  tag_41\n  swap3\n  swap2\n  swap1\n  tag_42\n  jump\t// in\ntag_41:\n  mload(0x40)\n  0x20\n  dup2\n  dup4\n  sub\n  sub\n  dup2\n  mstore\n  swap1\n  0x40\n  mstore\n    /* \"contracts/Lesson_4.sol\":844:1008  keccak256(... */\n  dup1\n  mload\n  swap1\n  0x20\n  add\n  keccak256\n    /* \"contracts/Lesson_4.sol\":832:1027  hashes.push(keccak256(... */\n  swap1\n  dup1\n  0x01\n  dup2\n  sload\n  add\n  dup1\n  dup3\n  sstore\n  dup1\n  swap2\n  pop\n  pop\n  0x01\n  swap1\n  sub\n  swap1\n  0x00\n  mstore\n  keccak256(0x00, 0x20)\n  add\n  0x00\n  swap1\n  swap2\n  swap1\n  swap2\n  swap1\n  swap2\n  pop\n  sstore\n    /* \"contracts/Lesson_4.sol\":797:798  2 */\n  0x02\n    /* \"contracts/Lesson_4.sol\":792:798  i += 2 */\n  dup2\n  tag_44\n  swap2\n  swap1\n  tag_32\n  jump\t// in\ntag_44:\n  swap1\n  pop\n    /* \"contracts/Lesson_4.sol\":760:1043  for (uint i = 0; i < count - 1; i += 2)... */\n  jump(tag_26)\ntag_27:\n  pop\n    /* \"contracts/Lesson_4.sol\":1069:1074  count */\n  dup2\n    /* \"contracts/Lesson_4.sol\":1059:1074  offset += count */\n  dup2\n  tag_45\n  swap2\n  swap1\n  tag_32\n  jump\t// in\ntag_45:\n  swap1\n  pop\n    /* \"contracts/Lesson_4.sol\":1098:1099  2 */\n  0x02\n    /* \"contracts/Lesson_4.sol\":1089:1099  count /= 2 */\n  dup3\n  tag_46\n  swap2\n  swap1\n  tag_47\n  jump\t// in\ntag_46:\n  swap2\n  pop\n    /* \"contracts/Lesson_4.sol\":719:1111  while(count > 0)... */\n  jump(tag_24)\ntag_25:\n    /* \"contracts/Lesson_4.sol\":408:1118  {... */\n  pop\n  pop\n    /* \"contracts/Lesson_4.sol\":78:1409  contract MerkleTree... */\n  jump(tag_48)\n    /* \"contracts/Lesson_4.sol\":1259:1406  function makeHash(string memory input) public pure returns(bytes32)... */\ntag_20:\n    /* \"contracts/Lesson_4.sol\":1318:1325  bytes32 */\n  0x00\n    /* \"contracts/Lesson_4.sol\":1374:1387  encode(input) */\n  tag_50\n    /* \"contracts/Lesson_4.sol\":1381:1386  input */\n  dup3\n    /* \"contracts/Lesson_4.sol\":1374:1380  encode */\n  shl(0x20, tag_51)\n    /* \"contracts/Lesson_4.sol\":1374:1387  encode(input) */\n  0x20\n  shr\n  jump\t// in\ntag_50:\n    /* \"contracts/Lesson_4.sol\":1350:1398  keccak256(... */\n  dup1\n  mload\n  swap1\n  0x20\n  add\n  keccak256\n    /* \"contracts/Lesson_4.sol\":1343:1398  return keccak256(... */\n  swap1\n  pop\n    /* \"contracts/Lesson_4.sol\":1259:1406  function makeHash(string memory input) public pure returns(bytes32)... */\n  swap2\n  swap1\n  pop\n  jump\t// out\n    /* \"contracts/Lesson_4.sol\":1126:1251  function encode(string memory input) public pure returns(bytes memory)... */\ntag_51:\n    /* \"contracts/Lesson_4.sol\":1183:1195  bytes memory */\n  0x60\n    /* \"contracts/Lesson_4.sol\":1237:1242  input */\n  dup2\n    /* \"contracts/Lesson_4.sol\":1220:1243  abi.encodePacked(input) */\n  add(0x20, mload(0x40))\n  tag_53\n  swap2\n  swap1\n  tag_54\n  jump\t// in\ntag_53:\n  mload(0x40)\n  0x20\n  dup2\n  dup4\n  sub\n  sub\n  dup2\n  mstore\n  swap1\n  0x40\n  mstore\n    /* \"contracts/Lesson_4.sol\":1213:1243  return abi.encodePacked(input) */\n  swap1\n  pop\n    /* \"contracts/Lesson_4.sol\":1126:1251  function encode(string memory input) public pure returns(bytes memory)... */\n  swap2\n  swap1\n  pop\n  jump\t// out\n    /* \"contracts/Lesson_4.sol\":78:1409  contract MerkleTree... */\ntag_2:\n  dup3\n  0x04\n  dup2\n  add\n  swap3\n  dup3\n  iszero\n  tag_55\n  jumpi\n  swap2\n  0x20\n  mul\n  dup3\n  add\ntag_56:\n  dup3\n  dup2\n  gt\n  iszero\n  tag_57\n  jumpi\n  dup3\n  mload\n  dup3\n  swap1\n  dup2\n  tag_58\n  swap2\n  swap1\n  tag_59\n  jump\t// in\ntag_58:\n  pop\n  swap2\n  0x20\n  add\n  swap2\n  swap1\n  0x01\n  add\n  swap1\n  jump(tag_56)\ntag_57:\ntag_55:\n  pop\n  swap1\n  pop\n  tag_60\n  swap2\n  swap1\n  tag_61\n  jump\t// in\ntag_60:\n  pop\n  swap1\n  jump\t// out\ntag_61:\ntag_62:\n  dup1\n  dup3\n  gt\n  iszero\n  tag_63\n  jumpi\n  0x00\n  dup2\n  dup2\n  tag_64\n  swap2\n  swap1\n  tag_65\n  jump\t// in\ntag_64:\n  pop\n  0x01\n  add\n  jump(tag_62)\ntag_63:\n  pop\n  swap1\n  jump\t// out\ntag_65:\n  pop\n  dup1\n  sload\n  tag_66\n  swap1\n  tag_15\n  jump\t// in\ntag_66:\n  0x00\n  dup3\n  sstore\n  dup1\n  0x1f\n  lt\n  tag_68\n  jumpi\n  pop\n  jump(tag_67)\ntag_68:\n  0x1f\n  add\n  0x20\n  swap1\n  div\n  swap1\n  0x00\n  mstore\n  keccak256(0x00, 0x20)\n  swap1\n  dup2\n  add\n  swap1\n  tag_69\n  swap2\n  swap1\n  tag_70\n  jump\t// in\ntag_69:\ntag_67:\n  pop\n  jump\t// out\ntag_70:\ntag_71:\n  dup1\n  dup3\n  gt\n  iszero\n  tag_72\n  jumpi\n  0x00\n  dup2\n  0x00\n  swap1\n  sstore\n  pop\n  0x01\n  add\n  jump(tag_71)\ntag_72:\n  pop\n  swap1\n  jump\t// out\n    /* \"#utility.yul\":7:187   */\ntag_12:\n    /* \"#utility.yul\":55:132   */\n  0x4e487b7100000000000000000000000000000000000000000000000000000000\n    /* \"#utility.yul\":52:53   */\n  0x00\n    /* \"#utility.yul\":45:133   */\n  mstore\n    /* \"#utility.yul\":152:156   */\n  0x32\n    /* \"#utility.yul\":149:150   */\n  0x04\n    /* \"#utility.yul\":142:157   */\n  mstore\n    /* \"#utility.yul\":176:180   */\n  0x24\n    /* \"#utility.yul\":173:174   */\n  0x00\n    /* \"#utility.yul\":166:181   */\n  revert\n    /* \"#utility.yul\":193:373   */\ntag_73:\n    /* \"#utility.yul\":241:318   */\n  0x4e487b7100000000000000000000000000000000000000000000000000000000\n    /* \"#utility.yul\":238:239   */\n  0x00\n    /* \"#utility.yul\":231:319   */\n  mstore\n    /* \"#utility.yul\":338:342   */\n  0x22\n    /* \"#utility.yul\":335:336   */\n  0x04\n    /* \"#utility.yul\":328:343   */\n  mstore\n    /* \"#utility.yul\":362:366   */\n  0x24\n    /* \"#utility.yul\":359:360   */\n  0x00\n    /* \"#utility.yul\":352:367   */\n  revert\n    /* \"#utility.yul\":379:699   */\ntag_15:\n    /* \"#utility.yul\":423:429   */\n  0x00\n    /* \"#utility.yul\":460:461   */\n  0x02\n    /* \"#utility.yul\":454:458   */\n  dup3\n    /* \"#utility.yul\":450:462   */\n  div\n    /* \"#utility.yul\":440:462   */\n  swap1\n  pop\n    /* \"#utility.yul\":507:508   */\n  0x01\n    /* \"#utility.yul\":501:505   */\n  dup3\n    /* \"#utility.yul\":497:509   */\n  and\n    /* \"#utility.yul\":528:546   */\n  dup1\n    /* \"#utility.yul\":518:599   */\n  tag_104\n  jumpi\n    /* \"#utility.yul\":584:588   */\n  0x7f\n    /* \"#utility.yul\":576:582   */\n  dup3\n    /* \"#utility.yul\":572:589   */\n  and\n    /* \"#utility.yul\":562:589   */\n  swap2\n  pop\n    /* \"#utility.yul\":518:599   */\ntag_104:\n    /* \"#utility.yul\":646:648   */\n  0x20\n    /* \"#utility.yul\":638:644   */\n  dup3\n    /* \"#utility.yul\":635:649   */\n  lt\n    /* \"#utility.yul\":615:633   */\n  dup2\n    /* \"#utility.yul\":612:650   */\n  sub\n    /* \"#utility.yul\":609:693   */\n  tag_105\n  jumpi\n    /* \"#utility.yul\":665:683   */\n  tag_106\n  tag_73\n  jump\t// in\ntag_106:\n    /* \"#utility.yul\":609:693   */\ntag_105:\n    /* \"#utility.yul\":430:699   */\n  pop\n    /* \"#utility.yul\":379:699   */\n  swap2\n  swap1\n  pop\n  jump\t// out\n    /* \"#utility.yul\":705:885   */\ntag_74:\n    /* \"#utility.yul\":753:830   */\n  0x4e487b7100000000000000000000000000000000000000000000000000000000\n    /* \"#utility.yul\":750:751   */\n  0x00\n    /* \"#utility.yul\":743:831   */\n  mstore\n    /* \"#utility.yul\":850:854   */\n  0x11\n    /* \"#utility.yul\":847:848   */\n  0x04\n    /* \"#utility.yul\":840:855   */\n  mstore\n    /* \"#utility.yul\":874:878   */\n  0x24\n    /* \"#utility.yul\":871:872   */\n  0x00\n    /* \"#utility.yul\":864:879   */\n  revert\n    /* \"#utility.yul\":891:968   */\ntag_75:\n    /* \"#utility.yul\":928:935   */\n  0x00\n    /* \"#utility.yul\":957:962   */\n  dup2\n    /* \"#utility.yul\":946:962   */\n  swap1\n  pop\n    /* \"#utility.yul\":891:968   */\n  swap2\n  swap1\n  pop\n  jump\t// out\n    /* \"#utility.yul\":974:1207   */\ntag_23:\n    /* \"#utility.yul\":1013:1016   */\n  0x00\n    /* \"#utility.yul\":1036:1060   */\n  tag_110\n    /* \"#utility.yul\":1054:1059   */\n  dup3\n    /* \"#utility.yul\":1036:1060   */\n  tag_75\n  jump\t// in\ntag_110:\n    /* \"#utility.yul\":1027:1060   */\n  swap2\n  pop\n    /* \"#utility.yul\":1082:1148   */\n  0xffffffffffffffffffffffffffffffffffffffffffffffffffffffffffffffff\n    /* \"#utility.yul\":1075:1080   */\n  dup3\n    /* \"#utility.yul\":1072:1149   */\n  sub\n    /* \"#utility.yul\":1069:1172   */\n  tag_111\n  jumpi\n    /* \"#utility.yul\":1152:1170   */\n  tag_112\n  tag_74\n  jump\t// in\ntag_112:\n    /* \"#utility.yul\":1069:1172   */\ntag_111:\n    /* \"#utility.yul\":1199:1200   */\n  0x01\n    /* \"#utility.yul\":1192:1197   */\n  dup3\n    /* \"#utility.yul\":1188:1201   */\n  add\n    /* \"#utility.yul\":1181:1201   */\n  swap1\n  pop\n    /* \"#utility.yul\":974:1207   */\n  swap2\n  swap1\n  pop\n  jump\t// out\n    /* \"#utility.yul\":1213:1407   */\ntag_30:\n    /* \"#utility.yul\":1253:1257   */\n  0x00\n    /* \"#utility.yul\":1273:1293   */\n  tag_114\n    /* \"#utility.yul\":1291:1292   */\n  dup3\n    /* \"#utility.yul\":1273:1293   */\n  tag_75\n  jump\t// in\ntag_114:\n    /* \"#utility.yul\":1268:1293   */\n  swap2\n  pop\n    /* \"#utility.yul\":1307:1327   */\n  tag_115\n    /* \"#utility.yul\":1325:1326   */\n  dup4\n    /* \"#utility.yul\":1307:1327   */\n  tag_75\n  jump\t// in\ntag_115:\n    /* \"#utility.yul\":1302:1327   */\n  swap3\n  pop\n    /* \"#utility.yul\":1351:1352   */\n  dup3\n    /* \"#utility.yul\":1348:1349   */\n  dup3\n    /* \"#utility.yul\":1344:1353   */\n  sub\n    /* \"#utility.yul\":1336:1353   */\n  swap1\n  pop\n    /* \"#utility.yul\":1375:1376   */\n  dup2\n    /* \"#utility.yul\":1369:1373   */\n  dup2\n    /* \"#utility.yul\":1366:1377   */\n  gt\n    /* \"#utility.yul\":1363:1400   */\n  iszero\n  tag_116\n  jumpi\n    /* \"#utility.yul\":1380:1398   */\n  tag_117\n  tag_74\n  jump\t// in\ntag_117:\n    /* \"#utility.yul\":1363:1400   */\ntag_116:\n    /* \"#utility.yul\":1213:1407   */\n  swap3\n  swap2\n  pop\n  pop\n  jump\t// out\n    /* \"#utility.yul\":1413:1604   */\ntag_32:\n    /* \"#utility.yul\":1453:1456   */\n  0x00\n    /* \"#utility.yul\":1472:1492   */\n  tag_119\n    /* \"#utility.yul\":1490:1491   */\n  dup3\n    /* \"#utility.yul\":1472:1492   */\n  tag_75\n  jump\t// in\ntag_119:\n    /* \"#utility.yul\":1467:1492   */\n  swap2\n  pop\n    /* \"#utility.yul\":1506:1526   */\n  tag_120\n    /* \"#utility.yul\":1524:1525   */\n  dup4\n    /* \"#utility.yul\":1506:1526   */\n  tag_75\n  jump\t// in\ntag_120:\n    /* \"#utility.yul\":1501:1526   */\n  swap3\n  pop\n    /* \"#utility.yul\":1549:1550   */\n  dup3\n    /* \"#utility.yul\":1546:1547   */\n  dup3\n    /* \"#utility.yul\":1542:1551   */\n  add\n    /* \"#utility.yul\":1535:1551   */\n  swap1\n  pop\n    /* \"#utility.yul\":1570:1573   */\n  dup1\n    /* \"#utility.yul\":1567:1568   */\n  dup3\n    /* \"#utility.yul\":1564:1574   */\n  gt\n    /* \"#utility.yul\":1561:1597   */\n  iszero\n  tag_121\n  jumpi\n    /* \"#utility.yul\":1577:1595   */\n  tag_122\n  tag_74\n  jump\t// in\ntag_122:\n    /* \"#utility.yul\":1561:1597   */\ntag_121:\n    /* \"#utility.yul\":1413:1604   */\n  swap3\n  swap2\n  pop\n  pop\n  jump\t// out\n    /* \"#utility.yul\":1610:1687   */\ntag_76:\n    /* \"#utility.yul\":1647:1654   */\n  0x00\n    /* \"#utility.yul\":1676:1681   */\n  dup2\n    /* \"#utility.yul\":1665:1681   */\n  swap1\n  pop\n    /* \"#utility.yul\":1610:1687   */\n  swap2\n  swap1\n  pop\n  jump\t// out\n    /* \"#utility.yul\":1693:1772   */\ntag_77:\n    /* \"#utility.yul\":1732:1739   */\n  0x00\n    /* \"#utility.yul\":1761:1766   */\n  dup2\n    /* \"#utility.yul\":1750:1766   */\n  swap1\n  pop\n    /* \"#utility.yul\":1693:1772   */\n  swap2\n  swap1\n  pop\n  jump\t// out\n    /* \"#utility.yul\":1778:1935   */\ntag_78:\n    /* \"#utility.yul\":1883:1928   */\n  tag_126\n    /* \"#utility.yul\":1903:1927   */\n  tag_127\n    /* \"#utility.yul\":1921:1926   */\n  dup3\n    /* \"#utility.yul\":1903:1927   */\n  tag_76\n  jump\t// in\ntag_127:\n    /* \"#utility.yul\":1883:1928   */\n  tag_77\n  jump\t// in\ntag_126:\n    /* \"#utility.yul\":1878:1881   */\n  dup3\n    /* \"#utility.yul\":1871:1929   */\n  mstore\n    /* \"#utility.yul\":1778:1935   */\n  pop\n  pop\n  jump\t// out\n    /* \"#utility.yul\":1941:2338   */\ntag_42:\n    /* \"#utility.yul\":2081:2084   */\n  0x00\n    /* \"#utility.yul\":2096:2171   */\n  tag_129\n    /* \"#utility.yul\":2167:2170   */\n  dup3\n    /* \"#utility.yul\":2158:2164   */\n  dup6\n    /* \"#utility.yul\":2096:2171   */\n  tag_78\n  jump\t// in\ntag_129:\n    /* \"#utility.yul\":2196:2198   */\n  0x20\n    /* \"#utility.yul\":2191:2194   */\n  dup3\n    /* \"#utility.yul\":2187:2199   */\n  add\n    /* \"#utility.yul\":2180:2199   */\n  swap2\n  pop\n    /* \"#utility.yul\":2209:2284   */\n  tag_130\n    /* \"#utility.yul\":2280:2283   */\n  dup3\n    /* \"#utility.yul\":2271:2277   */\n  dup5\n    /* \"#utility.yul\":2209:2284   */\n  tag_78\n  jump\t// in\ntag_130:\n    /* \"#utility.yul\":2309:2311   */\n  0x20\n    /* \"#utility.yul\":2304:2307   */\n  dup3\n    /* \"#utility.yul\":2300:2312   */\n  add\n    /* \"#utility.yul\":2293:2312   */\n  swap2\n  pop\n    /* \"#utility.yul\":2329:2332   */\n  dup2\n    /* \"#utility.yul\":2322:2332   */\n  swap1\n  pop\n    /* \"#utility.yul\":1941:2338   */\n  swap4\n  swap3\n  pop\n  pop\n  pop\n  jump\t// out\n    /* \"#utility.yul\":2344:2524   */\ntag_79:\n    /* \"#utility.yul\":2392:2469   */\n  0x4e487b7100000000000000000000000000000000000000000000000000000000\n    /* \"#utility.yul\":2389:2390   */\n  0x00\n    /* \"#utility.yul\":2382:2470   */\n  mstore\n    /* \"#utility.yul\":2489:2493   */\n  0x12\n    /* \"#utility.yul\":2486:2487   */\n  0x04\n    /* \"#utility.yul\":2479:2494   */\n  mstore\n    /* \"#utility.yul\":2513:2517   */\n  0x24\n    /* \"#utility.yul\":2510:2511   */\n  0x00\n    /* \"#utility.yul\":2503:2518   */\n  revert\n    /* \"#utility.yul\":2530:2715   */\ntag_47:\n    /* \"#utility.yul\":2570:2571   */\n  0x00\n    /* \"#utility.yul\":2587:2607   */\n  tag_133\n    /* \"#utility.yul\":2605:2606   */\n  dup3\n    /* \"#utility.yul\":2587:2607   */\n  tag_75\n  jump\t// in\ntag_133:\n    /* \"#utility.yul\":2582:2607   */\n  swap2\n  pop\n    /* \"#utility.yul\":2621:2641   */\n  tag_134\n    /* \"#utility.yul\":2639:2640   */\n  dup4\n    /* \"#utility.yul\":2621:2641   */\n  tag_75\n  jump\t// in\ntag_134:\n    /* \"#utility.yul\":2616:2641   */\n  swap3\n  pop\n    /* \"#utility.yul\":2660:2661   */\n  dup3\n    /* \"#utility.yul\":2650:2685   */\n  tag_135\n  jumpi\n    /* \"#utility.yul\":2665:2683   */\n  tag_136\n  tag_79\n  jump\t// in\ntag_136:\n    /* \"#utility.yul\":2650:2685   */\ntag_135:\n    /* \"#utility.yul\":2707:2708   */\n  dup3\n    /* \"#utility.yul\":2704:2705   */\n  dup3\n    /* \"#utility.yul\":2700:2709   */\n  div\n    /* \"#utility.yul\":2695:2709   */\n  swap1\n  pop\n    /* \"#utility.yul\":2530:2715   */\n  swap3\n  swap2\n  pop\n  pop\n  jump\t// out\n    /* \"#utility.yul\":2721:2820   */\ntag_80:\n    /* \"#utility.yul\":2773:2779   */\n  0x00\n    /* \"#utility.yul\":2807:2812   */\n  dup2\n    /* \"#utility.yul\":2801:2813   */\n  mload\n    /* \"#utility.yul\":2791:2813   */\n  swap1\n  pop\n    /* \"#utility.yul\":2721:2820   */\n  swap2\n  swap1\n  pop\n  jump\t// out\n    /* \"#utility.yul\":2826:2974   */\ntag_81:\n    /* \"#utility.yul\":2928:2939   */\n  0x00\n    /* \"#utility.yul\":2965:2968   */\n  dup2\n    /* \"#utility.yul\":2950:2968   */\n  swap1\n  pop\n    /* \"#utility.yul\":2826:2974   */\n  swap3\n  swap2\n  pop\n  pop\n  jump\t// out\n    /* \"#utility.yul\":2980:3226   */\ntag_82:\n    /* \"#utility.yul\":3061:3062   */\n  0x00\n    /* \"#utility.yul\":3071:3184   */\ntag_140:\n    /* \"#utility.yul\":3085:3091   */\n  dup4\n    /* \"#utility.yul\":3082:3083   */\n  dup2\n    /* \"#utility.yul\":3079:3092   */\n  lt\n    /* \"#utility.yul\":3071:3184   */\n  iszero\n  tag_142\n  jumpi\n    /* \"#utility.yul\":3170:3171   */\n  dup1\n    /* \"#utility.yul\":3165:3168   */\n  dup3\n    /* \"#utility.yul\":3161:3172   */\n  add\n    /* \"#utility.yul\":3155:3173   */\n  mload\n    /* \"#utility.yul\":3151:3152   */\n  dup2\n    /* \"#utility.yul\":3146:3149   */\n  dup5\n    /* \"#utility.yul\":3142:3153   */\n  add\n    /* \"#utility.yul\":3135:3174   */\n  mstore\n    /* \"#utility.yul\":3107:3109   */\n  0x20\n    /* \"#utility.yul\":3104:3105   */\n  dup2\n    /* \"#utility.yul\":3100:3110   */\n  add\n    /* \"#utility.yul\":3095:3110   */\n  swap1\n  pop\n    /* \"#utility.yul\":3071:3184   */\n  jump(tag_140)\ntag_142:\n    /* \"#utility.yul\":3218:3219   */\n  0x00\n    /* \"#utility.yul\":3209:3215   */\n  dup5\n    /* \"#utility.yul\":3204:3207   */\n  dup5\n    /* \"#utility.yul\":3200:3216   */\n  add\n    /* \"#utility.yul\":3193:3220   */\n  mstore\n    /* \"#utility.yul\":3042:3226   */\n  pop\n    /* \"#utility.yul\":2980:3226   */\n  pop\n  pop\n  pop\n  jump\t// out\n    /* \"#utility.yul\":3232:3622   */\ntag_83:\n    /* \"#utility.yul\":3338:3341   */\n  0x00\n    /* \"#utility.yul\":3366:3405   */\n  tag_144\n    /* \"#utility.yul\":3399:3404   */\n  dup3\n    /* \"#utility.yul\":3366:3405   */\n  tag_80\n  jump\t// in\ntag_144:\n    /* \"#utility.yul\":3421:3510   */\n  tag_145\n    /* \"#utility.yul\":3503:3509   */\n  dup2\n    /* \"#utility.yul\":3498:3501   */\n  dup6\n    /* \"#utility.yul\":3421:3510   */\n  tag_81\n  jump\t// in\ntag_145:\n    /* \"#utility.yul\":3414:3510   */\n  swap4\n  pop\n    /* \"#utility.yul\":3519:3584   */\n  tag_146\n    /* \"#utility.yul\":3577:3583   */\n  dup2\n    /* \"#utility.yul\":3572:3575   */\n  dup6\n    /* \"#utility.yul\":3565:3569   */\n  0x20\n    /* \"#utility.yul\":3558:3563   */\n  dup7\n    /* \"#utility.yul\":3554:3570   */\n  add\n    /* \"#utility.yul\":3519:3584   */\n  tag_82\n  jump\t// in\ntag_146:\n    /* \"#utility.yul\":3609:3615   */\n  dup1\n    /* \"#utility.yul\":3604:3607   */\n  dup5\n    /* \"#utility.yul\":3600:3616   */\n  add\n    /* \"#utility.yul\":3593:3616   */\n  swap2\n  pop\n    /* \"#utility.yul\":3342:3622   */\n  pop\n    /* \"#utility.yul\":3232:3622   */\n  swap3\n  swap2\n  pop\n  pop\n  jump\t// out\n    /* \"#utility.yul\":3628:3903   */\ntag_54:\n    /* \"#utility.yul\":3760:3763   */\n  0x00\n    /* \"#utility.yul\":3782:3877   */\n  tag_148\n    /* \"#utility.yul\":3873:3876   */\n  dup3\n    /* \"#utility.yul\":3864:3870   */\n  dup5\n    /* \"#utility.yul\":3782:3877   */\n  tag_83\n  jump\t// in\ntag_148:\n    /* \"#utility.yul\":3775:3877   */\n  swap2\n  pop\n    /* \"#utility.yul\":3894:3897   */\n  dup2\n    /* \"#utility.yul\":3887:3897   */\n  swap1\n  pop\n    /* \"#utility.yul\":3628:3903   */\n  swap3\n  swap2\n  pop\n  pop\n  jump\t// out\n    /* \"#utility.yul\":3909:4089   */\ntag_84:\n    /* \"#utility.yul\":3957:4034   */\n  0x4e487b7100000000000000000000000000000000000000000000000000000000\n    /* \"#utility.yul\":3954:3955   */\n  0x00\n    /* \"#utility.yul\":3947:4035   */\n  mstore\n    /* \"#utility.yul\":4054:4058   */\n  0x41\n    /* \"#utility.yul\":4051:4052   */\n  0x04\n    /* \"#utility.yul\":4044:4059   */\n  mstore\n    /* \"#utility.yul\":4078:4082   */\n  0x24\n    /* \"#utility.yul\":4075:4076   */\n  0x00\n    /* \"#utility.yul\":4068:4083   */\n  revert\n    /* \"#utility.yul\":4095:4236   */\ntag_85:\n    /* \"#utility.yul\":4144:4148   */\n  0x00\n    /* \"#utility.yul\":4167:4170   */\n  dup2\n    /* \"#utility.yul\":4159:4170   */\n  swap1\n  pop\n    /* \"#utility.yul\":4190:4193   */\n  dup2\n    /* \"#utility.yul\":4187:4188   */\n  0x00\n    /* \"#utility.yul\":4180:4194   */\n  mstore\n    /* \"#utility.yul\":4224:4228   */\n  0x20\n    /* \"#utility.yul\":4221:4222   */\n  0x00\n    /* \"#utility.yul\":4211:4229   */\n  keccak256\n    /* \"#utility.yul\":4203:4229   */\n  swap1\n  pop\n    /* \"#utility.yul\":4095:4236   */\n  swap2\n  swap1\n  pop\n  jump\t// out\n    /* \"#utility.yul\":4242:4335   */\ntag_86:\n    /* \"#utility.yul\":4279:4285   */\n  0x00\n    /* \"#utility.yul\":4326:4328   */\n  0x20\n    /* \"#utility.yul\":4321:4323   */\n  0x1f\n    /* \"#utility.yul\":4314:4319   */\n  dup4\n    /* \"#utility.yul\":4310:4324   */\n  add\n    /* \"#utility.yul\":4306:4329   */\n  div\n    /* \"#utility.yul\":4296:4329   */\n  swap1\n  pop\n    /* \"#utility.yul\":4242:4335   */\n  swap2\n  swap1\n  pop\n  jump\t// out\n    /* \"#utility.yul\":4341:4448   */\ntag_87:\n    /* \"#utility.yul\":4385:4393   */\n  0x00\n    /* \"#utility.yul\":4435:4440   */\n  dup3\n    /* \"#utility.yul\":4429:4433   */\n  dup3\n    /* \"#utility.yul\":4425:4441   */\n  shl\n    /* \"#utility.yul\":4404:4441   */\n  swap1\n  pop\n    /* \"#utility.yul\":4341:4448   */\n  swap3\n  swap2\n  pop\n  pop\n  jump\t// out\n    /* \"#utility.yul\":4454:4847   */\ntag_88:\n    /* \"#utility.yul\":4523:4529   */\n  0x00\n    /* \"#utility.yul\":4573:4574   */\n  0x08\n    /* \"#utility.yul\":4561:4571   */\n  dup4\n    /* \"#utility.yul\":4557:4575   */\n  mul\n    /* \"#utility.yul\":4596:4693   */\n  tag_154\n    /* \"#utility.yul\":4626:4692   */\n  0xffffffffffffffffffffffffffffffffffffffffffffffffffffffffffffffff\n    /* \"#utility.yul\":4615:4624   */\n  dup3\n    /* \"#utility.yul\":4596:4693   */\n  tag_87\n  jump\t// in\ntag_154:\n    /* \"#utility.yul\":4714:4753   */\n  tag_155\n    /* \"#utility.yul\":4744:4752   */\n  dup7\n    /* \"#utility.yul\":4733:4742   */\n  dup4\n    /* \"#utility.yul\":4714:4753   */\n  tag_87\n  jump\t// in\ntag_155:\n    /* \"#utility.yul\":4702:4753   */\n  swap6\n  pop\n    /* \"#utility.yul\":4786:4790   */\n  dup1\n    /* \"#utility.yul\":4782:4791   */\n  not\n    /* \"#utility.yul\":4775:4780   */\n  dup5\n    /* \"#utility.yul\":4771:4792   */\n  and\n    /* \"#utility.yul\":4762:4792   */\n  swap4\n  pop\n    /* \"#utility.yul\":4835:4839   */\n  dup1\n    /* \"#utility.yul\":4825:4833   */\n  dup7\n    /* \"#utility.yul\":4821:4840   */\n  and\n    /* \"#utility.yul\":4814:4819   */\n  dup5\n    /* \"#utility.yul\":4811:4841   */\n  or\n    /* \"#utility.yul\":4801:4841   */\n  swap3\n  pop\n    /* \"#utility.yul\":4530:4847   */\n  pop\n  pop\n    /* \"#utility.yul\":4454:4847   */\n  swap4\n  swap3\n  pop\n  pop\n  pop\n  jump\t// out\n    /* \"#utility.yul\":4853:4913   */\ntag_89:\n    /* \"#utility.yul\":4881:4884   */\n  0x00\n    /* \"#utility.yul\":4902:4907   */\n  dup2\n    /* \"#utility.yul\":4895:4907   */\n  swap1\n  pop\n    /* \"#utility.yul\":4853:4913   */\n  swap2\n  swap1\n  pop\n  jump\t// out\n    /* \"#utility.yul\":4919:5061   */\ntag_90:\n    /* \"#utility.yul\":4969:4978   */\n  0x00\n    /* \"#utility.yul\":5002:5055   */\n  tag_158\n    /* \"#utility.yul\":5020:5054   */\n  tag_159\n    /* \"#utility.yul\":5029:5053   */\n  tag_160\n    /* \"#utility.yul\":5047:5052   */\n  dup5\n    /* \"#utility.yul\":5029:5053   */\n  tag_75\n  jump\t// in\ntag_160:\n    /* \"#utility.yul\":5020:5054   */\n  tag_89\n  jump\t// in\ntag_159:\n    /* \"#utility.yul\":5002:5055   */\n  tag_75\n  jump\t// in\ntag_158:\n    /* \"#utility.yul\":4989:5055   */\n  swap1\n  pop\n    /* \"#utility.yul\":4919:5061   */\n  swap2\n  swap1\n  pop\n  jump\t// out\n    /* \"#utility.yul\":5067:5142   */\ntag_91:\n    /* \"#utility.yul\":5110:5113   */\n  0x00\n    /* \"#utility.yul\":5131:5136   */\n  dup2\n    /* \"#utility.yul\":5124:5136   */\n  swap1\n  pop\n    /* \"#utility.yul\":5067:5142   */\n  swap2\n  swap1\n  pop\n  jump\t// out\n    /* \"#utility.yul\":5148:5417   */\ntag_92:\n    /* \"#utility.yul\":5258:5297   */\n  tag_163\n    /* \"#utility.yul\":5289:5296   */\n  dup4\n    /* \"#utility.yul\":5258:5297   */\n  tag_90\n  jump\t// in\ntag_163:\n    /* \"#utility.yul\":5319:5410   */\n  tag_164\n    /* \"#utility.yul\":5368:5409   */\n  tag_165\n    /* \"#utility.yul\":5392:5408   */\n  dup3\n    /* \"#utility.yul\":5368:5409   */\n  tag_91\n  jump\t// in\ntag_165:\n    /* \"#utility.yul\":5360:5366   */\n  dup5\n    /* \"#utility.yul\":5353:5357   */\n  dup5\n    /* \"#utility.yul\":5347:5358   */\n  sload\n    /* \"#utility.yul\":5319:5410   */\n  tag_88\n  jump\t// in\ntag_164:\n    /* \"#utility.yul\":5313:5317   */\n  dup3\n    /* \"#utility.yul\":5306:5411   */\n  sstore\n    /* \"#utility.yul\":5224:5417   */\n  pop\n    /* \"#utility.yul\":5148:5417   */\n  pop\n  pop\n  pop\n  jump\t// out\n    /* \"#utility.yul\":5423:5496   */\ntag_93:\n    /* \"#utility.yul\":5468:5471   */\n  0x00\n    /* \"#utility.yul\":5423:5496   */\n  swap1\n  jump\t// out\n    /* \"#utility.yul\":5502:5691   */\ntag_94:\n    /* \"#utility.yul\":5579:5611   */\n  tag_168\n  tag_93\n  jump\t// in\ntag_168:\n    /* \"#utility.yul\":5620:5685   */\n  tag_169\n    /* \"#utility.yul\":5678:5684   */\n  dup2\n    /* \"#utility.yul\":5670:5676   */\n  dup5\n    /* \"#utility.yul\":5664:5668   */\n  dup5\n    /* \"#utility.yul\":5620:5685   */\n  tag_92\n  jump\t// in\ntag_169:\n    /* \"#utility.yul\":5555:5691   */\n  pop\n    /* \"#utility.yul\":5502:5691   */\n  pop\n  pop\n  jump\t// out\n    /* \"#utility.yul\":5697:5883   */\ntag_95:\n    /* \"#utility.yul\":5757:5877   */\ntag_171:\n    /* \"#utility.yul\":5774:5777   */\n  dup2\n    /* \"#utility.yul\":5767:5772   */\n  dup2\n    /* \"#utility.yul\":5764:5778   */\n  lt\n    /* \"#utility.yul\":5757:5877   */\n  iszero\n  tag_173\n  jumpi\n    /* \"#utility.yul\":5828:5867   */\n  tag_174\n    /* \"#utility.yul\":5865:5866   */\n  0x00\n    /* \"#utility.yul\":5858:5863   */\n  dup3\n    /* \"#utility.yul\":5828:5867   */\n  tag_94\n  jump\t// in\ntag_174:\n    /* \"#utility.yul\":5801:5802   */\n  0x01\n    /* \"#utility.yul\":5794:5799   */\n  dup2\n    /* \"#utility.yul\":5790:5803   */\n  add\n    /* \"#utility.yul\":5781:5803   */\n  swap1\n  pop\n    /* \"#utility.yul\":5757:5877   */\n  jump(tag_171)\ntag_173:\n    /* \"#utility.yul\":5697:5883   */\n  pop\n  pop\n  jump\t// out\n    /* \"#utility.yul\":5889:6432   */\ntag_96:\n    /* \"#utility.yul\":5990:5992   */\n  0x1f\n    /* \"#utility.yul\":5985:5988   */\n  dup3\n    /* \"#utility.yul\":5982:5993   */\n  gt\n    /* \"#utility.yul\":5979:6425   */\n  iszero\n  tag_176\n  jumpi\n    /* \"#utility.yul\":6024:6062   */\n  tag_177\n    /* \"#utility.yul\":6056:6061   */\n  dup2\n    /* \"#utility.yul\":6024:6062   */\n  tag_85\n  jump\t// in\ntag_177:\n    /* \"#utility.yul\":6108:6137   */\n  tag_178\n    /* \"#utility.yul\":6126:6136   */\n  dup5\n    /* \"#utility.yul\":6108:6137   */\n  tag_86\n  jump\t// in\ntag_178:\n    /* \"#utility.yul\":6098:6106   */\n  dup2\n    /* \"#utility.yul\":6094:6138   */\n  add\n    /* \"#utility.yul\":6291:6293   */\n  0x20\n    /* \"#utility.yul\":6279:6289   */\n  dup6\n    /* \"#utility.yul\":6276:6294   */\n  lt\n    /* \"#utility.yul\":6273:6322   */\n  iszero\n  tag_179\n  jumpi\n    /* \"#utility.yul\":6312:6320   */\n  dup2\n    /* \"#utility.yul\":6297:6320   */\n  swap1\n  pop\n    /* \"#utility.yul\":6273:6322   */\ntag_179:\n    /* \"#utility.yul\":6335:6415   */\n  tag_180\n    /* \"#utility.yul\":6391:6413   */\n  tag_181\n    /* \"#utility.yul\":6409:6412   */\n  dup6\n    /* \"#utility.yul\":6391:6413   */\n  tag_86\n  jump\t// in\ntag_181:\n    /* \"#utility.yul\":6381:6389   */\n  dup4\n    /* \"#utility.yul\":6377:6414   */\n  add\n    /* \"#utility.yul\":6364:6375   */\n  dup3\n    /* \"#utility.yul\":6335:6415   */\n  tag_95\n  jump\t// in\ntag_180:\n    /* \"#utility.yul\":5994:6425   */\n  pop\n  pop\n    /* \"#utility.yul\":5979:6425   */\ntag_176:\n    /* \"#utility.yul\":5889:6432   */\n  pop\n  pop\n  pop\n  jump\t// out\n    /* \"#utility.yul\":6438:6555   */\ntag_97:\n    /* \"#utility.yul\":6492:6500   */\n  0x00\n    /* \"#utility.yul\":6542:6547   */\n  dup3\n    /* \"#utility.yul\":6536:6540   */\n  dup3\n    /* \"#utility.yul\":6532:6548   */\n  shr\n    /* \"#utility.yul\":6511:6548   */\n  swap1\n  pop\n    /* \"#utility.yul\":6438:6555   */\n  swap3\n  swap2\n  pop\n  pop\n  jump\t// out\n    /* \"#utility.yul\":6561:6730   */\ntag_98:\n    /* \"#utility.yul\":6605:6611   */\n  0x00\n    /* \"#utility.yul\":6638:6689   */\n  tag_184\n    /* \"#utility.yul\":6686:6687   */\n  0x00\n    /* \"#utility.yul\":6682:6688   */\n  not\n    /* \"#utility.yul\":6674:6679   */\n  dup5\n    /* \"#utility.yul\":6671:6672   */\n  0x08\n    /* \"#utility.yul\":6667:6680   */\n  mul\n    /* \"#utility.yul\":6638:6689   */\n  tag_97\n  jump\t// in\ntag_184:\n    /* \"#utility.yul\":6634:6690   */\n  not\n    /* \"#utility.yul\":6719:6723   */\n  dup1\n    /* \"#utility.yul\":6713:6717   */\n  dup4\n    /* \"#utility.yul\":6709:6724   */\n  and\n    /* \"#utility.yul\":6699:6724   */\n  swap2\n  pop\n    /* \"#utility.yul\":6612:6730   */\n  pop\n    /* \"#utility.yul\":6561:6730   */\n  swap3\n  swap2\n  pop\n  pop\n  jump\t// out\n    /* \"#utility.yul\":6735:7030   */\ntag_99:\n    /* \"#utility.yul\":6811:6815   */\n  0x00\n    /* \"#utility.yul\":6957:6986   */\n  tag_186\n    /* \"#utility.yul\":6982:6985   */\n  dup4\n    /* \"#utility.yul\":6976:6980   */\n  dup4\n    /* \"#utility.yul\":6957:6986   */\n  tag_98\n  jump\t// in\ntag_186:\n    /* \"#utility.yul\":6949:6986   */\n  swap2\n  pop\n    /* \"#utility.yul\":7019:7022   */\n  dup3\n    /* \"#utility.yul\":7016:7017   */\n  0x02\n    /* \"#utility.yul\":7012:7023   */\n  mul\n    /* \"#utility.yul\":7006:7010   */\n  dup3\n    /* \"#utility.yul\":7003:7024   */\n  or\n    /* \"#utility.yul\":6995:7024   */\n  swap1\n  pop\n    /* \"#utility.yul\":6735:7030   */\n  swap3\n  swap2\n  pop\n  pop\n  jump\t// out\n    /* \"#utility.yul\":7035:8430   */\ntag_59:\n    /* \"#utility.yul\":7152:7189   */\n  tag_188\n    /* \"#utility.yul\":7185:7188   */\n  dup3\n    /* \"#utility.yul\":7152:7189   */\n  tag_80\n  jump\t// in\ntag_188:\n    /* \"#utility.yul\":7254:7272   */\n  0xffffffffffffffff\n    /* \"#utility.yul\":7246:7252   */\n  dup2\n    /* \"#utility.yul\":7243:7273   */\n  gt\n    /* \"#utility.yul\":7240:7296   */\n  iszero\n  tag_189\n  jumpi\n    /* \"#utility.yul\":7276:7294   */\n  tag_190\n  tag_84\n  jump\t// in\ntag_190:\n    /* \"#utility.yul\":7240:7296   */\ntag_189:\n    /* \"#utility.yul\":7320:7358   */\n  tag_191\n    /* \"#utility.yul\":7352:7356   */\n  dup3\n    /* \"#utility.yul\":7346:7357   */\n  sload\n    /* \"#utility.yul\":7320:7358   */\n  tag_15\n  jump\t// in\ntag_191:\n    /* \"#utility.yul\":7405:7472   */\n  tag_192\n    /* \"#utility.yul\":7465:7471   */\n  dup3\n    /* \"#utility.yul\":7457:7463   */\n  dup3\n    /* \"#utility.yul\":7451:7455   */\n  dup6\n    /* \"#utility.yul\":7405:7472   */\n  tag_96\n  jump\t// in\ntag_192:\n    /* \"#utility.yul\":7499:7500   */\n  0x00\n    /* \"#utility.yul\":7523:7527   */\n  0x20\n    /* \"#utility.yul\":7510:7527   */\n  swap1\n  pop\n    /* \"#utility.yul\":7555:7557   */\n  0x1f\n    /* \"#utility.yul\":7547:7553   */\n  dup4\n    /* \"#utility.yul\":7544:7558   */\n  gt\n    /* \"#utility.yul\":7572:7573   */\n  0x01\n    /* \"#utility.yul\":7567:8185   */\n  dup2\n  eq\n  tag_194\n  jumpi\n    /* \"#utility.yul\":8229:8230   */\n  0x00\n    /* \"#utility.yul\":8246:8252   */\n  dup5\n    /* \"#utility.yul\":8243:8320   */\n  iszero\n  tag_195\n  jumpi\n    /* \"#utility.yul\":8295:8304   */\n  dup3\n    /* \"#utility.yul\":8290:8293   */\n  dup8\n    /* \"#utility.yul\":8286:8305   */\n  add\n    /* \"#utility.yul\":8280:8306   */\n  mload\n    /* \"#utility.yul\":8271:8306   */\n  swap1\n  pop\n    /* \"#utility.yul\":8243:8320   */\ntag_195:\n    /* \"#utility.yul\":8346:8413   */\n  tag_196\n    /* \"#utility.yul\":8406:8412   */\n  dup6\n    /* \"#utility.yul\":8399:8404   */\n  dup3\n    /* \"#utility.yul\":8346:8413   */\n  tag_99\n  jump\t// in\ntag_196:\n    /* \"#utility.yul\":8340:8344   */\n  dup7\n    /* \"#utility.yul\":8333:8414   */\n  sstore\n    /* \"#utility.yul\":8202:8424   */\n  pop\n    /* \"#utility.yul\":7537:8424   */\n  jump(tag_193)\n    /* \"#utility.yul\":7567:8185   */\ntag_194:\n    /* \"#utility.yul\":7619:7623   */\n  0x1f\n    /* \"#utility.yul\":7615:7624   */\n  not\n    /* \"#utility.yul\":7607:7613   */\n  dup5\n    /* \"#utility.yul\":7603:7625   */\n  and\n    /* \"#utility.yul\":7653:7690   */\n  tag_197\n    /* \"#utility.yul\":7685:7689   */\n  dup7\n    /* \"#utility.yul\":7653:7690   */\n  tag_85\n  jump\t// in\ntag_197:\n    /* \"#utility.yul\":7712:7713   */\n  0x00\n    /* \"#utility.yul\":7726:7934   */\ntag_198:\n    /* \"#utility.yul\":7740:7747   */\n  dup3\n    /* \"#utility.yul\":7737:7738   */\n  dup2\n    /* \"#utility.yul\":7734:7748   */\n  lt\n    /* \"#utility.yul\":7726:7934   */\n  iszero\n  tag_200\n  jumpi\n    /* \"#utility.yul\":7819:7828   */\n  dup5\n    /* \"#utility.yul\":7814:7817   */\n  dup10\n    /* \"#utility.yul\":7810:7829   */\n  add\n    /* \"#utility.yul\":7804:7830   */\n  mload\n    /* \"#utility.yul\":7796:7802   */\n  dup3\n    /* \"#utility.yul\":7789:7831   */\n  sstore\n    /* \"#utility.yul\":7870:7871   */\n  0x01\n    /* \"#utility.yul\":7862:7868   */\n  dup3\n    /* \"#utility.yul\":7858:7872   */\n  add\n    /* \"#utility.yul\":7848:7872   */\n  swap2\n  pop\n    /* \"#utility.yul\":7917:7919   */\n  0x20\n    /* \"#utility.yul\":7906:7915   */\n  dup6\n    /* \"#utility.yul\":7902:7920   */\n  add\n    /* \"#utility.yul\":7889:7920   */\n  swap5\n  pop\n    /* \"#utility.yul\":7763:7767   */\n  0x20\n    /* \"#utility.yul\":7760:7761   */\n  dup2\n    /* \"#utility.yul\":7756:7768   */\n  add\n    /* \"#utility.yul\":7751:7768   */\n  swap1\n  pop\n    /* \"#utility.yul\":7726:7934   */\n  jump(tag_198)\ntag_200:\n    /* \"#utility.yul\":7962:7968   */\n  dup7\n    /* \"#utility.yul\":7953:7960   */\n  dup4\n    /* \"#utility.yul\":7950:7969   */\n  lt\n    /* \"#utility.yul\":7947:8126   */\n  iszero\n  tag_201\n  jumpi\n    /* \"#utility.yul\":8020:8029   */\n  dup5\n    /* \"#utility.yul\":8015:8018   */\n  dup10\n    /* \"#utility.yul\":8011:8030   */\n  add\n    /* \"#utility.yul\":8005:8031   */\n  mload\n    /* \"#utility.yul\":8063:8111   */\n  tag_202\n    /* \"#utility.yul\":8105:8109   */\n  0x1f\n    /* \"#utility.yul\":8097:8103   */\n  dup10\n    /* \"#utility.yul\":8093:8110   */\n  and\n    /* \"#utility.yul\":8082:8091   */\n  dup3\n    /* \"#utility.yul\":8063:8111   */\n  tag_98\n  jump\t// in\ntag_202:\n    /* \"#utility.yul\":8055:8061   */\n  dup4\n    /* \"#utility.yul\":8048:8112   */\n  sstore\n    /* \"#utility.yul\":7970:8126   */\n  pop\n    /* \"#utility.yul\":7947:8126   */\ntag_201:\n    /* \"#utility.yul\":8172:8173   */\n  0x01\n    /* \"#utility.yul\":8168:8169   */\n  0x02\n    /* \"#utility.yul\":8160:8166   */\n  dup9\n    /* \"#utility.yul\":8156:8170   */\n  mul\n    /* \"#utility.yul\":8152:8174   */\n  add\n    /* \"#utility.yul\":8146:8150   */\n  dup9\n    /* \"#utility.yul\":8139:8175   */\n  sstore\n    /* \"#utility.yul\":7574:8185   */\n  pop\n  pop\n  pop\n    /* \"#utility.yul\":7537:8424   */\ntag_193:\n  pop\n    /* \"#utility.yul\":7127:8430   */\n  pop\n  pop\n  pop\n    /* \"#utility.yul\":7035:8430   */\n  pop\n  pop\n  jump\t// out\n    /* \"contracts/Lesson_4.sol\":78:1409  contract MerkleTree... */\ntag_48:\n  dataSize(sub_0)\n  dup1\n  dataOffset(sub_0)\n  0x00\n  codecopy\n  0x00\n  return\nstop\n\nsub_0: assembly {\n        /* \"contracts/Lesson_4.sol\":78:1409  contract MerkleTree... */\n      mstore(0x40, 0x80)\n      callvalue\n      dup1\n      iszero\n      tag_1\n      jumpi\n      0x00\n      dup1\n      revert\n    tag_1:\n      pop\n      jumpi(tag_2, lt(calldatasize, 0x04))\n      shr(0xe0, calldataload(0x00))\n      dup1\n      0x501895ae\n      eq\n      tag_3\n      jumpi\n      dup1\n      0x52de70af\n      eq\n      tag_4\n      jumpi\n      dup1\n      0x6a11b2a8\n      eq\n      tag_5\n      jumpi\n    tag_2:\n      0x00\n      dup1\n      revert\n        /* \"contracts/Lesson_4.sol\":186:209  bytes32[] public hashes */\n    tag_3:\n      tag_6\n      0x04\n      dup1\n      calldatasize\n      sub\n      dup2\n      add\n      swap1\n      tag_7\n      swap2\n      swap1\n      tag_8\n      jump\t// in\n    tag_7:\n      tag_9\n      jump\t// in\n    tag_6:\n      mload(0x40)\n      tag_10\n      swap2\n      swap1\n      tag_11\n      jump\t// in\n    tag_10:\n      mload(0x40)\n      dup1\n      swap2\n      sub\n      swap1\n      return\n        /* \"contracts/Lesson_4.sol\":1259:1406  function makeHash(string memory input) public pure returns(bytes32)... */\n    tag_4:\n      tag_12\n      0x04\n      dup1\n      calldatasize\n      sub\n      dup2\n      add\n      swap1\n      tag_13\n      swap2\n      swap1\n      tag_14\n      jump\t// in\n    tag_13:\n      tag_15\n      jump\t// in\n    tag_12:\n      mload(0x40)\n      tag_16\n      swap2\n      swap1\n      tag_11\n      jump\t// in\n    tag_16:\n      mload(0x40)\n      dup1\n      swap2\n      sub\n      swap1\n      return\n        /* \"contracts/Lesson_4.sol\":1126:1251  function encode(string memory input) public pure returns(bytes memory)... */\n    tag_5:\n      tag_17\n      0x04\n      dup1\n      calldatasize\n      sub\n      dup2\n      add\n      swap1\n      tag_18\n      swap2\n      swap1\n      tag_14\n      jump\t// in\n    tag_18:\n      tag_19\n      jump\t// in\n    tag_17:\n      mload(0x40)\n      tag_20\n      swap2\n      swap1\n      tag_21\n      jump\t// in\n    tag_20:\n      mload(0x40)\n      dup1\n      swap2\n      sub\n      swap1\n      return\n        /* \"contracts/Lesson_4.sol\":186:209  bytes32[] public hashes */\n    tag_9:\n      0x00\n      dup2\n      dup2\n      sload\n      dup2\n      lt\n      tag_22\n      jumpi\n      0x00\n      dup1\n      revert\n    tag_22:\n      swap1\n      0x00\n      mstore\n      keccak256(0x00, 0x20)\n      add\n      0x00\n      swap2\n      pop\n      swap1\n      pop\n      sload\n      dup2\n      jump\t// out\n        /* \"contracts/Lesson_4.sol\":1259:1406  function makeHash(string memory input) public pure returns(bytes32)... */\n    tag_15:\n        /* \"contracts/Lesson_4.sol\":1318:1325  bytes32 */\n      0x00\n        /* \"contracts/Lesson_4.sol\":1374:1387  encode(input) */\n      tag_25\n        /* \"contracts/Lesson_4.sol\":1381:1386  input */\n      dup3\n        /* \"contracts/Lesson_4.sol\":1374:1380  encode */\n      tag_19\n        /* \"contracts/Lesson_4.sol\":1374:1387  encode(input) */\n      jump\t// in\n    tag_25:\n        /* \"contracts/Lesson_4.sol\":1350:1398  keccak256(... */\n      dup1\n      mload\n      swap1\n      0x20\n      add\n      keccak256\n        /* \"contracts/Lesson_4.sol\":1343:1398  return keccak256(... */\n      swap1\n      pop\n        /* \"contracts/Lesson_4.sol\":1259:1406  function makeHash(string memory input) public pure returns(bytes32)... */\n      swap2\n      swap1\n      pop\n      jump\t// out\n        /* \"contracts/Lesson_4.sol\":1126:1251  function encode(string memory input) public pure returns(bytes memory)... */\n    tag_19:\n        /* \"contracts/Lesson_4.sol\":1183:1195  bytes memory */\n      0x60\n        /* \"contracts/Lesson_4.sol\":1237:1242  input */\n      dup2\n        /* \"contracts/Lesson_4.sol\":1220:1243  abi.encodePacked(input) */\n      add(0x20, mload(0x40))\n      tag_27\n      swap2\n      swap1\n      tag_28\n      jump\t// in\n    tag_27:\n      mload(0x40)\n      0x20\n      dup2\n      dup4\n      sub\n      sub\n      dup2\n      mstore\n      swap1\n      0x40\n      mstore\n        /* \"contracts/Lesson_4.sol\":1213:1243  return abi.encodePacked(input) */\n      swap1\n      pop\n        /* \"contracts/Lesson_4.sol\":1126:1251  function encode(string memory input) public pure returns(bytes memory)... */\n      swap2\n      swap1\n      pop\n      jump\t// out\n        /* \"#utility.yul\":7:82   */\n    tag_29:\n        /* \"#utility.yul\":40:46   */\n      0x00\n        /* \"#utility.yul\":73:75   */\n      0x40\n        /* \"#utility.yul\":67:76   */\n      mload\n        /* \"#utility.yul\":57:76   */\n      swap1\n      pop\n        /* \"#utility.yul\":7:82   */\n      swap1\n      jump\t// out\n        /* \"#utility.yul\":88:205   */\n    tag_30:\n        /* \"#utility.yul\":197:198   */\n      0x00\n        /* \"#utility.yul\":194:195   */\n      dup1\n        /* \"#utility.yul\":187:199   */\n      revert\n        /* \"#utility.yul\":211:328   */\n    tag_31:\n        /* \"#utility.yul\":320:321   */\n      0x00\n        /* \"#utility.yul\":317:318   */\n      dup1\n        /* \"#utility.yul\":310:322   */\n      revert\n        /* \"#utility.yul\":334:411   */\n    tag_32:\n        /* \"#utility.yul\":371:378   */\n      0x00\n        /* \"#utility.yul\":400:405   */\n      dup2\n        /* \"#utility.yul\":389:405   */\n      swap1\n      pop\n        /* \"#utility.yul\":334:411   */\n      swap2\n      swap1\n      pop\n      jump\t// out\n        /* \"#utility.yul\":417:539   */\n    tag_33:\n        /* \"#utility.yul\":490:514   */\n      tag_60\n        /* \"#utility.yul\":508:513   */\n      dup2\n        /* \"#utility.yul\":490:514   */\n      tag_32\n      jump\t// in\n    tag_60:\n        /* \"#utility.yul\":483:488   */\n      dup2\n        /* \"#utility.yul\":480:515   */\n      eq\n        /* \"#utility.yul\":470:533   */\n      tag_61\n      jumpi\n        /* \"#utility.yul\":529:530   */\n      0x00\n        /* \"#utility.yul\":526:527   */\n      dup1\n        /* \"#utility.yul\":519:531   */\n      revert\n        /* \"#utility.yul\":470:533   */\n    tag_61:\n        /* \"#utility.yul\":417:539   */\n      pop\n      jump\t// out\n        /* \"#utility.yul\":545:684   */\n    tag_34:\n        /* \"#utility.yul\":591:596   */\n      0x00\n        /* \"#utility.yul\":629:635   */\n      dup2\n        /* \"#utility.yul\":616:636   */\n      calldataload\n        /* \"#utility.yul\":607:636   */\n      swap1\n      pop\n        /* \"#utility.yul\":645:678   */\n      tag_63\n        /* \"#utility.yul\":672:677   */\n      dup2\n        /* \"#utility.yul\":645:678   */\n      tag_33\n      jump\t// in\n    tag_63:\n        /* \"#utility.yul\":545:684   */\n      swap3\n      swap2\n      pop\n      pop\n      jump\t// out\n        /* \"#utility.yul\":690:1019   */\n    tag_8:\n        /* \"#utility.yul\":749:755   */\n      0x00\n        /* \"#utility.yul\":798:800   */\n      0x20\n        /* \"#utility.yul\":786:795   */\n      dup3\n        /* \"#utility.yul\":777:784   */\n      dup5\n        /* \"#utility.yul\":773:796   */\n      sub\n        /* \"#utility.yul\":769:801   */\n      slt\n        /* \"#utility.yul\":766:885   */\n      iszero\n      tag_65\n      jumpi\n        /* \"#utility.yul\":804:883   */\n      tag_66\n      tag_30\n      jump\t// in\n    tag_66:\n        /* \"#utility.yul\":766:885   */\n    tag_65:\n        /* \"#utility.yul\":924:925   */\n      0x00\n        /* \"#utility.yul\":949:1002   */\n      tag_67\n        /* \"#utility.yul\":994:1001   */\n      dup5\n        /* \"#utility.yul\":985:991   */\n      dup3\n        /* \"#utility.yul\":974:983   */\n      dup6\n        /* \"#utility.yul\":970:992   */\n      add\n        /* \"#utility.yul\":949:1002   */\n      tag_34\n      jump\t// in\n    tag_67:\n        /* \"#utility.yul\":939:1002   */\n      swap2\n      pop\n        /* \"#utility.yul\":895:1012   */\n      pop\n        /* \"#utility.yul\":690:1019   */\n      swap3\n      swap2\n      pop\n      pop\n      jump\t// out\n        /* \"#utility.yul\":1025:1102   */\n    tag_35:\n        /* \"#utility.yul\":1062:1069   */\n      0x00\n        /* \"#utility.yul\":1091:1096   */\n      dup2\n        /* \"#utility.yul\":1080:1096   */\n      swap1\n      pop\n        /* \"#utility.yul\":1025:1102   */\n      swap2\n      swap1\n      pop\n      jump\t// out\n        /* \"#utility.yul\":1108:1226   */\n    tag_36:\n        /* \"#utility.yul\":1195:1219   */\n      tag_70\n        /* \"#utility.yul\":1213:1218   */\n      dup2\n        /* \"#utility.yul\":1195:1219   */\n      tag_35\n      jump\t// in\n    tag_70:\n        /* \"#utility.yul\":1190:1193   */\n      dup3\n        /* \"#utility.yul\":1183:1220   */\n      mstore\n        /* \"#utility.yul\":1108:1226   */\n      pop\n      pop\n      jump\t// out\n        /* \"#utility.yul\":1232:1454   */\n    tag_11:\n        /* \"#utility.yul\":1325:1329   */\n      0x00\n        /* \"#utility.yul\":1363:1365   */\n      0x20\n        /* \"#utility.yul\":1352:1361   */\n      dup3\n        /* \"#utility.yul\":1348:1366   */\n      add\n        /* \"#utility.yul\":1340:1366   */\n      swap1\n      pop\n        /* \"#utility.yul\":1376:1447   */\n      tag_72\n        /* \"#utility.yul\":1444:1445   */\n      0x00\n        /* \"#utility.yul\":1433:1442   */\n      dup4\n        /* \"#utility.yul\":1429:1446   */\n      add\n        /* \"#utility.yul\":1420:1426   */\n      dup5\n        /* \"#utility.yul\":1376:1447   */\n      tag_36\n      jump\t// in\n    tag_72:\n        /* \"#utility.yul\":1232:1454   */\n      swap3\n      swap2\n      pop\n      pop\n      jump\t// out\n        /* \"#utility.yul\":1460:1577   */\n    tag_37:\n        /* \"#utility.yul\":1569:1570   */\n      0x00\n        /* \"#utility.yul\":1566:1567   */\n      dup1\n        /* \"#utility.yul\":1559:1571   */\n      revert\n        /* \"#utility.yul\":1583:1700   */\n    tag_38:\n        /* \"#utility.yul\":1692:1693   */\n      0x00\n        /* \"#utility.yul\":1689:1690   */\n      dup1\n        /* \"#utility.yul\":1682:1694   */\n      revert\n        /* \"#utility.yul\":1706:1808   */\n    tag_39:\n        /* \"#utility.yul\":1747:1753   */\n      0x00\n        /* \"#utility.yul\":1798:1800   */\n      0x1f\n        /* \"#utility.yul\":1794:1801   */\n      not\n        /* \"#utility.yul\":1789:1791   */\n      0x1f\n        /* \"#utility.yul\":1782:1787   */\n      dup4\n        /* \"#utility.yul\":1778:1792   */\n      add\n        /* \"#utility.yul\":1774:1802   */\n      and\n        /* \"#utility.yul\":1764:1802   */\n      swap1\n      pop\n        /* \"#utility.yul\":1706:1808   */\n      swap2\n      swap1\n      pop\n      jump\t// out\n        /* \"#utility.yul\":1814:1994   */\n    tag_40:\n        /* \"#utility.yul\":1862:1939   */\n      0x4e487b7100000000000000000000000000000000000000000000000000000000\n        /* \"#utility.yul\":1859:1860   */\n      0x00\n        /* \"#utility.yul\":1852:1940   */\n      mstore\n        /* \"#utility.yul\":1959:1963   */\n      0x41\n        /* \"#utility.yul\":1956:1957   */\n      0x04\n        /* \"#utility.yul\":1949:1964   */\n      mstore\n        /* \"#utility.yul\":1983:1987   */\n      0x24\n        /* \"#utility.yul\":1980:1981   */\n      0x00\n        /* \"#utility.yul\":1973:1988   */\n      revert\n        /* \"#utility.yul\":2000:2281   */\n    tag_41:\n        /* \"#utility.yul\":2083:2110   */\n      tag_78\n        /* \"#utility.yul\":2105:2109   */\n      dup3\n        /* \"#utility.yul\":2083:2110   */\n      tag_39\n      jump\t// in\n    tag_78:\n        /* \"#utility.yul\":2075:2081   */\n      dup2\n        /* \"#utility.yul\":2071:2111   */\n      add\n        /* \"#utility.yul\":2213:2219   */\n      dup2\n        /* \"#utility.yul\":2201:2211   */\n      dup2\n        /* \"#utility.yul\":2198:2220   */\n      lt\n        /* \"#utility.yul\":2177:2195   */\n      0xffffffffffffffff\n        /* \"#utility.yul\":2165:2175   */\n      dup3\n        /* \"#utility.yul\":2162:2196   */\n      gt\n        /* \"#utility.yul\":2159:2221   */\n      or\n        /* \"#utility.yul\":2156:2244   */\n      iszero\n      tag_79\n      jumpi\n        /* \"#utility.yul\":2224:2242   */\n      tag_80\n      tag_40\n      jump\t// in\n    tag_80:\n        /* \"#utility.yul\":2156:2244   */\n    tag_79:\n        /* \"#utility.yul\":2264:2274   */\n      dup1\n        /* \"#utility.yul\":2260:2262   */\n      0x40\n        /* \"#utility.yul\":2253:2275   */\n      mstore\n        /* \"#utility.yul\":2043:2281   */\n      pop\n        /* \"#utility.yul\":2000:2281   */\n      pop\n      pop\n      jump\t// out\n        /* \"#utility.yul\":2287:2416   */\n    tag_42:\n        /* \"#utility.yul\":2321:2327   */\n      0x00\n        /* \"#utility.yul\":2348:2368   */\n      tag_82\n      tag_29\n      jump\t// in\n    tag_82:\n        /* \"#utility.yul\":2338:2368   */\n      swap1\n      pop\n        /* \"#utility.yul\":2377:2410   */\n      tag_83\n        /* \"#utility.yul\":2405:2409   */\n      dup3\n        /* \"#utility.yul\":2397:2403   */\n      dup3\n        /* \"#utility.yul\":2377:2410   */\n      tag_41\n      jump\t// in\n    tag_83:\n        /* \"#utility.yul\":2287:2416   */\n      swap2\n      swap1\n      pop\n      jump\t// out\n        /* \"#utility.yul\":2422:2730   */\n    tag_43:\n        /* \"#utility.yul\":2484:2488   */\n      0x00\n        /* \"#utility.yul\":2574:2592   */\n      0xffffffffffffffff\n        /* \"#utility.yul\":2566:2572   */\n      dup3\n        /* \"#utility.yul\":2563:2593   */\n      gt\n        /* \"#utility.yul\":2560:2616   */\n      iszero\n      tag_85\n      jumpi\n        /* \"#utility.yul\":2596:2614   */\n      tag_86\n      tag_40\n      jump\t// in\n    tag_86:\n        /* \"#utility.yul\":2560:2616   */\n    tag_85:\n        /* \"#utility.yul\":2634:2663   */\n      tag_87\n        /* \"#utility.yul\":2656:2662   */\n      dup3\n        /* \"#utility.yul\":2634:2663   */\n      tag_39\n      jump\t// in\n    tag_87:\n        /* \"#utility.yul\":2626:2663   */\n      swap1\n      pop\n        /* \"#utility.yul\":2718:2722   */\n      0x20\n        /* \"#utility.yul\":2712:2716   */\n      dup2\n        /* \"#utility.yul\":2708:2723   */\n      add\n        /* \"#utility.yul\":2700:2723   */\n      swap1\n      pop\n        /* \"#utility.yul\":2422:2730   */\n      swap2\n      swap1\n      pop\n      jump\t// out\n        /* \"#utility.yul\":2736:2882   */\n    tag_44:\n        /* \"#utility.yul\":2833:2839   */\n      dup3\n        /* \"#utility.yul\":2828:2831   */\n      dup2\n        /* \"#utility.yul\":2823:2826   */\n      dup4\n        /* \"#utility.yul\":2810:2840   */\n      calldatacopy\n        /* \"#utility.yul\":2874:2875   */\n      0x00\n        /* \"#utility.yul\":2865:2871   */\n      dup4\n        /* \"#utility.yul\":2860:2863   */\n      dup4\n        /* \"#utility.yul\":2856:2872   */\n      add\n        /* \"#utility.yul\":2849:2876   */\n      mstore\n        /* \"#utility.yul\":2736:2882   */\n      pop\n      pop\n      pop\n      jump\t// out\n        /* \"#utility.yul\":2888:3313   */\n    tag_45:\n        /* \"#utility.yul\":2966:2971   */\n      0x00\n        /* \"#utility.yul\":2991:3057   */\n      tag_90\n        /* \"#utility.yul\":3007:3056   */\n      tag_91\n        /* \"#utility.yul\":3049:3055   */\n      dup5\n        /* \"#utility.yul\":3007:3056   */\n      tag_43\n      jump\t// in\n    tag_91:\n        /* \"#utility.yul\":2991:3057   */\n      tag_42\n      jump\t// in\n    tag_90:\n        /* \"#utility.yul\":2982:3057   */\n      swap1\n      pop\n        /* \"#utility.yul\":3080:3086   */\n      dup3\n        /* \"#utility.yul\":3073:3078   */\n      dup2\n        /* \"#utility.yul\":3066:3087   */\n      mstore\n        /* \"#utility.yul\":3118:3122   */\n      0x20\n        /* \"#utility.yul\":3111:3116   */\n      dup2\n        /* \"#utility.yul\":3107:3123   */\n      add\n        /* \"#utility.yul\":3156:3159   */\n      dup5\n        /* \"#utility.yul\":3147:3153   */\n      dup5\n        /* \"#utility.yul\":3142:3145   */\n      dup5\n        /* \"#utility.yul\":3138:3154   */\n      add\n        /* \"#utility.yul\":3135:3160   */\n      gt\n        /* \"#utility.yul\":3132:3244   */\n      iszero\n      tag_92\n      jumpi\n        /* \"#utility.yul\":3163:3242   */\n      tag_93\n      tag_38\n      jump\t// in\n    tag_93:\n        /* \"#utility.yul\":3132:3244   */\n    tag_92:\n        /* \"#utility.yul\":3253:3307   */\n      tag_94\n        /* \"#utility.yul\":3300:3306   */\n      dup5\n        /* \"#utility.yul\":3295:3298   */\n      dup3\n        /* \"#utility.yul\":3290:3293   */\n      dup6\n        /* \"#utility.yul\":3253:3307   */\n      tag_44\n      jump\t// in\n    tag_94:\n        /* \"#utility.yul\":2972:3313   */\n      pop\n        /* \"#utility.yul\":2888:3313   */\n      swap4\n      swap3\n      pop\n      pop\n      pop\n      jump\t// out\n        /* \"#utility.yul\":3333:3673   */\n    tag_46:\n        /* \"#utility.yul\":3389:3394   */\n      0x00\n        /* \"#utility.yul\":3438:3441   */\n      dup3\n        /* \"#utility.yul\":3431:3435   */\n      0x1f\n        /* \"#utility.yul\":3423:3429   */\n      dup4\n        /* \"#utility.yul\":3419:3436   */\n      add\n        /* \"#utility.yul\":3415:3442   */\n      slt\n        /* \"#utility.yul\":3405:3527   */\n      tag_96\n      jumpi\n        /* \"#utility.yul\":3446:3525   */\n      tag_97\n      tag_37\n      jump\t// in\n    tag_97:\n        /* \"#utility.yul\":3405:3527   */\n    tag_96:\n        /* \"#utility.yul\":3563:3569   */\n      dup2\n        /* \"#utility.yul\":3550:3570   */\n      calldataload\n        /* \"#utility.yul\":3588:3667   */\n      tag_98\n        /* \"#utility.yul\":3663:3666   */\n      dup5\n        /* \"#utility.yul\":3655:3661   */\n      dup3\n        /* \"#utility.yul\":3648:3652   */\n      0x20\n        /* \"#utility.yul\":3640:3646   */\n      dup7\n        /* \"#utility.yul\":3636:3653   */\n      add\n        /* \"#utility.yul\":3588:3667   */\n      tag_45\n      jump\t// in\n    tag_98:\n        /* \"#utility.yul\":3579:3667   */\n      swap2\n      pop\n        /* \"#utility.yul\":3395:3673   */\n      pop\n        /* \"#utility.yul\":3333:3673   */\n      swap3\n      swap2\n      pop\n      pop\n      jump\t// out\n        /* \"#utility.yul\":3679:4188   */\n    tag_14:\n        /* \"#utility.yul\":3748:3754   */\n      0x00\n        /* \"#utility.yul\":3797:3799   */\n      0x20\n        /* \"#utility.yul\":3785:3794   */\n      dup3\n        /* \"#utility.yul\":3776:3783   */\n      dup5\n        /* \"#utility.yul\":3772:3795   */\n      sub\n        /* \"#utility.yul\":3768:3800   */\n      slt\n        /* \"#utility.yul\":3765:3884   */\n      iszero\n      tag_100\n      jumpi\n        /* \"#utility.yul\":3803:3882   */\n      tag_101\n      tag_30\n      jump\t// in\n    tag_101:\n        /* \"#utility.yul\":3765:3884   */\n    tag_100:\n        /* \"#utility.yul\":3951:3952   */\n      0x00\n        /* \"#utility.yul\":3940:3949   */\n      dup3\n        /* \"#utility.yul\":3936:3953   */\n      add\n        /* \"#utility.yul\":3923:3954   */\n      calldataload\n        /* \"#utility.yul\":3981:3999   */\n      0xffffffffffffffff\n        /* \"#utility.yul\":3973:3979   */\n      dup2\n        /* \"#utility.yul\":3970:4000   */\n      gt\n        /* \"#utility.yul\":3967:4084   */\n      iszero\n      tag_102\n      jumpi\n        /* \"#utility.yul\":4003:4082   */\n      tag_103\n      tag_31\n      jump\t// in\n    tag_103:\n        /* \"#utility.yul\":3967:4084   */\n    tag_102:\n        /* \"#utility.yul\":4108:4171   */\n      tag_104\n        /* \"#utility.yul\":4163:4170   */\n      dup5\n        /* \"#utility.yul\":4154:4160   */\n      dup3\n        /* \"#utility.yul\":4143:4152   */\n      dup6\n        /* \"#utility.yul\":4139:4161   */\n      add\n        /* \"#utility.yul\":4108:4171   */\n      tag_46\n      jump\t// in\n    tag_104:\n        /* \"#utility.yul\":4098:4171   */\n      swap2\n      pop\n        /* \"#utility.yul\":3894:4181   */\n      pop\n        /* \"#utility.yul\":3679:4188   */\n      swap3\n      swap2\n      pop\n      pop\n      jump\t// out\n        /* \"#utility.yul\":4194:4292   */\n    tag_47:\n        /* \"#utility.yul\":4245:4251   */\n      0x00\n        /* \"#utility.yul\":4279:4284   */\n      dup2\n        /* \"#utility.yul\":4273:4285   */\n      mload\n        /* \"#utility.yul\":4263:4285   */\n      swap1\n      pop\n        /* \"#utility.yul\":4194:4292   */\n      swap2\n      swap1\n      pop\n      jump\t// out\n        /* \"#utility.yul\":4298:4466   */\n    tag_48:\n        /* \"#utility.yul\":4381:4392   */\n      0x00\n        /* \"#utility.yul\":4415:4421   */\n      dup3\n        /* \"#utility.yul\":4410:4413   */\n      dup3\n        /* \"#utility.yul\":4403:4422   */\n      mstore\n        /* \"#utility.yul\":4455:4459   */\n      0x20\n        /* \"#utility.yul\":4450:4453   */\n      dup3\n        /* \"#utility.yul\":4446:4460   */\n      add\n        /* \"#utility.yul\":4431:4460   */\n      swap1\n      pop\n        /* \"#utility.yul\":4298:4466   */\n      swap3\n      swap2\n      pop\n      pop\n      jump\t// out\n        /* \"#utility.yul\":4472:4718   */\n    tag_49:\n        /* \"#utility.yul\":4553:4554   */\n      0x00\n        /* \"#utility.yul\":4563:4676   */\n    tag_108:\n        /* \"#utility.yul\":4577:4583   */\n      dup4\n        /* \"#utility.yul\":4574:4575   */\n      dup2\n        /* \"#utility.yul\":4571:4584   */\n      lt\n        /* \"#utility.yul\":4563:4676   */\n      iszero\n      tag_110\n      jumpi\n        /* \"#utility.yul\":4662:4663   */\n      dup1\n        /* \"#utility.yul\":4657:4660   */\n      dup3\n        /* \"#utility.yul\":4653:4664   */\n      add\n        /* \"#utility.yul\":4647:4665   */\n      mload\n        /* \"#utility.yul\":4643:4644   */\n      dup2\n        /* \"#utility.yul\":4638:4641   */\n      dup5\n        /* \"#utility.yul\":4634:4645   */\n      add\n        /* \"#utility.yul\":4627:4666   */\n      mstore\n        /* \"#utility.yul\":4599:4601   */\n      0x20\n        /* \"#utility.yul\":4596:4597   */\n      dup2\n        /* \"#utility.yul\":4592:4602   */\n      add\n        /* \"#utility.yul\":4587:4602   */\n      swap1\n      pop\n        /* \"#utility.yul\":4563:4676   */\n      jump(tag_108)\n    tag_110:\n        /* \"#utility.yul\":4710:4711   */\n      0x00\n        /* \"#utility.yul\":4701:4707   */\n      dup5\n        /* \"#utility.yul\":4696:4699   */\n      dup5\n        /* \"#utility.yul\":4692:4708   */\n      add\n        /* \"#utility.yul\":4685:4712   */\n      mstore\n        /* \"#utility.yul\":4534:4718   */\n      pop\n        /* \"#utility.yul\":4472:4718   */\n      pop\n      pop\n      pop\n      jump\t// out\n        /* \"#utility.yul\":4724:5097   */\n    tag_50:\n        /* \"#utility.yul\":4810:4813   */\n      0x00\n        /* \"#utility.yul\":4838:4876   */\n      tag_112\n        /* \"#utility.yul\":4870:4875   */\n      dup3\n        /* \"#utility.yul\":4838:4876   */\n      tag_47\n      jump\t// in\n    tag_112:\n        /* \"#utility.yul\":4892:4962   */\n      tag_113\n        /* \"#utility.yul\":4955:4961   */\n      dup2\n        /* \"#utility.yul\":4950:4953   */\n      dup6\n        /* \"#utility.yul\":4892:4962   */\n      tag_48\n      jump\t// in\n    tag_113:\n        /* \"#utility.yul\":4885:4962   */\n      swap4\n      pop\n        /* \"#utility.yul\":4971:5036   */\n      tag_114\n        /* \"#utility.yul\":5029:5035   */\n      dup2\n        /* \"#utility.yul\":5024:5027   */\n      dup6\n        /* \"#utility.yul\":5017:5021   */\n      0x20\n        /* \"#utility.yul\":5010:5015   */\n      dup7\n        /* \"#utility.yul\":5006:5022   */\n      add\n        /* \"#utility.yul\":4971:5036   */\n      tag_49\n      jump\t// in\n    tag_114:\n        /* \"#utility.yul\":5061:5090   */\n      tag_115\n        /* \"#utility.yul\":5083:5089   */\n      dup2\n        /* \"#utility.yul\":5061:5090   */\n      tag_39\n      jump\t// in\n    tag_115:\n        /* \"#utility.yul\":5056:5059   */\n      dup5\n        /* \"#utility.yul\":5052:5091   */\n      add\n        /* \"#utility.yul\":5045:5091   */\n      swap2\n      pop\n        /* \"#utility.yul\":4814:5097   */\n      pop\n        /* \"#utility.yul\":4724:5097   */\n      swap3\n      swap2\n      pop\n      pop\n      jump\t// out\n        /* \"#utility.yul\":5103:5412   */\n    tag_21:\n        /* \"#utility.yul\":5214:5218   */\n      0x00\n        /* \"#utility.yul\":5252:5254   */\n      0x20\n        /* \"#utility.yul\":5241:5250   */\n      dup3\n        /* \"#utility.yul\":5237:5255   */\n      add\n        /* \"#utility.yul\":5229:5255   */\n      swap1\n      pop\n        /* \"#utility.yul\":5301:5310   */\n      dup2\n        /* \"#utility.yul\":5295:5299   */\n      dup2\n        /* \"#utility.yul\":5291:5311   */\n      sub\n        /* \"#utility.yul\":5287:5288   */\n      0x00\n        /* \"#utility.yul\":5276:5285   */\n      dup4\n        /* \"#utility.yul\":5272:5289   */\n      add\n        /* \"#utility.yul\":5265:5312   */\n      mstore\n        /* \"#utility.yul\":5329:5405   */\n      tag_117\n        /* \"#utility.yul\":5400:5404   */\n      dup2\n        /* \"#utility.yul\":5391:5397   */\n      dup5\n        /* \"#utility.yul\":5329:5405   */\n      tag_50\n      jump\t// in\n    tag_117:\n        /* \"#utility.yul\":5321:5405   */\n      swap1\n      pop\n        /* \"#utility.yul\":5103:5412   */\n      swap3\n      swap2\n      pop\n      pop\n      jump\t// out\n        /* \"#utility.yul\":5418:5517   */\n    tag_51:\n        /* \"#utility.yul\":5470:5476   */\n      0x00\n        /* \"#utility.yul\":5504:5509   */\n      dup2\n        /* \"#utility.yul\":5498:5510   */\n      mload\n        /* \"#utility.yul\":5488:5510   */\n      swap1\n      pop\n        /* \"#utility.yul\":5418:5517   */\n      swap2\n      swap1\n      pop\n      jump\t// out\n        /* \"#utility.yul\":5523:5671   */\n    tag_52:\n        /* \"#utility.yul\":5625:5636   */\n      0x00\n        /* \"#utility.yul\":5662:5665   */\n      dup2\n        /* \"#utility.yul\":5647:5665   */\n      swap1\n      pop\n        /* \"#utility.yul\":5523:5671   */\n      swap3\n      swap2\n      pop\n      pop\n      jump\t// out\n        /* \"#utility.yul\":5677:6067   */\n    tag_53:\n        /* \"#utility.yul\":5783:5786   */\n      0x00\n        /* \"#utility.yul\":5811:5850   */\n      tag_121\n        /* \"#utility.yul\":5844:5849   */\n      dup3\n        /* \"#utility.yul\":5811:5850   */\n      tag_51\n      jump\t// in\n    tag_121:\n        /* \"#utility.yul\":5866:5955   */\n      tag_122\n        /* \"#utility.yul\":5948:5954   */\n      dup2\n        /* \"#utility.yul\":5943:5946   */\n      dup6\n        /* \"#utility.yul\":5866:5955   */\n      tag_52\n      jump\t// in\n    tag_122:\n        /* \"#utility.yul\":5859:5955   */\n      swap4\n      pop\n        /* \"#utility.yul\":5964:6029   */\n      tag_123\n        /* \"#utility.yul\":6022:6028   */\n      dup2\n        /* \"#utility.yul\":6017:6020   */\n      dup6\n        /* \"#utility.yul\":6010:6014   */\n      0x20\n        /* \"#utility.yul\":6003:6008   */\n      dup7\n        /* \"#utility.yul\":5999:6015   */\n      add\n        /* \"#utility.yul\":5964:6029   */\n      tag_49\n      jump\t// in\n    tag_123:\n        /* \"#utility.yul\":6054:6060   */\n      dup1\n        /* \"#utility.yul\":6049:6052   */\n      dup5\n        /* \"#utility.yul\":6045:6061   */\n      add\n        /* \"#utility.yul\":6038:6061   */\n      swap2\n      pop\n        /* \"#utility.yul\":5787:6067   */\n      pop\n        /* \"#utility.yul\":5677:6067   */\n      swap3\n      swap2\n      pop\n      pop\n      jump\t// out\n        /* \"#utility.yul\":6073:6348   */\n    tag_28:\n        /* \"#utility.yul\":6205:6208   */\n      0x00\n        /* \"#utility.yul\":6227:6322   */\n      tag_125\n        /* \"#utility.yul\":6318:6321   */\n      dup3\n        /* \"#utility.yul\":6309:6315   */\n      dup5\n        /* \"#utility.yul\":6227:6322   */\n      tag_53\n      jump\t// in\n    tag_125:\n        /* \"#utility.yul\":6220:6322   */\n      swap2\n      pop\n        /* \"#utility.yul\":6339:6342   */\n      dup2\n        /* \"#utility.yul\":6332:6342   */\n      swap1\n      pop\n        /* \"#utility.yul\":6073:6348   */\n      swap3\n      swap2\n      pop\n      pop\n      jump\t// out\n\n    auxdata: 0xa2646970667358221220b378623a4813bc625b5835dd8875d722f6ca86cf1e2f4a83fea73b8610a346ae64736f6c63430008110033\n}\n",
				"bytecode": {
					"linkReferences": {},
					"object": "608060405260405180608001604052806040518060400160405280601581526020017f5458313a20536865726c6f636b202d3e204a6f686e000000000000000000000081525081526020016040518060400160405280601581526020017f5458323a204a6f686e202d3e20536865726c6f636b000000000000000000000081525081526020016040518060400160405280601181526020017f5458333a204a6f686e202d3e204d61727900000000000000000000000000000081525081526020016040518060400160405280601581526020017f5458343a204d617279202d3e20536865726c6f636b000000000000000000000081525081525060019060046200010b9291906200039b565b503480156200011957600080fd5b5060005b60048110156200021e576000620001e2600183600481106200014457620001436200047b565b5b0180546200015290620004d9565b80601f01602080910402602001604051908101604052809291908181526020018280546200018090620004d9565b8015620001d15780601f10620001a557610100808354040283529160200191620001d1565b820191906000526020600020905b815481529060010190602001808311620001b357829003601f168201915b50505050506200034f60201b60201c565b90806001815401808255809150506001900390600052602060002001600090919091909150558080620002159062000547565b9150506200011d565b5060006004905060005b6000821115620003475760005b60018362000244919062000594565b8110156200031f5760008082846200025d9190620005cf565b815481106200027157620002706200047b565b5b90600052602060002001546000600184866200028e9190620005cf565b6200029a9190620005cf565b81548110620002ae57620002ad6200047b565b5b9060005260206000200154604051602001620002cc92919062000639565b604051602081830303815290604052805190602001209080600181540180825580915050600190039060005260206000200160009091909190915055600281620003179190620005cf565b905062000235565b5081816200032e9190620005cf565b90506002826200033f919062000698565b915062000228565b505062000a4a565b600062000362826200037060201b60201c565b805190602001209050919050565b60608160405160200162000385919062000749565b6040516020818303038152906040529050919050565b8260048101928215620003db579160200282015b82811115620003da578251829081620003c9919062000963565b5091602001919060010190620003af565b5b509050620003ea9190620003ee565b5090565b5b8082111562000412576000818162000408919062000416565b50600101620003ef565b5090565b5080546200042490620004d9565b6000825580601f1062000438575062000459565b601f0160209004906000526020600020908101906200045891906200045c565b5b50565b5b80821115620004775760008160009055506001016200045d565b5090565b7f4e487b7100000000000000000000000000000000000000000000000000000000600052603260045260246000fd5b7f4e487b7100000000000000000000000000000000000000000000000000000000600052602260045260246000fd5b60006002820490506001821680620004f257607f821691505b602082108103620005085762000507620004aa565b5b50919050565b7f4e487b7100000000000000000000000000000000000000000000000000000000600052601160045260246000fd5b6000819050919050565b600062000554826200053d565b91507fffffffffffffffffffffffffffffffffffffffffffffffffffffffffffffffff82036200058957620005886200050e565b5b600182019050919050565b6000620005a1826200053d565b9150620005ae836200053d565b9250828203905081811115620005c957620005c86200050e565b5b92915050565b6000620005dc826200053d565b9150620005e9836200053d565b92508282019050808211156200060457620006036200050e565b5b92915050565b6000819050919050565b6000819050919050565b620006336200062d826200060a565b62000614565b82525050565b60006200064782856200061e565b6020820191506200065982846200061e565b6020820191508190509392505050565b7f4e487b7100000000000000000000000000000000000000000000000000000000600052601260045260246000fd5b6000620006a5826200053d565b9150620006b2836200053d565b925082620006c557620006c462000669565b5b828204905092915050565b600081519050919050565b600081905092915050565b60005b8381101562000706578082015181840152602081019050620006e9565b60008484015250505050565b60006200071f82620006d0565b6200072b8185620006db565b93506200073d818560208601620006e6565b80840191505092915050565b600062000757828462000712565b915081905092915050565b7f4e487b7100000000000000000000000000000000000000000000000000000000600052604160045260246000fd5b60008190508160005260206000209050919050565b60006020601f8301049050919050565b600082821b905092915050565b600060088302620007f57fffffffffffffffffffffffffffffffffffffffffffffffffffffffffffffffff82620007b6565b620008018683620007b6565b95508019841693508086168417925050509392505050565b6000819050919050565b6000620008446200083e62000838846200053d565b62000819565b6200053d565b9050919050565b6000819050919050565b620008608362000823565b620008786200086f826200084b565b848454620007c3565b825550505050565b600090565b6200088f62000880565b6200089c81848462000855565b505050565b5b81811015620008c457620008b860008262000885565b600181019050620008a2565b5050565b601f8211156200091357620008dd8162000791565b620008e884620007a6565b81016020851015620008f8578190505b620009106200090785620007a6565b830182620008a1565b50505b505050565b600082821c905092915050565b6000620009386000198460080262000918565b1980831691505092915050565b600062000953838362000925565b9150826002028217905092915050565b6200096e82620006d0565b67ffffffffffffffff8111156200098a576200098962000762565b5b620009968254620004d9565b620009a3828285620008c8565b600060209050601f831160018114620009db5760008415620009c6578287015190505b620009d2858262000945565b86555062000a42565b601f198416620009eb8662000791565b60005b8281101562000a1557848901518255600182019150602085019450602081019050620009ee565b8683101562000a35578489015162000a31601f89168262000925565b8355505b6001600288020188555050505b505050505050565b6104ab8062000a5a6000396000f3fe608060405234801561001057600080fd5b50600436106100415760003560e01c8063501895ae1461004657806352de70af146100765780636a11b2a8146100a6575b600080fd5b610060600480360381019061005b9190610186565b6100d6565b60405161006d91906101cc565b60405180910390f35b610090600480360381019061008b919061032d565b6100fa565b60405161009d91906101cc565b60405180910390f35b6100c060048036038101906100bb919061032d565b610113565b6040516100cd91906103f5565b60405180910390f35b600081815481106100e657600080fd5b906000526020600020016000915090505481565b600061010582610113565b805190602001209050919050565b606081604051602001610126919061045e565b6040516020818303038152906040529050919050565b6000604051905090565b600080fd5b600080fd5b6000819050919050565b61016381610150565b811461016e57600080fd5b50565b6000813590506101808161015a565b92915050565b60006020828403121561019c5761019b610146565b5b60006101aa84828501610171565b91505092915050565b6000819050919050565b6101c6816101b3565b82525050565b60006020820190506101e160008301846101bd565b92915050565b600080fd5b600080fd5b6000601f19601f8301169050919050565b7f4e487b7100000000000000000000000000000000000000000000000000000000600052604160045260246000fd5b61023a826101f1565b810181811067ffffffffffffffff8211171561025957610258610202565b5b80604052505050565b600061026c61013c565b90506102788282610231565b919050565b600067ffffffffffffffff82111561029857610297610202565b5b6102a1826101f1565b9050602081019050919050565b82818337600083830152505050565b60006102d06102cb8461027d565b610262565b9050828152602081018484840111156102ec576102eb6101ec565b5b6102f78482856102ae565b509392505050565b600082601f830112610314576103136101e7565b5b81356103248482602086016102bd565b91505092915050565b60006020828403121561034357610342610146565b5b600082013567ffffffffffffffff8111156103615761036061014b565b5b61036d848285016102ff565b91505092915050565b600081519050919050565b600082825260208201905092915050565b60005b838110156103b0578082015181840152602081019050610395565b60008484015250505050565b60006103c782610376565b6103d18185610381565b93506103e1818560208601610392565b6103ea816101f1565b840191505092915050565b6000602082019050818103600083015261040f81846103bc565b905092915050565b600081519050919050565b600081905092915050565b600061043882610417565b6104428185610422565b9350610452818560208601610392565b80840191505092915050565b600061046a828461042d565b91508190509291505056fea2646970667358221220b378623a4813bc625b5835dd8875d722f6ca86cf1e2f4a83fea73b8610a346ae64736f6c63430008110033",
					"opcodes": "PUSH1 0x80 PUSH1 0x40 MSTORE PUSH1 0x40 MLOAD DUP1 PUSH1 0x80 ADD PUSH1 0x40 MSTORE DUP1 PUSH1 0x40 MLOAD DUP1 PUSH1 0x40 ADD PUSH1 0x40 MSTORE DUP1 PUSH1 0x15 DUP2 MSTORE PUSH1 0x20 ADD PUSH32 0x5458313A20536865726C6F636B202D3E204A6F686E0000000000000000000000 DUP2 MSTORE POP DUP2 MSTORE PUSH1 0x20 ADD PUSH1 0x40 MLOAD DUP1 PUSH1 0x40 ADD PUSH1 0x40 MSTORE DUP1 PUSH1 0x15 DUP2 MSTORE PUSH1 0x20 ADD PUSH32 0x5458323A204A6F686E202D3E20536865726C6F636B0000000000000000000000 DUP2 MSTORE POP DUP2 MSTORE PUSH1 0x20 ADD PUSH1 0x40 MLOAD DUP1 PUSH1 0x40 ADD PUSH1 0x40 MSTORE DUP1 PUSH1 0x11 DUP2 MSTORE PUSH1 0x20 ADD PUSH32 0x5458333A204A6F686E202D3E204D617279000000000000000000000000000000 DUP2 MSTORE POP DUP2 MSTORE PUSH1 0x20 ADD PUSH1 0x40 MLOAD DUP1 PUSH1 0x40 ADD PUSH1 0x40 MSTORE DUP1 PUSH1 0x15 DUP2 MSTORE PUSH1 0x20 ADD PUSH32 0x5458343A204D617279202D3E20536865726C6F636B0000000000000000000000 DUP2 MSTORE POP DUP2 MSTORE POP PUSH1 0x1 SWAP1 PUSH1 0x4 PUSH3 0x10B SWAP3 SWAP2 SWAP1 PUSH3 0x39B JUMP JUMPDEST POP CALLVALUE DUP1 ISZERO PUSH3 0x119 JUMPI PUSH1 0x0 DUP1 REVERT JUMPDEST POP PUSH1 0x0 JUMPDEST PUSH1 0x4 DUP2 LT ISZERO PUSH3 0x21E JUMPI PUSH1 0x0 PUSH3 0x1E2 PUSH1 0x1 DUP4 PUSH1 0x4 DUP2 LT PUSH3 0x144 JUMPI PUSH3 0x143 PUSH3 0x47B JUMP JUMPDEST JUMPDEST ADD DUP1 SLOAD PUSH3 0x152 SWAP1 PUSH3 0x4D9 JUMP JUMPDEST DUP1 PUSH1 0x1F ADD PUSH1 0x20 DUP1 SWAP2 DIV MUL PUSH1 0x20 ADD PUSH1 0x40 MLOAD SWAP1 DUP2 ADD PUSH1 0x40 MSTORE DUP1 SWAP3 SWAP2 SWAP1 DUP2 DUP2 MSTORE PUSH1 0x20 ADD DUP3 DUP1 SLOAD PUSH3 0x180 SWAP1 PUSH3 0x4D9 JUMP JUMPDEST DUP1 ISZERO PUSH3 0x1D1 JUMPI DUP1 PUSH1 0x1F LT PUSH3 0x1A5 JUMPI PUSH2 0x100 DUP1 DUP4 SLOAD DIV MUL DUP4 MSTORE SWAP2 PUSH1 0x20 ADD SWAP2 PUSH3 0x1D1 JUMP JUMPDEST DUP3 ADD SWAP2 SWAP1 PUSH1 0x0 MSTORE PUSH1 0x20 PUSH1 0x0 KECCAK256 SWAP1 JUMPDEST DUP2 SLOAD DUP2 MSTORE SWAP1 PUSH1 0x1 ADD SWAP1 PUSH1 0x20 ADD DUP1 DUP4 GT PUSH3 0x1B3 JUMPI DUP3 SWAP1 SUB PUSH1 0x1F AND DUP3 ADD SWAP2 JUMPDEST POP POP POP POP POP PUSH3 0x34F PUSH1 0x20 SHL PUSH1 0x20 SHR JUMP JUMPDEST SWAP1 DUP1 PUSH1 0x1 DUP2 SLOAD ADD DUP1 DUP3 SSTORE DUP1 SWAP2 POP POP PUSH1 0x1 SWAP1 SUB SWAP1 PUSH1 0x0 MSTORE PUSH1 0x20 PUSH1 0x0 KECCAK256 ADD PUSH1 0x0 SWAP1 SWAP2 SWAP1 SWAP2 SWAP1 SWAP2 POP SSTORE DUP1 DUP1 PUSH3 0x215 SWAP1 PUSH3 0x547 JUMP JUMPDEST SWAP2 POP POP PUSH3 0x11D JUMP JUMPDEST POP PUSH1 0x0 PUSH1 0x4 SWAP1 POP PUSH1 0x0 JUMPDEST PUSH1 0x0 DUP3 GT ISZERO PUSH3 0x347 JUMPI PUSH1 0x0 JUMPDEST PUSH1 0x1 DUP4 PUSH3 0x244 SWAP2 SWAP1 PUSH3 0x594 JUMP JUMPDEST DUP2 LT ISZERO PUSH3 0x31F JUMPI PUSH1 0x0 DUP1 DUP3 DUP5 PUSH3 0x25D SWAP2 SWAP1 PUSH3 0x5CF JUMP JUMPDEST DUP2 SLOAD DUP2 LT PUSH3 0x271 JUMPI PUSH3 0x270 PUSH3 0x47B JUMP JUMPDEST JUMPDEST SWAP1 PUSH1 0x0 MSTORE PUSH1 0x20 PUSH1 0x0 KECCAK256 ADD SLOAD PUSH1 0x0 PUSH1 0x1 DUP5 DUP7 PUSH3 0x28E SWAP2 SWAP1 PUSH3 0x5CF JUMP JUMPDEST PUSH3 0x29A SWAP2 SWAP1 PUSH3 0x5CF JUMP JUMPDEST DUP2 SLOAD DUP2 LT PUSH3 0x2AE JUMPI PUSH3 0x2AD PUSH3 0x47B JUMP JUMPDEST JUMPDEST SWAP1 PUSH1 0x0 MSTORE PUSH1 0x20 PUSH1 0x0 KECCAK256 ADD SLOAD PUSH1 0x40 MLOAD PUSH1 0x20 ADD PUSH3 0x2CC SWAP3 SWAP2 SWAP1 PUSH3 0x639 JUMP JUMPDEST PUSH1 0x40 MLOAD PUSH1 0x20 DUP2 DUP4 SUB SUB DUP2 MSTORE SWAP1 PUSH1 0x40 MSTORE DUP1 MLOAD SWAP1 PUSH1 0x20 ADD KECCAK256 SWAP1 DUP1 PUSH1 0x1 DUP2 SLOAD ADD DUP1 DUP3 SSTORE DUP1 SWAP2 POP POP PUSH1 0x1 SWAP1 SUB SWAP1 PUSH1 0x0 MSTORE PUSH1 0x20 PUSH1 0x0 KECCAK256 ADD PUSH1 0x0 SWAP1 SWAP2 SWAP1 SWAP2 SWAP1 SWAP2 POP SSTORE PUSH1 0x2 DUP2 PUSH3 0x317 SWAP2 SWAP1 PUSH3 0x5CF JUMP JUMPDEST SWAP1 POP PUSH3 0x235 JUMP JUMPDEST POP DUP2 DUP2 PUSH3 0x32E SWAP2 SWAP1 PUSH3 0x5CF JUMP JUMPDEST SWAP1 POP PUSH1 0x2 DUP3 PUSH3 0x33F SWAP2 SWAP1 PUSH3 0x698 JUMP JUMPDEST SWAP2 POP PUSH3 0x228 JUMP JUMPDEST POP POP PUSH3 0xA4A JUMP JUMPDEST PUSH1 0x0 PUSH3 0x362 DUP3 PUSH3 0x370 PUSH1 0x20 SHL PUSH1 0x20 SHR JUMP JUMPDEST DUP1 MLOAD SWAP1 PUSH1 0x20 ADD KECCAK256 SWAP1 POP SWAP2 SWAP1 POP JUMP JUMPDEST PUSH1 0x60 DUP2 PUSH1 0x40 MLOAD PUSH1 0x20 ADD PUSH3 0x385 SWAP2 SWAP1 PUSH3 0x749 JUMP JUMPDEST PUSH1 0x40 MLOAD PUSH1 0x20 DUP2 DUP4 SUB SUB DUP2 MSTORE SWAP1 PUSH1 0x40 MSTORE SWAP1 POP SWAP2 SWAP1 POP JUMP JUMPDEST DUP3 PUSH1 0x4 DUP2 ADD SWAP3 DUP3 ISZERO PUSH3 0x3DB JUMPI SWAP2 PUSH1 0x20 MUL DUP3 ADD JUMPDEST DUP3 DUP2 GT ISZERO PUSH3 0x3DA JUMPI DUP3 MLOAD DUP3 SWAP1 DUP2 PUSH3 0x3C9 SWAP2 SWAP1 PUSH3 0x963 JUMP JUMPDEST POP SWAP2 PUSH1 0x20 ADD SWAP2 SWAP1 PUSH1 0x1 ADD SWAP1 PUSH3 0x3AF JUMP JUMPDEST JUMPDEST POP SWAP1 POP PUSH3 0x3EA SWAP2 SWAP1 PUSH3 0x3EE JUMP JUMPDEST POP SWAP1 JUMP JUMPDEST JUMPDEST DUP1 DUP3 GT ISZERO PUSH3 0x412 JUMPI PUSH1 0x0 DUP2 DUP2 PUSH3 0x408 SWAP2 SWAP1 PUSH3 0x416 JUMP JUMPDEST POP PUSH1 0x1 ADD PUSH3 0x3EF JUMP JUMPDEST POP SWAP1 JUMP JUMPDEST POP DUP1 SLOAD PUSH3 0x424 SWAP1 PUSH3 0x4D9 JUMP JUMPDEST PUSH1 0x0 DUP3 SSTORE DUP1 PUSH1 0x1F LT PUSH3 0x438 JUMPI POP PUSH3 0x459 JUMP JUMPDEST PUSH1 0x1F ADD PUSH1 0x20 SWAP1 DIV SWAP1 PUSH1 0x0 MSTORE PUSH1 0x20 PUSH1 0x0 KECCAK256 SWAP1 DUP2 ADD SWAP1 PUSH3 0x458 SWAP2 SWAP1 PUSH3 0x45C JUMP JUMPDEST JUMPDEST POP JUMP JUMPDEST JUMPDEST DUP1 DUP3 GT ISZERO PUSH3 0x477 JUMPI PUSH1 0x0 DUP2 PUSH1 0x0 SWAP1 SSTORE POP PUSH1 0x1 ADD PUSH3 0x45D JUMP JUMPDEST POP SWAP1 JUMP JUMPDEST PUSH32 0x4E487B7100000000000000000000000000000000000000000000000000000000 PUSH1 0x0 MSTORE PUSH1 0x32 PUSH1 0x4 MSTORE PUSH1 0x24 PUSH1 0x0 REVERT JUMPDEST PUSH32 0x4E487B7100000000000000000000000000000000000000000000000000000000 PUSH1 0x0 MSTORE PUSH1 0x22 PUSH1 0x4 MSTORE PUSH1 0x24 PUSH1 0x0 REVERT JUMPDEST PUSH1 0x0 PUSH1 0x2 DUP3 DIV SWAP1 POP PUSH1 0x1 DUP3 AND DUP1 PUSH3 0x4F2 JUMPI PUSH1 0x7F DUP3 AND SWAP2 POP JUMPDEST PUSH1 0x20 DUP3 LT DUP2 SUB PUSH3 0x508 JUMPI PUSH3 0x507 PUSH3 0x4AA JUMP JUMPDEST JUMPDEST POP SWAP2 SWAP1 POP JUMP JUMPDEST PUSH32 0x4E487B7100000000000000000000000000000000000000000000000000000000 PUSH1 0x0 MSTORE PUSH1 0x11 PUSH1 0x4 MSTORE PUSH1 0x24 PUSH1 0x0 REVERT JUMPDEST PUSH1 0x0 DUP2 SWAP1 POP SWAP2 SWAP1 POP JUMP JUMPDEST PUSH1 0x0 PUSH3 0x554 DUP3 PUSH3 0x53D JUMP JUMPDEST SWAP2 POP PUSH32 0xFFFFFFFFFFFFFFFFFFFFFFFFFFFFFFFFFFFFFFFFFFFFFFFFFFFFFFFFFFFFFFFF DUP3 SUB PUSH3 0x589 JUMPI PUSH3 0x588 PUSH3 0x50E JUMP JUMPDEST JUMPDEST PUSH1 0x1 DUP3 ADD SWAP1 POP SWAP2 SWAP1 POP JUMP JUMPDEST PUSH1 0x0 PUSH3 0x5A1 DUP3 PUSH3 0x53D JUMP JUMPDEST SWAP2 POP PUSH3 0x5AE DUP4 PUSH3 0x53D JUMP JUMPDEST SWAP3 POP DUP3 DUP3 SUB SWAP1 POP DUP2 DUP2 GT ISZERO PUSH3 0x5C9 JUMPI PUSH3 0x5C8 PUSH3 0x50E JUMP JUMPDEST JUMPDEST SWAP3 SWAP2 POP POP JUMP JUMPDEST PUSH1 0x0 PUSH3 0x5DC DUP3 PUSH3 0x53D JUMP JUMPDEST SWAP2 POP PUSH3 0x5E9 DUP4 PUSH3 0x53D JUMP JUMPDEST SWAP3 POP DUP3 DUP3 ADD SWAP1 POP DUP1 DUP3 GT ISZERO PUSH3 0x604 JUMPI PUSH3 0x603 PUSH3 0x50E JUMP JUMPDEST JUMPDEST SWAP3 SWAP2 POP POP JUMP JUMPDEST PUSH1 0x0 DUP2 SWAP1 POP SWAP2 SWAP1 POP JUMP JUMPDEST PUSH1 0x0 DUP2 SWAP1 POP SWAP2 SWAP1 POP JUMP JUMPDEST PUSH3 0x633 PUSH3 0x62D DUP3 PUSH3 0x60A JUMP JUMPDEST PUSH3 0x614 JUMP JUMPDEST DUP3 MSTORE POP POP JUMP JUMPDEST PUSH1 0x0 PUSH3 0x647 DUP3 DUP6 PUSH3 0x61E JUMP JUMPDEST PUSH1 0x20 DUP3 ADD SWAP2 POP PUSH3 0x659 DUP3 DUP5 PUSH3 0x61E JUMP JUMPDEST PUSH1 0x20 DUP3 ADD SWAP2 POP DUP2 SWAP1 POP SWAP4 SWAP3 POP POP POP JUMP JUMPDEST PUSH32 0x4E487B7100000000000000000000000000000000000000000000000000000000 PUSH1 0x0 MSTORE PUSH1 0x12 PUSH1 0x4 MSTORE PUSH1 0x24 PUSH1 0x0 REVERT JUMPDEST PUSH1 0x0 PUSH3 0x6A5 DUP3 PUSH3 0x53D JUMP JUMPDEST SWAP2 POP PUSH3 0x6B2 DUP4 PUSH3 0x53D JUMP JUMPDEST SWAP3 POP DUP3 PUSH3 0x6C5 JUMPI PUSH3 0x6C4 PUSH3 0x669 JUMP JUMPDEST JUMPDEST DUP3 DUP3 DIV SWAP1 POP SWAP3 SWAP2 POP POP JUMP JUMPDEST PUSH1 0x0 DUP2 MLOAD SWAP1 POP SWAP2 SWAP1 POP JUMP JUMPDEST PUSH1 0x0 DUP2 SWAP1 POP SWAP3 SWAP2 POP POP JUMP JUMPDEST PUSH1 0x0 JUMPDEST DUP4 DUP2 LT ISZERO PUSH3 0x706 JUMPI DUP1 DUP3 ADD MLOAD DUP2 DUP5 ADD MSTORE PUSH1 0x20 DUP2 ADD SWAP1 POP PUSH3 0x6E9 JUMP JUMPDEST PUSH1 0x0 DUP5 DUP5 ADD MSTORE POP POP POP POP JUMP JUMPDEST PUSH1 0x0 PUSH3 0x71F DUP3 PUSH3 0x6D0 JUMP JUMPDEST PUSH3 0x72B DUP2 DUP6 PUSH3 0x6DB JUMP JUMPDEST SWAP4 POP PUSH3 0x73D DUP2 DUP6 PUSH1 0x20 DUP7 ADD PUSH3 0x6E6 JUMP JUMPDEST DUP1 DUP5 ADD SWAP2 POP POP SWAP3 SWAP2 POP POP JUMP JUMPDEST PUSH1 0x0 PUSH3 0x757 DUP3 DUP5 PUSH3 0x712 JUMP JUMPDEST SWAP2 POP DUP2 SWAP1 POP SWAP3 SWAP2 POP POP JUMP JUMPDEST PUSH32 0x4E487B7100000000000000000000000000000000000000000000000000000000 PUSH1 0x0 MSTORE PUSH1 0x41 PUSH1 0x4 MSTORE PUSH1 0x24 PUSH1 0x0 REVERT JUMPDEST PUSH1 0x0 DUP2 SWAP1 POP DUP2 PUSH1 0x0 MSTORE PUSH1 0x20 PUSH1 0x0 KECCAK256 SWAP1 POP SWAP2 SWAP1 POP JUMP JUMPDEST PUSH1 0x0 PUSH1 0x20 PUSH1 0x1F DUP4 ADD DIV SWAP1 POP SWAP2 SWAP1 POP JUMP JUMPDEST PUSH1 0x0 DUP3 DUP3 SHL SWAP1 POP SWAP3 SWAP2 POP POP JUMP JUMPDEST PUSH1 0x0 PUSH1 0x8 DUP4 MUL PUSH3 0x7F5 PUSH32 0xFFFFFFFFFFFFFFFFFFFFFFFFFFFFFFFFFFFFFFFFFFFFFFFFFFFFFFFFFFFFFFFF DUP3 PUSH3 0x7B6 JUMP JUMPDEST PUSH3 0x801 DUP7 DUP4 PUSH3 0x7B6 JUMP JUMPDEST SWAP6 POP DUP1 NOT DUP5 AND SWAP4 POP DUP1 DUP7 AND DUP5 OR SWAP3 POP POP POP SWAP4 SWAP3 POP POP POP JUMP JUMPDEST PUSH1 0x0 DUP2 SWAP1 POP SWAP2 SWAP1 POP JUMP JUMPDEST PUSH1 0x0 PUSH3 0x844 PUSH3 0x83E PUSH3 0x838 DUP5 PUSH3 0x53D JUMP JUMPDEST PUSH3 0x819 JUMP JUMPDEST PUSH3 0x53D JUMP JUMPDEST SWAP1 POP SWAP2 SWAP1 POP JUMP JUMPDEST PUSH1 0x0 DUP2 SWAP1 POP SWAP2 SWAP1 POP JUMP JUMPDEST PUSH3 0x860 DUP4 PUSH3 0x823 JUMP JUMPDEST PUSH3 0x878 PUSH3 0x86F DUP3 PUSH3 0x84B JUMP JUMPDEST DUP5 DUP5 SLOAD PUSH3 0x7C3 JUMP JUMPDEST DUP3 SSTORE POP POP POP POP JUMP JUMPDEST PUSH1 0x0 SWAP1 JUMP JUMPDEST PUSH3 0x88F PUSH3 0x880 JUMP JUMPDEST PUSH3 0x89C DUP2 DUP5 DUP5 PUSH3 0x855 JUMP JUMPDEST POP POP POP JUMP JUMPDEST JUMPDEST DUP2 DUP2 LT ISZERO PUSH3 0x8C4 JUMPI PUSH3 0x8B8 PUSH1 0x0 DUP3 PUSH3 0x885 JUMP JUMPDEST PUSH1 0x1 DUP2 ADD SWAP1 POP PUSH3 0x8A2 JUMP JUMPDEST POP POP JUMP JUMPDEST PUSH1 0x1F DUP3 GT ISZERO PUSH3 0x913 JUMPI PUSH3 0x8DD DUP2 PUSH3 0x791 JUMP JUMPDEST PUSH3 0x8E8 DUP5 PUSH3 0x7A6 JUMP JUMPDEST DUP2 ADD PUSH1 0x20 DUP6 LT ISZERO PUSH3 0x8F8 JUMPI DUP2 SWAP1 POP JUMPDEST PUSH3 0x910 PUSH3 0x907 DUP6 PUSH3 0x7A6 JUMP JUMPDEST DUP4 ADD DUP3 PUSH3 0x8A1 JUMP JUMPDEST POP POP JUMPDEST POP POP POP JUMP JUMPDEST PUSH1 0x0 DUP3 DUP3 SHR SWAP1 POP SWAP3 SWAP2 POP POP JUMP JUMPDEST PUSH1 0x0 PUSH3 0x938 PUSH1 0x0 NOT DUP5 PUSH1 0x8 MUL PUSH3 0x918 JUMP JUMPDEST NOT DUP1 DUP4 AND SWAP2 POP POP SWAP3 SWAP2 POP POP JUMP JUMPDEST PUSH1 0x0 PUSH3 0x953 DUP4 DUP4 PUSH3 0x925 JUMP JUMPDEST SWAP2 POP DUP3 PUSH1 0x2 MUL DUP3 OR SWAP1 POP SWAP3 SWAP2 POP POP JUMP JUMPDEST PUSH3 0x96E DUP3 PUSH3 0x6D0 JUMP JUMPDEST PUSH8 0xFFFFFFFFFFFFFFFF DUP2 GT ISZERO PUSH3 0x98A JUMPI PUSH3 0x989 PUSH3 0x762 JUMP JUMPDEST JUMPDEST PUSH3 0x996 DUP3 SLOAD PUSH3 0x4D9 JUMP JUMPDEST PUSH3 0x9A3 DUP3 DUP3 DUP6 PUSH3 0x8C8 JUMP JUMPDEST PUSH1 0x0 PUSH1 0x20 SWAP1 POP PUSH1 0x1F DUP4 GT PUSH1 0x1 DUP2 EQ PUSH3 0x9DB JUMPI PUSH1 0x0 DUP5 ISZERO PUSH3 0x9C6 JUMPI DUP3 DUP8 ADD MLOAD SWAP1 POP JUMPDEST PUSH3 0x9D2 DUP6 DUP3 PUSH3 0x945 JUMP JUMPDEST DUP7 SSTORE POP PUSH3 0xA42 JUMP JUMPDEST PUSH1 0x1F NOT DUP5 AND PUSH3 0x9EB DUP7 PUSH3 0x791 JUMP JUMPDEST PUSH1 0x0 JUMPDEST DUP3 DUP2 LT ISZERO PUSH3 0xA15 JUMPI DUP5 DUP10 ADD MLOAD DUP3 SSTORE PUSH1 0x1 DUP3 ADD SWAP2 POP PUSH1 0x20 DUP6 ADD SWAP5 POP PUSH1 0x20 DUP2 ADD SWAP1 POP PUSH3 0x9EE JUMP JUMPDEST DUP7 DUP4 LT ISZERO PUSH3 0xA35 JUMPI DUP5 DUP10 ADD MLOAD PUSH3 0xA31 PUSH1 0x1F DUP10 AND DUP3 PUSH3 0x925 JUMP JUMPDEST DUP4 SSTORE POP JUMPDEST PUSH1 0x1 PUSH1 0x2 DUP9 MUL ADD DUP9 SSTORE POP POP POP JUMPDEST POP POP POP POP POP POP JUMP JUMPDEST PUSH2 0x4AB DUP1 PUSH3 0xA5A PUSH1 0x0 CODECOPY PUSH1 0x0 RETURN INVALID PUSH1 0x80 PUSH1 0x40 MSTORE CALLVALUE DUP1 ISZERO PUSH2 0x10 JUMPI PUSH1 0x0 DUP1 REVERT JUMPDEST POP PUSH1 0x4 CALLDATASIZE LT PUSH2 0x41 JUMPI PUSH1 0x0 CALLDATALOAD PUSH1 0xE0 SHR DUP1 PUSH4 0x501895AE EQ PUSH2 0x46 JUMPI DUP1 PUSH4 0x52DE70AF EQ PUSH2 0x76 JUMPI DUP1 PUSH4 0x6A11B2A8 EQ PUSH2 0xA6 JUMPI JUMPDEST PUSH1 0x0 DUP1 REVERT JUMPDEST PUSH2 0x60 PUSH1 0x4 DUP1 CALLDATASIZE SUB DUP2 ADD SWAP1 PUSH2 0x5B SWAP2 SWAP1 PUSH2 0x186 JUMP JUMPDEST PUSH2 0xD6 JUMP JUMPDEST PUSH1 0x40 MLOAD PUSH2 0x6D SWAP2 SWAP1 PUSH2 0x1CC JUMP JUMPDEST PUSH1 0x40 MLOAD DUP1 SWAP2 SUB SWAP1 RETURN JUMPDEST PUSH2 0x90 PUSH1 0x4 DUP1 CALLDATASIZE SUB DUP2 ADD SWAP1 PUSH2 0x8B SWAP2 SWAP1 PUSH2 0x32D JUMP JUMPDEST PUSH2 0xFA JUMP JUMPDEST PUSH1 0x40 MLOAD PUSH2 0x9D SWAP2 SWAP1 PUSH2 0x1CC JUMP JUMPDEST PUSH1 0x40 MLOAD DUP1 SWAP2 SUB SWAP1 RETURN JUMPDEST PUSH2 0xC0 PUSH1 0x4 DUP1 CALLDATASIZE SUB DUP2 ADD SWAP1 PUSH2 0xBB SWAP2 SWAP1 PUSH2 0x32D JUMP JUMPDEST PUSH2 0x113 JUMP JUMPDEST PUSH1 0x40 MLOAD PUSH2 0xCD SWAP2 SWAP1 PUSH2 0x3F5 JUMP JUMPDEST PUSH1 0x40 MLOAD DUP1 SWAP2 SUB SWAP1 RETURN JUMPDEST PUSH1 0x0 DUP2 DUP2 SLOAD DUP2 LT PUSH2 0xE6 JUMPI PUSH1 0x0 DUP1 REVERT JUMPDEST SWAP1 PUSH1 0x0 MSTORE PUSH1 0x20 PUSH1 0x0 KECCAK256 ADD PUSH1 0x0 SWAP2 POP SWAP1 POP SLOAD DUP2 JUMP JUMPDEST PUSH1 0x0 PUSH2 0x105 DUP3 PUSH2 0x113 JUMP JUMPDEST DUP1 MLOAD SWAP1 PUSH1 0x20 ADD KECCAK256 SWAP1 POP SWAP2 SWAP1 POP JUMP JUMPDEST PUSH1 0x60 DUP2 PUSH1 0x40 MLOAD PUSH1 0x20 ADD PUSH2 0x126 SWAP2 SWAP1 PUSH2 0x45E JUMP JUMPDEST PUSH1 0x40 MLOAD PUSH1 0x20 DUP2 DUP4 SUB SUB DUP2 MSTORE SWAP1 PUSH1 0x40 MSTORE SWAP1 POP SWAP2 SWAP1 POP JUMP JUMPDEST PUSH1 0x0 PUSH1 0x40 MLOAD SWAP1 POP SWAP1 JUMP JUMPDEST PUSH1 0x0 DUP1 REVERT JUMPDEST PUSH1 0x0 DUP1 REVERT JUMPDEST PUSH1 0x0 DUP2 SWAP1 POP SWAP2 SWAP1 POP JUMP JUMPDEST PUSH2 0x163 DUP2 PUSH2 0x150 JUMP JUMPDEST DUP2 EQ PUSH2 0x16E JUMPI PUSH1 0x0 DUP1 REVERT JUMPDEST POP JUMP JUMPDEST PUSH1 0x0 DUP2 CALLDATALOAD SWAP1 POP PUSH2 0x180 DUP2 PUSH2 0x15A JUMP JUMPDEST SWAP3 SWAP2 POP POP JUMP JUMPDEST PUSH1 0x0 PUSH1 0x20 DUP3 DUP5 SUB SLT ISZERO PUSH2 0x19C JUMPI PUSH2 0x19B PUSH2 0x146 JUMP JUMPDEST JUMPDEST PUSH1 0x0 PUSH2 0x1AA DUP5 DUP3 DUP6 ADD PUSH2 0x171 JUMP JUMPDEST SWAP2 POP POP SWAP3 SWAP2 POP POP JUMP JUMPDEST PUSH1 0x0 DUP2 SWAP1 POP SWAP2 SWAP1 POP JUMP JUMPDEST PUSH2 0x1C6 DUP2 PUSH2 0x1B3 JUMP JUMPDEST DUP3 MSTORE POP POP JUMP JUMPDEST PUSH1 0x0 PUSH1 0x20 DUP3 ADD SWAP1 POP PUSH2 0x1E1 PUSH1 0x0 DUP4 ADD DUP5 PUSH2 0x1BD JUMP JUMPDEST SWAP3 SWAP2 POP POP JUMP JUMPDEST PUSH1 0x0 DUP1 REVERT JUMPDEST PUSH1 0x0 DUP1 REVERT JUMPDEST PUSH1 0x0 PUSH1 0x1F NOT PUSH1 0x1F DUP4 ADD AND SWAP1 POP SWAP2 SWAP1 POP JUMP JUMPDEST PUSH32 0x4E487B7100000000000000000000000000000000000000000000000000000000 PUSH1 0x0 MSTORE PUSH1 0x41 PUSH1 0x4 MSTORE PUSH1 0x24 PUSH1 0x0 REVERT JUMPDEST PUSH2 0x23A DUP3 PUSH2 0x1F1 JUMP JUMPDEST DUP2 ADD DUP2 DUP2 LT PUSH8 0xFFFFFFFFFFFFFFFF DUP3 GT OR ISZERO PUSH2 0x259 JUMPI PUSH2 0x258 PUSH2 0x202 JUMP JUMPDEST JUMPDEST DUP1 PUSH1 0x40 MSTORE POP POP POP JUMP JUMPDEST PUSH1 0x0 PUSH2 0x26C PUSH2 0x13C JUMP JUMPDEST SWAP1 POP PUSH2 0x278 DUP3 DUP3 PUSH2 0x231 JUMP JUMPDEST SWAP2 SWAP1 POP JUMP JUMPDEST PUSH1 0x0 PUSH8 0xFFFFFFFFFFFFFFFF DUP3 GT ISZERO PUSH2 0x298 JUMPI PUSH2 0x297 PUSH2 0x202 JUMP JUMPDEST JUMPDEST PUSH2 0x2A1 DUP3 PUSH2 0x1F1 JUMP JUMPDEST SWAP1 POP PUSH1 0x20 DUP2 ADD SWAP1 POP SWAP2 SWAP1 POP JUMP JUMPDEST DUP3 DUP2 DUP4 CALLDATACOPY PUSH1 0x0 DUP4 DUP4 ADD MSTORE POP POP POP JUMP JUMPDEST PUSH1 0x0 PUSH2 0x2D0 PUSH2 0x2CB DUP5 PUSH2 0x27D JUMP JUMPDEST PUSH2 0x262 JUMP JUMPDEST SWAP1 POP DUP3 DUP2 MSTORE PUSH1 0x20 DUP2 ADD DUP5 DUP5 DUP5 ADD GT ISZERO PUSH2 0x2EC JUMPI PUSH2 0x2EB PUSH2 0x1EC JUMP JUMPDEST JUMPDEST PUSH2 0x2F7 DUP5 DUP3 DUP6 PUSH2 0x2AE JUMP JUMPDEST POP SWAP4 SWAP3 POP POP POP JUMP JUMPDEST PUSH1 0x0 DUP3 PUSH1 0x1F DUP4 ADD SLT PUSH2 0x314 JUMPI PUSH2 0x313 PUSH2 0x1E7 JUMP JUMPDEST JUMPDEST DUP2 CALLDATALOAD PUSH2 0x324 DUP5 DUP3 PUSH1 0x20 DUP7 ADD PUSH2 0x2BD JUMP JUMPDEST SWAP2 POP POP SWAP3 SWAP2 POP POP JUMP JUMPDEST PUSH1 0x0 PUSH1 0x20 DUP3 DUP5 SUB SLT ISZERO PUSH2 0x343 JUMPI PUSH2 0x342 PUSH2 0x146 JUMP JUMPDEST JUMPDEST PUSH1 0x0 DUP3 ADD CALLDATALOAD PUSH8 0xFFFFFFFFFFFFFFFF DUP2 GT ISZERO PUSH2 0x361 JUMPI PUSH2 0x360 PUSH2 0x14B JUMP JUMPDEST JUMPDEST PUSH2 0x36D DUP5 DUP3 DUP6 ADD PUSH2 0x2FF JUMP JUMPDEST SWAP2 POP POP SWAP3 SWAP2 POP POP JUMP JUMPDEST PUSH1 0x0 DUP2 MLOAD SWAP1 POP SWAP2 SWAP1 POP JUMP JUMPDEST PUSH1 0x0 DUP3 DUP3 MSTORE PUSH1 0x20 DUP3 ADD SWAP1 POP SWAP3 SWAP2 POP POP JUMP JUMPDEST PUSH1 0x0 JUMPDEST DUP4 DUP2 LT ISZERO PUSH2 0x3B0 JUMPI DUP1 DUP3 ADD MLOAD DUP2 DUP5 ADD MSTORE PUSH1 0x20 DUP2 ADD SWAP1 POP PUSH2 0x395 JUMP JUMPDEST PUSH1 0x0 DUP5 DUP5 ADD MSTORE POP POP POP POP JUMP JUMPDEST PUSH1 0x0 PUSH2 0x3C7 DUP3 PUSH2 0x376 JUMP JUMPDEST PUSH2 0x3D1 DUP2 DUP6 PUSH2 0x381 JUMP JUMPDEST SWAP4 POP PUSH2 0x3E1 DUP2 DUP6 PUSH1 0x20 DUP7 ADD PUSH2 0x392 JUMP JUMPDEST PUSH2 0x3EA DUP2 PUSH2 0x1F1 JUMP JUMPDEST DUP5 ADD SWAP2 POP POP SWAP3 SWAP2 POP POP JUMP JUMPDEST PUSH1 0x0 PUSH1 0x20 DUP3 ADD SWAP1 POP DUP2 DUP2 SUB PUSH1 0x0 DUP4 ADD MSTORE PUSH2 0x40F DUP2 DUP5 PUSH2 0x3BC JUMP JUMPDEST SWAP1 POP SWAP3 SWAP2 POP POP JUMP JUMPDEST PUSH1 0x0 DUP2 MLOAD SWAP1 POP SWAP2 SWAP1 POP JUMP JUMPDEST PUSH1 0x0 DUP2 SWAP1 POP SWAP3 SWAP2 POP POP JUMP JUMPDEST PUSH1 0x0 PUSH2 0x438 DUP3 PUSH2 0x417 JUMP JUMPDEST PUSH2 0x442 DUP2 DUP6 PUSH2 0x422 JUMP JUMPDEST SWAP4 POP PUSH2 0x452 DUP2 DUP6 PUSH1 0x20 DUP7 ADD PUSH2 0x392 JUMP JUMPDEST DUP1 DUP5 ADD SWAP2 POP POP SWAP3 SWAP2 POP POP JUMP JUMPDEST PUSH1 0x0 PUSH2 0x46A DUP3 DUP5 PUSH2 0x42D JUMP JUMPDEST SWAP2 POP DUP2 SWAP1 POP SWAP3 SWAP2 POP POP JUMP INVALID LOG2 PUSH5 0x6970667358 0x22 SLT KECCAK256 0xB3 PUSH25 0x623A4813BC625B5835DD8875D722F6CA86CF1E2F4A83FEA73B DUP7 LT LOG3 CHAINID 0xAE PUSH5 0x736F6C6343 STOP ADDMOD GT STOP CALLER "
				},
				"gasEstimates": {
					"creation": {
						"codeDepositCost": "239000",
						"executionCost": "infinite",
						"totalCost": "infinite"
					},
					"external": {
						"encode(string)": "infinite",
						"hashes(uint256)": "4860",
						"makeHash(string)": "infinite"
					}
				},
				"methodIdentifiers": {
					"encode(string)": "6a11b2a8",
					"hashes(uint256)": "501895ae",
					"makeHash(string)": "52de70af"
				}
			},
			"storageLayout": {
				"storage": [
					{
						"astId": 4,
						"contract": "contracts/Lesson_4.sol:MerkleTree",
						"label": "hashes",
						"offset": 0,
						"slot": "0",
						"type": "t_array(t_bytes32)dyn_storage"
					},
					{
						"astId": 13,
						"contract": "contracts/Lesson_4.sol:MerkleTree",
						"label": "transactions",
						"offset": 0,
						"slot": "1",
						"type": "t_array(t_string_storage)4_storage"
					}
				],
				"types": {
					"t_array(t_bytes32)dyn_storage": {
						"base": "t_bytes32",
						"encoding": "dynamic_array",
						"label": "bytes32[]",
						"numberOfBytes": "32"
					},
					"t_array(t_string_storage)4_storage": {
						"base": "t_string_storage",
						"encoding": "inplace",
						"label": "string[4]",
						"numberOfBytes": "128"
					},
					"t_bytes32": {
						"encoding": "inplace",
						"label": "bytes32",
						"numberOfBytes": "32"
					},
					"t_string_storage": {
						"encoding": "bytes",
						"label": "string",
						"numberOfBytes": "32"
					}
				}
			},
			"userdoc": {
				"kind": "user",
				"methods": {},
				"version": 1
			}
		}
	}
}