{
	"contracts/Lesson_4.sol": {
		"MerkleTree": {
			"abi": [
				{
					"inputs": [],
					"stateMutability": "nonpayable",
					"type": "constructor"
				},
				{
					"inputs": [
						{
							"internalType": "string",
							"name": "input",
							"type": "string"
						}
					],
					"name": "encode",
					"outputs": [
						{
							"internalType": "bytes",
							"name": "",
							"type": "bytes"
						}
					],
					"stateMutability": "pure",
					"type": "function"
				},
				{
					"inputs": [
						{
							"internalType": "uint256",
							"name": "",
							"type": "uint256"
						}
					],
					"name": "hashes",
					"outputs": [
						{
							"internalType": "bytes32",
							"name": "",
							"type": "bytes32"
						}
					],
					"stateMutability": "view",
					"type": "function"
				},
				{
					"inputs": [
						{
							"internalType": "string",
							"name": "input",
							"type": "string"
						}
					],
					"name": "makeHash",
					"outputs": [
						{
							"internalType": "bytes32",
							"name": "",
							"type": "bytes32"
						}
					],
					"stateMutability": "pure",
					"type": "function"
				}
			],
			"devdoc": {
				"kind": "dev",
				"methods": {},
				"version": 1
			},
			"evm": {
				"assembly": "    /* \"contracts/Lesson_4.sol\":78:1165  contract MerkleTree... */\n  mstore(0x40, 0x80)\n    /* \"contracts/Lesson_4.sol\":216:380  string[4] transactions = [... */\n  mload(0x40)\n  dup1\n  0x80\n  add\n  0x40\n  mstore\n  dup1\n  mload(0x40)\n  dup1\n  0x40\n  add\n  0x40\n  mstore\n  dup1\n  0x15\n  dup2\n  mstore\n  0x20\n  add\n  0x5458313a20536865726c6f636b202d3e204a6f686e0000000000000000000000\n  dup2\n  mstore\n  pop\n  dup2\n  mstore\n  0x20\n  add\n  mload(0x40)\n  dup1\n  0x40\n  add\n  0x40\n  mstore\n  dup1\n  0x15\n  dup2\n  mstore\n  0x20\n  add\n  0x5458323a204a6f686e202d3e20536865726c6f636b0000000000000000000000\n  dup2\n  mstore\n  pop\n  dup2\n  mstore\n  0x20\n  add\n  mload(0x40)\n  dup1\n  0x40\n  add\n  0x40\n  mstore\n  dup1\n  0x11\n  dup2\n  mstore\n  0x20\n  add\n  0x5458333a204a6f686e202d3e204d617279000000000000000000000000000000\n  dup2\n  mstore\n  pop\n  dup2\n  mstore\n  0x20\n  add\n  mload(0x40)\n  dup1\n  0x40\n  add\n  0x40\n  mstore\n  dup1\n  0x15\n  dup2\n  mstore\n  0x20\n  add\n  0x5458343a204d617279202d3e20536865726c6f636b0000000000000000000000\n  dup2\n  mstore\n  pop\n  dup2\n  mstore\n  pop\n  0x01\n  swap1\n  0x04\n  tag_1\n  swap3\n  swap2\n  swap1\n  tag_2\n  jump\t// in\ntag_1:\n  pop\n    /* \"contracts/Lesson_4.sol\":389:874  constructor()... */\n  callvalue\n  dup1\n  iszero\n  tag_3\n  jumpi\n  0x00\n  dup1\n  revert\ntag_3:\n  pop\n    /* \"contracts/Lesson_4.sol\":520:526  uint i */\n  0x00\n    /* \"contracts/Lesson_4.sol\":516:636  for(uint i = 0; i < transactions.length; i++)... */\ntag_6:\n    /* \"contracts/Lesson_4.sol\":536:555  transactions.length */\n  0x04\n    /* \"contracts/Lesson_4.sol\":532:533  i */\n  dup2\n    /* \"contracts/Lesson_4.sol\":532:555  i < transactions.length */\n  lt\n    /* \"contracts/Lesson_4.sol\":516:636  for(uint i = 0; i < transactions.length; i++)... */\n  iszero\n  tag_7\n  jumpi\n    /* \"contracts/Lesson_4.sol\":586:592  hashes */\n  0x00\n    /* \"contracts/Lesson_4.sol\":598:623  makeHash(transactions[i]) */\n  tag_9\n    /* \"contracts/Lesson_4.sol\":607:619  transactions */\n  0x01\n    /* \"contracts/Lesson_4.sol\":620:621  i */\n  dup4\n    /* \"contracts/Lesson_4.sol\":607:622  transactions[i] */\n  0x04\n  dup2\n  lt\n  tag_10\n  jumpi\n  tag_11\n  tag_12\n  jump\t// in\ntag_11:\ntag_10:\n  add\n    /* \"contracts/Lesson_4.sol\":598:623  makeHash(transactions[i]) */\n  dup1\n  sload\n  tag_14\n  swap1\n  tag_15\n  jump\t// in\ntag_14:\n  dup1\n  0x1f\n  add\n  0x20\n  dup1\n  swap2\n  div\n  mul\n  0x20\n  add\n  mload(0x40)\n  swap1\n  dup2\n  add\n  0x40\n  mstore\n  dup1\n  swap3\n  swap2\n  swap1\n  dup2\n  dup2\n  mstore\n  0x20\n  add\n  dup3\n  dup1\n  sload\n  tag_16\n  swap1\n  tag_15\n  jump\t// in\ntag_16:\n  dup1\n  iszero\n  tag_17\n  jumpi\n  dup1\n  0x1f\n  lt\n  tag_18\n  jumpi\n  0x0100\n  dup1\n  dup4\n  sload\n  div\n  mul\n  dup4\n  mstore\n  swap2\n  0x20\n  add\n  swap2\n  jump(tag_17)\ntag_18:\n  dup3\n  add\n  swap2\n  swap1\n  0x00\n  mstore\n  keccak256(0x00, 0x20)\n  swap1\ntag_19:\n  dup2\n  sload\n  dup2\n  mstore\n  swap1\n  0x01\n  add\n  swap1\n  0x20\n  add\n  dup1\n  dup4\n  gt\n  tag_19\n  jumpi\n  dup3\n  swap1\n  sub\n  0x1f\n  and\n  dup3\n  add\n  swap2\ntag_17:\n  pop\n  pop\n  pop\n  pop\n  pop\n    /* \"contracts/Lesson_4.sol\":598:606  makeHash */\n  shl(0x20, tag_20)\n    /* \"contracts/Lesson_4.sol\":598:623  makeHash(transactions[i]) */\n  0x20\n  shr\n  jump\t// in\ntag_9:\n    /* \"contracts/Lesson_4.sol\":586:624  hashes.push(makeHash(transactions[i])) */\n  swap1\n  dup1\n  0x01\n  dup2\n  sload\n  add\n  dup1\n  dup3\n  sstore\n  dup1\n  swap2\n  pop\n  pop\n  0x01\n  swap1\n  sub\n  swap1\n  0x00\n  mstore\n  keccak256(0x00, 0x20)\n  add\n  0x00\n  swap1\n  swap2\n  swap1\n  swap2\n  swap1\n  swap2\n  pop\n  sstore\n    /* \"contracts/Lesson_4.sol\":557:560  i++ */\n  dup1\n  dup1\n  tag_22\n  swap1\n  tag_23\n  jump\t// in\ntag_22:\n  swap2\n  pop\n  pop\n    /* \"contracts/Lesson_4.sol\":516:636  for(uint i = 0; i < transactions.length; i++)... */\n  jump(tag_6)\ntag_7:\n  pop\n    /* \"contracts/Lesson_4.sol\":648:658  uint count */\n  0x00\n    /* \"contracts/Lesson_4.sol\":661:680  transactions.length */\n  0x04\n    /* \"contracts/Lesson_4.sol\":648:680  uint count = transactions.length */\n  swap1\n  pop\n    /* \"contracts/Lesson_4.sol\":691:702  uint offset */\n  0x00\n    /* \"contracts/Lesson_4.sol\":719:867  while(count > 0)... */\ntag_24:\n    /* \"contracts/Lesson_4.sol\":733:734  0 */\n  0x00\n    /* \"contracts/Lesson_4.sol\":725:730  count */\n  dup3\n    /* \"contracts/Lesson_4.sol\":725:734  count > 0 */\n  gt\n    /* \"contracts/Lesson_4.sol\":719:867  while(count > 0)... */\n  iszero\n  tag_25\n  jumpi\n    /* \"contracts/Lesson_4.sol\":765:771  uint i */\n  0x00\n    /* \"contracts/Lesson_4.sol\":760:831  for (uint i = 0; i < count - 1; i += 2)... */\ntag_26:\n    /* \"contracts/Lesson_4.sol\":789:790  1 */\n  0x01\n    /* \"contracts/Lesson_4.sol\":781:786  count */\n  dup4\n    /* \"contracts/Lesson_4.sol\":781:790  count - 1 */\n  tag_29\n  swap2\n  swap1\n  tag_30\n  jump\t// in\ntag_29:\n    /* \"contracts/Lesson_4.sol\":777:778  i */\n  dup2\n    /* \"contracts/Lesson_4.sol\":777:790  i < count - 1 */\n  lt\n    /* \"contracts/Lesson_4.sol\":760:831  for (uint i = 0; i < count - 1; i += 2)... */\n  iszero\n  tag_27\n  jumpi\n    /* \"contracts/Lesson_4.sol\":797:798  2 */\n  0x02\n    /* \"contracts/Lesson_4.sol\":792:798  i += 2 */\n  dup2\n  tag_31\n  swap2\n  swap1\n  tag_32\n  jump\t// in\ntag_31:\n  swap1\n  pop\n    /* \"contracts/Lesson_4.sol\":760:831  for (uint i = 0; i < count - 1; i += 2)... */\n  jump(tag_26)\ntag_27:\n  pop\n    /* \"contracts/Lesson_4.sol\":854:855  2 */\n  0x02\n    /* \"contracts/Lesson_4.sol\":845:855  count /= 2 */\n  dup3\n  tag_33\n  swap2\n  swap1\n  tag_34\n  jump\t// in\ntag_33:\n  swap2\n  pop\n    /* \"contracts/Lesson_4.sol\":719:867  while(count > 0)... */\n  jump(tag_24)\ntag_25:\n    /* \"contracts/Lesson_4.sol\":408:874  {... */\n  pop\n  pop\n    /* \"contracts/Lesson_4.sol\":78:1165  contract MerkleTree... */\n  jump(tag_35)\n    /* \"contracts/Lesson_4.sol\":1015:1162  function makeHash(string memory input) public pure returns(bytes32)... */\ntag_20:\n    /* \"contracts/Lesson_4.sol\":1074:1081  bytes32 */\n  0x00\n    /* \"contracts/Lesson_4.sol\":1130:1143  encode(input) */\n  tag_37\n    /* \"contracts/Lesson_4.sol\":1137:1142  input */\n  dup3\n    /* \"contracts/Lesson_4.sol\":1130:1136  encode */\n  shl(0x20, tag_38)\n    /* \"contracts/Lesson_4.sol\":1130:1143  encode(input) */\n  0x20\n  shr\n  jump\t// in\ntag_37:\n    /* \"contracts/Lesson_4.sol\":1106:1154  keccak256(... */\n  dup1\n  mload\n  swap1\n  0x20\n  add\n  keccak256\n    /* \"contracts/Lesson_4.sol\":1099:1154  return keccak256(... */\n  swap1\n  pop\n    /* \"contracts/Lesson_4.sol\":1015:1162  function makeHash(string memory input) public pure returns(bytes32)... */\n  swap2\n  swap1\n  pop\n  jump\t// out\n    /* \"contracts/Lesson_4.sol\":882:1007  function encode(string memory input) public pure returns(bytes memory)... */\ntag_38:\n    /* \"contracts/Lesson_4.sol\":939:951  bytes memory */\n  0x60\n    /* \"contracts/Lesson_4.sol\":993:998  input */\n  dup2\n    /* \"contracts/Lesson_4.sol\":976:999  abi.encodePacked(input) */\n  add(0x20, mload(0x40))\n  tag_40\n  swap2\n  swap1\n  tag_41\n  jump\t// in\ntag_40:\n  mload(0x40)\n  0x20\n  dup2\n  dup4\n  sub\n  sub\n  dup2\n  mstore\n  swap1\n  0x40\n  mstore\n    /* \"contracts/Lesson_4.sol\":969:999  return abi.encodePacked(input) */\n  swap1\n  pop\n    /* \"contracts/Lesson_4.sol\":882:1007  function encode(string memory input) public pure returns(bytes memory)... */\n  swap2\n  swap1\n  pop\n  jump\t// out\n    /* \"contracts/Lesson_4.sol\":78:1165  contract MerkleTree... */\ntag_2:\n  dup3\n  0x04\n  dup2\n  add\n  swap3\n  dup3\n  iszero\n  tag_42\n  jumpi\n  swap2\n  0x20\n  mul\n  dup3\n  add\ntag_43:\n  dup3\n  dup2\n  gt\n  iszero\n  tag_44\n  jumpi\n  dup3\n  mload\n  dup3\n  swap1\n  dup2\n  tag_45\n  swap2\n  swap1\n  tag_46\n  jump\t// in\ntag_45:\n  pop\n  swap2\n  0x20\n  add\n  swap2\n  swap1\n  0x01\n  add\n  swap1\n  jump(tag_43)\ntag_44:\ntag_42:\n  pop\n  swap1\n  pop\n  tag_47\n  swap2\n  swap1\n  tag_48\n  jump\t// in\ntag_47:\n  pop\n  swap1\n  jump\t// out\ntag_48:\ntag_49:\n  dup1\n  dup3\n  gt\n  iszero\n  tag_50\n  jumpi\n  0x00\n  dup2\n  dup2\n  tag_51\n  swap2\n  swap1\n  tag_52\n  jump\t// in\ntag_51:\n  pop\n  0x01\n  add\n  jump(tag_49)\ntag_50:\n  pop\n  swap1\n  jump\t// out\ntag_52:\n  pop\n  dup1\n  sload\n  tag_53\n  swap1\n  tag_15\n  jump\t// in\ntag_53:\n  0x00\n  dup3\n  sstore\n  dup1\n  0x1f\n  lt\n  tag_55\n  jumpi\n  pop\n  jump(tag_54)\ntag_55:\n  0x1f\n  add\n  0x20\n  swap1\n  div\n  swap1\n  0x00\n  mstore\n  keccak256(0x00, 0x20)\n  swap1\n  dup2\n  add\n  swap1\n  tag_56\n  swap2\n  swap1\n  tag_57\n  jump\t// in\ntag_56:\ntag_54:\n  pop\n  jump\t// out\ntag_57:\ntag_58:\n  dup1\n  dup3\n  gt\n  iszero\n  tag_59\n  jumpi\n  0x00\n  dup2\n  0x00\n  swap1\n  sstore\n  pop\n  0x01\n  add\n  jump(tag_58)\ntag_59:\n  pop\n  swap1\n  jump\t// out\n    /* \"#utility.yul\":7:187   */\ntag_12:\n    /* \"#utility.yul\":55:132   */\n  0x4e487b7100000000000000000000000000000000000000000000000000000000\n    /* \"#utility.yul\":52:53   */\n  0x00\n    /* \"#utility.yul\":45:133   */\n  mstore\n    /* \"#utility.yul\":152:156   */\n  0x32\n    /* \"#utility.yul\":149:150   */\n  0x04\n    /* \"#utility.yul\":142:157   */\n  mstore\n    /* \"#utility.yul\":176:180   */\n  0x24\n    /* \"#utility.yul\":173:174   */\n  0x00\n    /* \"#utility.yul\":166:181   */\n  revert\n    /* \"#utility.yul\":193:373   */\ntag_60:\n    /* \"#utility.yul\":241:318   */\n  0x4e487b7100000000000000000000000000000000000000000000000000000000\n    /* \"#utility.yul\":238:239   */\n  0x00\n    /* \"#utility.yul\":231:319   */\n  mstore\n    /* \"#utility.yul\":338:342   */\n  0x22\n    /* \"#utility.yul\":335:336   */\n  0x04\n    /* \"#utility.yul\":328:343   */\n  mstore\n    /* \"#utility.yul\":362:366   */\n  0x24\n    /* \"#utility.yul\":359:360   */\n  0x00\n    /* \"#utility.yul\":352:367   */\n  revert\n    /* \"#utility.yul\":379:699   */\ntag_15:\n    /* \"#utility.yul\":423:429   */\n  0x00\n    /* \"#utility.yul\":460:461   */\n  0x02\n    /* \"#utility.yul\":454:458   */\n  dup3\n    /* \"#utility.yul\":450:462   */\n  div\n    /* \"#utility.yul\":440:462   */\n  swap1\n  pop\n    /* \"#utility.yul\":507:508   */\n  0x01\n    /* \"#utility.yul\":501:505   */\n  dup3\n    /* \"#utility.yul\":497:509   */\n  and\n    /* \"#utility.yul\":528:546   */\n  dup1\n    /* \"#utility.yul\":518:599   */\n  tag_88\n  jumpi\n    /* \"#utility.yul\":584:588   */\n  0x7f\n    /* \"#utility.yul\":576:582   */\n  dup3\n    /* \"#utility.yul\":572:589   */\n  and\n    /* \"#utility.yul\":562:589   */\n  swap2\n  pop\n    /* \"#utility.yul\":518:599   */\ntag_88:\n    /* \"#utility.yul\":646:648   */\n  0x20\n    /* \"#utility.yul\":638:644   */\n  dup3\n    /* \"#utility.yul\":635:649   */\n  lt\n    /* \"#utility.yul\":615:633   */\n  dup2\n    /* \"#utility.yul\":612:650   */\n  sub\n    /* \"#utility.yul\":609:693   */\n  tag_89\n  jumpi\n    /* \"#utility.yul\":665:683   */\n  tag_90\n  tag_60\n  jump\t// in\ntag_90:\n    /* \"#utility.yul\":609:693   */\ntag_89:\n    /* \"#utility.yul\":430:699   */\n  pop\n    /* \"#utility.yul\":379:699   */\n  swap2\n  swap1\n  pop\n  jump\t// out\n    /* \"#utility.yul\":705:885   */\ntag_61:\n    /* \"#utility.yul\":753:830   */\n  0x4e487b7100000000000000000000000000000000000000000000000000000000\n    /* \"#utility.yul\":750:751   */\n  0x00\n    /* \"#utility.yul\":743:831   */\n  mstore\n    /* \"#utility.yul\":850:854   */\n  0x11\n    /* \"#utility.yul\":847:848   */\n  0x04\n    /* \"#utility.yul\":840:855   */\n  mstore\n    /* \"#utility.yul\":874:878   */\n  0x24\n    /* \"#utility.yul\":871:872   */\n  0x00\n    /* \"#utility.yul\":864:879   */\n  revert\n    /* \"#utility.yul\":891:968   */\ntag_62:\n    /* \"#utility.yul\":928:935   */\n  0x00\n    /* \"#utility.yul\":957:962   */\n  dup2\n    /* \"#utility.yul\":946:962   */\n  swap1\n  pop\n    /* \"#utility.yul\":891:968   */\n  swap2\n  swap1\n  pop\n  jump\t// out\n    /* \"#utility.yul\":974:1207   */\ntag_23:\n    /* \"#utility.yul\":1013:1016   */\n  0x00\n    /* \"#utility.yul\":1036:1060   */\n  tag_94\n    /* \"#utility.yul\":1054:1059   */\n  dup3\n    /* \"#utility.yul\":1036:1060   */\n  tag_62\n  jump\t// in\ntag_94:\n    /* \"#utility.yul\":1027:1060   */\n  swap2\n  pop\n    /* \"#utility.yul\":1082:1148   */\n  0xffffffffffffffffffffffffffffffffffffffffffffffffffffffffffffffff\n    /* \"#utility.yul\":1075:1080   */\n  dup3\n    /* \"#utility.yul\":1072:1149   */\n  sub\n    /* \"#utility.yul\":1069:1172   */\n  tag_95\n  jumpi\n    /* \"#utility.yul\":1152:1170   */\n  tag_96\n  tag_61\n  jump\t// in\ntag_96:\n    /* \"#utility.yul\":1069:1172   */\ntag_95:\n    /* \"#utility.yul\":1199:1200   */\n  0x01\n    /* \"#utility.yul\":1192:1197   */\n  dup3\n    /* \"#utility.yul\":1188:1201   */\n  add\n    /* \"#utility.yul\":1181:1201   */\n  swap1\n  pop\n    /* \"#utility.yul\":974:1207   */\n  swap2\n  swap1\n  pop\n  jump\t// out\n    /* \"#utility.yul\":1213:1407   */\ntag_30:\n    /* \"#utility.yul\":1253:1257   */\n  0x00\n    /* \"#utility.yul\":1273:1293   */\n  tag_98\n    /* \"#utility.yul\":1291:1292   */\n  dup3\n    /* \"#utility.yul\":1273:1293   */\n  tag_62\n  jump\t// in\ntag_98:\n    /* \"#utility.yul\":1268:1293   */\n  swap2\n  pop\n    /* \"#utility.yul\":1307:1327   */\n  tag_99\n    /* \"#utility.yul\":1325:1326   */\n  dup4\n    /* \"#utility.yul\":1307:1327   */\n  tag_62\n  jump\t// in\ntag_99:\n    /* \"#utility.yul\":1302:1327   */\n  swap3\n  pop\n    /* \"#utility.yul\":1351:1352   */\n  dup3\n    /* \"#utility.yul\":1348:1349   */\n  dup3\n    /* \"#utility.yul\":1344:1353   */\n  sub\n    /* \"#utility.yul\":1336:1353   */\n  swap1\n  pop\n    /* \"#utility.yul\":1375:1376   */\n  dup2\n    /* \"#utility.yul\":1369:1373   */\n  dup2\n    /* \"#utility.yul\":1366:1377   */\n  gt\n    /* \"#utility.yul\":1363:1400   */\n  iszero\n  tag_100\n  jumpi\n    /* \"#utility.yul\":1380:1398   */\n  tag_101\n  tag_61\n  jump\t// in\ntag_101:\n    /* \"#utility.yul\":1363:1400   */\ntag_100:\n    /* \"#utility.yul\":1213:1407   */\n  swap3\n  swap2\n  pop\n  pop\n  jump\t// out\n    /* \"#utility.yul\":1413:1604   */\ntag_32:\n    /* \"#utility.yul\":1453:1456   */\n  0x00\n    /* \"#utility.yul\":1472:1492   */\n  tag_103\n    /* \"#utility.yul\":1490:1491   */\n  dup3\n    /* \"#utility.yul\":1472:1492   */\n  tag_62\n  jump\t// in\ntag_103:\n    /* \"#utility.yul\":1467:1492   */\n  swap2\n  pop\n    /* \"#utility.yul\":1506:1526   */\n  tag_104\n    /* \"#utility.yul\":1524:1525   */\n  dup4\n    /* \"#utility.yul\":1506:1526   */\n  tag_62\n  jump\t// in\ntag_104:\n    /* \"#utility.yul\":1501:1526   */\n  swap3\n  pop\n    /* \"#utility.yul\":1549:1550   */\n  dup3\n    /* \"#utility.yul\":1546:1547   */\n  dup3\n    /* \"#utility.yul\":1542:1551   */\n  add\n    /* \"#utility.yul\":1535:1551   */\n  swap1\n  pop\n    /* \"#utility.yul\":1570:1573   */\n  dup1\n    /* \"#utility.yul\":1567:1568   */\n  dup3\n    /* \"#utility.yul\":1564:1574   */\n  gt\n    /* \"#utility.yul\":1561:1597   */\n  iszero\n  tag_105\n  jumpi\n    /* \"#utility.yul\":1577:1595   */\n  tag_106\n  tag_61\n  jump\t// in\ntag_106:\n    /* \"#utility.yul\":1561:1597   */\ntag_105:\n    /* \"#utility.yul\":1413:1604   */\n  swap3\n  swap2\n  pop\n  pop\n  jump\t// out\n    /* \"#utility.yul\":1610:1790   */\ntag_63:\n    /* \"#utility.yul\":1658:1735   */\n  0x4e487b7100000000000000000000000000000000000000000000000000000000\n    /* \"#utility.yul\":1655:1656   */\n  0x00\n    /* \"#utility.yul\":1648:1736   */\n  mstore\n    /* \"#utility.yul\":1755:1759   */\n  0x12\n    /* \"#utility.yul\":1752:1753   */\n  0x04\n    /* \"#utility.yul\":1745:1760   */\n  mstore\n    /* \"#utility.yul\":1779:1783   */\n  0x24\n    /* \"#utility.yul\":1776:1777   */\n  0x00\n    /* \"#utility.yul\":1769:1784   */\n  revert\n    /* \"#utility.yul\":1796:1981   */\ntag_34:\n    /* \"#utility.yul\":1836:1837   */\n  0x00\n    /* \"#utility.yul\":1853:1873   */\n  tag_109\n    /* \"#utility.yul\":1871:1872   */\n  dup3\n    /* \"#utility.yul\":1853:1873   */\n  tag_62\n  jump\t// in\ntag_109:\n    /* \"#utility.yul\":1848:1873   */\n  swap2\n  pop\n    /* \"#utility.yul\":1887:1907   */\n  tag_110\n    /* \"#utility.yul\":1905:1906   */\n  dup4\n    /* \"#utility.yul\":1887:1907   */\n  tag_62\n  jump\t// in\ntag_110:\n    /* \"#utility.yul\":1882:1907   */\n  swap3\n  pop\n    /* \"#utility.yul\":1926:1927   */\n  dup3\n    /* \"#utility.yul\":1916:1951   */\n  tag_111\n  jumpi\n    /* \"#utility.yul\":1931:1949   */\n  tag_112\n  tag_63\n  jump\t// in\ntag_112:\n    /* \"#utility.yul\":1916:1951   */\ntag_111:\n    /* \"#utility.yul\":1973:1974   */\n  dup3\n    /* \"#utility.yul\":1970:1971   */\n  dup3\n    /* \"#utility.yul\":1966:1975   */\n  div\n    /* \"#utility.yul\":1961:1975   */\n  swap1\n  pop\n    /* \"#utility.yul\":1796:1981   */\n  swap3\n  swap2\n  pop\n  pop\n  jump\t// out\n    /* \"#utility.yul\":1987:2086   */\ntag_64:\n    /* \"#utility.yul\":2039:2045   */\n  0x00\n    /* \"#utility.yul\":2073:2078   */\n  dup2\n    /* \"#utility.yul\":2067:2079   */\n  mload\n    /* \"#utility.yul\":2057:2079   */\n  swap1\n  pop\n    /* \"#utility.yul\":1987:2086   */\n  swap2\n  swap1\n  pop\n  jump\t// out\n    /* \"#utility.yul\":2092:2240   */\ntag_65:\n    /* \"#utility.yul\":2194:2205   */\n  0x00\n    /* \"#utility.yul\":2231:2234   */\n  dup2\n    /* \"#utility.yul\":2216:2234   */\n  swap1\n  pop\n    /* \"#utility.yul\":2092:2240   */\n  swap3\n  swap2\n  pop\n  pop\n  jump\t// out\n    /* \"#utility.yul\":2246:2492   */\ntag_66:\n    /* \"#utility.yul\":2327:2328   */\n  0x00\n    /* \"#utility.yul\":2337:2450   */\ntag_116:\n    /* \"#utility.yul\":2351:2357   */\n  dup4\n    /* \"#utility.yul\":2348:2349   */\n  dup2\n    /* \"#utility.yul\":2345:2358   */\n  lt\n    /* \"#utility.yul\":2337:2450   */\n  iszero\n  tag_118\n  jumpi\n    /* \"#utility.yul\":2436:2437   */\n  dup1\n    /* \"#utility.yul\":2431:2434   */\n  dup3\n    /* \"#utility.yul\":2427:2438   */\n  add\n    /* \"#utility.yul\":2421:2439   */\n  mload\n    /* \"#utility.yul\":2417:2418   */\n  dup2\n    /* \"#utility.yul\":2412:2415   */\n  dup5\n    /* \"#utility.yul\":2408:2419   */\n  add\n    /* \"#utility.yul\":2401:2440   */\n  mstore\n    /* \"#utility.yul\":2373:2375   */\n  0x20\n    /* \"#utility.yul\":2370:2371   */\n  dup2\n    /* \"#utility.yul\":2366:2376   */\n  add\n    /* \"#utility.yul\":2361:2376   */\n  swap1\n  pop\n    /* \"#utility.yul\":2337:2450   */\n  jump(tag_116)\ntag_118:\n    /* \"#utility.yul\":2484:2485   */\n  0x00\n    /* \"#utility.yul\":2475:2481   */\n  dup5\n    /* \"#utility.yul\":2470:2473   */\n  dup5\n    /* \"#utility.yul\":2466:2482   */\n  add\n    /* \"#utility.yul\":2459:2486   */\n  mstore\n    /* \"#utility.yul\":2308:2492   */\n  pop\n    /* \"#utility.yul\":2246:2492   */\n  pop\n  pop\n  pop\n  jump\t// out\n    /* \"#utility.yul\":2498:2888   */\ntag_67:\n    /* \"#utility.yul\":2604:2607   */\n  0x00\n    /* \"#utility.yul\":2632:2671   */\n  tag_120\n    /* \"#utility.yul\":2665:2670   */\n  dup3\n    /* \"#utility.yul\":2632:2671   */\n  tag_64\n  jump\t// in\ntag_120:\n    /* \"#utility.yul\":2687:2776   */\n  tag_121\n    /* \"#utility.yul\":2769:2775   */\n  dup2\n    /* \"#utility.yul\":2764:2767   */\n  dup6\n    /* \"#utility.yul\":2687:2776   */\n  tag_65\n  jump\t// in\ntag_121:\n    /* \"#utility.yul\":2680:2776   */\n  swap4\n  pop\n    /* \"#utility.yul\":2785:2850   */\n  tag_122\n    /* \"#utility.yul\":2843:2849   */\n  dup2\n    /* \"#utility.yul\":2838:2841   */\n  dup6\n    /* \"#utility.yul\":2831:2835   */\n  0x20\n    /* \"#utility.yul\":2824:2829   */\n  dup7\n    /* \"#utility.yul\":2820:2836   */\n  add\n    /* \"#utility.yul\":2785:2850   */\n  tag_66\n  jump\t// in\ntag_122:\n    /* \"#utility.yul\":2875:2881   */\n  dup1\n    /* \"#utility.yul\":2870:2873   */\n  dup5\n    /* \"#utility.yul\":2866:2882   */\n  add\n    /* \"#utility.yul\":2859:2882   */\n  swap2\n  pop\n    /* \"#utility.yul\":2608:2888   */\n  pop\n    /* \"#utility.yul\":2498:2888   */\n  swap3\n  swap2\n  pop\n  pop\n  jump\t// out\n    /* \"#utility.yul\":2894:3169   */\ntag_41:\n    /* \"#utility.yul\":3026:3029   */\n  0x00\n    /* \"#utility.yul\":3048:3143   */\n  tag_124\n    /* \"#utility.yul\":3139:3142   */\n  dup3\n    /* \"#utility.yul\":3130:3136   */\n  dup5\n    /* \"#utility.yul\":3048:3143   */\n  tag_67\n  jump\t// in\ntag_124:\n    /* \"#utility.yul\":3041:3143   */\n  swap2\n  pop\n    /* \"#utility.yul\":3160:3163   */\n  dup2\n    /* \"#utility.yul\":3153:3163   */\n  swap1\n  pop\n    /* \"#utility.yul\":2894:3169   */\n  swap3\n  swap2\n  pop\n  pop\n  jump\t// out\n    /* \"#utility.yul\":3175:3355   */\ntag_68:\n    /* \"#utility.yul\":3223:3300   */\n  0x4e487b7100000000000000000000000000000000000000000000000000000000\n    /* \"#utility.yul\":3220:3221   */\n  0x00\n    /* \"#utility.yul\":3213:3301   */\n  mstore\n    /* \"#utility.yul\":3320:3324   */\n  0x41\n    /* \"#utility.yul\":3317:3318   */\n  0x04\n    /* \"#utility.yul\":3310:3325   */\n  mstore\n    /* \"#utility.yul\":3344:3348   */\n  0x24\n    /* \"#utility.yul\":3341:3342   */\n  0x00\n    /* \"#utility.yul\":3334:3349   */\n  revert\n    /* \"#utility.yul\":3361:3502   */\ntag_69:\n    /* \"#utility.yul\":3410:3414   */\n  0x00\n    /* \"#utility.yul\":3433:3436   */\n  dup2\n    /* \"#utility.yul\":3425:3436   */\n  swap1\n  pop\n    /* \"#utility.yul\":3456:3459   */\n  dup2\n    /* \"#utility.yul\":3453:3454   */\n  0x00\n    /* \"#utility.yul\":3446:3460   */\n  mstore\n    /* \"#utility.yul\":3490:3494   */\n  0x20\n    /* \"#utility.yul\":3487:3488   */\n  0x00\n    /* \"#utility.yul\":3477:3495   */\n  keccak256\n    /* \"#utility.yul\":3469:3495   */\n  swap1\n  pop\n    /* \"#utility.yul\":3361:3502   */\n  swap2\n  swap1\n  pop\n  jump\t// out\n    /* \"#utility.yul\":3508:3601   */\ntag_70:\n    /* \"#utility.yul\":3545:3551   */\n  0x00\n    /* \"#utility.yul\":3592:3594   */\n  0x20\n    /* \"#utility.yul\":3587:3589   */\n  0x1f\n    /* \"#utility.yul\":3580:3585   */\n  dup4\n    /* \"#utility.yul\":3576:3590   */\n  add\n    /* \"#utility.yul\":3572:3595   */\n  div\n    /* \"#utility.yul\":3562:3595   */\n  swap1\n  pop\n    /* \"#utility.yul\":3508:3601   */\n  swap2\n  swap1\n  pop\n  jump\t// out\n    /* \"#utility.yul\":3607:3714   */\ntag_71:\n    /* \"#utility.yul\":3651:3659   */\n  0x00\n    /* \"#utility.yul\":3701:3706   */\n  dup3\n    /* \"#utility.yul\":3695:3699   */\n  dup3\n    /* \"#utility.yul\":3691:3707   */\n  shl\n    /* \"#utility.yul\":3670:3707   */\n  swap1\n  pop\n    /* \"#utility.yul\":3607:3714   */\n  swap3\n  swap2\n  pop\n  pop\n  jump\t// out\n    /* \"#utility.yul\":3720:4113   */\ntag_72:\n    /* \"#utility.yul\":3789:3795   */\n  0x00\n    /* \"#utility.yul\":3839:3840   */\n  0x08\n    /* \"#utility.yul\":3827:3837   */\n  dup4\n    /* \"#utility.yul\":3823:3841   */\n  mul\n    /* \"#utility.yul\":3862:3959   */\n  tag_130\n    /* \"#utility.yul\":3892:3958   */\n  0xffffffffffffffffffffffffffffffffffffffffffffffffffffffffffffffff\n    /* \"#utility.yul\":3881:3890   */\n  dup3\n    /* \"#utility.yul\":3862:3959   */\n  tag_71\n  jump\t// in\ntag_130:\n    /* \"#utility.yul\":3980:4019   */\n  tag_131\n    /* \"#utility.yul\":4010:4018   */\n  dup7\n    /* \"#utility.yul\":3999:4008   */\n  dup4\n    /* \"#utility.yul\":3980:4019   */\n  tag_71\n  jump\t// in\ntag_131:\n    /* \"#utility.yul\":3968:4019   */\n  swap6\n  pop\n    /* \"#utility.yul\":4052:4056   */\n  dup1\n    /* \"#utility.yul\":4048:4057   */\n  not\n    /* \"#utility.yul\":4041:4046   */\n  dup5\n    /* \"#utility.yul\":4037:4058   */\n  and\n    /* \"#utility.yul\":4028:4058   */\n  swap4\n  pop\n    /* \"#utility.yul\":4101:4105   */\n  dup1\n    /* \"#utility.yul\":4091:4099   */\n  dup7\n    /* \"#utility.yul\":4087:4106   */\n  and\n    /* \"#utility.yul\":4080:4085   */\n  dup5\n    /* \"#utility.yul\":4077:4107   */\n  or\n    /* \"#utility.yul\":4067:4107   */\n  swap3\n  pop\n    /* \"#utility.yul\":3796:4113   */\n  pop\n  pop\n    /* \"#utility.yul\":3720:4113   */\n  swap4\n  swap3\n  pop\n  pop\n  pop\n  jump\t// out\n    /* \"#utility.yul\":4119:4179   */\ntag_73:\n    /* \"#utility.yul\":4147:4150   */\n  0x00\n    /* \"#utility.yul\":4168:4173   */\n  dup2\n    /* \"#utility.yul\":4161:4173   */\n  swap1\n  pop\n    /* \"#utility.yul\":4119:4179   */\n  swap2\n  swap1\n  pop\n  jump\t// out\n    /* \"#utility.yul\":4185:4327   */\ntag_74:\n    /* \"#utility.yul\":4235:4244   */\n  0x00\n    /* \"#utility.yul\":4268:4321   */\n  tag_134\n    /* \"#utility.yul\":4286:4320   */\n  tag_135\n    /* \"#utility.yul\":4295:4319   */\n  tag_136\n    /* \"#utility.yul\":4313:4318   */\n  dup5\n    /* \"#utility.yul\":4295:4319   */\n  tag_62\n  jump\t// in\ntag_136:\n    /* \"#utility.yul\":4286:4320   */\n  tag_73\n  jump\t// in\ntag_135:\n    /* \"#utility.yul\":4268:4321   */\n  tag_62\n  jump\t// in\ntag_134:\n    /* \"#utility.yul\":4255:4321   */\n  swap1\n  pop\n    /* \"#utility.yul\":4185:4327   */\n  swap2\n  swap1\n  pop\n  jump\t// out\n    /* \"#utility.yul\":4333:4408   */\ntag_75:\n    /* \"#utility.yul\":4376:4379   */\n  0x00\n    /* \"#utility.yul\":4397:4402   */\n  dup2\n    /* \"#utility.yul\":4390:4402   */\n  swap1\n  pop\n    /* \"#utility.yul\":4333:4408   */\n  swap2\n  swap1\n  pop\n  jump\t// out\n    /* \"#utility.yul\":4414:4683   */\ntag_76:\n    /* \"#utility.yul\":4524:4563   */\n  tag_139\n    /* \"#utility.yul\":4555:4562   */\n  dup4\n    /* \"#utility.yul\":4524:4563   */\n  tag_74\n  jump\t// in\ntag_139:\n    /* \"#utility.yul\":4585:4676   */\n  tag_140\n    /* \"#utility.yul\":4634:4675   */\n  tag_141\n    /* \"#utility.yul\":4658:4674   */\n  dup3\n    /* \"#utility.yul\":4634:4675   */\n  tag_75\n  jump\t// in\ntag_141:\n    /* \"#utility.yul\":4626:4632   */\n  dup5\n    /* \"#utility.yul\":4619:4623   */\n  dup5\n    /* \"#utility.yul\":4613:4624   */\n  sload\n    /* \"#utility.yul\":4585:4676   */\n  tag_72\n  jump\t// in\ntag_140:\n    /* \"#utility.yul\":4579:4583   */\n  dup3\n    /* \"#utility.yul\":4572:4677   */\n  sstore\n    /* \"#utility.yul\":4490:4683   */\n  pop\n    /* \"#utility.yul\":4414:4683   */\n  pop\n  pop\n  pop\n  jump\t// out\n    /* \"#utility.yul\":4689:4762   */\ntag_77:\n    /* \"#utility.yul\":4734:4737   */\n  0x00\n    /* \"#utility.yul\":4689:4762   */\n  swap1\n  jump\t// out\n    /* \"#utility.yul\":4768:4957   */\ntag_78:\n    /* \"#utility.yul\":4845:4877   */\n  tag_144\n  tag_77\n  jump\t// in\ntag_144:\n    /* \"#utility.yul\":4886:4951   */\n  tag_145\n    /* \"#utility.yul\":4944:4950   */\n  dup2\n    /* \"#utility.yul\":4936:4942   */\n  dup5\n    /* \"#utility.yul\":4930:4934   */\n  dup5\n    /* \"#utility.yul\":4886:4951   */\n  tag_76\n  jump\t// in\ntag_145:\n    /* \"#utility.yul\":4821:4957   */\n  pop\n    /* \"#utility.yul\":4768:4957   */\n  pop\n  pop\n  jump\t// out\n    /* \"#utility.yul\":4963:5149   */\ntag_79:\n    /* \"#utility.yul\":5023:5143   */\ntag_147:\n    /* \"#utility.yul\":5040:5043   */\n  dup2\n    /* \"#utility.yul\":5033:5038   */\n  dup2\n    /* \"#utility.yul\":5030:5044   */\n  lt\n    /* \"#utility.yul\":5023:5143   */\n  iszero\n  tag_149\n  jumpi\n    /* \"#utility.yul\":5094:5133   */\n  tag_150\n    /* \"#utility.yul\":5131:5132   */\n  0x00\n    /* \"#utility.yul\":5124:5129   */\n  dup3\n    /* \"#utility.yul\":5094:5133   */\n  tag_78\n  jump\t// in\ntag_150:\n    /* \"#utility.yul\":5067:5068   */\n  0x01\n    /* \"#utility.yul\":5060:5065   */\n  dup2\n    /* \"#utility.yul\":5056:5069   */\n  add\n    /* \"#utility.yul\":5047:5069   */\n  swap1\n  pop\n    /* \"#utility.yul\":5023:5143   */\n  jump(tag_147)\ntag_149:\n    /* \"#utility.yul\":4963:5149   */\n  pop\n  pop\n  jump\t// out\n    /* \"#utility.yul\":5155:5698   */\ntag_80:\n    /* \"#utility.yul\":5256:5258   */\n  0x1f\n    /* \"#utility.yul\":5251:5254   */\n  dup3\n    /* \"#utility.yul\":5248:5259   */\n  gt\n    /* \"#utility.yul\":5245:5691   */\n  iszero\n  tag_152\n  jumpi\n    /* \"#utility.yul\":5290:5328   */\n  tag_153\n    /* \"#utility.yul\":5322:5327   */\n  dup2\n    /* \"#utility.yul\":5290:5328   */\n  tag_69\n  jump\t// in\ntag_153:\n    /* \"#utility.yul\":5374:5403   */\n  tag_154\n    /* \"#utility.yul\":5392:5402   */\n  dup5\n    /* \"#utility.yul\":5374:5403   */\n  tag_70\n  jump\t// in\ntag_154:\n    /* \"#utility.yul\":5364:5372   */\n  dup2\n    /* \"#utility.yul\":5360:5404   */\n  add\n    /* \"#utility.yul\":5557:5559   */\n  0x20\n    /* \"#utility.yul\":5545:5555   */\n  dup6\n    /* \"#utility.yul\":5542:5560   */\n  lt\n    /* \"#utility.yul\":5539:5588   */\n  iszero\n  tag_155\n  jumpi\n    /* \"#utility.yul\":5578:5586   */\n  dup2\n    /* \"#utility.yul\":5563:5586   */\n  swap1\n  pop\n    /* \"#utility.yul\":5539:5588   */\ntag_155:\n    /* \"#utility.yul\":5601:5681   */\n  tag_156\n    /* \"#utility.yul\":5657:5679   */\n  tag_157\n    /* \"#utility.yul\":5675:5678   */\n  dup6\n    /* \"#utility.yul\":5657:5679   */\n  tag_70\n  jump\t// in\ntag_157:\n    /* \"#utility.yul\":5647:5655   */\n  dup4\n    /* \"#utility.yul\":5643:5680   */\n  add\n    /* \"#utility.yul\":5630:5641   */\n  dup3\n    /* \"#utility.yul\":5601:5681   */\n  tag_79\n  jump\t// in\ntag_156:\n    /* \"#utility.yul\":5260:5691   */\n  pop\n  pop\n    /* \"#utility.yul\":5245:5691   */\ntag_152:\n    /* \"#utility.yul\":5155:5698   */\n  pop\n  pop\n  pop\n  jump\t// out\n    /* \"#utility.yul\":5704:5821   */\ntag_81:\n    /* \"#utility.yul\":5758:5766   */\n  0x00\n    /* \"#utility.yul\":5808:5813   */\n  dup3\n    /* \"#utility.yul\":5802:5806   */\n  dup3\n    /* \"#utility.yul\":5798:5814   */\n  shr\n    /* \"#utility.yul\":5777:5814   */\n  swap1\n  pop\n    /* \"#utility.yul\":5704:5821   */\n  swap3\n  swap2\n  pop\n  pop\n  jump\t// out\n    /* \"#utility.yul\":5827:5996   */\ntag_82:\n    /* \"#utility.yul\":5871:5877   */\n  0x00\n    /* \"#utility.yul\":5904:5955   */\n  tag_160\n    /* \"#utility.yul\":5952:5953   */\n  0x00\n    /* \"#utility.yul\":5948:5954   */\n  not\n    /* \"#utility.yul\":5940:5945   */\n  dup5\n    /* \"#utility.yul\":5937:5938   */\n  0x08\n    /* \"#utility.yul\":5933:5946   */\n  mul\n    /* \"#utility.yul\":5904:5955   */\n  tag_81\n  jump\t// in\ntag_160:\n    /* \"#utility.yul\":5900:5956   */\n  not\n    /* \"#utility.yul\":5985:5989   */\n  dup1\n    /* \"#utility.yul\":5979:5983   */\n  dup4\n    /* \"#utility.yul\":5975:5990   */\n  and\n    /* \"#utility.yul\":5965:5990   */\n  swap2\n  pop\n    /* \"#utility.yul\":5878:5996   */\n  pop\n    /* \"#utility.yul\":5827:5996   */\n  swap3\n  swap2\n  pop\n  pop\n  jump\t// out\n    /* \"#utility.yul\":6001:6296   */\ntag_83:\n    /* \"#utility.yul\":6077:6081   */\n  0x00\n    /* \"#utility.yul\":6223:6252   */\n  tag_162\n    /* \"#utility.yul\":6248:6251   */\n  dup4\n    /* \"#utility.yul\":6242:6246   */\n  dup4\n    /* \"#utility.yul\":6223:6252   */\n  tag_82\n  jump\t// in\ntag_162:\n    /* \"#utility.yul\":6215:6252   */\n  swap2\n  pop\n    /* \"#utility.yul\":6285:6288   */\n  dup3\n    /* \"#utility.yul\":6282:6283   */\n  0x02\n    /* \"#utility.yul\":6278:6289   */\n  mul\n    /* \"#utility.yul\":6272:6276   */\n  dup3\n    /* \"#utility.yul\":6269:6290   */\n  or\n    /* \"#utility.yul\":6261:6290   */\n  swap1\n  pop\n    /* \"#utility.yul\":6001:6296   */\n  swap3\n  swap2\n  pop\n  pop\n  jump\t// out\n    /* \"#utility.yul\":6301:7696   */\ntag_46:\n    /* \"#utility.yul\":6418:6455   */\n  tag_164\n    /* \"#utility.yul\":6451:6454   */\n  dup3\n    /* \"#utility.yul\":6418:6455   */\n  tag_64\n  jump\t// in\ntag_164:\n    /* \"#utility.yul\":6520:6538   */\n  0xffffffffffffffff\n    /* \"#utility.yul\":6512:6518   */\n  dup2\n    /* \"#utility.yul\":6509:6539   */\n  gt\n    /* \"#utility.yul\":6506:6562   */\n  iszero\n  tag_165\n  jumpi\n    /* \"#utility.yul\":6542:6560   */\n  tag_166\n  tag_68\n  jump\t// in\ntag_166:\n    /* \"#utility.yul\":6506:6562   */\ntag_165:\n    /* \"#utility.yul\":6586:6624   */\n  tag_167\n    /* \"#utility.yul\":6618:6622   */\n  dup3\n    /* \"#utility.yul\":6612:6623   */\n  sload\n    /* \"#utility.yul\":6586:6624   */\n  tag_15\n  jump\t// in\ntag_167:\n    /* \"#utility.yul\":6671:6738   */\n  tag_168\n    /* \"#utility.yul\":6731:6737   */\n  dup3\n    /* \"#utility.yul\":6723:6729   */\n  dup3\n    /* \"#utility.yul\":6717:6721   */\n  dup6\n    /* \"#utility.yul\":6671:6738   */\n  tag_80\n  jump\t// in\ntag_168:\n    /* \"#utility.yul\":6765:6766   */\n  0x00\n    /* \"#utility.yul\":6789:6793   */\n  0x20\n    /* \"#utility.yul\":6776:6793   */\n  swap1\n  pop\n    /* \"#utility.yul\":6821:6823   */\n  0x1f\n    /* \"#utility.yul\":6813:6819   */\n  dup4\n    /* \"#utility.yul\":6810:6824   */\n  gt\n    /* \"#utility.yul\":6838:6839   */\n  0x01\n    /* \"#utility.yul\":6833:7451   */\n  dup2\n  eq\n  tag_170\n  jumpi\n    /* \"#utility.yul\":7495:7496   */\n  0x00\n    /* \"#utility.yul\":7512:7518   */\n  dup5\n    /* \"#utility.yul\":7509:7586   */\n  iszero\n  tag_171\n  jumpi\n    /* \"#utility.yul\":7561:7570   */\n  dup3\n    /* \"#utility.yul\":7556:7559   */\n  dup8\n    /* \"#utility.yul\":7552:7571   */\n  add\n    /* \"#utility.yul\":7546:7572   */\n  mload\n    /* \"#utility.yul\":7537:7572   */\n  swap1\n  pop\n    /* \"#utility.yul\":7509:7586   */\ntag_171:\n    /* \"#utility.yul\":7612:7679   */\n  tag_172\n    /* \"#utility.yul\":7672:7678   */\n  dup6\n    /* \"#utility.yul\":7665:7670   */\n  dup3\n    /* \"#utility.yul\":7612:7679   */\n  tag_83\n  jump\t// in\ntag_172:\n    /* \"#utility.yul\":7606:7610   */\n  dup7\n    /* \"#utility.yul\":7599:7680   */\n  sstore\n    /* \"#utility.yul\":7468:7690   */\n  pop\n    /* \"#utility.yul\":6803:7690   */\n  jump(tag_169)\n    /* \"#utility.yul\":6833:7451   */\ntag_170:\n    /* \"#utility.yul\":6885:6889   */\n  0x1f\n    /* \"#utility.yul\":6881:6890   */\n  not\n    /* \"#utility.yul\":6873:6879   */\n  dup5\n    /* \"#utility.yul\":6869:6891   */\n  and\n    /* \"#utility.yul\":6919:6956   */\n  tag_173\n    /* \"#utility.yul\":6951:6955   */\n  dup7\n    /* \"#utility.yul\":6919:6956   */\n  tag_69\n  jump\t// in\ntag_173:\n    /* \"#utility.yul\":6978:6979   */\n  0x00\n    /* \"#utility.yul\":6992:7200   */\ntag_174:\n    /* \"#utility.yul\":7006:7013   */\n  dup3\n    /* \"#utility.yul\":7003:7004   */\n  dup2\n    /* \"#utility.yul\":7000:7014   */\n  lt\n    /* \"#utility.yul\":6992:7200   */\n  iszero\n  tag_176\n  jumpi\n    /* \"#utility.yul\":7085:7094   */\n  dup5\n    /* \"#utility.yul\":7080:7083   */\n  dup10\n    /* \"#utility.yul\":7076:7095   */\n  add\n    /* \"#utility.yul\":7070:7096   */\n  mload\n    /* \"#utility.yul\":7062:7068   */\n  dup3\n    /* \"#utility.yul\":7055:7097   */\n  sstore\n    /* \"#utility.yul\":7136:7137   */\n  0x01\n    /* \"#utility.yul\":7128:7134   */\n  dup3\n    /* \"#utility.yul\":7124:7138   */\n  add\n    /* \"#utility.yul\":7114:7138   */\n  swap2\n  pop\n    /* \"#utility.yul\":7183:7185   */\n  0x20\n    /* \"#utility.yul\":7172:7181   */\n  dup6\n    /* \"#utility.yul\":7168:7186   */\n  add\n    /* \"#utility.yul\":7155:7186   */\n  swap5\n  pop\n    /* \"#utility.yul\":7029:7033   */\n  0x20\n    /* \"#utility.yul\":7026:7027   */\n  dup2\n    /* \"#utility.yul\":7022:7034   */\n  add\n    /* \"#utility.yul\":7017:7034   */\n  swap1\n  pop\n    /* \"#utility.yul\":6992:7200   */\n  jump(tag_174)\ntag_176:\n    /* \"#utility.yul\":7228:7234   */\n  dup7\n    /* \"#utility.yul\":7219:7226   */\n  dup4\n    /* \"#utility.yul\":7216:7235   */\n  lt\n    /* \"#utility.yul\":7213:7392   */\n  iszero\n  tag_177\n  jumpi\n    /* \"#utility.yul\":7286:7295   */\n  dup5\n    /* \"#utility.yul\":7281:7284   */\n  dup10\n    /* \"#utility.yul\":7277:7296   */\n  add\n    /* \"#utility.yul\":7271:7297   */\n  mload\n    /* \"#utility.yul\":7329:7377   */\n  tag_178\n    /* \"#utility.yul\":7371:7375   */\n  0x1f\n    /* \"#utility.yul\":7363:7369   */\n  dup10\n    /* \"#utility.yul\":7359:7376   */\n  and\n    /* \"#utility.yul\":7348:7357   */\n  dup3\n    /* \"#utility.yul\":7329:7377   */\n  tag_82\n  jump\t// in\ntag_178:\n    /* \"#utility.yul\":7321:7327   */\n  dup4\n    /* \"#utility.yul\":7314:7378   */\n  sstore\n    /* \"#utility.yul\":7236:7392   */\n  pop\n    /* \"#utility.yul\":7213:7392   */\ntag_177:\n    /* \"#utility.yul\":7438:7439   */\n  0x01\n    /* \"#utility.yul\":7434:7435   */\n  0x02\n    /* \"#utility.yul\":7426:7432   */\n  dup9\n    /* \"#utility.yul\":7422:7436   */\n  mul\n    /* \"#utility.yul\":7418:7440   */\n  add\n    /* \"#utility.yul\":7412:7416   */\n  dup9\n    /* \"#utility.yul\":7405:7441   */\n  sstore\n    /* \"#utility.yul\":6840:7451   */\n  pop\n  pop\n  pop\n    /* \"#utility.yul\":6803:7690   */\ntag_169:\n  pop\n    /* \"#utility.yul\":6393:7696   */\n  pop\n  pop\n  pop\n    /* \"#utility.yul\":6301:7696   */\n  pop\n  pop\n  jump\t// out\n    /* \"contracts/Lesson_4.sol\":78:1165  contract MerkleTree... */\ntag_35:\n  dataSize(sub_0)\n  dup1\n  dataOffset(sub_0)\n  0x00\n  codecopy\n  0x00\n  return\nstop\n\nsub_0: assembly {\n        /* \"contracts/Lesson_4.sol\":78:1165  contract MerkleTree... */\n      mstore(0x40, 0x80)\n      callvalue\n      dup1\n      iszero\n      tag_1\n      jumpi\n      0x00\n      dup1\n      revert\n    tag_1:\n      pop\n      jumpi(tag_2, lt(calldatasize, 0x04))\n      shr(0xe0, calldataload(0x00))\n      dup1\n      0x501895ae\n      eq\n      tag_3\n      jumpi\n      dup1\n      0x52de70af\n      eq\n      tag_4\n      jumpi\n      dup1\n      0x6a11b2a8\n      eq\n      tag_5\n      jumpi\n    tag_2:\n      0x00\n      dup1\n      revert\n        /* \"contracts/Lesson_4.sol\":186:209  bytes32[] public hashes */\n    tag_3:\n      tag_6\n      0x04\n      dup1\n      calldatasize\n      sub\n      dup2\n      add\n      swap1\n      tag_7\n      swap2\n      swap1\n      tag_8\n      jump\t// in\n    tag_7:\n      tag_9\n      jump\t// in\n    tag_6:\n      mload(0x40)\n      tag_10\n      swap2\n      swap1\n      tag_11\n      jump\t// in\n    tag_10:\n      mload(0x40)\n      dup1\n      swap2\n      sub\n      swap1\n      return\n        /* \"contracts/Lesson_4.sol\":1015:1162  function makeHash(string memory input) public pure returns(bytes32)... */\n    tag_4:\n      tag_12\n      0x04\n      dup1\n      calldatasize\n      sub\n      dup2\n      add\n      swap1\n      tag_13\n      swap2\n      swap1\n      tag_14\n      jump\t// in\n    tag_13:\n      tag_15\n      jump\t// in\n    tag_12:\n      mload(0x40)\n      tag_16\n      swap2\n      swap1\n      tag_11\n      jump\t// in\n    tag_16:\n      mload(0x40)\n      dup1\n      swap2\n      sub\n      swap1\n      return\n        /* \"contracts/Lesson_4.sol\":882:1007  function encode(string memory input) public pure returns(bytes memory)... */\n    tag_5:\n      tag_17\n      0x04\n      dup1\n      calldatasize\n      sub\n      dup2\n      add\n      swap1\n      tag_18\n      swap2\n      swap1\n      tag_14\n      jump\t// in\n    tag_18:\n      tag_19\n      jump\t// in\n    tag_17:\n      mload(0x40)\n      tag_20\n      swap2\n      swap1\n      tag_21\n      jump\t// in\n    tag_20:\n      mload(0x40)\n      dup1\n      swap2\n      sub\n      swap1\n      return\n        /* \"contracts/Lesson_4.sol\":186:209  bytes32[] public hashes */\n    tag_9:\n      0x00\n      dup2\n      dup2\n      sload\n      dup2\n      lt\n      tag_22\n      jumpi\n      0x00\n      dup1\n      revert\n    tag_22:\n      swap1\n      0x00\n      mstore\n      keccak256(0x00, 0x20)\n      add\n      0x00\n      swap2\n      pop\n      swap1\n      pop\n      sload\n      dup2\n      jump\t// out\n        /* \"contracts/Lesson_4.sol\":1015:1162  function makeHash(string memory input) public pure returns(bytes32)... */\n    tag_15:\n        /* \"contracts/Lesson_4.sol\":1074:1081  bytes32 */\n      0x00\n        /* \"contracts/Lesson_4.sol\":1130:1143  encode(input) */\n      tag_25\n        /* \"contracts/Lesson_4.sol\":1137:1142  input */\n      dup3\n        /* \"contracts/Lesson_4.sol\":1130:1136  encode */\n      tag_19\n        /* \"contracts/Lesson_4.sol\":1130:1143  encode(input) */\n      jump\t// in\n    tag_25:\n        /* \"contracts/Lesson_4.sol\":1106:1154  keccak256(... */\n      dup1\n      mload\n      swap1\n      0x20\n      add\n      keccak256\n        /* \"contracts/Lesson_4.sol\":1099:1154  return keccak256(... */\n      swap1\n      pop\n        /* \"contracts/Lesson_4.sol\":1015:1162  function makeHash(string memory input) public pure returns(bytes32)... */\n      swap2\n      swap1\n      pop\n      jump\t// out\n        /* \"contracts/Lesson_4.sol\":882:1007  function encode(string memory input) public pure returns(bytes memory)... */\n    tag_19:\n        /* \"contracts/Lesson_4.sol\":939:951  bytes memory */\n      0x60\n        /* \"contracts/Lesson_4.sol\":993:998  input */\n      dup2\n        /* \"contracts/Lesson_4.sol\":976:999  abi.encodePacked(input) */\n      add(0x20, mload(0x40))\n      tag_27\n      swap2\n      swap1\n      tag_28\n      jump\t// in\n    tag_27:\n      mload(0x40)\n      0x20\n      dup2\n      dup4\n      sub\n      sub\n      dup2\n      mstore\n      swap1\n      0x40\n      mstore\n        /* \"contracts/Lesson_4.sol\":969:999  return abi.encodePacked(input) */\n      swap1\n      pop\n        /* \"contracts/Lesson_4.sol\":882:1007  function encode(string memory input) public pure returns(bytes memory)... */\n      swap2\n      swap1\n      pop\n      jump\t// out\n        /* \"#utility.yul\":7:82   */\n    tag_29:\n        /* \"#utility.yul\":40:46   */\n      0x00\n        /* \"#utility.yul\":73:75   */\n      0x40\n        /* \"#utility.yul\":67:76   */\n      mload\n        /* \"#utility.yul\":57:76   */\n      swap1\n      pop\n        /* \"#utility.yul\":7:82   */\n      swap1\n      jump\t// out\n        /* \"#utility.yul\":88:205   */\n    tag_30:\n        /* \"#utility.yul\":197:198   */\n      0x00\n        /* \"#utility.yul\":194:195   */\n      dup1\n        /* \"#utility.yul\":187:199   */\n      revert\n        /* \"#utility.yul\":211:328   */\n    tag_31:\n        /* \"#utility.yul\":320:321   */\n      0x00\n        /* \"#utility.yul\":317:318   */\n      dup1\n        /* \"#utility.yul\":310:322   */\n      revert\n        /* \"#utility.yul\":334:411   */\n    tag_32:\n        /* \"#utility.yul\":371:378   */\n      0x00\n        /* \"#utility.yul\":400:405   */\n      dup2\n        /* \"#utility.yul\":389:405   */\n      swap1\n      pop\n        /* \"#utility.yul\":334:411   */\n      swap2\n      swap1\n      pop\n      jump\t// out\n        /* \"#utility.yul\":417:539   */\n    tag_33:\n        /* \"#utility.yul\":490:514   */\n      tag_60\n        /* \"#utility.yul\":508:513   */\n      dup2\n        /* \"#utility.yul\":490:514   */\n      tag_32\n      jump\t// in\n    tag_60:\n        /* \"#utility.yul\":483:488   */\n      dup2\n        /* \"#utility.yul\":480:515   */\n      eq\n        /* \"#utility.yul\":470:533   */\n      tag_61\n      jumpi\n        /* \"#utility.yul\":529:530   */\n      0x00\n        /* \"#utility.yul\":526:527   */\n      dup1\n        /* \"#utility.yul\":519:531   */\n      revert\n        /* \"#utility.yul\":470:533   */\n    tag_61:\n        /* \"#utility.yul\":417:539   */\n      pop\n      jump\t// out\n        /* \"#utility.yul\":545:684   */\n    tag_34:\n        /* \"#utility.yul\":591:596   */\n      0x00\n        /* \"#utility.yul\":629:635   */\n      dup2\n        /* \"#utility.yul\":616:636   */\n      calldataload\n        /* \"#utility.yul\":607:636   */\n      swap1\n      pop\n        /* \"#utility.yul\":645:678   */\n      tag_63\n        /* \"#utility.yul\":672:677   */\n      dup2\n        /* \"#utility.yul\":645:678   */\n      tag_33\n      jump\t// in\n    tag_63:\n        /* \"#utility.yul\":545:684   */\n      swap3\n      swap2\n      pop\n      pop\n      jump\t// out\n        /* \"#utility.yul\":690:1019   */\n    tag_8:\n        /* \"#utility.yul\":749:755   */\n      0x00\n        /* \"#utility.yul\":798:800   */\n      0x20\n        /* \"#utility.yul\":786:795   */\n      dup3\n        /* \"#utility.yul\":777:784   */\n      dup5\n        /* \"#utility.yul\":773:796   */\n      sub\n        /* \"#utility.yul\":769:801   */\n      slt\n        /* \"#utility.yul\":766:885   */\n      iszero\n      tag_65\n      jumpi\n        /* \"#utility.yul\":804:883   */\n      tag_66\n      tag_30\n      jump\t// in\n    tag_66:\n        /* \"#utility.yul\":766:885   */\n    tag_65:\n        /* \"#utility.yul\":924:925   */\n      0x00\n        /* \"#utility.yul\":949:1002   */\n      tag_67\n        /* \"#utility.yul\":994:1001   */\n      dup5\n        /* \"#utility.yul\":985:991   */\n      dup3\n        /* \"#utility.yul\":974:983   */\n      dup6\n        /* \"#utility.yul\":970:992   */\n      add\n        /* \"#utility.yul\":949:1002   */\n      tag_34\n      jump\t// in\n    tag_67:\n        /* \"#utility.yul\":939:1002   */\n      swap2\n      pop\n        /* \"#utility.yul\":895:1012   */\n      pop\n        /* \"#utility.yul\":690:1019   */\n      swap3\n      swap2\n      pop\n      pop\n      jump\t// out\n        /* \"#utility.yul\":1025:1102   */\n    tag_35:\n        /* \"#utility.yul\":1062:1069   */\n      0x00\n        /* \"#utility.yul\":1091:1096   */\n      dup2\n        /* \"#utility.yul\":1080:1096   */\n      swap1\n      pop\n        /* \"#utility.yul\":1025:1102   */\n      swap2\n      swap1\n      pop\n      jump\t// out\n        /* \"#utility.yul\":1108:1226   */\n    tag_36:\n        /* \"#utility.yul\":1195:1219   */\n      tag_70\n        /* \"#utility.yul\":1213:1218   */\n      dup2\n        /* \"#utility.yul\":1195:1219   */\n      tag_35\n      jump\t// in\n    tag_70:\n        /* \"#utility.yul\":1190:1193   */\n      dup3\n        /* \"#utility.yul\":1183:1220   */\n      mstore\n        /* \"#utility.yul\":1108:1226   */\n      pop\n      pop\n      jump\t// out\n        /* \"#utility.yul\":1232:1454   */\n    tag_11:\n        /* \"#utility.yul\":1325:1329   */\n      0x00\n        /* \"#utility.yul\":1363:1365   */\n      0x20\n        /* \"#utility.yul\":1352:1361   */\n      dup3\n        /* \"#utility.yul\":1348:1366   */\n      add\n        /* \"#utility.yul\":1340:1366   */\n      swap1\n      pop\n        /* \"#utility.yul\":1376:1447   */\n      tag_72\n        /* \"#utility.yul\":1444:1445   */\n      0x00\n        /* \"#utility.yul\":1433:1442   */\n      dup4\n        /* \"#utility.yul\":1429:1446   */\n      add\n        /* \"#utility.yul\":1420:1426   */\n      dup5\n        /* \"#utility.yul\":1376:1447   */\n      tag_36\n      jump\t// in\n    tag_72:\n        /* \"#utility.yul\":1232:1454   */\n      swap3\n      swap2\n      pop\n      pop\n      jump\t// out\n        /* \"#utility.yul\":1460:1577   */\n    tag_37:\n        /* \"#utility.yul\":1569:1570   */\n      0x00\n        /* \"#utility.yul\":1566:1567   */\n      dup1\n        /* \"#utility.yul\":1559:1571   */\n      revert\n        /* \"#utility.yul\":1583:1700   */\n    tag_38:\n        /* \"#utility.yul\":1692:1693   */\n      0x00\n        /* \"#utility.yul\":1689:1690   */\n      dup1\n        /* \"#utility.yul\":1682:1694   */\n      revert\n        /* \"#utility.yul\":1706:1808   */\n    tag_39:\n        /* \"#utility.yul\":1747:1753   */\n      0x00\n        /* \"#utility.yul\":1798:1800   */\n      0x1f\n        /* \"#utility.yul\":1794:1801   */\n      not\n        /* \"#utility.yul\":1789:1791   */\n      0x1f\n        /* \"#utility.yul\":1782:1787   */\n      dup4\n        /* \"#utility.yul\":1778:1792   */\n      add\n        /* \"#utility.yul\":1774:1802   */\n      and\n        /* \"#utility.yul\":1764:1802   */\n      swap1\n      pop\n        /* \"#utility.yul\":1706:1808   */\n      swap2\n      swap1\n      pop\n      jump\t// out\n        /* \"#utility.yul\":1814:1994   */\n    tag_40:\n        /* \"#utility.yul\":1862:1939   */\n      0x4e487b7100000000000000000000000000000000000000000000000000000000\n        /* \"#utility.yul\":1859:1860   */\n      0x00\n        /* \"#utility.yul\":1852:1940   */\n      mstore\n        /* \"#utility.yul\":1959:1963   */\n      0x41\n        /* \"#utility.yul\":1956:1957   */\n      0x04\n        /* \"#utility.yul\":1949:1964   */\n      mstore\n        /* \"#utility.yul\":1983:1987   */\n      0x24\n        /* \"#utility.yul\":1980:1981   */\n      0x00\n        /* \"#utility.yul\":1973:1988   */\n      revert\n        /* \"#utility.yul\":2000:2281   */\n    tag_41:\n        /* \"#utility.yul\":2083:2110   */\n      tag_78\n        /* \"#utility.yul\":2105:2109   */\n      dup3\n        /* \"#utility.yul\":2083:2110   */\n      tag_39\n      jump\t// in\n    tag_78:\n        /* \"#utility.yul\":2075:2081   */\n      dup2\n        /* \"#utility.yul\":2071:2111   */\n      add\n        /* \"#utility.yul\":2213:2219   */\n      dup2\n        /* \"#utility.yul\":2201:2211   */\n      dup2\n        /* \"#utility.yul\":2198:2220   */\n      lt\n        /* \"#utility.yul\":2177:2195   */\n      0xffffffffffffffff\n        /* \"#utility.yul\":2165:2175   */\n      dup3\n        /* \"#utility.yul\":2162:2196   */\n      gt\n        /* \"#utility.yul\":2159:2221   */\n      or\n        /* \"#utility.yul\":2156:2244   */\n      iszero\n      tag_79\n      jumpi\n        /* \"#utility.yul\":2224:2242   */\n      tag_80\n      tag_40\n      jump\t// in\n    tag_80:\n        /* \"#utility.yul\":2156:2244   */\n    tag_79:\n        /* \"#utility.yul\":2264:2274   */\n      dup1\n        /* \"#utility.yul\":2260:2262   */\n      0x40\n        /* \"#utility.yul\":2253:2275   */\n      mstore\n        /* \"#utility.yul\":2043:2281   */\n      pop\n        /* \"#utility.yul\":2000:2281   */\n      pop\n      pop\n      jump\t// out\n        /* \"#utility.yul\":2287:2416   */\n    tag_42:\n        /* \"#utility.yul\":2321:2327   */\n      0x00\n        /* \"#utility.yul\":2348:2368   */\n      tag_82\n      tag_29\n      jump\t// in\n    tag_82:\n        /* \"#utility.yul\":2338:2368   */\n      swap1\n      pop\n        /* \"#utility.yul\":2377:2410   */\n      tag_83\n        /* \"#utility.yul\":2405:2409   */\n      dup3\n        /* \"#utility.yul\":2397:2403   */\n      dup3\n        /* \"#utility.yul\":2377:2410   */\n      tag_41\n      jump\t// in\n    tag_83:\n        /* \"#utility.yul\":2287:2416   */\n      swap2\n      swap1\n      pop\n      jump\t// out\n        /* \"#utility.yul\":2422:2730   */\n    tag_43:\n        /* \"#utility.yul\":2484:2488   */\n      0x00\n        /* \"#utility.yul\":2574:2592   */\n      0xffffffffffffffff\n        /* \"#utility.yul\":2566:2572   */\n      dup3\n        /* \"#utility.yul\":2563:2593   */\n      gt\n        /* \"#utility.yul\":2560:2616   */\n      iszero\n      tag_85\n      jumpi\n        /* \"#utility.yul\":2596:2614   */\n      tag_86\n      tag_40\n      jump\t// in\n    tag_86:\n        /* \"#utility.yul\":2560:2616   */\n    tag_85:\n        /* \"#utility.yul\":2634:2663   */\n      tag_87\n        /* \"#utility.yul\":2656:2662   */\n      dup3\n        /* \"#utility.yul\":2634:2663   */\n      tag_39\n      jump\t// in\n    tag_87:\n        /* \"#utility.yul\":2626:2663   */\n      swap1\n      pop\n        /* \"#utility.yul\":2718:2722   */\n      0x20\n        /* \"#utility.yul\":2712:2716   */\n      dup2\n        /* \"#utility.yul\":2708:2723   */\n      add\n        /* \"#utility.yul\":2700:2723   */\n      swap1\n      pop\n        /* \"#utility.yul\":2422:2730   */\n      swap2\n      swap1\n      pop\n      jump\t// out\n        /* \"#utility.yul\":2736:2882   */\n    tag_44:\n        /* \"#utility.yul\":2833:2839   */\n      dup3\n        /* \"#utility.yul\":2828:2831   */\n      dup2\n        /* \"#utility.yul\":2823:2826   */\n      dup4\n        /* \"#utility.yul\":2810:2840   */\n      calldatacopy\n        /* \"#utility.yul\":2874:2875   */\n      0x00\n        /* \"#utility.yul\":2865:2871   */\n      dup4\n        /* \"#utility.yul\":2860:2863   */\n      dup4\n        /* \"#utility.yul\":2856:2872   */\n      add\n        /* \"#utility.yul\":2849:2876   */\n      mstore\n        /* \"#utility.yul\":2736:2882   */\n      pop\n      pop\n      pop\n      jump\t// out\n        /* \"#utility.yul\":2888:3313   */\n    tag_45:\n        /* \"#utility.yul\":2966:2971   */\n      0x00\n        /* \"#utility.yul\":2991:3057   */\n      tag_90\n        /* \"#utility.yul\":3007:3056   */\n      tag_91\n        /* \"#utility.yul\":3049:3055   */\n      dup5\n        /* \"#utility.yul\":3007:3056   */\n      tag_43\n      jump\t// in\n    tag_91:\n        /* \"#utility.yul\":2991:3057   */\n      tag_42\n      jump\t// in\n    tag_90:\n        /* \"#utility.yul\":2982:3057   */\n      swap1\n      pop\n        /* \"#utility.yul\":3080:3086   */\n      dup3\n        /* \"#utility.yul\":3073:3078   */\n      dup2\n        /* \"#utility.yul\":3066:3087   */\n      mstore\n        /* \"#utility.yul\":3118:3122   */\n      0x20\n        /* \"#utility.yul\":3111:3116   */\n      dup2\n        /* \"#utility.yul\":3107:3123   */\n      add\n        /* \"#utility.yul\":3156:3159   */\n      dup5\n        /* \"#utility.yul\":3147:3153   */\n      dup5\n        /* \"#utility.yul\":3142:3145   */\n      dup5\n        /* \"#utility.yul\":3138:3154   */\n      add\n        /* \"#utility.yul\":3135:3160   */\n      gt\n        /* \"#utility.yul\":3132:3244   */\n      iszero\n      tag_92\n      jumpi\n        /* \"#utility.yul\":3163:3242   */\n      tag_93\n      tag_38\n      jump\t// in\n    tag_93:\n        /* \"#utility.yul\":3132:3244   */\n    tag_92:\n        /* \"#utility.yul\":3253:3307   */\n      tag_94\n        /* \"#utility.yul\":3300:3306   */\n      dup5\n        /* \"#utility.yul\":3295:3298   */\n      dup3\n        /* \"#utility.yul\":3290:3293   */\n      dup6\n        /* \"#utility.yul\":3253:3307   */\n      tag_44\n      jump\t// in\n    tag_94:\n        /* \"#utility.yul\":2972:3313   */\n      pop\n        /* \"#utility.yul\":2888:3313   */\n      swap4\n      swap3\n      pop\n      pop\n      pop\n      jump\t// out\n        /* \"#utility.yul\":3333:3673   */\n    tag_46:\n        /* \"#utility.yul\":3389:3394   */\n      0x00\n        /* \"#utility.yul\":3438:3441   */\n      dup3\n        /* \"#utility.yul\":3431:3435   */\n      0x1f\n        /* \"#utility.yul\":3423:3429   */\n      dup4\n        /* \"#utility.yul\":3419:3436   */\n      add\n        /* \"#utility.yul\":3415:3442   */\n      slt\n        /* \"#utility.yul\":3405:3527   */\n      tag_96\n      jumpi\n        /* \"#utility.yul\":3446:3525   */\n      tag_97\n      tag_37\n      jump\t// in\n    tag_97:\n        /* \"#utility.yul\":3405:3527   */\n    tag_96:\n        /* \"#utility.yul\":3563:3569   */\n      dup2\n        /* \"#utility.yul\":3550:3570   */\n      calldataload\n        /* \"#utility.yul\":3588:3667   */\n      tag_98\n        /* \"#utility.yul\":3663:3666   */\n      dup5\n        /* \"#utility.yul\":3655:3661   */\n      dup3\n        /* \"#utility.yul\":3648:3652   */\n      0x20\n        /* \"#utility.yul\":3640:3646   */\n      dup7\n        /* \"#utility.yul\":3636:3653   */\n      add\n        /* \"#utility.yul\":3588:3667   */\n      tag_45\n      jump\t// in\n    tag_98:\n        /* \"#utility.yul\":3579:3667   */\n      swap2\n      pop\n        /* \"#utility.yul\":3395:3673   */\n      pop\n        /* \"#utility.yul\":3333:3673   */\n      swap3\n      swap2\n      pop\n      pop\n      jump\t// out\n        /* \"#utility.yul\":3679:4188   */\n    tag_14:\n        /* \"#utility.yul\":3748:3754   */\n      0x00\n        /* \"#utility.yul\":3797:3799   */\n      0x20\n        /* \"#utility.yul\":3785:3794   */\n      dup3\n        /* \"#utility.yul\":3776:3783   */\n      dup5\n        /* \"#utility.yul\":3772:3795   */\n      sub\n        /* \"#utility.yul\":3768:3800   */\n      slt\n        /* \"#utility.yul\":3765:3884   */\n      iszero\n      tag_100\n      jumpi\n        /* \"#utility.yul\":3803:3882   */\n      tag_101\n      tag_30\n      jump\t// in\n    tag_101:\n        /* \"#utility.yul\":3765:3884   */\n    tag_100:\n        /* \"#utility.yul\":3951:3952   */\n      0x00\n        /* \"#utility.yul\":3940:3949   */\n      dup3\n        /* \"#utility.yul\":3936:3953   */\n      add\n        /* \"#utility.yul\":3923:3954   */\n      calldataload\n        /* \"#utility.yul\":3981:3999   */\n      0xffffffffffffffff\n        /* \"#utility.yul\":3973:3979   */\n      dup2\n        /* \"#utility.yul\":3970:4000   */\n      gt\n        /* \"#utility.yul\":3967:4084   */\n      iszero\n      tag_102\n      jumpi\n        /* \"#utility.yul\":4003:4082   */\n      tag_103\n      tag_31\n      jump\t// in\n    tag_103:\n        /* \"#utility.yul\":3967:4084   */\n    tag_102:\n        /* \"#utility.yul\":4108:4171   */\n      tag_104\n        /* \"#utility.yul\":4163:4170   */\n      dup5\n        /* \"#utility.yul\":4154:4160   */\n      dup3\n        /* \"#utility.yul\":4143:4152   */\n      dup6\n        /* \"#utility.yul\":4139:4161   */\n      add\n        /* \"#utility.yul\":4108:4171   */\n      tag_46\n      jump\t// in\n    tag_104:\n        /* \"#utility.yul\":4098:4171   */\n      swap2\n      pop\n        /* \"#utility.yul\":3894:4181   */\n      pop\n        /* \"#utility.yul\":3679:4188   */\n      swap3\n      swap2\n      pop\n      pop\n      jump\t// out\n        /* \"#utility.yul\":4194:4292   */\n    tag_47:\n        /* \"#utility.yul\":4245:4251   */\n      0x00\n        /* \"#utility.yul\":4279:4284   */\n      dup2\n        /* \"#utility.yul\":4273:4285   */\n      mload\n        /* \"#utility.yul\":4263:4285   */\n      swap1\n      pop\n        /* \"#utility.yul\":4194:4292   */\n      swap2\n      swap1\n      pop\n      jump\t// out\n        /* \"#utility.yul\":4298:4466   */\n    tag_48:\n        /* \"#utility.yul\":4381:4392   */\n      0x00\n        /* \"#utility.yul\":4415:4421   */\n      dup3\n        /* \"#utility.yul\":4410:4413   */\n      dup3\n        /* \"#utility.yul\":4403:4422   */\n      mstore\n        /* \"#utility.yul\":4455:4459   */\n      0x20\n        /* \"#utility.yul\":4450:4453   */\n      dup3\n        /* \"#utility.yul\":4446:4460   */\n      add\n        /* \"#utility.yul\":4431:4460   */\n      swap1\n      pop\n        /* \"#utility.yul\":4298:4466   */\n      swap3\n      swap2\n      pop\n      pop\n      jump\t// out\n        /* \"#utility.yul\":4472:4718   */\n    tag_49:\n        /* \"#utility.yul\":4553:4554   */\n      0x00\n        /* \"#utility.yul\":4563:4676   */\n    tag_108:\n        /* \"#utility.yul\":4577:4583   */\n      dup4\n        /* \"#utility.yul\":4574:4575   */\n      dup2\n        /* \"#utility.yul\":4571:4584   */\n      lt\n        /* \"#utility.yul\":4563:4676   */\n      iszero\n      tag_110\n      jumpi\n        /* \"#utility.yul\":4662:4663   */\n      dup1\n        /* \"#utility.yul\":4657:4660   */\n      dup3\n        /* \"#utility.yul\":4653:4664   */\n      add\n        /* \"#utility.yul\":4647:4665   */\n      mload\n        /* \"#utility.yul\":4643:4644   */\n      dup2\n        /* \"#utility.yul\":4638:4641   */\n      dup5\n        /* \"#utility.yul\":4634:4645   */\n      add\n        /* \"#utility.yul\":4627:4666   */\n      mstore\n        /* \"#utility.yul\":4599:4601   */\n      0x20\n        /* \"#utility.yul\":4596:4597   */\n      dup2\n        /* \"#utility.yul\":4592:4602   */\n      add\n        /* \"#utility.yul\":4587:4602   */\n      swap1\n      pop\n        /* \"#utility.yul\":4563:4676   */\n      jump(tag_108)\n    tag_110:\n        /* \"#utility.yul\":4710:4711   */\n      0x00\n        /* \"#utility.yul\":4701:4707   */\n      dup5\n        /* \"#utility.yul\":4696:4699   */\n      dup5\n        /* \"#utility.yul\":4692:4708   */\n      add\n        /* \"#utility.yul\":4685:4712   */\n      mstore\n        /* \"#utility.yul\":4534:4718   */\n      pop\n        /* \"#utility.yul\":4472:4718   */\n      pop\n      pop\n      pop\n      jump\t// out\n        /* \"#utility.yul\":4724:5097   */\n    tag_50:\n        /* \"#utility.yul\":4810:4813   */\n      0x00\n        /* \"#utility.yul\":4838:4876   */\n      tag_112\n        /* \"#utility.yul\":4870:4875   */\n      dup3\n        /* \"#utility.yul\":4838:4876   */\n      tag_47\n      jump\t// in\n    tag_112:\n        /* \"#utility.yul\":4892:4962   */\n      tag_113\n        /* \"#utility.yul\":4955:4961   */\n      dup2\n        /* \"#utility.yul\":4950:4953   */\n      dup6\n        /* \"#utility.yul\":4892:4962   */\n      tag_48\n      jump\t// in\n    tag_113:\n        /* \"#utility.yul\":4885:4962   */\n      swap4\n      pop\n        /* \"#utility.yul\":4971:5036   */\n      tag_114\n        /* \"#utility.yul\":5029:5035   */\n      dup2\n        /* \"#utility.yul\":5024:5027   */\n      dup6\n        /* \"#utility.yul\":5017:5021   */\n      0x20\n        /* \"#utility.yul\":5010:5015   */\n      dup7\n        /* \"#utility.yul\":5006:5022   */\n      add\n        /* \"#utility.yul\":4971:5036   */\n      tag_49\n      jump\t// in\n    tag_114:\n        /* \"#utility.yul\":5061:5090   */\n      tag_115\n        /* \"#utility.yul\":5083:5089   */\n      dup2\n        /* \"#utility.yul\":5061:5090   */\n      tag_39\n      jump\t// in\n    tag_115:\n        /* \"#utility.yul\":5056:5059   */\n      dup5\n        /* \"#utility.yul\":5052:5091   */\n      add\n        /* \"#utility.yul\":5045:5091   */\n      swap2\n      pop\n        /* \"#utility.yul\":4814:5097   */\n      pop\n        /* \"#utility.yul\":4724:5097   */\n      swap3\n      swap2\n      pop\n      pop\n      jump\t// out\n        /* \"#utility.yul\":5103:5412   */\n    tag_21:\n        /* \"#utility.yul\":5214:5218   */\n      0x00\n        /* \"#utility.yul\":5252:5254   */\n      0x20\n        /* \"#utility.yul\":5241:5250   */\n      dup3\n        /* \"#utility.yul\":5237:5255   */\n      add\n        /* \"#utility.yul\":5229:5255   */\n      swap1\n      pop\n        /* \"#utility.yul\":5301:5310   */\n      dup2\n        /* \"#utility.yul\":5295:5299   */\n      dup2\n        /* \"#utility.yul\":5291:5311   */\n      sub\n        /* \"#utility.yul\":5287:5288   */\n      0x00\n        /* \"#utility.yul\":5276:5285   */\n      dup4\n        /* \"#utility.yul\":5272:5289   */\n      add\n        /* \"#utility.yul\":5265:5312   */\n      mstore\n        /* \"#utility.yul\":5329:5405   */\n      tag_117\n        /* \"#utility.yul\":5400:5404   */\n      dup2\n        /* \"#utility.yul\":5391:5397   */\n      dup5\n        /* \"#utility.yul\":5329:5405   */\n      tag_50\n      jump\t// in\n    tag_117:\n        /* \"#utility.yul\":5321:5405   */\n      swap1\n      pop\n        /* \"#utility.yul\":5103:5412   */\n      swap3\n      swap2\n      pop\n      pop\n      jump\t// out\n        /* \"#utility.yul\":5418:5517   */\n    tag_51:\n        /* \"#utility.yul\":5470:5476   */\n      0x00\n        /* \"#utility.yul\":5504:5509   */\n      dup2\n        /* \"#utility.yul\":5498:5510   */\n      mload\n        /* \"#utility.yul\":5488:5510   */\n      swap1\n      pop\n        /* \"#utility.yul\":5418:5517   */\n      swap2\n      swap1\n      pop\n      jump\t// out\n        /* \"#utility.yul\":5523:5671   */\n    tag_52:\n        /* \"#utility.yul\":5625:5636   */\n      0x00\n        /* \"#utility.yul\":5662:5665   */\n      dup2\n        /* \"#utility.yul\":5647:5665   */\n      swap1\n      pop\n        /* \"#utility.yul\":5523:5671   */\n      swap3\n      swap2\n      pop\n      pop\n      jump\t// out\n        /* \"#utility.yul\":5677:6067   */\n    tag_53:\n        /* \"#utility.yul\":5783:5786   */\n      0x00\n        /* \"#utility.yul\":5811:5850   */\n      tag_121\n        /* \"#utility.yul\":5844:5849   */\n      dup3\n        /* \"#utility.yul\":5811:5850   */\n      tag_51\n      jump\t// in\n    tag_121:\n        /* \"#utility.yul\":5866:5955   */\n      tag_122\n        /* \"#utility.yul\":5948:5954   */\n      dup2\n        /* \"#utility.yul\":5943:5946   */\n      dup6\n        /* \"#utility.yul\":5866:5955   */\n      tag_52\n      jump\t// in\n    tag_122:\n        /* \"#utility.yul\":5859:5955   */\n      swap4\n      pop\n        /* \"#utility.yul\":5964:6029   */\n      tag_123\n        /* \"#utility.yul\":6022:6028   */\n      dup2\n        /* \"#utility.yul\":6017:6020   */\n      dup6\n        /* \"#utility.yul\":6010:6014   */\n      0x20\n        /* \"#utility.yul\":6003:6008   */\n      dup7\n        /* \"#utility.yul\":5999:6015   */\n      add\n        /* \"#utility.yul\":5964:6029   */\n      tag_49\n      jump\t// in\n    tag_123:\n        /* \"#utility.yul\":6054:6060   */\n      dup1\n        /* \"#utility.yul\":6049:6052   */\n      dup5\n        /* \"#utility.yul\":6045:6061   */\n      add\n        /* \"#utility.yul\":6038:6061   */\n      swap2\n      pop\n        /* \"#utility.yul\":5787:6067   */\n      pop\n        /* \"#utility.yul\":5677:6067   */\n      swap3\n      swap2\n      pop\n      pop\n      jump\t// out\n        /* \"#utility.yul\":6073:6348   */\n    tag_28:\n        /* \"#utility.yul\":6205:6208   */\n      0x00\n        /* \"#utility.yul\":6227:6322   */\n      tag_125\n        /* \"#utility.yul\":6318:6321   */\n      dup3\n        /* \"#utility.yul\":6309:6315   */\n      dup5\n        /* \"#utility.yul\":6227:6322   */\n      tag_53\n      jump\t// in\n    tag_125:\n        /* \"#utility.yul\":6220:6322   */\n      swap2\n      pop\n        /* \"#utility.yul\":6339:6342   */\n      dup2\n        /* \"#utility.yul\":6332:6342   */\n      swap1\n      pop\n        /* \"#utility.yul\":6073:6348   */\n      swap3\n      swap2\n      pop\n      pop\n      jump\t// out\n\n    auxdata: 0xa264697066735822122066e6ae0f778bb546a02916e456c4947c3455ab787f3e24833ae2c7df849cc5e764736f6c63430008110033\n}\n",
				"bytecode": {
					"linkReferences": {},
					"object": "608060405260405180608001604052806040518060400160405280601581526020017f5458313a20536865726c6f636b202d3e204a6f686e000000000000000000000081525081526020016040518060400160405280601581526020017f5458323a204a6f686e202d3e20536865726c6f636b000000000000000000000081525081526020016040518060400160405280601181526020017f5458333a204a6f686e202d3e204d61727900000000000000000000000000000081525081526020016040518060400160405280601581526020017f5458343a204d617279202d3e20536865726c6f636b000000000000000000000081525081525060019060046200010b929190620002cf565b503480156200011957600080fd5b5060005b60048110156200021e576000620001e260018360048110620001445762000143620003af565b5b01805462000152906200040d565b80601f016020809104026020016040519081016040528092919081815260200182805462000180906200040d565b8015620001d15780601f10620001a557610100808354040283529160200191620001d1565b820191906000526020600020905b815481529060010190602001808311620001b357829003601f168201915b50505050506200028360201b60201c565b9080600181540180825580915050600190039060005260206000200160009091909190915055808062000215906200047b565b9150506200011d565b5060006004905060005b60008211156200027b5760005b600183620002449190620004c8565b81101562000263576002816200025b919062000503565b905062000235565b506002826200027391906200056d565b915062000228565b50506200091f565b60006200029682620002a460201b60201c565b805190602001209050919050565b606081604051602001620002b991906200061e565b6040516020818303038152906040529050919050565b82600481019282156200030f579160200282015b828111156200030e578251829081620002fd919062000838565b5091602001919060010190620002e3565b5b5090506200031e919062000322565b5090565b5b808211156200034657600081816200033c91906200034a565b5060010162000323565b5090565b50805462000358906200040d565b6000825580601f106200036c57506200038d565b601f0160209004906000526020600020908101906200038c919062000390565b5b50565b5b80821115620003ab57600081600090555060010162000391565b5090565b7f4e487b7100000000000000000000000000000000000000000000000000000000600052603260045260246000fd5b7f4e487b7100000000000000000000000000000000000000000000000000000000600052602260045260246000fd5b600060028204905060018216806200042657607f821691505b6020821081036200043c576200043b620003de565b5b50919050565b7f4e487b7100000000000000000000000000000000000000000000000000000000600052601160045260246000fd5b6000819050919050565b6000620004888262000471565b91507fffffffffffffffffffffffffffffffffffffffffffffffffffffffffffffffff8203620004bd57620004bc62000442565b5b600182019050919050565b6000620004d58262000471565b9150620004e28362000471565b9250828203905081811115620004fd57620004fc62000442565b5b92915050565b6000620005108262000471565b91506200051d8362000471565b925082820190508082111562000538576200053762000442565b5b92915050565b7f4e487b7100000000000000000000000000000000000000000000000000000000600052601260045260246000fd5b60006200057a8262000471565b9150620005878362000471565b9250826200059a57620005996200053e565b5b828204905092915050565b600081519050919050565b600081905092915050565b60005b83811015620005db578082015181840152602081019050620005be565b60008484015250505050565b6000620005f482620005a5565b620006008185620005b0565b935062000612818560208601620005bb565b80840191505092915050565b60006200062c8284620005e7565b915081905092915050565b7f4e487b7100000000000000000000000000000000000000000000000000000000600052604160045260246000fd5b60008190508160005260206000209050919050565b60006020601f8301049050919050565b600082821b905092915050565b600060088302620006ca7fffffffffffffffffffffffffffffffffffffffffffffffffffffffffffffffff826200068b565b620006d686836200068b565b95508019841693508086168417925050509392505050565b6000819050919050565b600062000719620007136200070d8462000471565b620006ee565b62000471565b9050919050565b6000819050919050565b6200073583620006f8565b6200074d620007448262000720565b84845462000698565b825550505050565b600090565b6200076462000755565b620007718184846200072a565b505050565b5b8181101562000799576200078d6000826200075a565b60018101905062000777565b5050565b601f821115620007e857620007b28162000666565b620007bd846200067b565b81016020851015620007cd578190505b620007e5620007dc856200067b565b83018262000776565b50505b505050565b600082821c905092915050565b60006200080d60001984600802620007ed565b1980831691505092915050565b6000620008288383620007fa565b9150826002028217905092915050565b6200084382620005a5565b67ffffffffffffffff8111156200085f576200085e62000637565b5b6200086b82546200040d565b620008788282856200079d565b600060209050601f831160018114620008b057600084156200089b578287015190505b620008a785826200081a565b86555062000917565b601f198416620008c08662000666565b60005b82811015620008ea57848901518255600182019150602085019450602081019050620008c3565b868310156200090a578489015162000906601f891682620007fa565b8355505b6001600288020188555050505b505050505050565b6104ab806200092f6000396000f3fe608060405234801561001057600080fd5b50600436106100415760003560e01c8063501895ae1461004657806352de70af146100765780636a11b2a8146100a6575b600080fd5b610060600480360381019061005b9190610186565b6100d6565b60405161006d91906101cc565b60405180910390f35b610090600480360381019061008b919061032d565b6100fa565b60405161009d91906101cc565b60405180910390f35b6100c060048036038101906100bb919061032d565b610113565b6040516100cd91906103f5565b60405180910390f35b600081815481106100e657600080fd5b906000526020600020016000915090505481565b600061010582610113565b805190602001209050919050565b606081604051602001610126919061045e565b6040516020818303038152906040529050919050565b6000604051905090565b600080fd5b600080fd5b6000819050919050565b61016381610150565b811461016e57600080fd5b50565b6000813590506101808161015a565b92915050565b60006020828403121561019c5761019b610146565b5b60006101aa84828501610171565b91505092915050565b6000819050919050565b6101c6816101b3565b82525050565b60006020820190506101e160008301846101bd565b92915050565b600080fd5b600080fd5b6000601f19601f8301169050919050565b7f4e487b7100000000000000000000000000000000000000000000000000000000600052604160045260246000fd5b61023a826101f1565b810181811067ffffffffffffffff8211171561025957610258610202565b5b80604052505050565b600061026c61013c565b90506102788282610231565b919050565b600067ffffffffffffffff82111561029857610297610202565b5b6102a1826101f1565b9050602081019050919050565b82818337600083830152505050565b60006102d06102cb8461027d565b610262565b9050828152602081018484840111156102ec576102eb6101ec565b5b6102f78482856102ae565b509392505050565b600082601f830112610314576103136101e7565b5b81356103248482602086016102bd565b91505092915050565b60006020828403121561034357610342610146565b5b600082013567ffffffffffffffff8111156103615761036061014b565b5b61036d848285016102ff565b91505092915050565b600081519050919050565b600082825260208201905092915050565b60005b838110156103b0578082015181840152602081019050610395565b60008484015250505050565b60006103c782610376565b6103d18185610381565b93506103e1818560208601610392565b6103ea816101f1565b840191505092915050565b6000602082019050818103600083015261040f81846103bc565b905092915050565b600081519050919050565b600081905092915050565b600061043882610417565b6104428185610422565b9350610452818560208601610392565b80840191505092915050565b600061046a828461042d565b91508190509291505056fea264697066735822122066e6ae0f778bb546a02916e456c4947c3455ab787f3e24833ae2c7df849cc5e764736f6c63430008110033",
					"opcodes": "PUSH1 0x80 PUSH1 0x40 MSTORE PUSH1 0x40 MLOAD DUP1 PUSH1 0x80 ADD PUSH1 0x40 MSTORE DUP1 PUSH1 0x40 MLOAD DUP1 PUSH1 0x40 ADD PUSH1 0x40 MSTORE DUP1 PUSH1 0x15 DUP2 MSTORE PUSH1 0x20 ADD PUSH32 0x5458313A20536865726C6F636B202D3E204A6F686E0000000000000000000000 DUP2 MSTORE POP DUP2 MSTORE PUSH1 0x20 ADD PUSH1 0x40 MLOAD DUP1 PUSH1 0x40 ADD PUSH1 0x40 MSTORE DUP1 PUSH1 0x15 DUP2 MSTORE PUSH1 0x20 ADD PUSH32 0x5458323A204A6F686E202D3E20536865726C6F636B0000000000000000000000 DUP2 MSTORE POP DUP2 MSTORE PUSH1 0x20 ADD PUSH1 0x40 MLOAD DUP1 PUSH1 0x40 ADD PUSH1 0x40 MSTORE DUP1 PUSH1 0x11 DUP2 MSTORE PUSH1 0x20 ADD PUSH32 0x5458333A204A6F686E202D3E204D617279000000000000000000000000000000 DUP2 MSTORE POP DUP2 MSTORE PUSH1 0x20 ADD PUSH1 0x40 MLOAD DUP1 PUSH1 0x40 ADD PUSH1 0x40 MSTORE DUP1 PUSH1 0x15 DUP2 MSTORE PUSH1 0x20 ADD PUSH32 0x5458343A204D617279202D3E20536865726C6F636B0000000000000000000000 DUP2 MSTORE POP DUP2 MSTORE POP PUSH1 0x1 SWAP1 PUSH1 0x4 PUSH3 0x10B SWAP3 SWAP2 SWAP1 PUSH3 0x2CF JUMP JUMPDEST POP CALLVALUE DUP1 ISZERO PUSH3 0x119 JUMPI PUSH1 0x0 DUP1 REVERT JUMPDEST POP PUSH1 0x0 JUMPDEST PUSH1 0x4 DUP2 LT ISZERO PUSH3 0x21E JUMPI PUSH1 0x0 PUSH3 0x1E2 PUSH1 0x1 DUP4 PUSH1 0x4 DUP2 LT PUSH3 0x144 JUMPI PUSH3 0x143 PUSH3 0x3AF JUMP JUMPDEST JUMPDEST ADD DUP1 SLOAD PUSH3 0x152 SWAP1 PUSH3 0x40D JUMP JUMPDEST DUP1 PUSH1 0x1F ADD PUSH1 0x20 DUP1 SWAP2 DIV MUL PUSH1 0x20 ADD PUSH1 0x40 MLOAD SWAP1 DUP2 ADD PUSH1 0x40 MSTORE DUP1 SWAP3 SWAP2 SWAP1 DUP2 DUP2 MSTORE PUSH1 0x20 ADD DUP3 DUP1 SLOAD PUSH3 0x180 SWAP1 PUSH3 0x40D JUMP JUMPDEST DUP1 ISZERO PUSH3 0x1D1 JUMPI DUP1 PUSH1 0x1F LT PUSH3 0x1A5 JUMPI PUSH2 0x100 DUP1 DUP4 SLOAD DIV MUL DUP4 MSTORE SWAP2 PUSH1 0x20 ADD SWAP2 PUSH3 0x1D1 JUMP JUMPDEST DUP3 ADD SWAP2 SWAP1 PUSH1 0x0 MSTORE PUSH1 0x20 PUSH1 0x0 KECCAK256 SWAP1 JUMPDEST DUP2 SLOAD DUP2 MSTORE SWAP1 PUSH1 0x1 ADD SWAP1 PUSH1 0x20 ADD DUP1 DUP4 GT PUSH3 0x1B3 JUMPI DUP3 SWAP1 SUB PUSH1 0x1F AND DUP3 ADD SWAP2 JUMPDEST POP POP POP POP POP PUSH3 0x283 PUSH1 0x20 SHL PUSH1 0x20 SHR JUMP JUMPDEST SWAP1 DUP1 PUSH1 0x1 DUP2 SLOAD ADD DUP1 DUP3 SSTORE DUP1 SWAP2 POP POP PUSH1 0x1 SWAP1 SUB SWAP1 PUSH1 0x0 MSTORE PUSH1 0x20 PUSH1 0x0 KECCAK256 ADD PUSH1 0x0 SWAP1 SWAP2 SWAP1 SWAP2 SWAP1 SWAP2 POP SSTORE DUP1 DUP1 PUSH3 0x215 SWAP1 PUSH3 0x47B JUMP JUMPDEST SWAP2 POP POP PUSH3 0x11D JUMP JUMPDEST POP PUSH1 0x0 PUSH1 0x4 SWAP1 POP PUSH1 0x0 JUMPDEST PUSH1 0x0 DUP3 GT ISZERO PUSH3 0x27B JUMPI PUSH1 0x0 JUMPDEST PUSH1 0x1 DUP4 PUSH3 0x244 SWAP2 SWAP1 PUSH3 0x4C8 JUMP JUMPDEST DUP2 LT ISZERO PUSH3 0x263 JUMPI PUSH1 0x2 DUP2 PUSH3 0x25B SWAP2 SWAP1 PUSH3 0x503 JUMP JUMPDEST SWAP1 POP PUSH3 0x235 JUMP JUMPDEST POP PUSH1 0x2 DUP3 PUSH3 0x273 SWAP2 SWAP1 PUSH3 0x56D JUMP JUMPDEST SWAP2 POP PUSH3 0x228 JUMP JUMPDEST POP POP PUSH3 0x91F JUMP JUMPDEST PUSH1 0x0 PUSH3 0x296 DUP3 PUSH3 0x2A4 PUSH1 0x20 SHL PUSH1 0x20 SHR JUMP JUMPDEST DUP1 MLOAD SWAP1 PUSH1 0x20 ADD KECCAK256 SWAP1 POP SWAP2 SWAP1 POP JUMP JUMPDEST PUSH1 0x60 DUP2 PUSH1 0x40 MLOAD PUSH1 0x20 ADD PUSH3 0x2B9 SWAP2 SWAP1 PUSH3 0x61E JUMP JUMPDEST PUSH1 0x40 MLOAD PUSH1 0x20 DUP2 DUP4 SUB SUB DUP2 MSTORE SWAP1 PUSH1 0x40 MSTORE SWAP1 POP SWAP2 SWAP1 POP JUMP JUMPDEST DUP3 PUSH1 0x4 DUP2 ADD SWAP3 DUP3 ISZERO PUSH3 0x30F JUMPI SWAP2 PUSH1 0x20 MUL DUP3 ADD JUMPDEST DUP3 DUP2 GT ISZERO PUSH3 0x30E JUMPI DUP3 MLOAD DUP3 SWAP1 DUP2 PUSH3 0x2FD SWAP2 SWAP1 PUSH3 0x838 JUMP JUMPDEST POP SWAP2 PUSH1 0x20 ADD SWAP2 SWAP1 PUSH1 0x1 ADD SWAP1 PUSH3 0x2E3 JUMP JUMPDEST JUMPDEST POP SWAP1 POP PUSH3 0x31E SWAP2 SWAP1 PUSH3 0x322 JUMP JUMPDEST POP SWAP1 JUMP JUMPDEST JUMPDEST DUP1 DUP3 GT ISZERO PUSH3 0x346 JUMPI PUSH1 0x0 DUP2 DUP2 PUSH3 0x33C SWAP2 SWAP1 PUSH3 0x34A JUMP JUMPDEST POP PUSH1 0x1 ADD PUSH3 0x323 JUMP JUMPDEST POP SWAP1 JUMP JUMPDEST POP DUP1 SLOAD PUSH3 0x358 SWAP1 PUSH3 0x40D JUMP JUMPDEST PUSH1 0x0 DUP3 SSTORE DUP1 PUSH1 0x1F LT PUSH3 0x36C JUMPI POP PUSH3 0x38D JUMP JUMPDEST PUSH1 0x1F ADD PUSH1 0x20 SWAP1 DIV SWAP1 PUSH1 0x0 MSTORE PUSH1 0x20 PUSH1 0x0 KECCAK256 SWAP1 DUP2 ADD SWAP1 PUSH3 0x38C SWAP2 SWAP1 PUSH3 0x390 JUMP JUMPDEST JUMPDEST POP JUMP JUMPDEST JUMPDEST DUP1 DUP3 GT ISZERO PUSH3 0x3AB JUMPI PUSH1 0x0 DUP2 PUSH1 0x0 SWAP1 SSTORE POP PUSH1 0x1 ADD PUSH3 0x391 JUMP JUMPDEST POP SWAP1 JUMP JUMPDEST PUSH32 0x4E487B7100000000000000000000000000000000000000000000000000000000 PUSH1 0x0 MSTORE PUSH1 0x32 PUSH1 0x4 MSTORE PUSH1 0x24 PUSH1 0x0 REVERT JUMPDEST PUSH32 0x4E487B7100000000000000000000000000000000000000000000000000000000 PUSH1 0x0 MSTORE PUSH1 0x22 PUSH1 0x4 MSTORE PUSH1 0x24 PUSH1 0x0 REVERT JUMPDEST PUSH1 0x0 PUSH1 0x2 DUP3 DIV SWAP1 POP PUSH1 0x1 DUP3 AND DUP1 PUSH3 0x426 JUMPI PUSH1 0x7F DUP3 AND SWAP2 POP JUMPDEST PUSH1 0x20 DUP3 LT DUP2 SUB PUSH3 0x43C JUMPI PUSH3 0x43B PUSH3 0x3DE JUMP JUMPDEST JUMPDEST POP SWAP2 SWAP1 POP JUMP JUMPDEST PUSH32 0x4E487B7100000000000000000000000000000000000000000000000000000000 PUSH1 0x0 MSTORE PUSH1 0x11 PUSH1 0x4 MSTORE PUSH1 0x24 PUSH1 0x0 REVERT JUMPDEST PUSH1 0x0 DUP2 SWAP1 POP SWAP2 SWAP1 POP JUMP JUMPDEST PUSH1 0x0 PUSH3 0x488 DUP3 PUSH3 0x471 JUMP JUMPDEST SWAP2 POP PUSH32 0xFFFFFFFFFFFFFFFFFFFFFFFFFFFFFFFFFFFFFFFFFFFFFFFFFFFFFFFFFFFFFFFF DUP3 SUB PUSH3 0x4BD JUMPI PUSH3 0x4BC PUSH3 0x442 JUMP JUMPDEST JUMPDEST PUSH1 0x1 DUP3 ADD SWAP1 POP SWAP2 SWAP1 POP JUMP JUMPDEST PUSH1 0x0 PUSH3 0x4D5 DUP3 PUSH3 0x471 JUMP JUMPDEST SWAP2 POP PUSH3 0x4E2 DUP4 PUSH3 0x471 JUMP JUMPDEST SWAP3 POP DUP3 DUP3 SUB SWAP1 POP DUP2 DUP2 GT ISZERO PUSH3 0x4FD JUMPI PUSH3 0x4FC PUSH3 0x442 JUMP JUMPDEST JUMPDEST SWAP3 SWAP2 POP POP JUMP JUMPDEST PUSH1 0x0 PUSH3 0x510 DUP3 PUSH3 0x471 JUMP JUMPDEST SWAP2 POP PUSH3 0x51D DUP4 PUSH3 0x471 JUMP JUMPDEST SWAP3 POP DUP3 DUP3 ADD SWAP1 POP DUP1 DUP3 GT ISZERO PUSH3 0x538 JUMPI PUSH3 0x537 PUSH3 0x442 JUMP JUMPDEST JUMPDEST SWAP3 SWAP2 POP POP JUMP JUMPDEST PUSH32 0x4E487B7100000000000000000000000000000000000000000000000000000000 PUSH1 0x0 MSTORE PUSH1 0x12 PUSH1 0x4 MSTORE PUSH1 0x24 PUSH1 0x0 REVERT JUMPDEST PUSH1 0x0 PUSH3 0x57A DUP3 PUSH3 0x471 JUMP JUMPDEST SWAP2 POP PUSH3 0x587 DUP4 PUSH3 0x471 JUMP JUMPDEST SWAP3 POP DUP3 PUSH3 0x59A JUMPI PUSH3 0x599 PUSH3 0x53E JUMP JUMPDEST JUMPDEST DUP3 DUP3 DIV SWAP1 POP SWAP3 SWAP2 POP POP JUMP JUMPDEST PUSH1 0x0 DUP2 MLOAD SWAP1 POP SWAP2 SWAP1 POP JUMP JUMPDEST PUSH1 0x0 DUP2 SWAP1 POP SWAP3 SWAP2 POP POP JUMP JUMPDEST PUSH1 0x0 JUMPDEST DUP4 DUP2 LT ISZERO PUSH3 0x5DB JUMPI DUP1 DUP3 ADD MLOAD DUP2 DUP5 ADD MSTORE PUSH1 0x20 DUP2 ADD SWAP1 POP PUSH3 0x5BE JUMP JUMPDEST PUSH1 0x0 DUP5 DUP5 ADD MSTORE POP POP POP POP JUMP JUMPDEST PUSH1 0x0 PUSH3 0x5F4 DUP3 PUSH3 0x5A5 JUMP JUMPDEST PUSH3 0x600 DUP2 DUP6 PUSH3 0x5B0 JUMP JUMPDEST SWAP4 POP PUSH3 0x612 DUP2 DUP6 PUSH1 0x20 DUP7 ADD PUSH3 0x5BB JUMP JUMPDEST DUP1 DUP5 ADD SWAP2 POP POP SWAP3 SWAP2 POP POP JUMP JUMPDEST PUSH1 0x0 PUSH3 0x62C DUP3 DUP5 PUSH3 0x5E7 JUMP JUMPDEST SWAP2 POP DUP2 SWAP1 POP SWAP3 SWAP2 POP POP JUMP JUMPDEST PUSH32 0x4E487B7100000000000000000000000000000000000000000000000000000000 PUSH1 0x0 MSTORE PUSH1 0x41 PUSH1 0x4 MSTORE PUSH1 0x24 PUSH1 0x0 REVERT JUMPDEST PUSH1 0x0 DUP2 SWAP1 POP DUP2 PUSH1 0x0 MSTORE PUSH1 0x20 PUSH1 0x0 KECCAK256 SWAP1 POP SWAP2 SWAP1 POP JUMP JUMPDEST PUSH1 0x0 PUSH1 0x20 PUSH1 0x1F DUP4 ADD DIV SWAP1 POP SWAP2 SWAP1 POP JUMP JUMPDEST PUSH1 0x0 DUP3 DUP3 SHL SWAP1 POP SWAP3 SWAP2 POP POP JUMP JUMPDEST PUSH1 0x0 PUSH1 0x8 DUP4 MUL PUSH3 0x6CA PUSH32 0xFFFFFFFFFFFFFFFFFFFFFFFFFFFFFFFFFFFFFFFFFFFFFFFFFFFFFFFFFFFFFFFF DUP3 PUSH3 0x68B JUMP JUMPDEST PUSH3 0x6D6 DUP7 DUP4 PUSH3 0x68B JUMP JUMPDEST SWAP6 POP DUP1 NOT DUP5 AND SWAP4 POP DUP1 DUP7 AND DUP5 OR SWAP3 POP POP POP SWAP4 SWAP3 POP POP POP JUMP JUMPDEST PUSH1 0x0 DUP2 SWAP1 POP SWAP2 SWAP1 POP JUMP JUMPDEST PUSH1 0x0 PUSH3 0x719 PUSH3 0x713 PUSH3 0x70D DUP5 PUSH3 0x471 JUMP JUMPDEST PUSH3 0x6EE JUMP JUMPDEST PUSH3 0x471 JUMP JUMPDEST SWAP1 POP SWAP2 SWAP1 POP JUMP JUMPDEST PUSH1 0x0 DUP2 SWAP1 POP SWAP2 SWAP1 POP JUMP JUMPDEST PUSH3 0x735 DUP4 PUSH3 0x6F8 JUMP JUMPDEST PUSH3 0x74D PUSH3 0x744 DUP3 PUSH3 0x720 JUMP JUMPDEST DUP5 DUP5 SLOAD PUSH3 0x698 JUMP JUMPDEST DUP3 SSTORE POP POP POP POP JUMP JUMPDEST PUSH1 0x0 SWAP1 JUMP JUMPDEST PUSH3 0x764 PUSH3 0x755 JUMP JUMPDEST PUSH3 0x771 DUP2 DUP5 DUP5 PUSH3 0x72A JUMP JUMPDEST POP POP POP JUMP JUMPDEST JUMPDEST DUP2 DUP2 LT ISZERO PUSH3 0x799 JUMPI PUSH3 0x78D PUSH1 0x0 DUP3 PUSH3 0x75A JUMP JUMPDEST PUSH1 0x1 DUP2 ADD SWAP1 POP PUSH3 0x777 JUMP JUMPDEST POP POP JUMP JUMPDEST PUSH1 0x1F DUP3 GT ISZERO PUSH3 0x7E8 JUMPI PUSH3 0x7B2 DUP2 PUSH3 0x666 JUMP JUMPDEST PUSH3 0x7BD DUP5 PUSH3 0x67B JUMP JUMPDEST DUP2 ADD PUSH1 0x20 DUP6 LT ISZERO PUSH3 0x7CD JUMPI DUP2 SWAP1 POP JUMPDEST PUSH3 0x7E5 PUSH3 0x7DC DUP6 PUSH3 0x67B JUMP JUMPDEST DUP4 ADD DUP3 PUSH3 0x776 JUMP JUMPDEST POP POP JUMPDEST POP POP POP JUMP JUMPDEST PUSH1 0x0 DUP3 DUP3 SHR SWAP1 POP SWAP3 SWAP2 POP POP JUMP JUMPDEST PUSH1 0x0 PUSH3 0x80D PUSH1 0x0 NOT DUP5 PUSH1 0x8 MUL PUSH3 0x7ED JUMP JUMPDEST NOT DUP1 DUP4 AND SWAP2 POP POP SWAP3 SWAP2 POP POP JUMP JUMPDEST PUSH1 0x0 PUSH3 0x828 DUP4 DUP4 PUSH3 0x7FA JUMP JUMPDEST SWAP2 POP DUP3 PUSH1 0x2 MUL DUP3 OR SWAP1 POP SWAP3 SWAP2 POP POP JUMP JUMPDEST PUSH3 0x843 DUP3 PUSH3 0x5A5 JUMP JUMPDEST PUSH8 0xFFFFFFFFFFFFFFFF DUP2 GT ISZERO PUSH3 0x85F JUMPI PUSH3 0x85E PUSH3 0x637 JUMP JUMPDEST JUMPDEST PUSH3 0x86B DUP3 SLOAD PUSH3 0x40D JUMP JUMPDEST PUSH3 0x878 DUP3 DUP3 DUP6 PUSH3 0x79D JUMP JUMPDEST PUSH1 0x0 PUSH1 0x20 SWAP1 POP PUSH1 0x1F DUP4 GT PUSH1 0x1 DUP2 EQ PUSH3 0x8B0 JUMPI PUSH1 0x0 DUP5 ISZERO PUSH3 0x89B JUMPI DUP3 DUP8 ADD MLOAD SWAP1 POP JUMPDEST PUSH3 0x8A7 DUP6 DUP3 PUSH3 0x81A JUMP JUMPDEST DUP7 SSTORE POP PUSH3 0x917 JUMP JUMPDEST PUSH1 0x1F NOT DUP5 AND PUSH3 0x8C0 DUP7 PUSH3 0x666 JUMP JUMPDEST PUSH1 0x0 JUMPDEST DUP3 DUP2 LT ISZERO PUSH3 0x8EA JUMPI DUP5 DUP10 ADD MLOAD DUP3 SSTORE PUSH1 0x1 DUP3 ADD SWAP2 POP PUSH1 0x20 DUP6 ADD SWAP5 POP PUSH1 0x20 DUP2 ADD SWAP1 POP PUSH3 0x8C3 JUMP JUMPDEST DUP7 DUP4 LT ISZERO PUSH3 0x90A JUMPI DUP5 DUP10 ADD MLOAD PUSH3 0x906 PUSH1 0x1F DUP10 AND DUP3 PUSH3 0x7FA JUMP JUMPDEST DUP4 SSTORE POP JUMPDEST PUSH1 0x1 PUSH1 0x2 DUP9 MUL ADD DUP9 SSTORE POP POP POP JUMPDEST POP POP POP POP POP POP JUMP JUMPDEST PUSH2 0x4AB DUP1 PUSH3 0x92F PUSH1 0x0 CODECOPY PUSH1 0x0 RETURN INVALID PUSH1 0x80 PUSH1 0x40 MSTORE CALLVALUE DUP1 ISZERO PUSH2 0x10 JUMPI PUSH1 0x0 DUP1 REVERT JUMPDEST POP PUSH1 0x4 CALLDATASIZE LT PUSH2 0x41 JUMPI PUSH1 0x0 CALLDATALOAD PUSH1 0xE0 SHR DUP1 PUSH4 0x501895AE EQ PUSH2 0x46 JUMPI DUP1 PUSH4 0x52DE70AF EQ PUSH2 0x76 JUMPI DUP1 PUSH4 0x6A11B2A8 EQ PUSH2 0xA6 JUMPI JUMPDEST PUSH1 0x0 DUP1 REVERT JUMPDEST PUSH2 0x60 PUSH1 0x4 DUP1 CALLDATASIZE SUB DUP2 ADD SWAP1 PUSH2 0x5B SWAP2 SWAP1 PUSH2 0x186 JUMP JUMPDEST PUSH2 0xD6 JUMP JUMPDEST PUSH1 0x40 MLOAD PUSH2 0x6D SWAP2 SWAP1 PUSH2 0x1CC JUMP JUMPDEST PUSH1 0x40 MLOAD DUP1 SWAP2 SUB SWAP1 RETURN JUMPDEST PUSH2 0x90 PUSH1 0x4 DUP1 CALLDATASIZE SUB DUP2 ADD SWAP1 PUSH2 0x8B SWAP2 SWAP1 PUSH2 0x32D JUMP JUMPDEST PUSH2 0xFA JUMP JUMPDEST PUSH1 0x40 MLOAD PUSH2 0x9D SWAP2 SWAP1 PUSH2 0x1CC JUMP JUMPDEST PUSH1 0x40 MLOAD DUP1 SWAP2 SUB SWAP1 RETURN JUMPDEST PUSH2 0xC0 PUSH1 0x4 DUP1 CALLDATASIZE SUB DUP2 ADD SWAP1 PUSH2 0xBB SWAP2 SWAP1 PUSH2 0x32D JUMP JUMPDEST PUSH2 0x113 JUMP JUMPDEST PUSH1 0x40 MLOAD PUSH2 0xCD SWAP2 SWAP1 PUSH2 0x3F5 JUMP JUMPDEST PUSH1 0x40 MLOAD DUP1 SWAP2 SUB SWAP1 RETURN JUMPDEST PUSH1 0x0 DUP2 DUP2 SLOAD DUP2 LT PUSH2 0xE6 JUMPI PUSH1 0x0 DUP1 REVERT JUMPDEST SWAP1 PUSH1 0x0 MSTORE PUSH1 0x20 PUSH1 0x0 KECCAK256 ADD PUSH1 0x0 SWAP2 POP SWAP1 POP SLOAD DUP2 JUMP JUMPDEST PUSH1 0x0 PUSH2 0x105 DUP3 PUSH2 0x113 JUMP JUMPDEST DUP1 MLOAD SWAP1 PUSH1 0x20 ADD KECCAK256 SWAP1 POP SWAP2 SWAP1 POP JUMP JUMPDEST PUSH1 0x60 DUP2 PUSH1 0x40 MLOAD PUSH1 0x20 ADD PUSH2 0x126 SWAP2 SWAP1 PUSH2 0x45E JUMP JUMPDEST PUSH1 0x40 MLOAD PUSH1 0x20 DUP2 DUP4 SUB SUB DUP2 MSTORE SWAP1 PUSH1 0x40 MSTORE SWAP1 POP SWAP2 SWAP1 POP JUMP JUMPDEST PUSH1 0x0 PUSH1 0x40 MLOAD SWAP1 POP SWAP1 JUMP JUMPDEST PUSH1 0x0 DUP1 REVERT JUMPDEST PUSH1 0x0 DUP1 REVERT JUMPDEST PUSH1 0x0 DUP2 SWAP1 POP SWAP2 SWAP1 POP JUMP JUMPDEST PUSH2 0x163 DUP2 PUSH2 0x150 JUMP JUMPDEST DUP2 EQ PUSH2 0x16E JUMPI PUSH1 0x0 DUP1 REVERT JUMPDEST POP JUMP JUMPDEST PUSH1 0x0 DUP2 CALLDATALOAD SWAP1 POP PUSH2 0x180 DUP2 PUSH2 0x15A JUMP JUMPDEST SWAP3 SWAP2 POP POP JUMP JUMPDEST PUSH1 0x0 PUSH1 0x20 DUP3 DUP5 SUB SLT ISZERO PUSH2 0x19C JUMPI PUSH2 0x19B PUSH2 0x146 JUMP JUMPDEST JUMPDEST PUSH1 0x0 PUSH2 0x1AA DUP5 DUP3 DUP6 ADD PUSH2 0x171 JUMP JUMPDEST SWAP2 POP POP SWAP3 SWAP2 POP POP JUMP JUMPDEST PUSH1 0x0 DUP2 SWAP1 POP SWAP2 SWAP1 POP JUMP JUMPDEST PUSH2 0x1C6 DUP2 PUSH2 0x1B3 JUMP JUMPDEST DUP3 MSTORE POP POP JUMP JUMPDEST PUSH1 0x0 PUSH1 0x20 DUP3 ADD SWAP1 POP PUSH2 0x1E1 PUSH1 0x0 DUP4 ADD DUP5 PUSH2 0x1BD JUMP JUMPDEST SWAP3 SWAP2 POP POP JUMP JUMPDEST PUSH1 0x0 DUP1 REVERT JUMPDEST PUSH1 0x0 DUP1 REVERT JUMPDEST PUSH1 0x0 PUSH1 0x1F NOT PUSH1 0x1F DUP4 ADD AND SWAP1 POP SWAP2 SWAP1 POP JUMP JUMPDEST PUSH32 0x4E487B7100000000000000000000000000000000000000000000000000000000 PUSH1 0x0 MSTORE PUSH1 0x41 PUSH1 0x4 MSTORE PUSH1 0x24 PUSH1 0x0 REVERT JUMPDEST PUSH2 0x23A DUP3 PUSH2 0x1F1 JUMP JUMPDEST DUP2 ADD DUP2 DUP2 LT PUSH8 0xFFFFFFFFFFFFFFFF DUP3 GT OR ISZERO PUSH2 0x259 JUMPI PUSH2 0x258 PUSH2 0x202 JUMP JUMPDEST JUMPDEST DUP1 PUSH1 0x40 MSTORE POP POP POP JUMP JUMPDEST PUSH1 0x0 PUSH2 0x26C PUSH2 0x13C JUMP JUMPDEST SWAP1 POP PUSH2 0x278 DUP3 DUP3 PUSH2 0x231 JUMP JUMPDEST SWAP2 SWAP1 POP JUMP JUMPDEST PUSH1 0x0 PUSH8 0xFFFFFFFFFFFFFFFF DUP3 GT ISZERO PUSH2 0x298 JUMPI PUSH2 0x297 PUSH2 0x202 JUMP JUMPDEST JUMPDEST PUSH2 0x2A1 DUP3 PUSH2 0x1F1 JUMP JUMPDEST SWAP1 POP PUSH1 0x20 DUP2 ADD SWAP1 POP SWAP2 SWAP1 POP JUMP JUMPDEST DUP3 DUP2 DUP4 CALLDATACOPY PUSH1 0x0 DUP4 DUP4 ADD MSTORE POP POP POP JUMP JUMPDEST PUSH1 0x0 PUSH2 0x2D0 PUSH2 0x2CB DUP5 PUSH2 0x27D JUMP JUMPDEST PUSH2 0x262 JUMP JUMPDEST SWAP1 POP DUP3 DUP2 MSTORE PUSH1 0x20 DUP2 ADD DUP5 DUP5 DUP5 ADD GT ISZERO PUSH2 0x2EC JUMPI PUSH2 0x2EB PUSH2 0x1EC JUMP JUMPDEST JUMPDEST PUSH2 0x2F7 DUP5 DUP3 DUP6 PUSH2 0x2AE JUMP JUMPDEST POP SWAP4 SWAP3 POP POP POP JUMP JUMPDEST PUSH1 0x0 DUP3 PUSH1 0x1F DUP4 ADD SLT PUSH2 0x314 JUMPI PUSH2 0x313 PUSH2 0x1E7 JUMP JUMPDEST JUMPDEST DUP2 CALLDATALOAD PUSH2 0x324 DUP5 DUP3 PUSH1 0x20 DUP7 ADD PUSH2 0x2BD JUMP JUMPDEST SWAP2 POP POP SWAP3 SWAP2 POP POP JUMP JUMPDEST PUSH1 0x0 PUSH1 0x20 DUP3 DUP5 SUB SLT ISZERO PUSH2 0x343 JUMPI PUSH2 0x342 PUSH2 0x146 JUMP JUMPDEST JUMPDEST PUSH1 0x0 DUP3 ADD CALLDATALOAD PUSH8 0xFFFFFFFFFFFFFFFF DUP2 GT ISZERO PUSH2 0x361 JUMPI PUSH2 0x360 PUSH2 0x14B JUMP JUMPDEST JUMPDEST PUSH2 0x36D DUP5 DUP3 DUP6 ADD PUSH2 0x2FF JUMP JUMPDEST SWAP2 POP POP SWAP3 SWAP2 POP POP JUMP JUMPDEST PUSH1 0x0 DUP2 MLOAD SWAP1 POP SWAP2 SWAP1 POP JUMP JUMPDEST PUSH1 0x0 DUP3 DUP3 MSTORE PUSH1 0x20 DUP3 ADD SWAP1 POP SWAP3 SWAP2 POP POP JUMP JUMPDEST PUSH1 0x0 JUMPDEST DUP4 DUP2 LT ISZERO PUSH2 0x3B0 JUMPI DUP1 DUP3 ADD MLOAD DUP2 DUP5 ADD MSTORE PUSH1 0x20 DUP2 ADD SWAP1 POP PUSH2 0x395 JUMP JUMPDEST PUSH1 0x0 DUP5 DUP5 ADD MSTORE POP POP POP POP JUMP JUMPDEST PUSH1 0x0 PUSH2 0x3C7 DUP3 PUSH2 0x376 JUMP JUMPDEST PUSH2 0x3D1 DUP2 DUP6 PUSH2 0x381 JUMP JUMPDEST SWAP4 POP PUSH2 0x3E1 DUP2 DUP6 PUSH1 0x20 DUP7 ADD PUSH2 0x392 JUMP JUMPDEST PUSH2 0x3EA DUP2 PUSH2 0x1F1 JUMP JUMPDEST DUP5 ADD SWAP2 POP POP SWAP3 SWAP2 POP POP JUMP JUMPDEST PUSH1 0x0 PUSH1 0x20 DUP3 ADD SWAP1 POP DUP2 DUP2 SUB PUSH1 0x0 DUP4 ADD MSTORE PUSH2 0x40F DUP2 DUP5 PUSH2 0x3BC JUMP JUMPDEST SWAP1 POP SWAP3 SWAP2 POP POP JUMP JUMPDEST PUSH1 0x0 DUP2 MLOAD SWAP1 POP SWAP2 SWAP1 POP JUMP JUMPDEST PUSH1 0x0 DUP2 SWAP1 POP SWAP3 SWAP2 POP POP JUMP JUMPDEST PUSH1 0x0 PUSH2 0x438 DUP3 PUSH2 0x417 JUMP JUMPDEST PUSH2 0x442 DUP2 DUP6 PUSH2 0x422 JUMP JUMPDEST SWAP4 POP PUSH2 0x452 DUP2 DUP6 PUSH1 0x20 DUP7 ADD PUSH2 0x392 JUMP JUMPDEST DUP1 DUP5 ADD SWAP2 POP POP SWAP3 SWAP2 POP POP JUMP JUMPDEST PUSH1 0x0 PUSH2 0x46A DUP3 DUP5 PUSH2 0x42D JUMP JUMPDEST SWAP2 POP DUP2 SWAP1 POP SWAP3 SWAP2 POP POP JUMP INVALID LOG2 PUSH5 0x6970667358 0x22 SLT KECCAK256 PUSH7 0xE6AE0F778BB546 LOG0 0x29 AND 0xE4 JUMP 0xC4 SWAP5 PUSH29 0x3455AB787F3E24833AE2C7DF849CC5E764736F6C634300081100330000 "
				},
				"gasEstimates": {
					"creation": {
						"codeDepositCost": "239000",
						"executionCost": "infinite",
						"totalCost": "infinite"
					},
					"external": {
						"encode(string)": "infinite",
						"hashes(uint256)": "4860",
						"makeHash(string)": "infinite"
					}
				},
				"methodIdentifiers": {
					"encode(string)": "6a11b2a8",
					"hashes(uint256)": "501895ae",
					"makeHash(string)": "52de70af"
				}
			},
			"storageLayout": {
				"storage": [
					{
						"astId": 4,
						"contract": "contracts/Lesson_4.sol:MerkleTree",
						"label": "hashes",
						"offset": 0,
						"slot": "0",
						"type": "t_array(t_bytes32)dyn_storage"
					},
					{
						"astId": 13,
						"contract": "contracts/Lesson_4.sol:MerkleTree",
						"label": "transactions",
						"offset": 0,
						"slot": "1",
						"type": "t_array(t_string_storage)4_storage"
					}
				],
				"types": {
					"t_array(t_bytes32)dyn_storage": {
						"base": "t_bytes32",
						"encoding": "dynamic_array",
						"label": "bytes32[]",
						"numberOfBytes": "32"
					},
					"t_array(t_string_storage)4_storage": {
						"base": "t_string_storage",
						"encoding": "inplace",
						"label": "string[4]",
						"numberOfBytes": "128"
					},
					"t_bytes32": {
						"encoding": "inplace",
						"label": "bytes32",
						"numberOfBytes": "32"
					},
					"t_string_storage": {
						"encoding": "bytes",
						"label": "string",
						"numberOfBytes": "32"
					}
				}
			},
			"userdoc": {
				"kind": "user",
				"methods": {},
				"version": 1
			}
		}
	}
}