{
	"contracts/Lesson_4.sol": {
		"MerkleTree": {
			"abi": [
				{
					"inputs": [],
					"stateMutability": "nonpayable",
					"type": "constructor"
				},
				{
					"inputs": [
						{
							"internalType": "string",
							"name": "input",
							"type": "string"
						}
					],
					"name": "encode",
					"outputs": [
						{
							"internalType": "bytes",
							"name": "",
							"type": "bytes"
						}
					],
					"stateMutability": "pure",
					"type": "function"
				},
				{
					"inputs": [
						{
							"internalType": "uint256",
							"name": "",
							"type": "uint256"
						}
					],
					"name": "hashes",
					"outputs": [
						{
							"internalType": "bytes32",
							"name": "",
							"type": "bytes32"
						}
					],
					"stateMutability": "view",
					"type": "function"
				},
				{
					"inputs": [
						{
							"internalType": "string",
							"name": "input",
							"type": "string"
						}
					],
					"name": "makeHash",
					"outputs": [
						{
							"internalType": "bytes32",
							"name": "",
							"type": "bytes32"
						}
					],
					"stateMutability": "pure",
					"type": "function"
				}
			],
			"devdoc": {
				"kind": "dev",
				"methods": {},
				"version": 1
			},
			"evm": {
				"assembly": "    /* \"contracts/Lesson_4.sol\":78:1041  contract MerkleTree... */\n  mstore(0x40, 0x80)\n    /* \"contracts/Lesson_4.sol\":203:367  string[4] transactions = [... */\n  mload(0x40)\n  dup1\n  0x80\n  add\n  0x40\n  mstore\n  dup1\n  mload(0x40)\n  dup1\n  0x40\n  add\n  0x40\n  mstore\n  dup1\n  0x15\n  dup2\n  mstore\n  0x20\n  add\n  0x5458313a20536865726c6f636b202d3e204a6f686e0000000000000000000000\n  dup2\n  mstore\n  pop\n  dup2\n  mstore\n  0x20\n  add\n  mload(0x40)\n  dup1\n  0x40\n  add\n  0x40\n  mstore\n  dup1\n  0x15\n  dup2\n  mstore\n  0x20\n  add\n  0x5458323a204a6f686e202d3e20536865726c6f636b0000000000000000000000\n  dup2\n  mstore\n  pop\n  dup2\n  mstore\n  0x20\n  add\n  mload(0x40)\n  dup1\n  0x40\n  add\n  0x40\n  mstore\n  dup1\n  0x11\n  dup2\n  mstore\n  0x20\n  add\n  0x5458333a204a6f686e202d3e204d617279000000000000000000000000000000\n  dup2\n  mstore\n  pop\n  dup2\n  mstore\n  0x20\n  add\n  mload(0x40)\n  dup1\n  0x40\n  add\n  0x40\n  mstore\n  dup1\n  0x15\n  dup2\n  mstore\n  0x20\n  add\n  0x5458343a204d617279202d3e20536865726c6f636b0000000000000000000000\n  dup2\n  mstore\n  pop\n  dup2\n  mstore\n  pop\n  0x01\n  swap1\n  0x04\n  tag_1\n  swap3\n  swap2\n  swap1\n  tag_2\n  jump\t// in\ntag_1:\n  pop\n    /* \"contracts/Lesson_4.sol\":376:750  constructor()... */\n  callvalue\n  dup1\n  iszero\n  tag_3\n  jumpi\n  0x00\n  dup1\n  revert\ntag_3:\n  pop\n    /* \"contracts/Lesson_4.sol\":507:513  uint i */\n  0x00\n    /* \"contracts/Lesson_4.sol\":503:623  for(uint i = 0; i < transactions.length; i++)... */\ntag_6:\n    /* \"contracts/Lesson_4.sol\":523:542  transactions.length */\n  0x04\n    /* \"contracts/Lesson_4.sol\":519:520  i */\n  dup2\n    /* \"contracts/Lesson_4.sol\":519:542  i < transactions.length */\n  lt\n    /* \"contracts/Lesson_4.sol\":503:623  for(uint i = 0; i < transactions.length; i++)... */\n  iszero\n  tag_7\n  jumpi\n    /* \"contracts/Lesson_4.sol\":573:579  hashes */\n  0x00\n    /* \"contracts/Lesson_4.sol\":585:610  makeHash(transactions[i]) */\n  tag_9\n    /* \"contracts/Lesson_4.sol\":594:606  transactions */\n  0x01\n    /* \"contracts/Lesson_4.sol\":607:608  i */\n  dup4\n    /* \"contracts/Lesson_4.sol\":594:609  transactions[i] */\n  0x04\n  dup2\n  lt\n  tag_10\n  jumpi\n  tag_11\n  tag_12\n  jump\t// in\ntag_11:\ntag_10:\n  add\n    /* \"contracts/Lesson_4.sol\":585:610  makeHash(transactions[i]) */\n  dup1\n  sload\n  tag_14\n  swap1\n  tag_15\n  jump\t// in\ntag_14:\n  dup1\n  0x1f\n  add\n  0x20\n  dup1\n  swap2\n  div\n  mul\n  0x20\n  add\n  mload(0x40)\n  swap1\n  dup2\n  add\n  0x40\n  mstore\n  dup1\n  swap3\n  swap2\n  swap1\n  dup2\n  dup2\n  mstore\n  0x20\n  add\n  dup3\n  dup1\n  sload\n  tag_16\n  swap1\n  tag_15\n  jump\t// in\ntag_16:\n  dup1\n  iszero\n  tag_17\n  jumpi\n  dup1\n  0x1f\n  lt\n  tag_18\n  jumpi\n  0x0100\n  dup1\n  dup4\n  sload\n  div\n  mul\n  dup4\n  mstore\n  swap2\n  0x20\n  add\n  swap2\n  jump(tag_17)\ntag_18:\n  dup3\n  add\n  swap2\n  swap1\n  0x00\n  mstore\n  keccak256(0x00, 0x20)\n  swap1\ntag_19:\n  dup2\n  sload\n  dup2\n  mstore\n  swap1\n  0x01\n  add\n  swap1\n  0x20\n  add\n  dup1\n  dup4\n  gt\n  tag_19\n  jumpi\n  dup3\n  swap1\n  sub\n  0x1f\n  and\n  dup3\n  add\n  swap2\ntag_17:\n  pop\n  pop\n  pop\n  pop\n  pop\n    /* \"contracts/Lesson_4.sol\":585:593  makeHash */\n  shl(0x20, tag_20)\n    /* \"contracts/Lesson_4.sol\":585:610  makeHash(transactions[i]) */\n  0x20\n  shr\n  jump\t// in\ntag_9:\n    /* \"contracts/Lesson_4.sol\":573:611  hashes.push(makeHash(transactions[i])) */\n  swap1\n  dup1\n  0x01\n  dup2\n  sload\n  add\n  dup1\n  dup3\n  sstore\n  dup1\n  swap2\n  pop\n  pop\n  0x01\n  swap1\n  sub\n  swap1\n  0x00\n  mstore\n  keccak256(0x00, 0x20)\n  add\n  0x00\n  swap1\n  swap2\n  swap1\n  swap2\n  swap1\n  swap2\n  pop\n  sstore\n    /* \"contracts/Lesson_4.sol\":544:547  i++ */\n  dup1\n  dup1\n  tag_22\n  swap1\n  tag_23\n  jump\t// in\ntag_22:\n  swap2\n  pop\n  pop\n    /* \"contracts/Lesson_4.sol\":503:623  for(uint i = 0; i < transactions.length; i++)... */\n  jump(tag_6)\ntag_7:\n  pop\n    /* \"contracts/Lesson_4.sol\":635:645  uint count */\n  0x00\n    /* \"contracts/Lesson_4.sol\":648:667  transactions.length */\n  0x04\n    /* \"contracts/Lesson_4.sol\":635:667  uint count = transactions.length */\n  swap1\n  pop\n    /* \"contracts/Lesson_4.sol\":680:743  while(count > 0)... */\ntag_24:\n    /* \"contracts/Lesson_4.sol\":694:695  0 */\n  0x00\n    /* \"contracts/Lesson_4.sol\":686:691  count */\n  dup2\n    /* \"contracts/Lesson_4.sol\":686:695  count > 0 */\n  gt\n    /* \"contracts/Lesson_4.sol\":680:743  while(count > 0)... */\n  iszero\n  tag_25\n  jumpi\n    /* \"contracts/Lesson_4.sol\":730:731  2 */\n  0x02\n    /* \"contracts/Lesson_4.sol\":721:731  count /= 2 */\n  dup2\n  tag_26\n  swap2\n  swap1\n  tag_27\n  jump\t// in\ntag_26:\n  swap1\n  pop\n    /* \"contracts/Lesson_4.sol\":680:743  while(count > 0)... */\n  jump(tag_24)\ntag_25:\n    /* \"contracts/Lesson_4.sol\":395:750  {... */\n  pop\n    /* \"contracts/Lesson_4.sol\":78:1041  contract MerkleTree... */\n  jump(tag_28)\n    /* \"contracts/Lesson_4.sol\":891:1038  function makeHash(string memory input) public pure returns(bytes32)... */\ntag_20:\n    /* \"contracts/Lesson_4.sol\":950:957  bytes32 */\n  0x00\n    /* \"contracts/Lesson_4.sol\":1006:1019  encode(input) */\n  tag_30\n    /* \"contracts/Lesson_4.sol\":1013:1018  input */\n  dup3\n    /* \"contracts/Lesson_4.sol\":1006:1012  encode */\n  shl(0x20, tag_31)\n    /* \"contracts/Lesson_4.sol\":1006:1019  encode(input) */\n  0x20\n  shr\n  jump\t// in\ntag_30:\n    /* \"contracts/Lesson_4.sol\":982:1030  keccak256(... */\n  dup1\n  mload\n  swap1\n  0x20\n  add\n  keccak256\n    /* \"contracts/Lesson_4.sol\":975:1030  return keccak256(... */\n  swap1\n  pop\n    /* \"contracts/Lesson_4.sol\":891:1038  function makeHash(string memory input) public pure returns(bytes32)... */\n  swap2\n  swap1\n  pop\n  jump\t// out\n    /* \"contracts/Lesson_4.sol\":758:883  function encode(string memory input) public pure returns(bytes memory)... */\ntag_31:\n    /* \"contracts/Lesson_4.sol\":815:827  bytes memory */\n  0x60\n    /* \"contracts/Lesson_4.sol\":869:874  input */\n  dup2\n    /* \"contracts/Lesson_4.sol\":852:875  abi.encodePacked(input) */\n  add(0x20, mload(0x40))\n  tag_33\n  swap2\n  swap1\n  tag_34\n  jump\t// in\ntag_33:\n  mload(0x40)\n  0x20\n  dup2\n  dup4\n  sub\n  sub\n  dup2\n  mstore\n  swap1\n  0x40\n  mstore\n    /* \"contracts/Lesson_4.sol\":845:875  return abi.encodePacked(input) */\n  swap1\n  pop\n    /* \"contracts/Lesson_4.sol\":758:883  function encode(string memory input) public pure returns(bytes memory)... */\n  swap2\n  swap1\n  pop\n  jump\t// out\n    /* \"contracts/Lesson_4.sol\":78:1041  contract MerkleTree... */\ntag_2:\n  dup3\n  0x04\n  dup2\n  add\n  swap3\n  dup3\n  iszero\n  tag_35\n  jumpi\n  swap2\n  0x20\n  mul\n  dup3\n  add\ntag_36:\n  dup3\n  dup2\n  gt\n  iszero\n  tag_37\n  jumpi\n  dup3\n  mload\n  dup3\n  swap1\n  dup2\n  tag_38\n  swap2\n  swap1\n  tag_39\n  jump\t// in\ntag_38:\n  pop\n  swap2\n  0x20\n  add\n  swap2\n  swap1\n  0x01\n  add\n  swap1\n  jump(tag_36)\ntag_37:\ntag_35:\n  pop\n  swap1\n  pop\n  tag_40\n  swap2\n  swap1\n  tag_41\n  jump\t// in\ntag_40:\n  pop\n  swap1\n  jump\t// out\ntag_41:\ntag_42:\n  dup1\n  dup3\n  gt\n  iszero\n  tag_43\n  jumpi\n  0x00\n  dup2\n  dup2\n  tag_44\n  swap2\n  swap1\n  tag_45\n  jump\t// in\ntag_44:\n  pop\n  0x01\n  add\n  jump(tag_42)\ntag_43:\n  pop\n  swap1\n  jump\t// out\ntag_45:\n  pop\n  dup1\n  sload\n  tag_46\n  swap1\n  tag_15\n  jump\t// in\ntag_46:\n  0x00\n  dup3\n  sstore\n  dup1\n  0x1f\n  lt\n  tag_48\n  jumpi\n  pop\n  jump(tag_47)\ntag_48:\n  0x1f\n  add\n  0x20\n  swap1\n  div\n  swap1\n  0x00\n  mstore\n  keccak256(0x00, 0x20)\n  swap1\n  dup2\n  add\n  swap1\n  tag_49\n  swap2\n  swap1\n  tag_50\n  jump\t// in\ntag_49:\ntag_47:\n  pop\n  jump\t// out\ntag_50:\ntag_51:\n  dup1\n  dup3\n  gt\n  iszero\n  tag_52\n  jumpi\n  0x00\n  dup2\n  0x00\n  swap1\n  sstore\n  pop\n  0x01\n  add\n  jump(tag_51)\ntag_52:\n  pop\n  swap1\n  jump\t// out\n    /* \"#utility.yul\":7:187   */\ntag_12:\n    /* \"#utility.yul\":55:132   */\n  0x4e487b7100000000000000000000000000000000000000000000000000000000\n    /* \"#utility.yul\":52:53   */\n  0x00\n    /* \"#utility.yul\":45:133   */\n  mstore\n    /* \"#utility.yul\":152:156   */\n  0x32\n    /* \"#utility.yul\":149:150   */\n  0x04\n    /* \"#utility.yul\":142:157   */\n  mstore\n    /* \"#utility.yul\":176:180   */\n  0x24\n    /* \"#utility.yul\":173:174   */\n  0x00\n    /* \"#utility.yul\":166:181   */\n  revert\n    /* \"#utility.yul\":193:373   */\ntag_53:\n    /* \"#utility.yul\":241:318   */\n  0x4e487b7100000000000000000000000000000000000000000000000000000000\n    /* \"#utility.yul\":238:239   */\n  0x00\n    /* \"#utility.yul\":231:319   */\n  mstore\n    /* \"#utility.yul\":338:342   */\n  0x22\n    /* \"#utility.yul\":335:336   */\n  0x04\n    /* \"#utility.yul\":328:343   */\n  mstore\n    /* \"#utility.yul\":362:366   */\n  0x24\n    /* \"#utility.yul\":359:360   */\n  0x00\n    /* \"#utility.yul\":352:367   */\n  revert\n    /* \"#utility.yul\":379:699   */\ntag_15:\n    /* \"#utility.yul\":423:429   */\n  0x00\n    /* \"#utility.yul\":460:461   */\n  0x02\n    /* \"#utility.yul\":454:458   */\n  dup3\n    /* \"#utility.yul\":450:462   */\n  div\n    /* \"#utility.yul\":440:462   */\n  swap1\n  pop\n    /* \"#utility.yul\":507:508   */\n  0x01\n    /* \"#utility.yul\":501:505   */\n  dup3\n    /* \"#utility.yul\":497:509   */\n  and\n    /* \"#utility.yul\":528:546   */\n  dup1\n    /* \"#utility.yul\":518:599   */\n  tag_81\n  jumpi\n    /* \"#utility.yul\":584:588   */\n  0x7f\n    /* \"#utility.yul\":576:582   */\n  dup3\n    /* \"#utility.yul\":572:589   */\n  and\n    /* \"#utility.yul\":562:589   */\n  swap2\n  pop\n    /* \"#utility.yul\":518:599   */\ntag_81:\n    /* \"#utility.yul\":646:648   */\n  0x20\n    /* \"#utility.yul\":638:644   */\n  dup3\n    /* \"#utility.yul\":635:649   */\n  lt\n    /* \"#utility.yul\":615:633   */\n  dup2\n    /* \"#utility.yul\":612:650   */\n  sub\n    /* \"#utility.yul\":609:693   */\n  tag_82\n  jumpi\n    /* \"#utility.yul\":665:683   */\n  tag_83\n  tag_53\n  jump\t// in\ntag_83:\n    /* \"#utility.yul\":609:693   */\ntag_82:\n    /* \"#utility.yul\":430:699   */\n  pop\n    /* \"#utility.yul\":379:699   */\n  swap2\n  swap1\n  pop\n  jump\t// out\n    /* \"#utility.yul\":705:885   */\ntag_54:\n    /* \"#utility.yul\":753:830   */\n  0x4e487b7100000000000000000000000000000000000000000000000000000000\n    /* \"#utility.yul\":750:751   */\n  0x00\n    /* \"#utility.yul\":743:831   */\n  mstore\n    /* \"#utility.yul\":850:854   */\n  0x11\n    /* \"#utility.yul\":847:848   */\n  0x04\n    /* \"#utility.yul\":840:855   */\n  mstore\n    /* \"#utility.yul\":874:878   */\n  0x24\n    /* \"#utility.yul\":871:872   */\n  0x00\n    /* \"#utility.yul\":864:879   */\n  revert\n    /* \"#utility.yul\":891:968   */\ntag_55:\n    /* \"#utility.yul\":928:935   */\n  0x00\n    /* \"#utility.yul\":957:962   */\n  dup2\n    /* \"#utility.yul\":946:962   */\n  swap1\n  pop\n    /* \"#utility.yul\":891:968   */\n  swap2\n  swap1\n  pop\n  jump\t// out\n    /* \"#utility.yul\":974:1207   */\ntag_23:\n    /* \"#utility.yul\":1013:1016   */\n  0x00\n    /* \"#utility.yul\":1036:1060   */\n  tag_87\n    /* \"#utility.yul\":1054:1059   */\n  dup3\n    /* \"#utility.yul\":1036:1060   */\n  tag_55\n  jump\t// in\ntag_87:\n    /* \"#utility.yul\":1027:1060   */\n  swap2\n  pop\n    /* \"#utility.yul\":1082:1148   */\n  0xffffffffffffffffffffffffffffffffffffffffffffffffffffffffffffffff\n    /* \"#utility.yul\":1075:1080   */\n  dup3\n    /* \"#utility.yul\":1072:1149   */\n  sub\n    /* \"#utility.yul\":1069:1172   */\n  tag_88\n  jumpi\n    /* \"#utility.yul\":1152:1170   */\n  tag_89\n  tag_54\n  jump\t// in\ntag_89:\n    /* \"#utility.yul\":1069:1172   */\ntag_88:\n    /* \"#utility.yul\":1199:1200   */\n  0x01\n    /* \"#utility.yul\":1192:1197   */\n  dup3\n    /* \"#utility.yul\":1188:1201   */\n  add\n    /* \"#utility.yul\":1181:1201   */\n  swap1\n  pop\n    /* \"#utility.yul\":974:1207   */\n  swap2\n  swap1\n  pop\n  jump\t// out\n    /* \"#utility.yul\":1213:1393   */\ntag_56:\n    /* \"#utility.yul\":1261:1338   */\n  0x4e487b7100000000000000000000000000000000000000000000000000000000\n    /* \"#utility.yul\":1258:1259   */\n  0x00\n    /* \"#utility.yul\":1251:1339   */\n  mstore\n    /* \"#utility.yul\":1358:1362   */\n  0x12\n    /* \"#utility.yul\":1355:1356   */\n  0x04\n    /* \"#utility.yul\":1348:1363   */\n  mstore\n    /* \"#utility.yul\":1382:1386   */\n  0x24\n    /* \"#utility.yul\":1379:1380   */\n  0x00\n    /* \"#utility.yul\":1372:1387   */\n  revert\n    /* \"#utility.yul\":1399:1584   */\ntag_27:\n    /* \"#utility.yul\":1439:1440   */\n  0x00\n    /* \"#utility.yul\":1456:1476   */\n  tag_92\n    /* \"#utility.yul\":1474:1475   */\n  dup3\n    /* \"#utility.yul\":1456:1476   */\n  tag_55\n  jump\t// in\ntag_92:\n    /* \"#utility.yul\":1451:1476   */\n  swap2\n  pop\n    /* \"#utility.yul\":1490:1510   */\n  tag_93\n    /* \"#utility.yul\":1508:1509   */\n  dup4\n    /* \"#utility.yul\":1490:1510   */\n  tag_55\n  jump\t// in\ntag_93:\n    /* \"#utility.yul\":1485:1510   */\n  swap3\n  pop\n    /* \"#utility.yul\":1529:1530   */\n  dup3\n    /* \"#utility.yul\":1519:1554   */\n  tag_94\n  jumpi\n    /* \"#utility.yul\":1534:1552   */\n  tag_95\n  tag_56\n  jump\t// in\ntag_95:\n    /* \"#utility.yul\":1519:1554   */\ntag_94:\n    /* \"#utility.yul\":1576:1577   */\n  dup3\n    /* \"#utility.yul\":1573:1574   */\n  dup3\n    /* \"#utility.yul\":1569:1578   */\n  div\n    /* \"#utility.yul\":1564:1578   */\n  swap1\n  pop\n    /* \"#utility.yul\":1399:1584   */\n  swap3\n  swap2\n  pop\n  pop\n  jump\t// out\n    /* \"#utility.yul\":1590:1689   */\ntag_57:\n    /* \"#utility.yul\":1642:1648   */\n  0x00\n    /* \"#utility.yul\":1676:1681   */\n  dup2\n    /* \"#utility.yul\":1670:1682   */\n  mload\n    /* \"#utility.yul\":1660:1682   */\n  swap1\n  pop\n    /* \"#utility.yul\":1590:1689   */\n  swap2\n  swap1\n  pop\n  jump\t// out\n    /* \"#utility.yul\":1695:1843   */\ntag_58:\n    /* \"#utility.yul\":1797:1808   */\n  0x00\n    /* \"#utility.yul\":1834:1837   */\n  dup2\n    /* \"#utility.yul\":1819:1837   */\n  swap1\n  pop\n    /* \"#utility.yul\":1695:1843   */\n  swap3\n  swap2\n  pop\n  pop\n  jump\t// out\n    /* \"#utility.yul\":1849:2095   */\ntag_59:\n    /* \"#utility.yul\":1930:1931   */\n  0x00\n    /* \"#utility.yul\":1940:2053   */\ntag_99:\n    /* \"#utility.yul\":1954:1960   */\n  dup4\n    /* \"#utility.yul\":1951:1952   */\n  dup2\n    /* \"#utility.yul\":1948:1961   */\n  lt\n    /* \"#utility.yul\":1940:2053   */\n  iszero\n  tag_101\n  jumpi\n    /* \"#utility.yul\":2039:2040   */\n  dup1\n    /* \"#utility.yul\":2034:2037   */\n  dup3\n    /* \"#utility.yul\":2030:2041   */\n  add\n    /* \"#utility.yul\":2024:2042   */\n  mload\n    /* \"#utility.yul\":2020:2021   */\n  dup2\n    /* \"#utility.yul\":2015:2018   */\n  dup5\n    /* \"#utility.yul\":2011:2022   */\n  add\n    /* \"#utility.yul\":2004:2043   */\n  mstore\n    /* \"#utility.yul\":1976:1978   */\n  0x20\n    /* \"#utility.yul\":1973:1974   */\n  dup2\n    /* \"#utility.yul\":1969:1979   */\n  add\n    /* \"#utility.yul\":1964:1979   */\n  swap1\n  pop\n    /* \"#utility.yul\":1940:2053   */\n  jump(tag_99)\ntag_101:\n    /* \"#utility.yul\":2087:2088   */\n  0x00\n    /* \"#utility.yul\":2078:2084   */\n  dup5\n    /* \"#utility.yul\":2073:2076   */\n  dup5\n    /* \"#utility.yul\":2069:2085   */\n  add\n    /* \"#utility.yul\":2062:2089   */\n  mstore\n    /* \"#utility.yul\":1911:2095   */\n  pop\n    /* \"#utility.yul\":1849:2095   */\n  pop\n  pop\n  pop\n  jump\t// out\n    /* \"#utility.yul\":2101:2491   */\ntag_60:\n    /* \"#utility.yul\":2207:2210   */\n  0x00\n    /* \"#utility.yul\":2235:2274   */\n  tag_103\n    /* \"#utility.yul\":2268:2273   */\n  dup3\n    /* \"#utility.yul\":2235:2274   */\n  tag_57\n  jump\t// in\ntag_103:\n    /* \"#utility.yul\":2290:2379   */\n  tag_104\n    /* \"#utility.yul\":2372:2378   */\n  dup2\n    /* \"#utility.yul\":2367:2370   */\n  dup6\n    /* \"#utility.yul\":2290:2379   */\n  tag_58\n  jump\t// in\ntag_104:\n    /* \"#utility.yul\":2283:2379   */\n  swap4\n  pop\n    /* \"#utility.yul\":2388:2453   */\n  tag_105\n    /* \"#utility.yul\":2446:2452   */\n  dup2\n    /* \"#utility.yul\":2441:2444   */\n  dup6\n    /* \"#utility.yul\":2434:2438   */\n  0x20\n    /* \"#utility.yul\":2427:2432   */\n  dup7\n    /* \"#utility.yul\":2423:2439   */\n  add\n    /* \"#utility.yul\":2388:2453   */\n  tag_59\n  jump\t// in\ntag_105:\n    /* \"#utility.yul\":2478:2484   */\n  dup1\n    /* \"#utility.yul\":2473:2476   */\n  dup5\n    /* \"#utility.yul\":2469:2485   */\n  add\n    /* \"#utility.yul\":2462:2485   */\n  swap2\n  pop\n    /* \"#utility.yul\":2211:2491   */\n  pop\n    /* \"#utility.yul\":2101:2491   */\n  swap3\n  swap2\n  pop\n  pop\n  jump\t// out\n    /* \"#utility.yul\":2497:2772   */\ntag_34:\n    /* \"#utility.yul\":2629:2632   */\n  0x00\n    /* \"#utility.yul\":2651:2746   */\n  tag_107\n    /* \"#utility.yul\":2742:2745   */\n  dup3\n    /* \"#utility.yul\":2733:2739   */\n  dup5\n    /* \"#utility.yul\":2651:2746   */\n  tag_60\n  jump\t// in\ntag_107:\n    /* \"#utility.yul\":2644:2746   */\n  swap2\n  pop\n    /* \"#utility.yul\":2763:2766   */\n  dup2\n    /* \"#utility.yul\":2756:2766   */\n  swap1\n  pop\n    /* \"#utility.yul\":2497:2772   */\n  swap3\n  swap2\n  pop\n  pop\n  jump\t// out\n    /* \"#utility.yul\":2778:2958   */\ntag_61:\n    /* \"#utility.yul\":2826:2903   */\n  0x4e487b7100000000000000000000000000000000000000000000000000000000\n    /* \"#utility.yul\":2823:2824   */\n  0x00\n    /* \"#utility.yul\":2816:2904   */\n  mstore\n    /* \"#utility.yul\":2923:2927   */\n  0x41\n    /* \"#utility.yul\":2920:2921   */\n  0x04\n    /* \"#utility.yul\":2913:2928   */\n  mstore\n    /* \"#utility.yul\":2947:2951   */\n  0x24\n    /* \"#utility.yul\":2944:2945   */\n  0x00\n    /* \"#utility.yul\":2937:2952   */\n  revert\n    /* \"#utility.yul\":2964:3105   */\ntag_62:\n    /* \"#utility.yul\":3013:3017   */\n  0x00\n    /* \"#utility.yul\":3036:3039   */\n  dup2\n    /* \"#utility.yul\":3028:3039   */\n  swap1\n  pop\n    /* \"#utility.yul\":3059:3062   */\n  dup2\n    /* \"#utility.yul\":3056:3057   */\n  0x00\n    /* \"#utility.yul\":3049:3063   */\n  mstore\n    /* \"#utility.yul\":3093:3097   */\n  0x20\n    /* \"#utility.yul\":3090:3091   */\n  0x00\n    /* \"#utility.yul\":3080:3098   */\n  keccak256\n    /* \"#utility.yul\":3072:3098   */\n  swap1\n  pop\n    /* \"#utility.yul\":2964:3105   */\n  swap2\n  swap1\n  pop\n  jump\t// out\n    /* \"#utility.yul\":3111:3204   */\ntag_63:\n    /* \"#utility.yul\":3148:3154   */\n  0x00\n    /* \"#utility.yul\":3195:3197   */\n  0x20\n    /* \"#utility.yul\":3190:3192   */\n  0x1f\n    /* \"#utility.yul\":3183:3188   */\n  dup4\n    /* \"#utility.yul\":3179:3193   */\n  add\n    /* \"#utility.yul\":3175:3198   */\n  div\n    /* \"#utility.yul\":3165:3198   */\n  swap1\n  pop\n    /* \"#utility.yul\":3111:3204   */\n  swap2\n  swap1\n  pop\n  jump\t// out\n    /* \"#utility.yul\":3210:3317   */\ntag_64:\n    /* \"#utility.yul\":3254:3262   */\n  0x00\n    /* \"#utility.yul\":3304:3309   */\n  dup3\n    /* \"#utility.yul\":3298:3302   */\n  dup3\n    /* \"#utility.yul\":3294:3310   */\n  shl\n    /* \"#utility.yul\":3273:3310   */\n  swap1\n  pop\n    /* \"#utility.yul\":3210:3317   */\n  swap3\n  swap2\n  pop\n  pop\n  jump\t// out\n    /* \"#utility.yul\":3323:3716   */\ntag_65:\n    /* \"#utility.yul\":3392:3398   */\n  0x00\n    /* \"#utility.yul\":3442:3443   */\n  0x08\n    /* \"#utility.yul\":3430:3440   */\n  dup4\n    /* \"#utility.yul\":3426:3444   */\n  mul\n    /* \"#utility.yul\":3465:3562   */\n  tag_113\n    /* \"#utility.yul\":3495:3561   */\n  0xffffffffffffffffffffffffffffffffffffffffffffffffffffffffffffffff\n    /* \"#utility.yul\":3484:3493   */\n  dup3\n    /* \"#utility.yul\":3465:3562   */\n  tag_64\n  jump\t// in\ntag_113:\n    /* \"#utility.yul\":3583:3622   */\n  tag_114\n    /* \"#utility.yul\":3613:3621   */\n  dup7\n    /* \"#utility.yul\":3602:3611   */\n  dup4\n    /* \"#utility.yul\":3583:3622   */\n  tag_64\n  jump\t// in\ntag_114:\n    /* \"#utility.yul\":3571:3622   */\n  swap6\n  pop\n    /* \"#utility.yul\":3655:3659   */\n  dup1\n    /* \"#utility.yul\":3651:3660   */\n  not\n    /* \"#utility.yul\":3644:3649   */\n  dup5\n    /* \"#utility.yul\":3640:3661   */\n  and\n    /* \"#utility.yul\":3631:3661   */\n  swap4\n  pop\n    /* \"#utility.yul\":3704:3708   */\n  dup1\n    /* \"#utility.yul\":3694:3702   */\n  dup7\n    /* \"#utility.yul\":3690:3709   */\n  and\n    /* \"#utility.yul\":3683:3688   */\n  dup5\n    /* \"#utility.yul\":3680:3710   */\n  or\n    /* \"#utility.yul\":3670:3710   */\n  swap3\n  pop\n    /* \"#utility.yul\":3399:3716   */\n  pop\n  pop\n    /* \"#utility.yul\":3323:3716   */\n  swap4\n  swap3\n  pop\n  pop\n  pop\n  jump\t// out\n    /* \"#utility.yul\":3722:3782   */\ntag_66:\n    /* \"#utility.yul\":3750:3753   */\n  0x00\n    /* \"#utility.yul\":3771:3776   */\n  dup2\n    /* \"#utility.yul\":3764:3776   */\n  swap1\n  pop\n    /* \"#utility.yul\":3722:3782   */\n  swap2\n  swap1\n  pop\n  jump\t// out\n    /* \"#utility.yul\":3788:3930   */\ntag_67:\n    /* \"#utility.yul\":3838:3847   */\n  0x00\n    /* \"#utility.yul\":3871:3924   */\n  tag_117\n    /* \"#utility.yul\":3889:3923   */\n  tag_118\n    /* \"#utility.yul\":3898:3922   */\n  tag_119\n    /* \"#utility.yul\":3916:3921   */\n  dup5\n    /* \"#utility.yul\":3898:3922   */\n  tag_55\n  jump\t// in\ntag_119:\n    /* \"#utility.yul\":3889:3923   */\n  tag_66\n  jump\t// in\ntag_118:\n    /* \"#utility.yul\":3871:3924   */\n  tag_55\n  jump\t// in\ntag_117:\n    /* \"#utility.yul\":3858:3924   */\n  swap1\n  pop\n    /* \"#utility.yul\":3788:3930   */\n  swap2\n  swap1\n  pop\n  jump\t// out\n    /* \"#utility.yul\":3936:4011   */\ntag_68:\n    /* \"#utility.yul\":3979:3982   */\n  0x00\n    /* \"#utility.yul\":4000:4005   */\n  dup2\n    /* \"#utility.yul\":3993:4005   */\n  swap1\n  pop\n    /* \"#utility.yul\":3936:4011   */\n  swap2\n  swap1\n  pop\n  jump\t// out\n    /* \"#utility.yul\":4017:4286   */\ntag_69:\n    /* \"#utility.yul\":4127:4166   */\n  tag_122\n    /* \"#utility.yul\":4158:4165   */\n  dup4\n    /* \"#utility.yul\":4127:4166   */\n  tag_67\n  jump\t// in\ntag_122:\n    /* \"#utility.yul\":4188:4279   */\n  tag_123\n    /* \"#utility.yul\":4237:4278   */\n  tag_124\n    /* \"#utility.yul\":4261:4277   */\n  dup3\n    /* \"#utility.yul\":4237:4278   */\n  tag_68\n  jump\t// in\ntag_124:\n    /* \"#utility.yul\":4229:4235   */\n  dup5\n    /* \"#utility.yul\":4222:4226   */\n  dup5\n    /* \"#utility.yul\":4216:4227   */\n  sload\n    /* \"#utility.yul\":4188:4279   */\n  tag_65\n  jump\t// in\ntag_123:\n    /* \"#utility.yul\":4182:4186   */\n  dup3\n    /* \"#utility.yul\":4175:4280   */\n  sstore\n    /* \"#utility.yul\":4093:4286   */\n  pop\n    /* \"#utility.yul\":4017:4286   */\n  pop\n  pop\n  pop\n  jump\t// out\n    /* \"#utility.yul\":4292:4365   */\ntag_70:\n    /* \"#utility.yul\":4337:4340   */\n  0x00\n    /* \"#utility.yul\":4292:4365   */\n  swap1\n  jump\t// out\n    /* \"#utility.yul\":4371:4560   */\ntag_71:\n    /* \"#utility.yul\":4448:4480   */\n  tag_127\n  tag_70\n  jump\t// in\ntag_127:\n    /* \"#utility.yul\":4489:4554   */\n  tag_128\n    /* \"#utility.yul\":4547:4553   */\n  dup2\n    /* \"#utility.yul\":4539:4545   */\n  dup5\n    /* \"#utility.yul\":4533:4537   */\n  dup5\n    /* \"#utility.yul\":4489:4554   */\n  tag_69\n  jump\t// in\ntag_128:\n    /* \"#utility.yul\":4424:4560   */\n  pop\n    /* \"#utility.yul\":4371:4560   */\n  pop\n  pop\n  jump\t// out\n    /* \"#utility.yul\":4566:4752   */\ntag_72:\n    /* \"#utility.yul\":4626:4746   */\ntag_130:\n    /* \"#utility.yul\":4643:4646   */\n  dup2\n    /* \"#utility.yul\":4636:4641   */\n  dup2\n    /* \"#utility.yul\":4633:4647   */\n  lt\n    /* \"#utility.yul\":4626:4746   */\n  iszero\n  tag_132\n  jumpi\n    /* \"#utility.yul\":4697:4736   */\n  tag_133\n    /* \"#utility.yul\":4734:4735   */\n  0x00\n    /* \"#utility.yul\":4727:4732   */\n  dup3\n    /* \"#utility.yul\":4697:4736   */\n  tag_71\n  jump\t// in\ntag_133:\n    /* \"#utility.yul\":4670:4671   */\n  0x01\n    /* \"#utility.yul\":4663:4668   */\n  dup2\n    /* \"#utility.yul\":4659:4672   */\n  add\n    /* \"#utility.yul\":4650:4672   */\n  swap1\n  pop\n    /* \"#utility.yul\":4626:4746   */\n  jump(tag_130)\ntag_132:\n    /* \"#utility.yul\":4566:4752   */\n  pop\n  pop\n  jump\t// out\n    /* \"#utility.yul\":4758:5301   */\ntag_73:\n    /* \"#utility.yul\":4859:4861   */\n  0x1f\n    /* \"#utility.yul\":4854:4857   */\n  dup3\n    /* \"#utility.yul\":4851:4862   */\n  gt\n    /* \"#utility.yul\":4848:5294   */\n  iszero\n  tag_135\n  jumpi\n    /* \"#utility.yul\":4893:4931   */\n  tag_136\n    /* \"#utility.yul\":4925:4930   */\n  dup2\n    /* \"#utility.yul\":4893:4931   */\n  tag_62\n  jump\t// in\ntag_136:\n    /* \"#utility.yul\":4977:5006   */\n  tag_137\n    /* \"#utility.yul\":4995:5005   */\n  dup5\n    /* \"#utility.yul\":4977:5006   */\n  tag_63\n  jump\t// in\ntag_137:\n    /* \"#utility.yul\":4967:4975   */\n  dup2\n    /* \"#utility.yul\":4963:5007   */\n  add\n    /* \"#utility.yul\":5160:5162   */\n  0x20\n    /* \"#utility.yul\":5148:5158   */\n  dup6\n    /* \"#utility.yul\":5145:5163   */\n  lt\n    /* \"#utility.yul\":5142:5191   */\n  iszero\n  tag_138\n  jumpi\n    /* \"#utility.yul\":5181:5189   */\n  dup2\n    /* \"#utility.yul\":5166:5189   */\n  swap1\n  pop\n    /* \"#utility.yul\":5142:5191   */\ntag_138:\n    /* \"#utility.yul\":5204:5284   */\n  tag_139\n    /* \"#utility.yul\":5260:5282   */\n  tag_140\n    /* \"#utility.yul\":5278:5281   */\n  dup6\n    /* \"#utility.yul\":5260:5282   */\n  tag_63\n  jump\t// in\ntag_140:\n    /* \"#utility.yul\":5250:5258   */\n  dup4\n    /* \"#utility.yul\":5246:5283   */\n  add\n    /* \"#utility.yul\":5233:5244   */\n  dup3\n    /* \"#utility.yul\":5204:5284   */\n  tag_72\n  jump\t// in\ntag_139:\n    /* \"#utility.yul\":4863:5294   */\n  pop\n  pop\n    /* \"#utility.yul\":4848:5294   */\ntag_135:\n    /* \"#utility.yul\":4758:5301   */\n  pop\n  pop\n  pop\n  jump\t// out\n    /* \"#utility.yul\":5307:5424   */\ntag_74:\n    /* \"#utility.yul\":5361:5369   */\n  0x00\n    /* \"#utility.yul\":5411:5416   */\n  dup3\n    /* \"#utility.yul\":5405:5409   */\n  dup3\n    /* \"#utility.yul\":5401:5417   */\n  shr\n    /* \"#utility.yul\":5380:5417   */\n  swap1\n  pop\n    /* \"#utility.yul\":5307:5424   */\n  swap3\n  swap2\n  pop\n  pop\n  jump\t// out\n    /* \"#utility.yul\":5430:5599   */\ntag_75:\n    /* \"#utility.yul\":5474:5480   */\n  0x00\n    /* \"#utility.yul\":5507:5558   */\n  tag_143\n    /* \"#utility.yul\":5555:5556   */\n  0x00\n    /* \"#utility.yul\":5551:5557   */\n  not\n    /* \"#utility.yul\":5543:5548   */\n  dup5\n    /* \"#utility.yul\":5540:5541   */\n  0x08\n    /* \"#utility.yul\":5536:5549   */\n  mul\n    /* \"#utility.yul\":5507:5558   */\n  tag_74\n  jump\t// in\ntag_143:\n    /* \"#utility.yul\":5503:5559   */\n  not\n    /* \"#utility.yul\":5588:5592   */\n  dup1\n    /* \"#utility.yul\":5582:5586   */\n  dup4\n    /* \"#utility.yul\":5578:5593   */\n  and\n    /* \"#utility.yul\":5568:5593   */\n  swap2\n  pop\n    /* \"#utility.yul\":5481:5599   */\n  pop\n    /* \"#utility.yul\":5430:5599   */\n  swap3\n  swap2\n  pop\n  pop\n  jump\t// out\n    /* \"#utility.yul\":5604:5899   */\ntag_76:\n    /* \"#utility.yul\":5680:5684   */\n  0x00\n    /* \"#utility.yul\":5826:5855   */\n  tag_145\n    /* \"#utility.yul\":5851:5854   */\n  dup4\n    /* \"#utility.yul\":5845:5849   */\n  dup4\n    /* \"#utility.yul\":5826:5855   */\n  tag_75\n  jump\t// in\ntag_145:\n    /* \"#utility.yul\":5818:5855   */\n  swap2\n  pop\n    /* \"#utility.yul\":5888:5891   */\n  dup3\n    /* \"#utility.yul\":5885:5886   */\n  0x02\n    /* \"#utility.yul\":5881:5892   */\n  mul\n    /* \"#utility.yul\":5875:5879   */\n  dup3\n    /* \"#utility.yul\":5872:5893   */\n  or\n    /* \"#utility.yul\":5864:5893   */\n  swap1\n  pop\n    /* \"#utility.yul\":5604:5899   */\n  swap3\n  swap2\n  pop\n  pop\n  jump\t// out\n    /* \"#utility.yul\":5904:7299   */\ntag_39:\n    /* \"#utility.yul\":6021:6058   */\n  tag_147\n    /* \"#utility.yul\":6054:6057   */\n  dup3\n    /* \"#utility.yul\":6021:6058   */\n  tag_57\n  jump\t// in\ntag_147:\n    /* \"#utility.yul\":6123:6141   */\n  0xffffffffffffffff\n    /* \"#utility.yul\":6115:6121   */\n  dup2\n    /* \"#utility.yul\":6112:6142   */\n  gt\n    /* \"#utility.yul\":6109:6165   */\n  iszero\n  tag_148\n  jumpi\n    /* \"#utility.yul\":6145:6163   */\n  tag_149\n  tag_61\n  jump\t// in\ntag_149:\n    /* \"#utility.yul\":6109:6165   */\ntag_148:\n    /* \"#utility.yul\":6189:6227   */\n  tag_150\n    /* \"#utility.yul\":6221:6225   */\n  dup3\n    /* \"#utility.yul\":6215:6226   */\n  sload\n    /* \"#utility.yul\":6189:6227   */\n  tag_15\n  jump\t// in\ntag_150:\n    /* \"#utility.yul\":6274:6341   */\n  tag_151\n    /* \"#utility.yul\":6334:6340   */\n  dup3\n    /* \"#utility.yul\":6326:6332   */\n  dup3\n    /* \"#utility.yul\":6320:6324   */\n  dup6\n    /* \"#utility.yul\":6274:6341   */\n  tag_73\n  jump\t// in\ntag_151:\n    /* \"#utility.yul\":6368:6369   */\n  0x00\n    /* \"#utility.yul\":6392:6396   */\n  0x20\n    /* \"#utility.yul\":6379:6396   */\n  swap1\n  pop\n    /* \"#utility.yul\":6424:6426   */\n  0x1f\n    /* \"#utility.yul\":6416:6422   */\n  dup4\n    /* \"#utility.yul\":6413:6427   */\n  gt\n    /* \"#utility.yul\":6441:6442   */\n  0x01\n    /* \"#utility.yul\":6436:7054   */\n  dup2\n  eq\n  tag_153\n  jumpi\n    /* \"#utility.yul\":7098:7099   */\n  0x00\n    /* \"#utility.yul\":7115:7121   */\n  dup5\n    /* \"#utility.yul\":7112:7189   */\n  iszero\n  tag_154\n  jumpi\n    /* \"#utility.yul\":7164:7173   */\n  dup3\n    /* \"#utility.yul\":7159:7162   */\n  dup8\n    /* \"#utility.yul\":7155:7174   */\n  add\n    /* \"#utility.yul\":7149:7175   */\n  mload\n    /* \"#utility.yul\":7140:7175   */\n  swap1\n  pop\n    /* \"#utility.yul\":7112:7189   */\ntag_154:\n    /* \"#utility.yul\":7215:7282   */\n  tag_155\n    /* \"#utility.yul\":7275:7281   */\n  dup6\n    /* \"#utility.yul\":7268:7273   */\n  dup3\n    /* \"#utility.yul\":7215:7282   */\n  tag_76\n  jump\t// in\ntag_155:\n    /* \"#utility.yul\":7209:7213   */\n  dup7\n    /* \"#utility.yul\":7202:7283   */\n  sstore\n    /* \"#utility.yul\":7071:7293   */\n  pop\n    /* \"#utility.yul\":6406:7293   */\n  jump(tag_152)\n    /* \"#utility.yul\":6436:7054   */\ntag_153:\n    /* \"#utility.yul\":6488:6492   */\n  0x1f\n    /* \"#utility.yul\":6484:6493   */\n  not\n    /* \"#utility.yul\":6476:6482   */\n  dup5\n    /* \"#utility.yul\":6472:6494   */\n  and\n    /* \"#utility.yul\":6522:6559   */\n  tag_156\n    /* \"#utility.yul\":6554:6558   */\n  dup7\n    /* \"#utility.yul\":6522:6559   */\n  tag_62\n  jump\t// in\ntag_156:\n    /* \"#utility.yul\":6581:6582   */\n  0x00\n    /* \"#utility.yul\":6595:6803   */\ntag_157:\n    /* \"#utility.yul\":6609:6616   */\n  dup3\n    /* \"#utility.yul\":6606:6607   */\n  dup2\n    /* \"#utility.yul\":6603:6617   */\n  lt\n    /* \"#utility.yul\":6595:6803   */\n  iszero\n  tag_159\n  jumpi\n    /* \"#utility.yul\":6688:6697   */\n  dup5\n    /* \"#utility.yul\":6683:6686   */\n  dup10\n    /* \"#utility.yul\":6679:6698   */\n  add\n    /* \"#utility.yul\":6673:6699   */\n  mload\n    /* \"#utility.yul\":6665:6671   */\n  dup3\n    /* \"#utility.yul\":6658:6700   */\n  sstore\n    /* \"#utility.yul\":6739:6740   */\n  0x01\n    /* \"#utility.yul\":6731:6737   */\n  dup3\n    /* \"#utility.yul\":6727:6741   */\n  add\n    /* \"#utility.yul\":6717:6741   */\n  swap2\n  pop\n    /* \"#utility.yul\":6786:6788   */\n  0x20\n    /* \"#utility.yul\":6775:6784   */\n  dup6\n    /* \"#utility.yul\":6771:6789   */\n  add\n    /* \"#utility.yul\":6758:6789   */\n  swap5\n  pop\n    /* \"#utility.yul\":6632:6636   */\n  0x20\n    /* \"#utility.yul\":6629:6630   */\n  dup2\n    /* \"#utility.yul\":6625:6637   */\n  add\n    /* \"#utility.yul\":6620:6637   */\n  swap1\n  pop\n    /* \"#utility.yul\":6595:6803   */\n  jump(tag_157)\ntag_159:\n    /* \"#utility.yul\":6831:6837   */\n  dup7\n    /* \"#utility.yul\":6822:6829   */\n  dup4\n    /* \"#utility.yul\":6819:6838   */\n  lt\n    /* \"#utility.yul\":6816:6995   */\n  iszero\n  tag_160\n  jumpi\n    /* \"#utility.yul\":6889:6898   */\n  dup5\n    /* \"#utility.yul\":6884:6887   */\n  dup10\n    /* \"#utility.yul\":6880:6899   */\n  add\n    /* \"#utility.yul\":6874:6900   */\n  mload\n    /* \"#utility.yul\":6932:6980   */\n  tag_161\n    /* \"#utility.yul\":6974:6978   */\n  0x1f\n    /* \"#utility.yul\":6966:6972   */\n  dup10\n    /* \"#utility.yul\":6962:6979   */\n  and\n    /* \"#utility.yul\":6951:6960   */\n  dup3\n    /* \"#utility.yul\":6932:6980   */\n  tag_75\n  jump\t// in\ntag_161:\n    /* \"#utility.yul\":6924:6930   */\n  dup4\n    /* \"#utility.yul\":6917:6981   */\n  sstore\n    /* \"#utility.yul\":6839:6995   */\n  pop\n    /* \"#utility.yul\":6816:6995   */\ntag_160:\n    /* \"#utility.yul\":7041:7042   */\n  0x01\n    /* \"#utility.yul\":7037:7038   */\n  0x02\n    /* \"#utility.yul\":7029:7035   */\n  dup9\n    /* \"#utility.yul\":7025:7039   */\n  mul\n    /* \"#utility.yul\":7021:7043   */\n  add\n    /* \"#utility.yul\":7015:7019   */\n  dup9\n    /* \"#utility.yul\":7008:7044   */\n  sstore\n    /* \"#utility.yul\":6443:7054   */\n  pop\n  pop\n  pop\n    /* \"#utility.yul\":6406:7293   */\ntag_152:\n  pop\n    /* \"#utility.yul\":5996:7299   */\n  pop\n  pop\n  pop\n    /* \"#utility.yul\":5904:7299   */\n  pop\n  pop\n  jump\t// out\n    /* \"contracts/Lesson_4.sol\":78:1041  contract MerkleTree... */\ntag_28:\n  dataSize(sub_0)\n  dup1\n  dataOffset(sub_0)\n  0x00\n  codecopy\n  0x00\n  return\nstop\n\nsub_0: assembly {\n        /* \"contracts/Lesson_4.sol\":78:1041  contract MerkleTree... */\n      mstore(0x40, 0x80)\n      callvalue\n      dup1\n      iszero\n      tag_1\n      jumpi\n      0x00\n      dup1\n      revert\n    tag_1:\n      pop\n      jumpi(tag_2, lt(calldatasize, 0x04))\n      shr(0xe0, calldataload(0x00))\n      dup1\n      0x501895ae\n      eq\n      tag_3\n      jumpi\n      dup1\n      0x52de70af\n      eq\n      tag_4\n      jumpi\n      dup1\n      0x6a11b2a8\n      eq\n      tag_5\n      jumpi\n    tag_2:\n      0x00\n      dup1\n      revert\n        /* \"contracts/Lesson_4.sol\":173:196  bytes32[] public hashes */\n    tag_3:\n      tag_6\n      0x04\n      dup1\n      calldatasize\n      sub\n      dup2\n      add\n      swap1\n      tag_7\n      swap2\n      swap1\n      tag_8\n      jump\t// in\n    tag_7:\n      tag_9\n      jump\t// in\n    tag_6:\n      mload(0x40)\n      tag_10\n      swap2\n      swap1\n      tag_11\n      jump\t// in\n    tag_10:\n      mload(0x40)\n      dup1\n      swap2\n      sub\n      swap1\n      return\n        /* \"contracts/Lesson_4.sol\":891:1038  function makeHash(string memory input) public pure returns(bytes32)... */\n    tag_4:\n      tag_12\n      0x04\n      dup1\n      calldatasize\n      sub\n      dup2\n      add\n      swap1\n      tag_13\n      swap2\n      swap1\n      tag_14\n      jump\t// in\n    tag_13:\n      tag_15\n      jump\t// in\n    tag_12:\n      mload(0x40)\n      tag_16\n      swap2\n      swap1\n      tag_11\n      jump\t// in\n    tag_16:\n      mload(0x40)\n      dup1\n      swap2\n      sub\n      swap1\n      return\n        /* \"contracts/Lesson_4.sol\":758:883  function encode(string memory input) public pure returns(bytes memory)... */\n    tag_5:\n      tag_17\n      0x04\n      dup1\n      calldatasize\n      sub\n      dup2\n      add\n      swap1\n      tag_18\n      swap2\n      swap1\n      tag_14\n      jump\t// in\n    tag_18:\n      tag_19\n      jump\t// in\n    tag_17:\n      mload(0x40)\n      tag_20\n      swap2\n      swap1\n      tag_21\n      jump\t// in\n    tag_20:\n      mload(0x40)\n      dup1\n      swap2\n      sub\n      swap1\n      return\n        /* \"contracts/Lesson_4.sol\":173:196  bytes32[] public hashes */\n    tag_9:\n      0x00\n      dup2\n      dup2\n      sload\n      dup2\n      lt\n      tag_22\n      jumpi\n      0x00\n      dup1\n      revert\n    tag_22:\n      swap1\n      0x00\n      mstore\n      keccak256(0x00, 0x20)\n      add\n      0x00\n      swap2\n      pop\n      swap1\n      pop\n      sload\n      dup2\n      jump\t// out\n        /* \"contracts/Lesson_4.sol\":891:1038  function makeHash(string memory input) public pure returns(bytes32)... */\n    tag_15:\n        /* \"contracts/Lesson_4.sol\":950:957  bytes32 */\n      0x00\n        /* \"contracts/Lesson_4.sol\":1006:1019  encode(input) */\n      tag_25\n        /* \"contracts/Lesson_4.sol\":1013:1018  input */\n      dup3\n        /* \"contracts/Lesson_4.sol\":1006:1012  encode */\n      tag_19\n        /* \"contracts/Lesson_4.sol\":1006:1019  encode(input) */\n      jump\t// in\n    tag_25:\n        /* \"contracts/Lesson_4.sol\":982:1030  keccak256(... */\n      dup1\n      mload\n      swap1\n      0x20\n      add\n      keccak256\n        /* \"contracts/Lesson_4.sol\":975:1030  return keccak256(... */\n      swap1\n      pop\n        /* \"contracts/Lesson_4.sol\":891:1038  function makeHash(string memory input) public pure returns(bytes32)... */\n      swap2\n      swap1\n      pop\n      jump\t// out\n        /* \"contracts/Lesson_4.sol\":758:883  function encode(string memory input) public pure returns(bytes memory)... */\n    tag_19:\n        /* \"contracts/Lesson_4.sol\":815:827  bytes memory */\n      0x60\n        /* \"contracts/Lesson_4.sol\":869:874  input */\n      dup2\n        /* \"contracts/Lesson_4.sol\":852:875  abi.encodePacked(input) */\n      add(0x20, mload(0x40))\n      tag_27\n      swap2\n      swap1\n      tag_28\n      jump\t// in\n    tag_27:\n      mload(0x40)\n      0x20\n      dup2\n      dup4\n      sub\n      sub\n      dup2\n      mstore\n      swap1\n      0x40\n      mstore\n        /* \"contracts/Lesson_4.sol\":845:875  return abi.encodePacked(input) */\n      swap1\n      pop\n        /* \"contracts/Lesson_4.sol\":758:883  function encode(string memory input) public pure returns(bytes memory)... */\n      swap2\n      swap1\n      pop\n      jump\t// out\n        /* \"#utility.yul\":7:82   */\n    tag_29:\n        /* \"#utility.yul\":40:46   */\n      0x00\n        /* \"#utility.yul\":73:75   */\n      0x40\n        /* \"#utility.yul\":67:76   */\n      mload\n        /* \"#utility.yul\":57:76   */\n      swap1\n      pop\n        /* \"#utility.yul\":7:82   */\n      swap1\n      jump\t// out\n        /* \"#utility.yul\":88:205   */\n    tag_30:\n        /* \"#utility.yul\":197:198   */\n      0x00\n        /* \"#utility.yul\":194:195   */\n      dup1\n        /* \"#utility.yul\":187:199   */\n      revert\n        /* \"#utility.yul\":211:328   */\n    tag_31:\n        /* \"#utility.yul\":320:321   */\n      0x00\n        /* \"#utility.yul\":317:318   */\n      dup1\n        /* \"#utility.yul\":310:322   */\n      revert\n        /* \"#utility.yul\":334:411   */\n    tag_32:\n        /* \"#utility.yul\":371:378   */\n      0x00\n        /* \"#utility.yul\":400:405   */\n      dup2\n        /* \"#utility.yul\":389:405   */\n      swap1\n      pop\n        /* \"#utility.yul\":334:411   */\n      swap2\n      swap1\n      pop\n      jump\t// out\n        /* \"#utility.yul\":417:539   */\n    tag_33:\n        /* \"#utility.yul\":490:514   */\n      tag_60\n        /* \"#utility.yul\":508:513   */\n      dup2\n        /* \"#utility.yul\":490:514   */\n      tag_32\n      jump\t// in\n    tag_60:\n        /* \"#utility.yul\":483:488   */\n      dup2\n        /* \"#utility.yul\":480:515   */\n      eq\n        /* \"#utility.yul\":470:533   */\n      tag_61\n      jumpi\n        /* \"#utility.yul\":529:530   */\n      0x00\n        /* \"#utility.yul\":526:527   */\n      dup1\n        /* \"#utility.yul\":519:531   */\n      revert\n        /* \"#utility.yul\":470:533   */\n    tag_61:\n        /* \"#utility.yul\":417:539   */\n      pop\n      jump\t// out\n        /* \"#utility.yul\":545:684   */\n    tag_34:\n        /* \"#utility.yul\":591:596   */\n      0x00\n        /* \"#utility.yul\":629:635   */\n      dup2\n        /* \"#utility.yul\":616:636   */\n      calldataload\n        /* \"#utility.yul\":607:636   */\n      swap1\n      pop\n        /* \"#utility.yul\":645:678   */\n      tag_63\n        /* \"#utility.yul\":672:677   */\n      dup2\n        /* \"#utility.yul\":645:678   */\n      tag_33\n      jump\t// in\n    tag_63:\n        /* \"#utility.yul\":545:684   */\n      swap3\n      swap2\n      pop\n      pop\n      jump\t// out\n        /* \"#utility.yul\":690:1019   */\n    tag_8:\n        /* \"#utility.yul\":749:755   */\n      0x00\n        /* \"#utility.yul\":798:800   */\n      0x20\n        /* \"#utility.yul\":786:795   */\n      dup3\n        /* \"#utility.yul\":777:784   */\n      dup5\n        /* \"#utility.yul\":773:796   */\n      sub\n        /* \"#utility.yul\":769:801   */\n      slt\n        /* \"#utility.yul\":766:885   */\n      iszero\n      tag_65\n      jumpi\n        /* \"#utility.yul\":804:883   */\n      tag_66\n      tag_30\n      jump\t// in\n    tag_66:\n        /* \"#utility.yul\":766:885   */\n    tag_65:\n        /* \"#utility.yul\":924:925   */\n      0x00\n        /* \"#utility.yul\":949:1002   */\n      tag_67\n        /* \"#utility.yul\":994:1001   */\n      dup5\n        /* \"#utility.yul\":985:991   */\n      dup3\n        /* \"#utility.yul\":974:983   */\n      dup6\n        /* \"#utility.yul\":970:992   */\n      add\n        /* \"#utility.yul\":949:1002   */\n      tag_34\n      jump\t// in\n    tag_67:\n        /* \"#utility.yul\":939:1002   */\n      swap2\n      pop\n        /* \"#utility.yul\":895:1012   */\n      pop\n        /* \"#utility.yul\":690:1019   */\n      swap3\n      swap2\n      pop\n      pop\n      jump\t// out\n        /* \"#utility.yul\":1025:1102   */\n    tag_35:\n        /* \"#utility.yul\":1062:1069   */\n      0x00\n        /* \"#utility.yul\":1091:1096   */\n      dup2\n        /* \"#utility.yul\":1080:1096   */\n      swap1\n      pop\n        /* \"#utility.yul\":1025:1102   */\n      swap2\n      swap1\n      pop\n      jump\t// out\n        /* \"#utility.yul\":1108:1226   */\n    tag_36:\n        /* \"#utility.yul\":1195:1219   */\n      tag_70\n        /* \"#utility.yul\":1213:1218   */\n      dup2\n        /* \"#utility.yul\":1195:1219   */\n      tag_35\n      jump\t// in\n    tag_70:\n        /* \"#utility.yul\":1190:1193   */\n      dup3\n        /* \"#utility.yul\":1183:1220   */\n      mstore\n        /* \"#utility.yul\":1108:1226   */\n      pop\n      pop\n      jump\t// out\n        /* \"#utility.yul\":1232:1454   */\n    tag_11:\n        /* \"#utility.yul\":1325:1329   */\n      0x00\n        /* \"#utility.yul\":1363:1365   */\n      0x20\n        /* \"#utility.yul\":1352:1361   */\n      dup3\n        /* \"#utility.yul\":1348:1366   */\n      add\n        /* \"#utility.yul\":1340:1366   */\n      swap1\n      pop\n        /* \"#utility.yul\":1376:1447   */\n      tag_72\n        /* \"#utility.yul\":1444:1445   */\n      0x00\n        /* \"#utility.yul\":1433:1442   */\n      dup4\n        /* \"#utility.yul\":1429:1446   */\n      add\n        /* \"#utility.yul\":1420:1426   */\n      dup5\n        /* \"#utility.yul\":1376:1447   */\n      tag_36\n      jump\t// in\n    tag_72:\n        /* \"#utility.yul\":1232:1454   */\n      swap3\n      swap2\n      pop\n      pop\n      jump\t// out\n        /* \"#utility.yul\":1460:1577   */\n    tag_37:\n        /* \"#utility.yul\":1569:1570   */\n      0x00\n        /* \"#utility.yul\":1566:1567   */\n      dup1\n        /* \"#utility.yul\":1559:1571   */\n      revert\n        /* \"#utility.yul\":1583:1700   */\n    tag_38:\n        /* \"#utility.yul\":1692:1693   */\n      0x00\n        /* \"#utility.yul\":1689:1690   */\n      dup1\n        /* \"#utility.yul\":1682:1694   */\n      revert\n        /* \"#utility.yul\":1706:1808   */\n    tag_39:\n        /* \"#utility.yul\":1747:1753   */\n      0x00\n        /* \"#utility.yul\":1798:1800   */\n      0x1f\n        /* \"#utility.yul\":1794:1801   */\n      not\n        /* \"#utility.yul\":1789:1791   */\n      0x1f\n        /* \"#utility.yul\":1782:1787   */\n      dup4\n        /* \"#utility.yul\":1778:1792   */\n      add\n        /* \"#utility.yul\":1774:1802   */\n      and\n        /* \"#utility.yul\":1764:1802   */\n      swap1\n      pop\n        /* \"#utility.yul\":1706:1808   */\n      swap2\n      swap1\n      pop\n      jump\t// out\n        /* \"#utility.yul\":1814:1994   */\n    tag_40:\n        /* \"#utility.yul\":1862:1939   */\n      0x4e487b7100000000000000000000000000000000000000000000000000000000\n        /* \"#utility.yul\":1859:1860   */\n      0x00\n        /* \"#utility.yul\":1852:1940   */\n      mstore\n        /* \"#utility.yul\":1959:1963   */\n      0x41\n        /* \"#utility.yul\":1956:1957   */\n      0x04\n        /* \"#utility.yul\":1949:1964   */\n      mstore\n        /* \"#utility.yul\":1983:1987   */\n      0x24\n        /* \"#utility.yul\":1980:1981   */\n      0x00\n        /* \"#utility.yul\":1973:1988   */\n      revert\n        /* \"#utility.yul\":2000:2281   */\n    tag_41:\n        /* \"#utility.yul\":2083:2110   */\n      tag_78\n        /* \"#utility.yul\":2105:2109   */\n      dup3\n        /* \"#utility.yul\":2083:2110   */\n      tag_39\n      jump\t// in\n    tag_78:\n        /* \"#utility.yul\":2075:2081   */\n      dup2\n        /* \"#utility.yul\":2071:2111   */\n      add\n        /* \"#utility.yul\":2213:2219   */\n      dup2\n        /* \"#utility.yul\":2201:2211   */\n      dup2\n        /* \"#utility.yul\":2198:2220   */\n      lt\n        /* \"#utility.yul\":2177:2195   */\n      0xffffffffffffffff\n        /* \"#utility.yul\":2165:2175   */\n      dup3\n        /* \"#utility.yul\":2162:2196   */\n      gt\n        /* \"#utility.yul\":2159:2221   */\n      or\n        /* \"#utility.yul\":2156:2244   */\n      iszero\n      tag_79\n      jumpi\n        /* \"#utility.yul\":2224:2242   */\n      tag_80\n      tag_40\n      jump\t// in\n    tag_80:\n        /* \"#utility.yul\":2156:2244   */\n    tag_79:\n        /* \"#utility.yul\":2264:2274   */\n      dup1\n        /* \"#utility.yul\":2260:2262   */\n      0x40\n        /* \"#utility.yul\":2253:2275   */\n      mstore\n        /* \"#utility.yul\":2043:2281   */\n      pop\n        /* \"#utility.yul\":2000:2281   */\n      pop\n      pop\n      jump\t// out\n        /* \"#utility.yul\":2287:2416   */\n    tag_42:\n        /* \"#utility.yul\":2321:2327   */\n      0x00\n        /* \"#utility.yul\":2348:2368   */\n      tag_82\n      tag_29\n      jump\t// in\n    tag_82:\n        /* \"#utility.yul\":2338:2368   */\n      swap1\n      pop\n        /* \"#utility.yul\":2377:2410   */\n      tag_83\n        /* \"#utility.yul\":2405:2409   */\n      dup3\n        /* \"#utility.yul\":2397:2403   */\n      dup3\n        /* \"#utility.yul\":2377:2410   */\n      tag_41\n      jump\t// in\n    tag_83:\n        /* \"#utility.yul\":2287:2416   */\n      swap2\n      swap1\n      pop\n      jump\t// out\n        /* \"#utility.yul\":2422:2730   */\n    tag_43:\n        /* \"#utility.yul\":2484:2488   */\n      0x00\n        /* \"#utility.yul\":2574:2592   */\n      0xffffffffffffffff\n        /* \"#utility.yul\":2566:2572   */\n      dup3\n        /* \"#utility.yul\":2563:2593   */\n      gt\n        /* \"#utility.yul\":2560:2616   */\n      iszero\n      tag_85\n      jumpi\n        /* \"#utility.yul\":2596:2614   */\n      tag_86\n      tag_40\n      jump\t// in\n    tag_86:\n        /* \"#utility.yul\":2560:2616   */\n    tag_85:\n        /* \"#utility.yul\":2634:2663   */\n      tag_87\n        /* \"#utility.yul\":2656:2662   */\n      dup3\n        /* \"#utility.yul\":2634:2663   */\n      tag_39\n      jump\t// in\n    tag_87:\n        /* \"#utility.yul\":2626:2663   */\n      swap1\n      pop\n        /* \"#utility.yul\":2718:2722   */\n      0x20\n        /* \"#utility.yul\":2712:2716   */\n      dup2\n        /* \"#utility.yul\":2708:2723   */\n      add\n        /* \"#utility.yul\":2700:2723   */\n      swap1\n      pop\n        /* \"#utility.yul\":2422:2730   */\n      swap2\n      swap1\n      pop\n      jump\t// out\n        /* \"#utility.yul\":2736:2882   */\n    tag_44:\n        /* \"#utility.yul\":2833:2839   */\n      dup3\n        /* \"#utility.yul\":2828:2831   */\n      dup2\n        /* \"#utility.yul\":2823:2826   */\n      dup4\n        /* \"#utility.yul\":2810:2840   */\n      calldatacopy\n        /* \"#utility.yul\":2874:2875   */\n      0x00\n        /* \"#utility.yul\":2865:2871   */\n      dup4\n        /* \"#utility.yul\":2860:2863   */\n      dup4\n        /* \"#utility.yul\":2856:2872   */\n      add\n        /* \"#utility.yul\":2849:2876   */\n      mstore\n        /* \"#utility.yul\":2736:2882   */\n      pop\n      pop\n      pop\n      jump\t// out\n        /* \"#utility.yul\":2888:3313   */\n    tag_45:\n        /* \"#utility.yul\":2966:2971   */\n      0x00\n        /* \"#utility.yul\":2991:3057   */\n      tag_90\n        /* \"#utility.yul\":3007:3056   */\n      tag_91\n        /* \"#utility.yul\":3049:3055   */\n      dup5\n        /* \"#utility.yul\":3007:3056   */\n      tag_43\n      jump\t// in\n    tag_91:\n        /* \"#utility.yul\":2991:3057   */\n      tag_42\n      jump\t// in\n    tag_90:\n        /* \"#utility.yul\":2982:3057   */\n      swap1\n      pop\n        /* \"#utility.yul\":3080:3086   */\n      dup3\n        /* \"#utility.yul\":3073:3078   */\n      dup2\n        /* \"#utility.yul\":3066:3087   */\n      mstore\n        /* \"#utility.yul\":3118:3122   */\n      0x20\n        /* \"#utility.yul\":3111:3116   */\n      dup2\n        /* \"#utility.yul\":3107:3123   */\n      add\n        /* \"#utility.yul\":3156:3159   */\n      dup5\n        /* \"#utility.yul\":3147:3153   */\n      dup5\n        /* \"#utility.yul\":3142:3145   */\n      dup5\n        /* \"#utility.yul\":3138:3154   */\n      add\n        /* \"#utility.yul\":3135:3160   */\n      gt\n        /* \"#utility.yul\":3132:3244   */\n      iszero\n      tag_92\n      jumpi\n        /* \"#utility.yul\":3163:3242   */\n      tag_93\n      tag_38\n      jump\t// in\n    tag_93:\n        /* \"#utility.yul\":3132:3244   */\n    tag_92:\n        /* \"#utility.yul\":3253:3307   */\n      tag_94\n        /* \"#utility.yul\":3300:3306   */\n      dup5\n        /* \"#utility.yul\":3295:3298   */\n      dup3\n        /* \"#utility.yul\":3290:3293   */\n      dup6\n        /* \"#utility.yul\":3253:3307   */\n      tag_44\n      jump\t// in\n    tag_94:\n        /* \"#utility.yul\":2972:3313   */\n      pop\n        /* \"#utility.yul\":2888:3313   */\n      swap4\n      swap3\n      pop\n      pop\n      pop\n      jump\t// out\n        /* \"#utility.yul\":3333:3673   */\n    tag_46:\n        /* \"#utility.yul\":3389:3394   */\n      0x00\n        /* \"#utility.yul\":3438:3441   */\n      dup3\n        /* \"#utility.yul\":3431:3435   */\n      0x1f\n        /* \"#utility.yul\":3423:3429   */\n      dup4\n        /* \"#utility.yul\":3419:3436   */\n      add\n        /* \"#utility.yul\":3415:3442   */\n      slt\n        /* \"#utility.yul\":3405:3527   */\n      tag_96\n      jumpi\n        /* \"#utility.yul\":3446:3525   */\n      tag_97\n      tag_37\n      jump\t// in\n    tag_97:\n        /* \"#utility.yul\":3405:3527   */\n    tag_96:\n        /* \"#utility.yul\":3563:3569   */\n      dup2\n        /* \"#utility.yul\":3550:3570   */\n      calldataload\n        /* \"#utility.yul\":3588:3667   */\n      tag_98\n        /* \"#utility.yul\":3663:3666   */\n      dup5\n        /* \"#utility.yul\":3655:3661   */\n      dup3\n        /* \"#utility.yul\":3648:3652   */\n      0x20\n        /* \"#utility.yul\":3640:3646   */\n      dup7\n        /* \"#utility.yul\":3636:3653   */\n      add\n        /* \"#utility.yul\":3588:3667   */\n      tag_45\n      jump\t// in\n    tag_98:\n        /* \"#utility.yul\":3579:3667   */\n      swap2\n      pop\n        /* \"#utility.yul\":3395:3673   */\n      pop\n        /* \"#utility.yul\":3333:3673   */\n      swap3\n      swap2\n      pop\n      pop\n      jump\t// out\n        /* \"#utility.yul\":3679:4188   */\n    tag_14:\n        /* \"#utility.yul\":3748:3754   */\n      0x00\n        /* \"#utility.yul\":3797:3799   */\n      0x20\n        /* \"#utility.yul\":3785:3794   */\n      dup3\n        /* \"#utility.yul\":3776:3783   */\n      dup5\n        /* \"#utility.yul\":3772:3795   */\n      sub\n        /* \"#utility.yul\":3768:3800   */\n      slt\n        /* \"#utility.yul\":3765:3884   */\n      iszero\n      tag_100\n      jumpi\n        /* \"#utility.yul\":3803:3882   */\n      tag_101\n      tag_30\n      jump\t// in\n    tag_101:\n        /* \"#utility.yul\":3765:3884   */\n    tag_100:\n        /* \"#utility.yul\":3951:3952   */\n      0x00\n        /* \"#utility.yul\":3940:3949   */\n      dup3\n        /* \"#utility.yul\":3936:3953   */\n      add\n        /* \"#utility.yul\":3923:3954   */\n      calldataload\n        /* \"#utility.yul\":3981:3999   */\n      0xffffffffffffffff\n        /* \"#utility.yul\":3973:3979   */\n      dup2\n        /* \"#utility.yul\":3970:4000   */\n      gt\n        /* \"#utility.yul\":3967:4084   */\n      iszero\n      tag_102\n      jumpi\n        /* \"#utility.yul\":4003:4082   */\n      tag_103\n      tag_31\n      jump\t// in\n    tag_103:\n        /* \"#utility.yul\":3967:4084   */\n    tag_102:\n        /* \"#utility.yul\":4108:4171   */\n      tag_104\n        /* \"#utility.yul\":4163:4170   */\n      dup5\n        /* \"#utility.yul\":4154:4160   */\n      dup3\n        /* \"#utility.yul\":4143:4152   */\n      dup6\n        /* \"#utility.yul\":4139:4161   */\n      add\n        /* \"#utility.yul\":4108:4171   */\n      tag_46\n      jump\t// in\n    tag_104:\n        /* \"#utility.yul\":4098:4171   */\n      swap2\n      pop\n        /* \"#utility.yul\":3894:4181   */\n      pop\n        /* \"#utility.yul\":3679:4188   */\n      swap3\n      swap2\n      pop\n      pop\n      jump\t// out\n        /* \"#utility.yul\":4194:4292   */\n    tag_47:\n        /* \"#utility.yul\":4245:4251   */\n      0x00\n        /* \"#utility.yul\":4279:4284   */\n      dup2\n        /* \"#utility.yul\":4273:4285   */\n      mload\n        /* \"#utility.yul\":4263:4285   */\n      swap1\n      pop\n        /* \"#utility.yul\":4194:4292   */\n      swap2\n      swap1\n      pop\n      jump\t// out\n        /* \"#utility.yul\":4298:4466   */\n    tag_48:\n        /* \"#utility.yul\":4381:4392   */\n      0x00\n        /* \"#utility.yul\":4415:4421   */\n      dup3\n        /* \"#utility.yul\":4410:4413   */\n      dup3\n        /* \"#utility.yul\":4403:4422   */\n      mstore\n        /* \"#utility.yul\":4455:4459   */\n      0x20\n        /* \"#utility.yul\":4450:4453   */\n      dup3\n        /* \"#utility.yul\":4446:4460   */\n      add\n        /* \"#utility.yul\":4431:4460   */\n      swap1\n      pop\n        /* \"#utility.yul\":4298:4466   */\n      swap3\n      swap2\n      pop\n      pop\n      jump\t// out\n        /* \"#utility.yul\":4472:4718   */\n    tag_49:\n        /* \"#utility.yul\":4553:4554   */\n      0x00\n        /* \"#utility.yul\":4563:4676   */\n    tag_108:\n        /* \"#utility.yul\":4577:4583   */\n      dup4\n        /* \"#utility.yul\":4574:4575   */\n      dup2\n        /* \"#utility.yul\":4571:4584   */\n      lt\n        /* \"#utility.yul\":4563:4676   */\n      iszero\n      tag_110\n      jumpi\n        /* \"#utility.yul\":4662:4663   */\n      dup1\n        /* \"#utility.yul\":4657:4660   */\n      dup3\n        /* \"#utility.yul\":4653:4664   */\n      add\n        /* \"#utility.yul\":4647:4665   */\n      mload\n        /* \"#utility.yul\":4643:4644   */\n      dup2\n        /* \"#utility.yul\":4638:4641   */\n      dup5\n        /* \"#utility.yul\":4634:4645   */\n      add\n        /* \"#utility.yul\":4627:4666   */\n      mstore\n        /* \"#utility.yul\":4599:4601   */\n      0x20\n        /* \"#utility.yul\":4596:4597   */\n      dup2\n        /* \"#utility.yul\":4592:4602   */\n      add\n        /* \"#utility.yul\":4587:4602   */\n      swap1\n      pop\n        /* \"#utility.yul\":4563:4676   */\n      jump(tag_108)\n    tag_110:\n        /* \"#utility.yul\":4710:4711   */\n      0x00\n        /* \"#utility.yul\":4701:4707   */\n      dup5\n        /* \"#utility.yul\":4696:4699   */\n      dup5\n        /* \"#utility.yul\":4692:4708   */\n      add\n        /* \"#utility.yul\":4685:4712   */\n      mstore\n        /* \"#utility.yul\":4534:4718   */\n      pop\n        /* \"#utility.yul\":4472:4718   */\n      pop\n      pop\n      pop\n      jump\t// out\n        /* \"#utility.yul\":4724:5097   */\n    tag_50:\n        /* \"#utility.yul\":4810:4813   */\n      0x00\n        /* \"#utility.yul\":4838:4876   */\n      tag_112\n        /* \"#utility.yul\":4870:4875   */\n      dup3\n        /* \"#utility.yul\":4838:4876   */\n      tag_47\n      jump\t// in\n    tag_112:\n        /* \"#utility.yul\":4892:4962   */\n      tag_113\n        /* \"#utility.yul\":4955:4961   */\n      dup2\n        /* \"#utility.yul\":4950:4953   */\n      dup6\n        /* \"#utility.yul\":4892:4962   */\n      tag_48\n      jump\t// in\n    tag_113:\n        /* \"#utility.yul\":4885:4962   */\n      swap4\n      pop\n        /* \"#utility.yul\":4971:5036   */\n      tag_114\n        /* \"#utility.yul\":5029:5035   */\n      dup2\n        /* \"#utility.yul\":5024:5027   */\n      dup6\n        /* \"#utility.yul\":5017:5021   */\n      0x20\n        /* \"#utility.yul\":5010:5015   */\n      dup7\n        /* \"#utility.yul\":5006:5022   */\n      add\n        /* \"#utility.yul\":4971:5036   */\n      tag_49\n      jump\t// in\n    tag_114:\n        /* \"#utility.yul\":5061:5090   */\n      tag_115\n        /* \"#utility.yul\":5083:5089   */\n      dup2\n        /* \"#utility.yul\":5061:5090   */\n      tag_39\n      jump\t// in\n    tag_115:\n        /* \"#utility.yul\":5056:5059   */\n      dup5\n        /* \"#utility.yul\":5052:5091   */\n      add\n        /* \"#utility.yul\":5045:5091   */\n      swap2\n      pop\n        /* \"#utility.yul\":4814:5097   */\n      pop\n        /* \"#utility.yul\":4724:5097   */\n      swap3\n      swap2\n      pop\n      pop\n      jump\t// out\n        /* \"#utility.yul\":5103:5412   */\n    tag_21:\n        /* \"#utility.yul\":5214:5218   */\n      0x00\n        /* \"#utility.yul\":5252:5254   */\n      0x20\n        /* \"#utility.yul\":5241:5250   */\n      dup3\n        /* \"#utility.yul\":5237:5255   */\n      add\n        /* \"#utility.yul\":5229:5255   */\n      swap1\n      pop\n        /* \"#utility.yul\":5301:5310   */\n      dup2\n        /* \"#utility.yul\":5295:5299   */\n      dup2\n        /* \"#utility.yul\":5291:5311   */\n      sub\n        /* \"#utility.yul\":5287:5288   */\n      0x00\n        /* \"#utility.yul\":5276:5285   */\n      dup4\n        /* \"#utility.yul\":5272:5289   */\n      add\n        /* \"#utility.yul\":5265:5312   */\n      mstore\n        /* \"#utility.yul\":5329:5405   */\n      tag_117\n        /* \"#utility.yul\":5400:5404   */\n      dup2\n        /* \"#utility.yul\":5391:5397   */\n      dup5\n        /* \"#utility.yul\":5329:5405   */\n      tag_50\n      jump\t// in\n    tag_117:\n        /* \"#utility.yul\":5321:5405   */\n      swap1\n      pop\n        /* \"#utility.yul\":5103:5412   */\n      swap3\n      swap2\n      pop\n      pop\n      jump\t// out\n        /* \"#utility.yul\":5418:5517   */\n    tag_51:\n        /* \"#utility.yul\":5470:5476   */\n      0x00\n        /* \"#utility.yul\":5504:5509   */\n      dup2\n        /* \"#utility.yul\":5498:5510   */\n      mload\n        /* \"#utility.yul\":5488:5510   */\n      swap1\n      pop\n        /* \"#utility.yul\":5418:5517   */\n      swap2\n      swap1\n      pop\n      jump\t// out\n        /* \"#utility.yul\":5523:5671   */\n    tag_52:\n        /* \"#utility.yul\":5625:5636   */\n      0x00\n        /* \"#utility.yul\":5662:5665   */\n      dup2\n        /* \"#utility.yul\":5647:5665   */\n      swap1\n      pop\n        /* \"#utility.yul\":5523:5671   */\n      swap3\n      swap2\n      pop\n      pop\n      jump\t// out\n        /* \"#utility.yul\":5677:6067   */\n    tag_53:\n        /* \"#utility.yul\":5783:5786   */\n      0x00\n        /* \"#utility.yul\":5811:5850   */\n      tag_121\n        /* \"#utility.yul\":5844:5849   */\n      dup3\n        /* \"#utility.yul\":5811:5850   */\n      tag_51\n      jump\t// in\n    tag_121:\n        /* \"#utility.yul\":5866:5955   */\n      tag_122\n        /* \"#utility.yul\":5948:5954   */\n      dup2\n        /* \"#utility.yul\":5943:5946   */\n      dup6\n        /* \"#utility.yul\":5866:5955   */\n      tag_52\n      jump\t// in\n    tag_122:\n        /* \"#utility.yul\":5859:5955   */\n      swap4\n      pop\n        /* \"#utility.yul\":5964:6029   */\n      tag_123\n        /* \"#utility.yul\":6022:6028   */\n      dup2\n        /* \"#utility.yul\":6017:6020   */\n      dup6\n        /* \"#utility.yul\":6010:6014   */\n      0x20\n        /* \"#utility.yul\":6003:6008   */\n      dup7\n        /* \"#utility.yul\":5999:6015   */\n      add\n        /* \"#utility.yul\":5964:6029   */\n      tag_49\n      jump\t// in\n    tag_123:\n        /* \"#utility.yul\":6054:6060   */\n      dup1\n        /* \"#utility.yul\":6049:6052   */\n      dup5\n        /* \"#utility.yul\":6045:6061   */\n      add\n        /* \"#utility.yul\":6038:6061   */\n      swap2\n      pop\n        /* \"#utility.yul\":5787:6067   */\n      pop\n        /* \"#utility.yul\":5677:6067   */\n      swap3\n      swap2\n      pop\n      pop\n      jump\t// out\n        /* \"#utility.yul\":6073:6348   */\n    tag_28:\n        /* \"#utility.yul\":6205:6208   */\n      0x00\n        /* \"#utility.yul\":6227:6322   */\n      tag_125\n        /* \"#utility.yul\":6318:6321   */\n      dup3\n        /* \"#utility.yul\":6309:6315   */\n      dup5\n        /* \"#utility.yul\":6227:6322   */\n      tag_53\n      jump\t// in\n    tag_125:\n        /* \"#utility.yul\":6220:6322   */\n      swap2\n      pop\n        /* \"#utility.yul\":6339:6342   */\n      dup2\n        /* \"#utility.yul\":6332:6342   */\n      swap1\n      pop\n        /* \"#utility.yul\":6073:6348   */\n      swap3\n      swap2\n      pop\n      pop\n      jump\t// out\n\n    auxdata: 0xa2646970667358221220030f17a786b7a8ab76b56678c2469797acae52e8b4ec39d36ebab9211993a00364736f6c63430008110033\n}\n",
				"bytecode": {
					"linkReferences": {},
					"object": "608060405260405180608001604052806040518060400160405280601581526020017f5458313a20536865726c6f636b202d3e204a6f686e000000000000000000000081525081526020016040518060400160405280601581526020017f5458323a204a6f686e202d3e20536865726c6f636b000000000000000000000081525081526020016040518060400160405280601181526020017f5458333a204a6f686e202d3e204d61727900000000000000000000000000000081525081526020016040518060400160405280601581526020017f5458343a204d617279202d3e20536865726c6f636b000000000000000000000081525081525060019060046200010b9291906200029a565b503480156200011957600080fd5b5060005b60048110156200021e576000620001e2600183600481106200014457620001436200037a565b5b0180546200015290620003d8565b80601f01602080910402602001604051908101604052809291908181526020018280546200018090620003d8565b8015620001d15780601f10620001a557610100808354040283529160200191620001d1565b820191906000526020600020905b815481529060010190602001808311620001b357829003601f168201915b50505050506200024e60201b60201c565b90806001815401808255809150506001900390600052602060002001600090919091909150558080620002159062000446565b9150506200011d565b506000600490505b600081111562000247576002816200023f9190620004c2565b905062000226565b5062000874565b600062000261826200026f60201b60201c565b805190602001209050919050565b60608160405160200162000284919062000573565b6040516020818303038152906040529050919050565b8260048101928215620002da579160200282015b82811115620002d9578251829081620002c891906200078d565b5091602001919060010190620002ae565b5b509050620002e99190620002ed565b5090565b5b8082111562000311576000818162000307919062000315565b50600101620002ee565b5090565b5080546200032390620003d8565b6000825580601f1062000337575062000358565b601f0160209004906000526020600020908101906200035791906200035b565b5b50565b5b80821115620003765760008160009055506001016200035c565b5090565b7f4e487b7100000000000000000000000000000000000000000000000000000000600052603260045260246000fd5b7f4e487b7100000000000000000000000000000000000000000000000000000000600052602260045260246000fd5b60006002820490506001821680620003f157607f821691505b602082108103620004075762000406620003a9565b5b50919050565b7f4e487b7100000000000000000000000000000000000000000000000000000000600052601160045260246000fd5b6000819050919050565b600062000453826200043c565b91507fffffffffffffffffffffffffffffffffffffffffffffffffffffffffffffffff82036200048857620004876200040d565b5b600182019050919050565b7f4e487b7100000000000000000000000000000000000000000000000000000000600052601260045260246000fd5b6000620004cf826200043c565b9150620004dc836200043c565b925082620004ef57620004ee62000493565b5b828204905092915050565b600081519050919050565b600081905092915050565b60005b838110156200053057808201518184015260208101905062000513565b60008484015250505050565b60006200054982620004fa565b62000555818562000505565b93506200056781856020860162000510565b80840191505092915050565b60006200058182846200053c565b915081905092915050565b7f4e487b7100000000000000000000000000000000000000000000000000000000600052604160045260246000fd5b60008190508160005260206000209050919050565b60006020601f8301049050919050565b600082821b905092915050565b6000600883026200061f7fffffffffffffffffffffffffffffffffffffffffffffffffffffffffffffffff82620005e0565b6200062b8683620005e0565b95508019841693508086168417925050509392505050565b6000819050919050565b60006200066e6200066862000662846200043c565b62000643565b6200043c565b9050919050565b6000819050919050565b6200068a836200064d565b620006a2620006998262000675565b848454620005ed565b825550505050565b600090565b620006b9620006aa565b620006c68184846200067f565b505050565b5b81811015620006ee57620006e2600082620006af565b600181019050620006cc565b5050565b601f8211156200073d576200070781620005bb565b6200071284620005d0565b8101602085101562000722578190505b6200073a6200073185620005d0565b830182620006cb565b50505b505050565b600082821c905092915050565b6000620007626000198460080262000742565b1980831691505092915050565b60006200077d83836200074f565b9150826002028217905092915050565b6200079882620004fa565b67ffffffffffffffff811115620007b457620007b36200058c565b5b620007c08254620003d8565b620007cd828285620006f2565b600060209050601f831160018114620008055760008415620007f0578287015190505b620007fc85826200076f565b8655506200086c565b601f1984166200081586620005bb565b60005b828110156200083f5784890151825560018201915060208501945060208101905062000818565b868310156200085f57848901516200085b601f8916826200074f565b8355505b6001600288020188555050505b505050505050565b6104ab80620008846000396000f3fe608060405234801561001057600080fd5b50600436106100415760003560e01c8063501895ae1461004657806352de70af146100765780636a11b2a8146100a6575b600080fd5b610060600480360381019061005b9190610186565b6100d6565b60405161006d91906101cc565b60405180910390f35b610090600480360381019061008b919061032d565b6100fa565b60405161009d91906101cc565b60405180910390f35b6100c060048036038101906100bb919061032d565b610113565b6040516100cd91906103f5565b60405180910390f35b600081815481106100e657600080fd5b906000526020600020016000915090505481565b600061010582610113565b805190602001209050919050565b606081604051602001610126919061045e565b6040516020818303038152906040529050919050565b6000604051905090565b600080fd5b600080fd5b6000819050919050565b61016381610150565b811461016e57600080fd5b50565b6000813590506101808161015a565b92915050565b60006020828403121561019c5761019b610146565b5b60006101aa84828501610171565b91505092915050565b6000819050919050565b6101c6816101b3565b82525050565b60006020820190506101e160008301846101bd565b92915050565b600080fd5b600080fd5b6000601f19601f8301169050919050565b7f4e487b7100000000000000000000000000000000000000000000000000000000600052604160045260246000fd5b61023a826101f1565b810181811067ffffffffffffffff8211171561025957610258610202565b5b80604052505050565b600061026c61013c565b90506102788282610231565b919050565b600067ffffffffffffffff82111561029857610297610202565b5b6102a1826101f1565b9050602081019050919050565b82818337600083830152505050565b60006102d06102cb8461027d565b610262565b9050828152602081018484840111156102ec576102eb6101ec565b5b6102f78482856102ae565b509392505050565b600082601f830112610314576103136101e7565b5b81356103248482602086016102bd565b91505092915050565b60006020828403121561034357610342610146565b5b600082013567ffffffffffffffff8111156103615761036061014b565b5b61036d848285016102ff565b91505092915050565b600081519050919050565b600082825260208201905092915050565b60005b838110156103b0578082015181840152602081019050610395565b60008484015250505050565b60006103c782610376565b6103d18185610381565b93506103e1818560208601610392565b6103ea816101f1565b840191505092915050565b6000602082019050818103600083015261040f81846103bc565b905092915050565b600081519050919050565b600081905092915050565b600061043882610417565b6104428185610422565b9350610452818560208601610392565b80840191505092915050565b600061046a828461042d565b91508190509291505056fea2646970667358221220030f17a786b7a8ab76b56678c2469797acae52e8b4ec39d36ebab9211993a00364736f6c63430008110033",
					"opcodes": "PUSH1 0x80 PUSH1 0x40 MSTORE PUSH1 0x40 MLOAD DUP1 PUSH1 0x80 ADD PUSH1 0x40 MSTORE DUP1 PUSH1 0x40 MLOAD DUP1 PUSH1 0x40 ADD PUSH1 0x40 MSTORE DUP1 PUSH1 0x15 DUP2 MSTORE PUSH1 0x20 ADD PUSH32 0x5458313A20536865726C6F636B202D3E204A6F686E0000000000000000000000 DUP2 MSTORE POP DUP2 MSTORE PUSH1 0x20 ADD PUSH1 0x40 MLOAD DUP1 PUSH1 0x40 ADD PUSH1 0x40 MSTORE DUP1 PUSH1 0x15 DUP2 MSTORE PUSH1 0x20 ADD PUSH32 0x5458323A204A6F686E202D3E20536865726C6F636B0000000000000000000000 DUP2 MSTORE POP DUP2 MSTORE PUSH1 0x20 ADD PUSH1 0x40 MLOAD DUP1 PUSH1 0x40 ADD PUSH1 0x40 MSTORE DUP1 PUSH1 0x11 DUP2 MSTORE PUSH1 0x20 ADD PUSH32 0x5458333A204A6F686E202D3E204D617279000000000000000000000000000000 DUP2 MSTORE POP DUP2 MSTORE PUSH1 0x20 ADD PUSH1 0x40 MLOAD DUP1 PUSH1 0x40 ADD PUSH1 0x40 MSTORE DUP1 PUSH1 0x15 DUP2 MSTORE PUSH1 0x20 ADD PUSH32 0x5458343A204D617279202D3E20536865726C6F636B0000000000000000000000 DUP2 MSTORE POP DUP2 MSTORE POP PUSH1 0x1 SWAP1 PUSH1 0x4 PUSH3 0x10B SWAP3 SWAP2 SWAP1 PUSH3 0x29A JUMP JUMPDEST POP CALLVALUE DUP1 ISZERO PUSH3 0x119 JUMPI PUSH1 0x0 DUP1 REVERT JUMPDEST POP PUSH1 0x0 JUMPDEST PUSH1 0x4 DUP2 LT ISZERO PUSH3 0x21E JUMPI PUSH1 0x0 PUSH3 0x1E2 PUSH1 0x1 DUP4 PUSH1 0x4 DUP2 LT PUSH3 0x144 JUMPI PUSH3 0x143 PUSH3 0x37A JUMP JUMPDEST JUMPDEST ADD DUP1 SLOAD PUSH3 0x152 SWAP1 PUSH3 0x3D8 JUMP JUMPDEST DUP1 PUSH1 0x1F ADD PUSH1 0x20 DUP1 SWAP2 DIV MUL PUSH1 0x20 ADD PUSH1 0x40 MLOAD SWAP1 DUP2 ADD PUSH1 0x40 MSTORE DUP1 SWAP3 SWAP2 SWAP1 DUP2 DUP2 MSTORE PUSH1 0x20 ADD DUP3 DUP1 SLOAD PUSH3 0x180 SWAP1 PUSH3 0x3D8 JUMP JUMPDEST DUP1 ISZERO PUSH3 0x1D1 JUMPI DUP1 PUSH1 0x1F LT PUSH3 0x1A5 JUMPI PUSH2 0x100 DUP1 DUP4 SLOAD DIV MUL DUP4 MSTORE SWAP2 PUSH1 0x20 ADD SWAP2 PUSH3 0x1D1 JUMP JUMPDEST DUP3 ADD SWAP2 SWAP1 PUSH1 0x0 MSTORE PUSH1 0x20 PUSH1 0x0 KECCAK256 SWAP1 JUMPDEST DUP2 SLOAD DUP2 MSTORE SWAP1 PUSH1 0x1 ADD SWAP1 PUSH1 0x20 ADD DUP1 DUP4 GT PUSH3 0x1B3 JUMPI DUP3 SWAP1 SUB PUSH1 0x1F AND DUP3 ADD SWAP2 JUMPDEST POP POP POP POP POP PUSH3 0x24E PUSH1 0x20 SHL PUSH1 0x20 SHR JUMP JUMPDEST SWAP1 DUP1 PUSH1 0x1 DUP2 SLOAD ADD DUP1 DUP3 SSTORE DUP1 SWAP2 POP POP PUSH1 0x1 SWAP1 SUB SWAP1 PUSH1 0x0 MSTORE PUSH1 0x20 PUSH1 0x0 KECCAK256 ADD PUSH1 0x0 SWAP1 SWAP2 SWAP1 SWAP2 SWAP1 SWAP2 POP SSTORE DUP1 DUP1 PUSH3 0x215 SWAP1 PUSH3 0x446 JUMP JUMPDEST SWAP2 POP POP PUSH3 0x11D JUMP JUMPDEST POP PUSH1 0x0 PUSH1 0x4 SWAP1 POP JUMPDEST PUSH1 0x0 DUP2 GT ISZERO PUSH3 0x247 JUMPI PUSH1 0x2 DUP2 PUSH3 0x23F SWAP2 SWAP1 PUSH3 0x4C2 JUMP JUMPDEST SWAP1 POP PUSH3 0x226 JUMP JUMPDEST POP PUSH3 0x874 JUMP JUMPDEST PUSH1 0x0 PUSH3 0x261 DUP3 PUSH3 0x26F PUSH1 0x20 SHL PUSH1 0x20 SHR JUMP JUMPDEST DUP1 MLOAD SWAP1 PUSH1 0x20 ADD KECCAK256 SWAP1 POP SWAP2 SWAP1 POP JUMP JUMPDEST PUSH1 0x60 DUP2 PUSH1 0x40 MLOAD PUSH1 0x20 ADD PUSH3 0x284 SWAP2 SWAP1 PUSH3 0x573 JUMP JUMPDEST PUSH1 0x40 MLOAD PUSH1 0x20 DUP2 DUP4 SUB SUB DUP2 MSTORE SWAP1 PUSH1 0x40 MSTORE SWAP1 POP SWAP2 SWAP1 POP JUMP JUMPDEST DUP3 PUSH1 0x4 DUP2 ADD SWAP3 DUP3 ISZERO PUSH3 0x2DA JUMPI SWAP2 PUSH1 0x20 MUL DUP3 ADD JUMPDEST DUP3 DUP2 GT ISZERO PUSH3 0x2D9 JUMPI DUP3 MLOAD DUP3 SWAP1 DUP2 PUSH3 0x2C8 SWAP2 SWAP1 PUSH3 0x78D JUMP JUMPDEST POP SWAP2 PUSH1 0x20 ADD SWAP2 SWAP1 PUSH1 0x1 ADD SWAP1 PUSH3 0x2AE JUMP JUMPDEST JUMPDEST POP SWAP1 POP PUSH3 0x2E9 SWAP2 SWAP1 PUSH3 0x2ED JUMP JUMPDEST POP SWAP1 JUMP JUMPDEST JUMPDEST DUP1 DUP3 GT ISZERO PUSH3 0x311 JUMPI PUSH1 0x0 DUP2 DUP2 PUSH3 0x307 SWAP2 SWAP1 PUSH3 0x315 JUMP JUMPDEST POP PUSH1 0x1 ADD PUSH3 0x2EE JUMP JUMPDEST POP SWAP1 JUMP JUMPDEST POP DUP1 SLOAD PUSH3 0x323 SWAP1 PUSH3 0x3D8 JUMP JUMPDEST PUSH1 0x0 DUP3 SSTORE DUP1 PUSH1 0x1F LT PUSH3 0x337 JUMPI POP PUSH3 0x358 JUMP JUMPDEST PUSH1 0x1F ADD PUSH1 0x20 SWAP1 DIV SWAP1 PUSH1 0x0 MSTORE PUSH1 0x20 PUSH1 0x0 KECCAK256 SWAP1 DUP2 ADD SWAP1 PUSH3 0x357 SWAP2 SWAP1 PUSH3 0x35B JUMP JUMPDEST JUMPDEST POP JUMP JUMPDEST JUMPDEST DUP1 DUP3 GT ISZERO PUSH3 0x376 JUMPI PUSH1 0x0 DUP2 PUSH1 0x0 SWAP1 SSTORE POP PUSH1 0x1 ADD PUSH3 0x35C JUMP JUMPDEST POP SWAP1 JUMP JUMPDEST PUSH32 0x4E487B7100000000000000000000000000000000000000000000000000000000 PUSH1 0x0 MSTORE PUSH1 0x32 PUSH1 0x4 MSTORE PUSH1 0x24 PUSH1 0x0 REVERT JUMPDEST PUSH32 0x4E487B7100000000000000000000000000000000000000000000000000000000 PUSH1 0x0 MSTORE PUSH1 0x22 PUSH1 0x4 MSTORE PUSH1 0x24 PUSH1 0x0 REVERT JUMPDEST PUSH1 0x0 PUSH1 0x2 DUP3 DIV SWAP1 POP PUSH1 0x1 DUP3 AND DUP1 PUSH3 0x3F1 JUMPI PUSH1 0x7F DUP3 AND SWAP2 POP JUMPDEST PUSH1 0x20 DUP3 LT DUP2 SUB PUSH3 0x407 JUMPI PUSH3 0x406 PUSH3 0x3A9 JUMP JUMPDEST JUMPDEST POP SWAP2 SWAP1 POP JUMP JUMPDEST PUSH32 0x4E487B7100000000000000000000000000000000000000000000000000000000 PUSH1 0x0 MSTORE PUSH1 0x11 PUSH1 0x4 MSTORE PUSH1 0x24 PUSH1 0x0 REVERT JUMPDEST PUSH1 0x0 DUP2 SWAP1 POP SWAP2 SWAP1 POP JUMP JUMPDEST PUSH1 0x0 PUSH3 0x453 DUP3 PUSH3 0x43C JUMP JUMPDEST SWAP2 POP PUSH32 0xFFFFFFFFFFFFFFFFFFFFFFFFFFFFFFFFFFFFFFFFFFFFFFFFFFFFFFFFFFFFFFFF DUP3 SUB PUSH3 0x488 JUMPI PUSH3 0x487 PUSH3 0x40D JUMP JUMPDEST JUMPDEST PUSH1 0x1 DUP3 ADD SWAP1 POP SWAP2 SWAP1 POP JUMP JUMPDEST PUSH32 0x4E487B7100000000000000000000000000000000000000000000000000000000 PUSH1 0x0 MSTORE PUSH1 0x12 PUSH1 0x4 MSTORE PUSH1 0x24 PUSH1 0x0 REVERT JUMPDEST PUSH1 0x0 PUSH3 0x4CF DUP3 PUSH3 0x43C JUMP JUMPDEST SWAP2 POP PUSH3 0x4DC DUP4 PUSH3 0x43C JUMP JUMPDEST SWAP3 POP DUP3 PUSH3 0x4EF JUMPI PUSH3 0x4EE PUSH3 0x493 JUMP JUMPDEST JUMPDEST DUP3 DUP3 DIV SWAP1 POP SWAP3 SWAP2 POP POP JUMP JUMPDEST PUSH1 0x0 DUP2 MLOAD SWAP1 POP SWAP2 SWAP1 POP JUMP JUMPDEST PUSH1 0x0 DUP2 SWAP1 POP SWAP3 SWAP2 POP POP JUMP JUMPDEST PUSH1 0x0 JUMPDEST DUP4 DUP2 LT ISZERO PUSH3 0x530 JUMPI DUP1 DUP3 ADD MLOAD DUP2 DUP5 ADD MSTORE PUSH1 0x20 DUP2 ADD SWAP1 POP PUSH3 0x513 JUMP JUMPDEST PUSH1 0x0 DUP5 DUP5 ADD MSTORE POP POP POP POP JUMP JUMPDEST PUSH1 0x0 PUSH3 0x549 DUP3 PUSH3 0x4FA JUMP JUMPDEST PUSH3 0x555 DUP2 DUP6 PUSH3 0x505 JUMP JUMPDEST SWAP4 POP PUSH3 0x567 DUP2 DUP6 PUSH1 0x20 DUP7 ADD PUSH3 0x510 JUMP JUMPDEST DUP1 DUP5 ADD SWAP2 POP POP SWAP3 SWAP2 POP POP JUMP JUMPDEST PUSH1 0x0 PUSH3 0x581 DUP3 DUP5 PUSH3 0x53C JUMP JUMPDEST SWAP2 POP DUP2 SWAP1 POP SWAP3 SWAP2 POP POP JUMP JUMPDEST PUSH32 0x4E487B7100000000000000000000000000000000000000000000000000000000 PUSH1 0x0 MSTORE PUSH1 0x41 PUSH1 0x4 MSTORE PUSH1 0x24 PUSH1 0x0 REVERT JUMPDEST PUSH1 0x0 DUP2 SWAP1 POP DUP2 PUSH1 0x0 MSTORE PUSH1 0x20 PUSH1 0x0 KECCAK256 SWAP1 POP SWAP2 SWAP1 POP JUMP JUMPDEST PUSH1 0x0 PUSH1 0x20 PUSH1 0x1F DUP4 ADD DIV SWAP1 POP SWAP2 SWAP1 POP JUMP JUMPDEST PUSH1 0x0 DUP3 DUP3 SHL SWAP1 POP SWAP3 SWAP2 POP POP JUMP JUMPDEST PUSH1 0x0 PUSH1 0x8 DUP4 MUL PUSH3 0x61F PUSH32 0xFFFFFFFFFFFFFFFFFFFFFFFFFFFFFFFFFFFFFFFFFFFFFFFFFFFFFFFFFFFFFFFF DUP3 PUSH3 0x5E0 JUMP JUMPDEST PUSH3 0x62B DUP7 DUP4 PUSH3 0x5E0 JUMP JUMPDEST SWAP6 POP DUP1 NOT DUP5 AND SWAP4 POP DUP1 DUP7 AND DUP5 OR SWAP3 POP POP POP SWAP4 SWAP3 POP POP POP JUMP JUMPDEST PUSH1 0x0 DUP2 SWAP1 POP SWAP2 SWAP1 POP JUMP JUMPDEST PUSH1 0x0 PUSH3 0x66E PUSH3 0x668 PUSH3 0x662 DUP5 PUSH3 0x43C JUMP JUMPDEST PUSH3 0x643 JUMP JUMPDEST PUSH3 0x43C JUMP JUMPDEST SWAP1 POP SWAP2 SWAP1 POP JUMP JUMPDEST PUSH1 0x0 DUP2 SWAP1 POP SWAP2 SWAP1 POP JUMP JUMPDEST PUSH3 0x68A DUP4 PUSH3 0x64D JUMP JUMPDEST PUSH3 0x6A2 PUSH3 0x699 DUP3 PUSH3 0x675 JUMP JUMPDEST DUP5 DUP5 SLOAD PUSH3 0x5ED JUMP JUMPDEST DUP3 SSTORE POP POP POP POP JUMP JUMPDEST PUSH1 0x0 SWAP1 JUMP JUMPDEST PUSH3 0x6B9 PUSH3 0x6AA JUMP JUMPDEST PUSH3 0x6C6 DUP2 DUP5 DUP5 PUSH3 0x67F JUMP JUMPDEST POP POP POP JUMP JUMPDEST JUMPDEST DUP2 DUP2 LT ISZERO PUSH3 0x6EE JUMPI PUSH3 0x6E2 PUSH1 0x0 DUP3 PUSH3 0x6AF JUMP JUMPDEST PUSH1 0x1 DUP2 ADD SWAP1 POP PUSH3 0x6CC JUMP JUMPDEST POP POP JUMP JUMPDEST PUSH1 0x1F DUP3 GT ISZERO PUSH3 0x73D JUMPI PUSH3 0x707 DUP2 PUSH3 0x5BB JUMP JUMPDEST PUSH3 0x712 DUP5 PUSH3 0x5D0 JUMP JUMPDEST DUP2 ADD PUSH1 0x20 DUP6 LT ISZERO PUSH3 0x722 JUMPI DUP2 SWAP1 POP JUMPDEST PUSH3 0x73A PUSH3 0x731 DUP6 PUSH3 0x5D0 JUMP JUMPDEST DUP4 ADD DUP3 PUSH3 0x6CB JUMP JUMPDEST POP POP JUMPDEST POP POP POP JUMP JUMPDEST PUSH1 0x0 DUP3 DUP3 SHR SWAP1 POP SWAP3 SWAP2 POP POP JUMP JUMPDEST PUSH1 0x0 PUSH3 0x762 PUSH1 0x0 NOT DUP5 PUSH1 0x8 MUL PUSH3 0x742 JUMP JUMPDEST NOT DUP1 DUP4 AND SWAP2 POP POP SWAP3 SWAP2 POP POP JUMP JUMPDEST PUSH1 0x0 PUSH3 0x77D DUP4 DUP4 PUSH3 0x74F JUMP JUMPDEST SWAP2 POP DUP3 PUSH1 0x2 MUL DUP3 OR SWAP1 POP SWAP3 SWAP2 POP POP JUMP JUMPDEST PUSH3 0x798 DUP3 PUSH3 0x4FA JUMP JUMPDEST PUSH8 0xFFFFFFFFFFFFFFFF DUP2 GT ISZERO PUSH3 0x7B4 JUMPI PUSH3 0x7B3 PUSH3 0x58C JUMP JUMPDEST JUMPDEST PUSH3 0x7C0 DUP3 SLOAD PUSH3 0x3D8 JUMP JUMPDEST PUSH3 0x7CD DUP3 DUP3 DUP6 PUSH3 0x6F2 JUMP JUMPDEST PUSH1 0x0 PUSH1 0x20 SWAP1 POP PUSH1 0x1F DUP4 GT PUSH1 0x1 DUP2 EQ PUSH3 0x805 JUMPI PUSH1 0x0 DUP5 ISZERO PUSH3 0x7F0 JUMPI DUP3 DUP8 ADD MLOAD SWAP1 POP JUMPDEST PUSH3 0x7FC DUP6 DUP3 PUSH3 0x76F JUMP JUMPDEST DUP7 SSTORE POP PUSH3 0x86C JUMP JUMPDEST PUSH1 0x1F NOT DUP5 AND PUSH3 0x815 DUP7 PUSH3 0x5BB JUMP JUMPDEST PUSH1 0x0 JUMPDEST DUP3 DUP2 LT ISZERO PUSH3 0x83F JUMPI DUP5 DUP10 ADD MLOAD DUP3 SSTORE PUSH1 0x1 DUP3 ADD SWAP2 POP PUSH1 0x20 DUP6 ADD SWAP5 POP PUSH1 0x20 DUP2 ADD SWAP1 POP PUSH3 0x818 JUMP JUMPDEST DUP7 DUP4 LT ISZERO PUSH3 0x85F JUMPI DUP5 DUP10 ADD MLOAD PUSH3 0x85B PUSH1 0x1F DUP10 AND DUP3 PUSH3 0x74F JUMP JUMPDEST DUP4 SSTORE POP JUMPDEST PUSH1 0x1 PUSH1 0x2 DUP9 MUL ADD DUP9 SSTORE POP POP POP JUMPDEST POP POP POP POP POP POP JUMP JUMPDEST PUSH2 0x4AB DUP1 PUSH3 0x884 PUSH1 0x0 CODECOPY PUSH1 0x0 RETURN INVALID PUSH1 0x80 PUSH1 0x40 MSTORE CALLVALUE DUP1 ISZERO PUSH2 0x10 JUMPI PUSH1 0x0 DUP1 REVERT JUMPDEST POP PUSH1 0x4 CALLDATASIZE LT PUSH2 0x41 JUMPI PUSH1 0x0 CALLDATALOAD PUSH1 0xE0 SHR DUP1 PUSH4 0x501895AE EQ PUSH2 0x46 JUMPI DUP1 PUSH4 0x52DE70AF EQ PUSH2 0x76 JUMPI DUP1 PUSH4 0x6A11B2A8 EQ PUSH2 0xA6 JUMPI JUMPDEST PUSH1 0x0 DUP1 REVERT JUMPDEST PUSH2 0x60 PUSH1 0x4 DUP1 CALLDATASIZE SUB DUP2 ADD SWAP1 PUSH2 0x5B SWAP2 SWAP1 PUSH2 0x186 JUMP JUMPDEST PUSH2 0xD6 JUMP JUMPDEST PUSH1 0x40 MLOAD PUSH2 0x6D SWAP2 SWAP1 PUSH2 0x1CC JUMP JUMPDEST PUSH1 0x40 MLOAD DUP1 SWAP2 SUB SWAP1 RETURN JUMPDEST PUSH2 0x90 PUSH1 0x4 DUP1 CALLDATASIZE SUB DUP2 ADD SWAP1 PUSH2 0x8B SWAP2 SWAP1 PUSH2 0x32D JUMP JUMPDEST PUSH2 0xFA JUMP JUMPDEST PUSH1 0x40 MLOAD PUSH2 0x9D SWAP2 SWAP1 PUSH2 0x1CC JUMP JUMPDEST PUSH1 0x40 MLOAD DUP1 SWAP2 SUB SWAP1 RETURN JUMPDEST PUSH2 0xC0 PUSH1 0x4 DUP1 CALLDATASIZE SUB DUP2 ADD SWAP1 PUSH2 0xBB SWAP2 SWAP1 PUSH2 0x32D JUMP JUMPDEST PUSH2 0x113 JUMP JUMPDEST PUSH1 0x40 MLOAD PUSH2 0xCD SWAP2 SWAP1 PUSH2 0x3F5 JUMP JUMPDEST PUSH1 0x40 MLOAD DUP1 SWAP2 SUB SWAP1 RETURN JUMPDEST PUSH1 0x0 DUP2 DUP2 SLOAD DUP2 LT PUSH2 0xE6 JUMPI PUSH1 0x0 DUP1 REVERT JUMPDEST SWAP1 PUSH1 0x0 MSTORE PUSH1 0x20 PUSH1 0x0 KECCAK256 ADD PUSH1 0x0 SWAP2 POP SWAP1 POP SLOAD DUP2 JUMP JUMPDEST PUSH1 0x0 PUSH2 0x105 DUP3 PUSH2 0x113 JUMP JUMPDEST DUP1 MLOAD SWAP1 PUSH1 0x20 ADD KECCAK256 SWAP1 POP SWAP2 SWAP1 POP JUMP JUMPDEST PUSH1 0x60 DUP2 PUSH1 0x40 MLOAD PUSH1 0x20 ADD PUSH2 0x126 SWAP2 SWAP1 PUSH2 0x45E JUMP JUMPDEST PUSH1 0x40 MLOAD PUSH1 0x20 DUP2 DUP4 SUB SUB DUP2 MSTORE SWAP1 PUSH1 0x40 MSTORE SWAP1 POP SWAP2 SWAP1 POP JUMP JUMPDEST PUSH1 0x0 PUSH1 0x40 MLOAD SWAP1 POP SWAP1 JUMP JUMPDEST PUSH1 0x0 DUP1 REVERT JUMPDEST PUSH1 0x0 DUP1 REVERT JUMPDEST PUSH1 0x0 DUP2 SWAP1 POP SWAP2 SWAP1 POP JUMP JUMPDEST PUSH2 0x163 DUP2 PUSH2 0x150 JUMP JUMPDEST DUP2 EQ PUSH2 0x16E JUMPI PUSH1 0x0 DUP1 REVERT JUMPDEST POP JUMP JUMPDEST PUSH1 0x0 DUP2 CALLDATALOAD SWAP1 POP PUSH2 0x180 DUP2 PUSH2 0x15A JUMP JUMPDEST SWAP3 SWAP2 POP POP JUMP JUMPDEST PUSH1 0x0 PUSH1 0x20 DUP3 DUP5 SUB SLT ISZERO PUSH2 0x19C JUMPI PUSH2 0x19B PUSH2 0x146 JUMP JUMPDEST JUMPDEST PUSH1 0x0 PUSH2 0x1AA DUP5 DUP3 DUP6 ADD PUSH2 0x171 JUMP JUMPDEST SWAP2 POP POP SWAP3 SWAP2 POP POP JUMP JUMPDEST PUSH1 0x0 DUP2 SWAP1 POP SWAP2 SWAP1 POP JUMP JUMPDEST PUSH2 0x1C6 DUP2 PUSH2 0x1B3 JUMP JUMPDEST DUP3 MSTORE POP POP JUMP JUMPDEST PUSH1 0x0 PUSH1 0x20 DUP3 ADD SWAP1 POP PUSH2 0x1E1 PUSH1 0x0 DUP4 ADD DUP5 PUSH2 0x1BD JUMP JUMPDEST SWAP3 SWAP2 POP POP JUMP JUMPDEST PUSH1 0x0 DUP1 REVERT JUMPDEST PUSH1 0x0 DUP1 REVERT JUMPDEST PUSH1 0x0 PUSH1 0x1F NOT PUSH1 0x1F DUP4 ADD AND SWAP1 POP SWAP2 SWAP1 POP JUMP JUMPDEST PUSH32 0x4E487B7100000000000000000000000000000000000000000000000000000000 PUSH1 0x0 MSTORE PUSH1 0x41 PUSH1 0x4 MSTORE PUSH1 0x24 PUSH1 0x0 REVERT JUMPDEST PUSH2 0x23A DUP3 PUSH2 0x1F1 JUMP JUMPDEST DUP2 ADD DUP2 DUP2 LT PUSH8 0xFFFFFFFFFFFFFFFF DUP3 GT OR ISZERO PUSH2 0x259 JUMPI PUSH2 0x258 PUSH2 0x202 JUMP JUMPDEST JUMPDEST DUP1 PUSH1 0x40 MSTORE POP POP POP JUMP JUMPDEST PUSH1 0x0 PUSH2 0x26C PUSH2 0x13C JUMP JUMPDEST SWAP1 POP PUSH2 0x278 DUP3 DUP3 PUSH2 0x231 JUMP JUMPDEST SWAP2 SWAP1 POP JUMP JUMPDEST PUSH1 0x0 PUSH8 0xFFFFFFFFFFFFFFFF DUP3 GT ISZERO PUSH2 0x298 JUMPI PUSH2 0x297 PUSH2 0x202 JUMP JUMPDEST JUMPDEST PUSH2 0x2A1 DUP3 PUSH2 0x1F1 JUMP JUMPDEST SWAP1 POP PUSH1 0x20 DUP2 ADD SWAP1 POP SWAP2 SWAP1 POP JUMP JUMPDEST DUP3 DUP2 DUP4 CALLDATACOPY PUSH1 0x0 DUP4 DUP4 ADD MSTORE POP POP POP JUMP JUMPDEST PUSH1 0x0 PUSH2 0x2D0 PUSH2 0x2CB DUP5 PUSH2 0x27D JUMP JUMPDEST PUSH2 0x262 JUMP JUMPDEST SWAP1 POP DUP3 DUP2 MSTORE PUSH1 0x20 DUP2 ADD DUP5 DUP5 DUP5 ADD GT ISZERO PUSH2 0x2EC JUMPI PUSH2 0x2EB PUSH2 0x1EC JUMP JUMPDEST JUMPDEST PUSH2 0x2F7 DUP5 DUP3 DUP6 PUSH2 0x2AE JUMP JUMPDEST POP SWAP4 SWAP3 POP POP POP JUMP JUMPDEST PUSH1 0x0 DUP3 PUSH1 0x1F DUP4 ADD SLT PUSH2 0x314 JUMPI PUSH2 0x313 PUSH2 0x1E7 JUMP JUMPDEST JUMPDEST DUP2 CALLDATALOAD PUSH2 0x324 DUP5 DUP3 PUSH1 0x20 DUP7 ADD PUSH2 0x2BD JUMP JUMPDEST SWAP2 POP POP SWAP3 SWAP2 POP POP JUMP JUMPDEST PUSH1 0x0 PUSH1 0x20 DUP3 DUP5 SUB SLT ISZERO PUSH2 0x343 JUMPI PUSH2 0x342 PUSH2 0x146 JUMP JUMPDEST JUMPDEST PUSH1 0x0 DUP3 ADD CALLDATALOAD PUSH8 0xFFFFFFFFFFFFFFFF DUP2 GT ISZERO PUSH2 0x361 JUMPI PUSH2 0x360 PUSH2 0x14B JUMP JUMPDEST JUMPDEST PUSH2 0x36D DUP5 DUP3 DUP6 ADD PUSH2 0x2FF JUMP JUMPDEST SWAP2 POP POP SWAP3 SWAP2 POP POP JUMP JUMPDEST PUSH1 0x0 DUP2 MLOAD SWAP1 POP SWAP2 SWAP1 POP JUMP JUMPDEST PUSH1 0x0 DUP3 DUP3 MSTORE PUSH1 0x20 DUP3 ADD SWAP1 POP SWAP3 SWAP2 POP POP JUMP JUMPDEST PUSH1 0x0 JUMPDEST DUP4 DUP2 LT ISZERO PUSH2 0x3B0 JUMPI DUP1 DUP3 ADD MLOAD DUP2 DUP5 ADD MSTORE PUSH1 0x20 DUP2 ADD SWAP1 POP PUSH2 0x395 JUMP JUMPDEST PUSH1 0x0 DUP5 DUP5 ADD MSTORE POP POP POP POP JUMP JUMPDEST PUSH1 0x0 PUSH2 0x3C7 DUP3 PUSH2 0x376 JUMP JUMPDEST PUSH2 0x3D1 DUP2 DUP6 PUSH2 0x381 JUMP JUMPDEST SWAP4 POP PUSH2 0x3E1 DUP2 DUP6 PUSH1 0x20 DUP7 ADD PUSH2 0x392 JUMP JUMPDEST PUSH2 0x3EA DUP2 PUSH2 0x1F1 JUMP JUMPDEST DUP5 ADD SWAP2 POP POP SWAP3 SWAP2 POP POP JUMP JUMPDEST PUSH1 0x0 PUSH1 0x20 DUP3 ADD SWAP1 POP DUP2 DUP2 SUB PUSH1 0x0 DUP4 ADD MSTORE PUSH2 0x40F DUP2 DUP5 PUSH2 0x3BC JUMP JUMPDEST SWAP1 POP SWAP3 SWAP2 POP POP JUMP JUMPDEST PUSH1 0x0 DUP2 MLOAD SWAP1 POP SWAP2 SWAP1 POP JUMP JUMPDEST PUSH1 0x0 DUP2 SWAP1 POP SWAP3 SWAP2 POP POP JUMP JUMPDEST PUSH1 0x0 PUSH2 0x438 DUP3 PUSH2 0x417 JUMP JUMPDEST PUSH2 0x442 DUP2 DUP6 PUSH2 0x422 JUMP JUMPDEST SWAP4 POP PUSH2 0x452 DUP2 DUP6 PUSH1 0x20 DUP7 ADD PUSH2 0x392 JUMP JUMPDEST DUP1 DUP5 ADD SWAP2 POP POP SWAP3 SWAP2 POP POP JUMP JUMPDEST PUSH1 0x0 PUSH2 0x46A DUP3 DUP5 PUSH2 0x42D JUMP JUMPDEST SWAP2 POP DUP2 SWAP1 POP SWAP3 SWAP2 POP POP JUMP INVALID LOG2 PUSH5 0x6970667358 0x22 SLT KECCAK256 SUB 0xF OR 0xA7 DUP7 0xB7 0xA8 0xAB PUSH23 0xB56678C2469797ACAE52E8B4EC39D36EBAB9211993A003 PUSH5 0x736F6C6343 STOP ADDMOD GT STOP CALLER "
				},
				"gasEstimates": {
					"creation": {
						"codeDepositCost": "239000",
						"executionCost": "infinite",
						"totalCost": "infinite"
					},
					"external": {
						"encode(string)": "infinite",
						"hashes(uint256)": "4860",
						"makeHash(string)": "infinite"
					}
				},
				"methodIdentifiers": {
					"encode(string)": "6a11b2a8",
					"hashes(uint256)": "501895ae",
					"makeHash(string)": "52de70af"
				}
			},
			"storageLayout": {
				"storage": [
					{
						"astId": 4,
						"contract": "contracts/Lesson_4.sol:MerkleTree",
						"label": "hashes",
						"offset": 0,
						"slot": "0",
						"type": "t_array(t_bytes32)dyn_storage"
					},
					{
						"astId": 13,
						"contract": "contracts/Lesson_4.sol:MerkleTree",
						"label": "transactions",
						"offset": 0,
						"slot": "1",
						"type": "t_array(t_string_storage)4_storage"
					}
				],
				"types": {
					"t_array(t_bytes32)dyn_storage": {
						"base": "t_bytes32",
						"encoding": "dynamic_array",
						"label": "bytes32[]",
						"numberOfBytes": "32"
					},
					"t_array(t_string_storage)4_storage": {
						"base": "t_string_storage",
						"encoding": "inplace",
						"label": "string[4]",
						"numberOfBytes": "128"
					},
					"t_bytes32": {
						"encoding": "inplace",
						"label": "bytes32",
						"numberOfBytes": "32"
					},
					"t_string_storage": {
						"encoding": "bytes",
						"label": "string",
						"numberOfBytes": "32"
					}
				}
			},
			"userdoc": {
				"kind": "user",
				"methods": {},
				"version": 1
			}
		}
	}
}