{
	"contracts/Lesson_4.sol": {
		"MerkleTree": {
			"abi": [
				{
					"inputs": [],
					"stateMutability": "nonpayable",
					"type": "constructor"
				},
				{
					"inputs": [
						{
							"internalType": "string",
							"name": "input",
							"type": "string"
						}
					],
					"name": "encode",
					"outputs": [
						{
							"internalType": "bytes",
							"name": "",
							"type": "bytes"
						}
					],
					"stateMutability": "pure",
					"type": "function"
				},
				{
					"inputs": [
						{
							"internalType": "uint256",
							"name": "",
							"type": "uint256"
						}
					],
					"name": "hashes",
					"outputs": [
						{
							"internalType": "bytes32",
							"name": "",
							"type": "bytes32"
						}
					],
					"stateMutability": "view",
					"type": "function"
				},
				{
					"inputs": [
						{
							"internalType": "string",
							"name": "input",
							"type": "string"
						}
					],
					"name": "makeHash",
					"outputs": [
						{
							"internalType": "bytes32",
							"name": "",
							"type": "bytes32"
						}
					],
					"stateMutability": "pure",
					"type": "function"
				}
			],
			"devdoc": {
				"kind": "dev",
				"methods": {},
				"version": 1
			},
			"evm": {
				"assembly": "    /* \"contracts/Lesson_4.sol\":78:1130  contract MerkleTree... */\n  mstore(0x40, 0x80)\n    /* \"contracts/Lesson_4.sol\":216:380  string[4] transactions = [... */\n  mload(0x40)\n  dup1\n  0x80\n  add\n  0x40\n  mstore\n  dup1\n  mload(0x40)\n  dup1\n  0x40\n  add\n  0x40\n  mstore\n  dup1\n  0x15\n  dup2\n  mstore\n  0x20\n  add\n  0x5458313a20536865726c6f636b202d3e204a6f686e0000000000000000000000\n  dup2\n  mstore\n  pop\n  dup2\n  mstore\n  0x20\n  add\n  mload(0x40)\n  dup1\n  0x40\n  add\n  0x40\n  mstore\n  dup1\n  0x15\n  dup2\n  mstore\n  0x20\n  add\n  0x5458323a204a6f686e202d3e20536865726c6f636b0000000000000000000000\n  dup2\n  mstore\n  pop\n  dup2\n  mstore\n  0x20\n  add\n  mload(0x40)\n  dup1\n  0x40\n  add\n  0x40\n  mstore\n  dup1\n  0x11\n  dup2\n  mstore\n  0x20\n  add\n  0x5458333a204a6f686e202d3e204d617279000000000000000000000000000000\n  dup2\n  mstore\n  pop\n  dup2\n  mstore\n  0x20\n  add\n  mload(0x40)\n  dup1\n  0x40\n  add\n  0x40\n  mstore\n  dup1\n  0x15\n  dup2\n  mstore\n  0x20\n  add\n  0x5458343a204d617279202d3e20536865726c6f636b0000000000000000000000\n  dup2\n  mstore\n  pop\n  dup2\n  mstore\n  pop\n  0x01\n  swap1\n  0x04\n  tag_1\n  swap3\n  swap2\n  swap1\n  tag_2\n  jump\t// in\ntag_1:\n  pop\n    /* \"contracts/Lesson_4.sol\":389:839  constructor()... */\n  callvalue\n  dup1\n  iszero\n  tag_3\n  jumpi\n  0x00\n  dup1\n  revert\ntag_3:\n  pop\n    /* \"contracts/Lesson_4.sol\":520:526  uint i */\n  0x00\n    /* \"contracts/Lesson_4.sol\":516:636  for(uint i = 0; i < transactions.length; i++)... */\ntag_6:\n    /* \"contracts/Lesson_4.sol\":536:555  transactions.length */\n  0x04\n    /* \"contracts/Lesson_4.sol\":532:533  i */\n  dup2\n    /* \"contracts/Lesson_4.sol\":532:555  i < transactions.length */\n  lt\n    /* \"contracts/Lesson_4.sol\":516:636  for(uint i = 0; i < transactions.length; i++)... */\n  iszero\n  tag_7\n  jumpi\n    /* \"contracts/Lesson_4.sol\":586:592  hashes */\n  0x00\n    /* \"contracts/Lesson_4.sol\":598:623  makeHash(transactions[i]) */\n  tag_9\n    /* \"contracts/Lesson_4.sol\":607:619  transactions */\n  0x01\n    /* \"contracts/Lesson_4.sol\":620:621  i */\n  dup4\n    /* \"contracts/Lesson_4.sol\":607:622  transactions[i] */\n  0x04\n  dup2\n  lt\n  tag_10\n  jumpi\n  tag_11\n  tag_12\n  jump\t// in\ntag_11:\ntag_10:\n  add\n    /* \"contracts/Lesson_4.sol\":598:623  makeHash(transactions[i]) */\n  dup1\n  sload\n  tag_14\n  swap1\n  tag_15\n  jump\t// in\ntag_14:\n  dup1\n  0x1f\n  add\n  0x20\n  dup1\n  swap2\n  div\n  mul\n  0x20\n  add\n  mload(0x40)\n  swap1\n  dup2\n  add\n  0x40\n  mstore\n  dup1\n  swap3\n  swap2\n  swap1\n  dup2\n  dup2\n  mstore\n  0x20\n  add\n  dup3\n  dup1\n  sload\n  tag_16\n  swap1\n  tag_15\n  jump\t// in\ntag_16:\n  dup1\n  iszero\n  tag_17\n  jumpi\n  dup1\n  0x1f\n  lt\n  tag_18\n  jumpi\n  0x0100\n  dup1\n  dup4\n  sload\n  div\n  mul\n  dup4\n  mstore\n  swap2\n  0x20\n  add\n  swap2\n  jump(tag_17)\ntag_18:\n  dup3\n  add\n  swap2\n  swap1\n  0x00\n  mstore\n  keccak256(0x00, 0x20)\n  swap1\ntag_19:\n  dup2\n  sload\n  dup2\n  mstore\n  swap1\n  0x01\n  add\n  swap1\n  0x20\n  add\n  dup1\n  dup4\n  gt\n  tag_19\n  jumpi\n  dup3\n  swap1\n  sub\n  0x1f\n  and\n  dup3\n  add\n  swap2\ntag_17:\n  pop\n  pop\n  pop\n  pop\n  pop\n    /* \"contracts/Lesson_4.sol\":598:606  makeHash */\n  shl(0x20, tag_20)\n    /* \"contracts/Lesson_4.sol\":598:623  makeHash(transactions[i]) */\n  0x20\n  shr\n  jump\t// in\ntag_9:\n    /* \"contracts/Lesson_4.sol\":586:624  hashes.push(makeHash(transactions[i])) */\n  swap1\n  dup1\n  0x01\n  dup2\n  sload\n  add\n  dup1\n  dup3\n  sstore\n  dup1\n  swap2\n  pop\n  pop\n  0x01\n  swap1\n  sub\n  swap1\n  0x00\n  mstore\n  keccak256(0x00, 0x20)\n  add\n  0x00\n  swap1\n  swap2\n  swap1\n  swap2\n  swap1\n  swap2\n  pop\n  sstore\n    /* \"contracts/Lesson_4.sol\":557:560  i++ */\n  dup1\n  dup1\n  tag_22\n  swap1\n  tag_23\n  jump\t// in\ntag_22:\n  swap2\n  pop\n  pop\n    /* \"contracts/Lesson_4.sol\":516:636  for(uint i = 0; i < transactions.length; i++)... */\n  jump(tag_6)\ntag_7:\n  pop\n    /* \"contracts/Lesson_4.sol\":648:658  uint count */\n  0x00\n    /* \"contracts/Lesson_4.sol\":661:680  transactions.length */\n  0x04\n    /* \"contracts/Lesson_4.sol\":648:680  uint count = transactions.length */\n  swap1\n  pop\n    /* \"contracts/Lesson_4.sol\":691:702  uint offset */\n  0x00\n    /* \"contracts/Lesson_4.sol\":719:832  while(count > 0)... */\ntag_24:\n    /* \"contracts/Lesson_4.sol\":733:734  0 */\n  0x00\n    /* \"contracts/Lesson_4.sol\":725:730  count */\n  dup3\n    /* \"contracts/Lesson_4.sol\":725:734  count > 0 */\n  gt\n    /* \"contracts/Lesson_4.sol\":719:832  while(count > 0)... */\n  iszero\n  tag_25\n  jumpi\n    /* \"contracts/Lesson_4.sol\":765:771  uint i */\n  0x00\n    /* \"contracts/Lesson_4.sol\":760:820  for (uint i = 0; i < count - 1; i++)... */\ntag_26:\n    /* \"contracts/Lesson_4.sol\":789:790  1 */\n  0x01\n    /* \"contracts/Lesson_4.sol\":781:786  count */\n  dup4\n    /* \"contracts/Lesson_4.sol\":781:790  count - 1 */\n  tag_29\n  swap2\n  swap1\n  tag_30\n  jump\t// in\ntag_29:\n    /* \"contracts/Lesson_4.sol\":777:778  i */\n  dup2\n    /* \"contracts/Lesson_4.sol\":777:790  i < count - 1 */\n  lt\n    /* \"contracts/Lesson_4.sol\":760:820  for (uint i = 0; i < count - 1; i++)... */\n  iszero\n  tag_27\n  jumpi\n    /* \"contracts/Lesson_4.sol\":819:820  2 */\n  0x02\n    /* \"contracts/Lesson_4.sol\":810:820  count /= 2 */\n  dup4\n  tag_31\n  swap2\n  swap1\n  tag_32\n  jump\t// in\ntag_31:\n  swap3\n  pop\n    /* \"contracts/Lesson_4.sol\":792:795  i++ */\n  dup1\n  dup1\n  tag_33\n  swap1\n  tag_23\n  jump\t// in\ntag_33:\n  swap2\n  pop\n  pop\n    /* \"contracts/Lesson_4.sol\":760:820  for (uint i = 0; i < count - 1; i++)... */\n  jump(tag_26)\ntag_27:\n  pop\n    /* \"contracts/Lesson_4.sol\":719:832  while(count > 0)... */\n  jump(tag_24)\ntag_25:\n    /* \"contracts/Lesson_4.sol\":408:839  {... */\n  pop\n  pop\n    /* \"contracts/Lesson_4.sol\":78:1130  contract MerkleTree... */\n  jump(tag_34)\n    /* \"contracts/Lesson_4.sol\":980:1127  function makeHash(string memory input) public pure returns(bytes32)... */\ntag_20:\n    /* \"contracts/Lesson_4.sol\":1039:1046  bytes32 */\n  0x00\n    /* \"contracts/Lesson_4.sol\":1095:1108  encode(input) */\n  tag_36\n    /* \"contracts/Lesson_4.sol\":1102:1107  input */\n  dup3\n    /* \"contracts/Lesson_4.sol\":1095:1101  encode */\n  shl(0x20, tag_37)\n    /* \"contracts/Lesson_4.sol\":1095:1108  encode(input) */\n  0x20\n  shr\n  jump\t// in\ntag_36:\n    /* \"contracts/Lesson_4.sol\":1071:1119  keccak256(... */\n  dup1\n  mload\n  swap1\n  0x20\n  add\n  keccak256\n    /* \"contracts/Lesson_4.sol\":1064:1119  return keccak256(... */\n  swap1\n  pop\n    /* \"contracts/Lesson_4.sol\":980:1127  function makeHash(string memory input) public pure returns(bytes32)... */\n  swap2\n  swap1\n  pop\n  jump\t// out\n    /* \"contracts/Lesson_4.sol\":847:972  function encode(string memory input) public pure returns(bytes memory)... */\ntag_37:\n    /* \"contracts/Lesson_4.sol\":904:916  bytes memory */\n  0x60\n    /* \"contracts/Lesson_4.sol\":958:963  input */\n  dup2\n    /* \"contracts/Lesson_4.sol\":941:964  abi.encodePacked(input) */\n  add(0x20, mload(0x40))\n  tag_39\n  swap2\n  swap1\n  tag_40\n  jump\t// in\ntag_39:\n  mload(0x40)\n  0x20\n  dup2\n  dup4\n  sub\n  sub\n  dup2\n  mstore\n  swap1\n  0x40\n  mstore\n    /* \"contracts/Lesson_4.sol\":934:964  return abi.encodePacked(input) */\n  swap1\n  pop\n    /* \"contracts/Lesson_4.sol\":847:972  function encode(string memory input) public pure returns(bytes memory)... */\n  swap2\n  swap1\n  pop\n  jump\t// out\n    /* \"contracts/Lesson_4.sol\":78:1130  contract MerkleTree... */\ntag_2:\n  dup3\n  0x04\n  dup2\n  add\n  swap3\n  dup3\n  iszero\n  tag_41\n  jumpi\n  swap2\n  0x20\n  mul\n  dup3\n  add\ntag_42:\n  dup3\n  dup2\n  gt\n  iszero\n  tag_43\n  jumpi\n  dup3\n  mload\n  dup3\n  swap1\n  dup2\n  tag_44\n  swap2\n  swap1\n  tag_45\n  jump\t// in\ntag_44:\n  pop\n  swap2\n  0x20\n  add\n  swap2\n  swap1\n  0x01\n  add\n  swap1\n  jump(tag_42)\ntag_43:\ntag_41:\n  pop\n  swap1\n  pop\n  tag_46\n  swap2\n  swap1\n  tag_47\n  jump\t// in\ntag_46:\n  pop\n  swap1\n  jump\t// out\ntag_47:\ntag_48:\n  dup1\n  dup3\n  gt\n  iszero\n  tag_49\n  jumpi\n  0x00\n  dup2\n  dup2\n  tag_50\n  swap2\n  swap1\n  tag_51\n  jump\t// in\ntag_50:\n  pop\n  0x01\n  add\n  jump(tag_48)\ntag_49:\n  pop\n  swap1\n  jump\t// out\ntag_51:\n  pop\n  dup1\n  sload\n  tag_52\n  swap1\n  tag_15\n  jump\t// in\ntag_52:\n  0x00\n  dup3\n  sstore\n  dup1\n  0x1f\n  lt\n  tag_54\n  jumpi\n  pop\n  jump(tag_53)\ntag_54:\n  0x1f\n  add\n  0x20\n  swap1\n  div\n  swap1\n  0x00\n  mstore\n  keccak256(0x00, 0x20)\n  swap1\n  dup2\n  add\n  swap1\n  tag_55\n  swap2\n  swap1\n  tag_56\n  jump\t// in\ntag_55:\ntag_53:\n  pop\n  jump\t// out\ntag_56:\ntag_57:\n  dup1\n  dup3\n  gt\n  iszero\n  tag_58\n  jumpi\n  0x00\n  dup2\n  0x00\n  swap1\n  sstore\n  pop\n  0x01\n  add\n  jump(tag_57)\ntag_58:\n  pop\n  swap1\n  jump\t// out\n    /* \"#utility.yul\":7:187   */\ntag_12:\n    /* \"#utility.yul\":55:132   */\n  0x4e487b7100000000000000000000000000000000000000000000000000000000\n    /* \"#utility.yul\":52:53   */\n  0x00\n    /* \"#utility.yul\":45:133   */\n  mstore\n    /* \"#utility.yul\":152:156   */\n  0x32\n    /* \"#utility.yul\":149:150   */\n  0x04\n    /* \"#utility.yul\":142:157   */\n  mstore\n    /* \"#utility.yul\":176:180   */\n  0x24\n    /* \"#utility.yul\":173:174   */\n  0x00\n    /* \"#utility.yul\":166:181   */\n  revert\n    /* \"#utility.yul\":193:373   */\ntag_59:\n    /* \"#utility.yul\":241:318   */\n  0x4e487b7100000000000000000000000000000000000000000000000000000000\n    /* \"#utility.yul\":238:239   */\n  0x00\n    /* \"#utility.yul\":231:319   */\n  mstore\n    /* \"#utility.yul\":338:342   */\n  0x22\n    /* \"#utility.yul\":335:336   */\n  0x04\n    /* \"#utility.yul\":328:343   */\n  mstore\n    /* \"#utility.yul\":362:366   */\n  0x24\n    /* \"#utility.yul\":359:360   */\n  0x00\n    /* \"#utility.yul\":352:367   */\n  revert\n    /* \"#utility.yul\":379:699   */\ntag_15:\n    /* \"#utility.yul\":423:429   */\n  0x00\n    /* \"#utility.yul\":460:461   */\n  0x02\n    /* \"#utility.yul\":454:458   */\n  dup3\n    /* \"#utility.yul\":450:462   */\n  div\n    /* \"#utility.yul\":440:462   */\n  swap1\n  pop\n    /* \"#utility.yul\":507:508   */\n  0x01\n    /* \"#utility.yul\":501:505   */\n  dup3\n    /* \"#utility.yul\":497:509   */\n  and\n    /* \"#utility.yul\":528:546   */\n  dup1\n    /* \"#utility.yul\":518:599   */\n  tag_87\n  jumpi\n    /* \"#utility.yul\":584:588   */\n  0x7f\n    /* \"#utility.yul\":576:582   */\n  dup3\n    /* \"#utility.yul\":572:589   */\n  and\n    /* \"#utility.yul\":562:589   */\n  swap2\n  pop\n    /* \"#utility.yul\":518:599   */\ntag_87:\n    /* \"#utility.yul\":646:648   */\n  0x20\n    /* \"#utility.yul\":638:644   */\n  dup3\n    /* \"#utility.yul\":635:649   */\n  lt\n    /* \"#utility.yul\":615:633   */\n  dup2\n    /* \"#utility.yul\":612:650   */\n  sub\n    /* \"#utility.yul\":609:693   */\n  tag_88\n  jumpi\n    /* \"#utility.yul\":665:683   */\n  tag_89\n  tag_59\n  jump\t// in\ntag_89:\n    /* \"#utility.yul\":609:693   */\ntag_88:\n    /* \"#utility.yul\":430:699   */\n  pop\n    /* \"#utility.yul\":379:699   */\n  swap2\n  swap1\n  pop\n  jump\t// out\n    /* \"#utility.yul\":705:885   */\ntag_60:\n    /* \"#utility.yul\":753:830   */\n  0x4e487b7100000000000000000000000000000000000000000000000000000000\n    /* \"#utility.yul\":750:751   */\n  0x00\n    /* \"#utility.yul\":743:831   */\n  mstore\n    /* \"#utility.yul\":850:854   */\n  0x11\n    /* \"#utility.yul\":847:848   */\n  0x04\n    /* \"#utility.yul\":840:855   */\n  mstore\n    /* \"#utility.yul\":874:878   */\n  0x24\n    /* \"#utility.yul\":871:872   */\n  0x00\n    /* \"#utility.yul\":864:879   */\n  revert\n    /* \"#utility.yul\":891:968   */\ntag_61:\n    /* \"#utility.yul\":928:935   */\n  0x00\n    /* \"#utility.yul\":957:962   */\n  dup2\n    /* \"#utility.yul\":946:962   */\n  swap1\n  pop\n    /* \"#utility.yul\":891:968   */\n  swap2\n  swap1\n  pop\n  jump\t// out\n    /* \"#utility.yul\":974:1207   */\ntag_23:\n    /* \"#utility.yul\":1013:1016   */\n  0x00\n    /* \"#utility.yul\":1036:1060   */\n  tag_93\n    /* \"#utility.yul\":1054:1059   */\n  dup3\n    /* \"#utility.yul\":1036:1060   */\n  tag_61\n  jump\t// in\ntag_93:\n    /* \"#utility.yul\":1027:1060   */\n  swap2\n  pop\n    /* \"#utility.yul\":1082:1148   */\n  0xffffffffffffffffffffffffffffffffffffffffffffffffffffffffffffffff\n    /* \"#utility.yul\":1075:1080   */\n  dup3\n    /* \"#utility.yul\":1072:1149   */\n  sub\n    /* \"#utility.yul\":1069:1172   */\n  tag_94\n  jumpi\n    /* \"#utility.yul\":1152:1170   */\n  tag_95\n  tag_60\n  jump\t// in\ntag_95:\n    /* \"#utility.yul\":1069:1172   */\ntag_94:\n    /* \"#utility.yul\":1199:1200   */\n  0x01\n    /* \"#utility.yul\":1192:1197   */\n  dup3\n    /* \"#utility.yul\":1188:1201   */\n  add\n    /* \"#utility.yul\":1181:1201   */\n  swap1\n  pop\n    /* \"#utility.yul\":974:1207   */\n  swap2\n  swap1\n  pop\n  jump\t// out\n    /* \"#utility.yul\":1213:1407   */\ntag_30:\n    /* \"#utility.yul\":1253:1257   */\n  0x00\n    /* \"#utility.yul\":1273:1293   */\n  tag_97\n    /* \"#utility.yul\":1291:1292   */\n  dup3\n    /* \"#utility.yul\":1273:1293   */\n  tag_61\n  jump\t// in\ntag_97:\n    /* \"#utility.yul\":1268:1293   */\n  swap2\n  pop\n    /* \"#utility.yul\":1307:1327   */\n  tag_98\n    /* \"#utility.yul\":1325:1326   */\n  dup4\n    /* \"#utility.yul\":1307:1327   */\n  tag_61\n  jump\t// in\ntag_98:\n    /* \"#utility.yul\":1302:1327   */\n  swap3\n  pop\n    /* \"#utility.yul\":1351:1352   */\n  dup3\n    /* \"#utility.yul\":1348:1349   */\n  dup3\n    /* \"#utility.yul\":1344:1353   */\n  sub\n    /* \"#utility.yul\":1336:1353   */\n  swap1\n  pop\n    /* \"#utility.yul\":1375:1376   */\n  dup2\n    /* \"#utility.yul\":1369:1373   */\n  dup2\n    /* \"#utility.yul\":1366:1377   */\n  gt\n    /* \"#utility.yul\":1363:1400   */\n  iszero\n  tag_99\n  jumpi\n    /* \"#utility.yul\":1380:1398   */\n  tag_100\n  tag_60\n  jump\t// in\ntag_100:\n    /* \"#utility.yul\":1363:1400   */\ntag_99:\n    /* \"#utility.yul\":1213:1407   */\n  swap3\n  swap2\n  pop\n  pop\n  jump\t// out\n    /* \"#utility.yul\":1413:1593   */\ntag_62:\n    /* \"#utility.yul\":1461:1538   */\n  0x4e487b7100000000000000000000000000000000000000000000000000000000\n    /* \"#utility.yul\":1458:1459   */\n  0x00\n    /* \"#utility.yul\":1451:1539   */\n  mstore\n    /* \"#utility.yul\":1558:1562   */\n  0x12\n    /* \"#utility.yul\":1555:1556   */\n  0x04\n    /* \"#utility.yul\":1548:1563   */\n  mstore\n    /* \"#utility.yul\":1582:1586   */\n  0x24\n    /* \"#utility.yul\":1579:1580   */\n  0x00\n    /* \"#utility.yul\":1572:1587   */\n  revert\n    /* \"#utility.yul\":1599:1784   */\ntag_32:\n    /* \"#utility.yul\":1639:1640   */\n  0x00\n    /* \"#utility.yul\":1656:1676   */\n  tag_103\n    /* \"#utility.yul\":1674:1675   */\n  dup3\n    /* \"#utility.yul\":1656:1676   */\n  tag_61\n  jump\t// in\ntag_103:\n    /* \"#utility.yul\":1651:1676   */\n  swap2\n  pop\n    /* \"#utility.yul\":1690:1710   */\n  tag_104\n    /* \"#utility.yul\":1708:1709   */\n  dup4\n    /* \"#utility.yul\":1690:1710   */\n  tag_61\n  jump\t// in\ntag_104:\n    /* \"#utility.yul\":1685:1710   */\n  swap3\n  pop\n    /* \"#utility.yul\":1729:1730   */\n  dup3\n    /* \"#utility.yul\":1719:1754   */\n  tag_105\n  jumpi\n    /* \"#utility.yul\":1734:1752   */\n  tag_106\n  tag_62\n  jump\t// in\ntag_106:\n    /* \"#utility.yul\":1719:1754   */\ntag_105:\n    /* \"#utility.yul\":1776:1777   */\n  dup3\n    /* \"#utility.yul\":1773:1774   */\n  dup3\n    /* \"#utility.yul\":1769:1778   */\n  div\n    /* \"#utility.yul\":1764:1778   */\n  swap1\n  pop\n    /* \"#utility.yul\":1599:1784   */\n  swap3\n  swap2\n  pop\n  pop\n  jump\t// out\n    /* \"#utility.yul\":1790:1889   */\ntag_63:\n    /* \"#utility.yul\":1842:1848   */\n  0x00\n    /* \"#utility.yul\":1876:1881   */\n  dup2\n    /* \"#utility.yul\":1870:1882   */\n  mload\n    /* \"#utility.yul\":1860:1882   */\n  swap1\n  pop\n    /* \"#utility.yul\":1790:1889   */\n  swap2\n  swap1\n  pop\n  jump\t// out\n    /* \"#utility.yul\":1895:2043   */\ntag_64:\n    /* \"#utility.yul\":1997:2008   */\n  0x00\n    /* \"#utility.yul\":2034:2037   */\n  dup2\n    /* \"#utility.yul\":2019:2037   */\n  swap1\n  pop\n    /* \"#utility.yul\":1895:2043   */\n  swap3\n  swap2\n  pop\n  pop\n  jump\t// out\n    /* \"#utility.yul\":2049:2295   */\ntag_65:\n    /* \"#utility.yul\":2130:2131   */\n  0x00\n    /* \"#utility.yul\":2140:2253   */\ntag_110:\n    /* \"#utility.yul\":2154:2160   */\n  dup4\n    /* \"#utility.yul\":2151:2152   */\n  dup2\n    /* \"#utility.yul\":2148:2161   */\n  lt\n    /* \"#utility.yul\":2140:2253   */\n  iszero\n  tag_112\n  jumpi\n    /* \"#utility.yul\":2239:2240   */\n  dup1\n    /* \"#utility.yul\":2234:2237   */\n  dup3\n    /* \"#utility.yul\":2230:2241   */\n  add\n    /* \"#utility.yul\":2224:2242   */\n  mload\n    /* \"#utility.yul\":2220:2221   */\n  dup2\n    /* \"#utility.yul\":2215:2218   */\n  dup5\n    /* \"#utility.yul\":2211:2222   */\n  add\n    /* \"#utility.yul\":2204:2243   */\n  mstore\n    /* \"#utility.yul\":2176:2178   */\n  0x20\n    /* \"#utility.yul\":2173:2174   */\n  dup2\n    /* \"#utility.yul\":2169:2179   */\n  add\n    /* \"#utility.yul\":2164:2179   */\n  swap1\n  pop\n    /* \"#utility.yul\":2140:2253   */\n  jump(tag_110)\ntag_112:\n    /* \"#utility.yul\":2287:2288   */\n  0x00\n    /* \"#utility.yul\":2278:2284   */\n  dup5\n    /* \"#utility.yul\":2273:2276   */\n  dup5\n    /* \"#utility.yul\":2269:2285   */\n  add\n    /* \"#utility.yul\":2262:2289   */\n  mstore\n    /* \"#utility.yul\":2111:2295   */\n  pop\n    /* \"#utility.yul\":2049:2295   */\n  pop\n  pop\n  pop\n  jump\t// out\n    /* \"#utility.yul\":2301:2691   */\ntag_66:\n    /* \"#utility.yul\":2407:2410   */\n  0x00\n    /* \"#utility.yul\":2435:2474   */\n  tag_114\n    /* \"#utility.yul\":2468:2473   */\n  dup3\n    /* \"#utility.yul\":2435:2474   */\n  tag_63\n  jump\t// in\ntag_114:\n    /* \"#utility.yul\":2490:2579   */\n  tag_115\n    /* \"#utility.yul\":2572:2578   */\n  dup2\n    /* \"#utility.yul\":2567:2570   */\n  dup6\n    /* \"#utility.yul\":2490:2579   */\n  tag_64\n  jump\t// in\ntag_115:\n    /* \"#utility.yul\":2483:2579   */\n  swap4\n  pop\n    /* \"#utility.yul\":2588:2653   */\n  tag_116\n    /* \"#utility.yul\":2646:2652   */\n  dup2\n    /* \"#utility.yul\":2641:2644   */\n  dup6\n    /* \"#utility.yul\":2634:2638   */\n  0x20\n    /* \"#utility.yul\":2627:2632   */\n  dup7\n    /* \"#utility.yul\":2623:2639   */\n  add\n    /* \"#utility.yul\":2588:2653   */\n  tag_65\n  jump\t// in\ntag_116:\n    /* \"#utility.yul\":2678:2684   */\n  dup1\n    /* \"#utility.yul\":2673:2676   */\n  dup5\n    /* \"#utility.yul\":2669:2685   */\n  add\n    /* \"#utility.yul\":2662:2685   */\n  swap2\n  pop\n    /* \"#utility.yul\":2411:2691   */\n  pop\n    /* \"#utility.yul\":2301:2691   */\n  swap3\n  swap2\n  pop\n  pop\n  jump\t// out\n    /* \"#utility.yul\":2697:2972   */\ntag_40:\n    /* \"#utility.yul\":2829:2832   */\n  0x00\n    /* \"#utility.yul\":2851:2946   */\n  tag_118\n    /* \"#utility.yul\":2942:2945   */\n  dup3\n    /* \"#utility.yul\":2933:2939   */\n  dup5\n    /* \"#utility.yul\":2851:2946   */\n  tag_66\n  jump\t// in\ntag_118:\n    /* \"#utility.yul\":2844:2946   */\n  swap2\n  pop\n    /* \"#utility.yul\":2963:2966   */\n  dup2\n    /* \"#utility.yul\":2956:2966   */\n  swap1\n  pop\n    /* \"#utility.yul\":2697:2972   */\n  swap3\n  swap2\n  pop\n  pop\n  jump\t// out\n    /* \"#utility.yul\":2978:3158   */\ntag_67:\n    /* \"#utility.yul\":3026:3103   */\n  0x4e487b7100000000000000000000000000000000000000000000000000000000\n    /* \"#utility.yul\":3023:3024   */\n  0x00\n    /* \"#utility.yul\":3016:3104   */\n  mstore\n    /* \"#utility.yul\":3123:3127   */\n  0x41\n    /* \"#utility.yul\":3120:3121   */\n  0x04\n    /* \"#utility.yul\":3113:3128   */\n  mstore\n    /* \"#utility.yul\":3147:3151   */\n  0x24\n    /* \"#utility.yul\":3144:3145   */\n  0x00\n    /* \"#utility.yul\":3137:3152   */\n  revert\n    /* \"#utility.yul\":3164:3305   */\ntag_68:\n    /* \"#utility.yul\":3213:3217   */\n  0x00\n    /* \"#utility.yul\":3236:3239   */\n  dup2\n    /* \"#utility.yul\":3228:3239   */\n  swap1\n  pop\n    /* \"#utility.yul\":3259:3262   */\n  dup2\n    /* \"#utility.yul\":3256:3257   */\n  0x00\n    /* \"#utility.yul\":3249:3263   */\n  mstore\n    /* \"#utility.yul\":3293:3297   */\n  0x20\n    /* \"#utility.yul\":3290:3291   */\n  0x00\n    /* \"#utility.yul\":3280:3298   */\n  keccak256\n    /* \"#utility.yul\":3272:3298   */\n  swap1\n  pop\n    /* \"#utility.yul\":3164:3305   */\n  swap2\n  swap1\n  pop\n  jump\t// out\n    /* \"#utility.yul\":3311:3404   */\ntag_69:\n    /* \"#utility.yul\":3348:3354   */\n  0x00\n    /* \"#utility.yul\":3395:3397   */\n  0x20\n    /* \"#utility.yul\":3390:3392   */\n  0x1f\n    /* \"#utility.yul\":3383:3388   */\n  dup4\n    /* \"#utility.yul\":3379:3393   */\n  add\n    /* \"#utility.yul\":3375:3398   */\n  div\n    /* \"#utility.yul\":3365:3398   */\n  swap1\n  pop\n    /* \"#utility.yul\":3311:3404   */\n  swap2\n  swap1\n  pop\n  jump\t// out\n    /* \"#utility.yul\":3410:3517   */\ntag_70:\n    /* \"#utility.yul\":3454:3462   */\n  0x00\n    /* \"#utility.yul\":3504:3509   */\n  dup3\n    /* \"#utility.yul\":3498:3502   */\n  dup3\n    /* \"#utility.yul\":3494:3510   */\n  shl\n    /* \"#utility.yul\":3473:3510   */\n  swap1\n  pop\n    /* \"#utility.yul\":3410:3517   */\n  swap3\n  swap2\n  pop\n  pop\n  jump\t// out\n    /* \"#utility.yul\":3523:3916   */\ntag_71:\n    /* \"#utility.yul\":3592:3598   */\n  0x00\n    /* \"#utility.yul\":3642:3643   */\n  0x08\n    /* \"#utility.yul\":3630:3640   */\n  dup4\n    /* \"#utility.yul\":3626:3644   */\n  mul\n    /* \"#utility.yul\":3665:3762   */\n  tag_124\n    /* \"#utility.yul\":3695:3761   */\n  0xffffffffffffffffffffffffffffffffffffffffffffffffffffffffffffffff\n    /* \"#utility.yul\":3684:3693   */\n  dup3\n    /* \"#utility.yul\":3665:3762   */\n  tag_70\n  jump\t// in\ntag_124:\n    /* \"#utility.yul\":3783:3822   */\n  tag_125\n    /* \"#utility.yul\":3813:3821   */\n  dup7\n    /* \"#utility.yul\":3802:3811   */\n  dup4\n    /* \"#utility.yul\":3783:3822   */\n  tag_70\n  jump\t// in\ntag_125:\n    /* \"#utility.yul\":3771:3822   */\n  swap6\n  pop\n    /* \"#utility.yul\":3855:3859   */\n  dup1\n    /* \"#utility.yul\":3851:3860   */\n  not\n    /* \"#utility.yul\":3844:3849   */\n  dup5\n    /* \"#utility.yul\":3840:3861   */\n  and\n    /* \"#utility.yul\":3831:3861   */\n  swap4\n  pop\n    /* \"#utility.yul\":3904:3908   */\n  dup1\n    /* \"#utility.yul\":3894:3902   */\n  dup7\n    /* \"#utility.yul\":3890:3909   */\n  and\n    /* \"#utility.yul\":3883:3888   */\n  dup5\n    /* \"#utility.yul\":3880:3910   */\n  or\n    /* \"#utility.yul\":3870:3910   */\n  swap3\n  pop\n    /* \"#utility.yul\":3599:3916   */\n  pop\n  pop\n    /* \"#utility.yul\":3523:3916   */\n  swap4\n  swap3\n  pop\n  pop\n  pop\n  jump\t// out\n    /* \"#utility.yul\":3922:3982   */\ntag_72:\n    /* \"#utility.yul\":3950:3953   */\n  0x00\n    /* \"#utility.yul\":3971:3976   */\n  dup2\n    /* \"#utility.yul\":3964:3976   */\n  swap1\n  pop\n    /* \"#utility.yul\":3922:3982   */\n  swap2\n  swap1\n  pop\n  jump\t// out\n    /* \"#utility.yul\":3988:4130   */\ntag_73:\n    /* \"#utility.yul\":4038:4047   */\n  0x00\n    /* \"#utility.yul\":4071:4124   */\n  tag_128\n    /* \"#utility.yul\":4089:4123   */\n  tag_129\n    /* \"#utility.yul\":4098:4122   */\n  tag_130\n    /* \"#utility.yul\":4116:4121   */\n  dup5\n    /* \"#utility.yul\":4098:4122   */\n  tag_61\n  jump\t// in\ntag_130:\n    /* \"#utility.yul\":4089:4123   */\n  tag_72\n  jump\t// in\ntag_129:\n    /* \"#utility.yul\":4071:4124   */\n  tag_61\n  jump\t// in\ntag_128:\n    /* \"#utility.yul\":4058:4124   */\n  swap1\n  pop\n    /* \"#utility.yul\":3988:4130   */\n  swap2\n  swap1\n  pop\n  jump\t// out\n    /* \"#utility.yul\":4136:4211   */\ntag_74:\n    /* \"#utility.yul\":4179:4182   */\n  0x00\n    /* \"#utility.yul\":4200:4205   */\n  dup2\n    /* \"#utility.yul\":4193:4205   */\n  swap1\n  pop\n    /* \"#utility.yul\":4136:4211   */\n  swap2\n  swap1\n  pop\n  jump\t// out\n    /* \"#utility.yul\":4217:4486   */\ntag_75:\n    /* \"#utility.yul\":4327:4366   */\n  tag_133\n    /* \"#utility.yul\":4358:4365   */\n  dup4\n    /* \"#utility.yul\":4327:4366   */\n  tag_73\n  jump\t// in\ntag_133:\n    /* \"#utility.yul\":4388:4479   */\n  tag_134\n    /* \"#utility.yul\":4437:4478   */\n  tag_135\n    /* \"#utility.yul\":4461:4477   */\n  dup3\n    /* \"#utility.yul\":4437:4478   */\n  tag_74\n  jump\t// in\ntag_135:\n    /* \"#utility.yul\":4429:4435   */\n  dup5\n    /* \"#utility.yul\":4422:4426   */\n  dup5\n    /* \"#utility.yul\":4416:4427   */\n  sload\n    /* \"#utility.yul\":4388:4479   */\n  tag_71\n  jump\t// in\ntag_134:\n    /* \"#utility.yul\":4382:4386   */\n  dup3\n    /* \"#utility.yul\":4375:4480   */\n  sstore\n    /* \"#utility.yul\":4293:4486   */\n  pop\n    /* \"#utility.yul\":4217:4486   */\n  pop\n  pop\n  pop\n  jump\t// out\n    /* \"#utility.yul\":4492:4565   */\ntag_76:\n    /* \"#utility.yul\":4537:4540   */\n  0x00\n    /* \"#utility.yul\":4492:4565   */\n  swap1\n  jump\t// out\n    /* \"#utility.yul\":4571:4760   */\ntag_77:\n    /* \"#utility.yul\":4648:4680   */\n  tag_138\n  tag_76\n  jump\t// in\ntag_138:\n    /* \"#utility.yul\":4689:4754   */\n  tag_139\n    /* \"#utility.yul\":4747:4753   */\n  dup2\n    /* \"#utility.yul\":4739:4745   */\n  dup5\n    /* \"#utility.yul\":4733:4737   */\n  dup5\n    /* \"#utility.yul\":4689:4754   */\n  tag_75\n  jump\t// in\ntag_139:\n    /* \"#utility.yul\":4624:4760   */\n  pop\n    /* \"#utility.yul\":4571:4760   */\n  pop\n  pop\n  jump\t// out\n    /* \"#utility.yul\":4766:4952   */\ntag_78:\n    /* \"#utility.yul\":4826:4946   */\ntag_141:\n    /* \"#utility.yul\":4843:4846   */\n  dup2\n    /* \"#utility.yul\":4836:4841   */\n  dup2\n    /* \"#utility.yul\":4833:4847   */\n  lt\n    /* \"#utility.yul\":4826:4946   */\n  iszero\n  tag_143\n  jumpi\n    /* \"#utility.yul\":4897:4936   */\n  tag_144\n    /* \"#utility.yul\":4934:4935   */\n  0x00\n    /* \"#utility.yul\":4927:4932   */\n  dup3\n    /* \"#utility.yul\":4897:4936   */\n  tag_77\n  jump\t// in\ntag_144:\n    /* \"#utility.yul\":4870:4871   */\n  0x01\n    /* \"#utility.yul\":4863:4868   */\n  dup2\n    /* \"#utility.yul\":4859:4872   */\n  add\n    /* \"#utility.yul\":4850:4872   */\n  swap1\n  pop\n    /* \"#utility.yul\":4826:4946   */\n  jump(tag_141)\ntag_143:\n    /* \"#utility.yul\":4766:4952   */\n  pop\n  pop\n  jump\t// out\n    /* \"#utility.yul\":4958:5501   */\ntag_79:\n    /* \"#utility.yul\":5059:5061   */\n  0x1f\n    /* \"#utility.yul\":5054:5057   */\n  dup3\n    /* \"#utility.yul\":5051:5062   */\n  gt\n    /* \"#utility.yul\":5048:5494   */\n  iszero\n  tag_146\n  jumpi\n    /* \"#utility.yul\":5093:5131   */\n  tag_147\n    /* \"#utility.yul\":5125:5130   */\n  dup2\n    /* \"#utility.yul\":5093:5131   */\n  tag_68\n  jump\t// in\ntag_147:\n    /* \"#utility.yul\":5177:5206   */\n  tag_148\n    /* \"#utility.yul\":5195:5205   */\n  dup5\n    /* \"#utility.yul\":5177:5206   */\n  tag_69\n  jump\t// in\ntag_148:\n    /* \"#utility.yul\":5167:5175   */\n  dup2\n    /* \"#utility.yul\":5163:5207   */\n  add\n    /* \"#utility.yul\":5360:5362   */\n  0x20\n    /* \"#utility.yul\":5348:5358   */\n  dup6\n    /* \"#utility.yul\":5345:5363   */\n  lt\n    /* \"#utility.yul\":5342:5391   */\n  iszero\n  tag_149\n  jumpi\n    /* \"#utility.yul\":5381:5389   */\n  dup2\n    /* \"#utility.yul\":5366:5389   */\n  swap1\n  pop\n    /* \"#utility.yul\":5342:5391   */\ntag_149:\n    /* \"#utility.yul\":5404:5484   */\n  tag_150\n    /* \"#utility.yul\":5460:5482   */\n  tag_151\n    /* \"#utility.yul\":5478:5481   */\n  dup6\n    /* \"#utility.yul\":5460:5482   */\n  tag_69\n  jump\t// in\ntag_151:\n    /* \"#utility.yul\":5450:5458   */\n  dup4\n    /* \"#utility.yul\":5446:5483   */\n  add\n    /* \"#utility.yul\":5433:5444   */\n  dup3\n    /* \"#utility.yul\":5404:5484   */\n  tag_78\n  jump\t// in\ntag_150:\n    /* \"#utility.yul\":5063:5494   */\n  pop\n  pop\n    /* \"#utility.yul\":5048:5494   */\ntag_146:\n    /* \"#utility.yul\":4958:5501   */\n  pop\n  pop\n  pop\n  jump\t// out\n    /* \"#utility.yul\":5507:5624   */\ntag_80:\n    /* \"#utility.yul\":5561:5569   */\n  0x00\n    /* \"#utility.yul\":5611:5616   */\n  dup3\n    /* \"#utility.yul\":5605:5609   */\n  dup3\n    /* \"#utility.yul\":5601:5617   */\n  shr\n    /* \"#utility.yul\":5580:5617   */\n  swap1\n  pop\n    /* \"#utility.yul\":5507:5624   */\n  swap3\n  swap2\n  pop\n  pop\n  jump\t// out\n    /* \"#utility.yul\":5630:5799   */\ntag_81:\n    /* \"#utility.yul\":5674:5680   */\n  0x00\n    /* \"#utility.yul\":5707:5758   */\n  tag_154\n    /* \"#utility.yul\":5755:5756   */\n  0x00\n    /* \"#utility.yul\":5751:5757   */\n  not\n    /* \"#utility.yul\":5743:5748   */\n  dup5\n    /* \"#utility.yul\":5740:5741   */\n  0x08\n    /* \"#utility.yul\":5736:5749   */\n  mul\n    /* \"#utility.yul\":5707:5758   */\n  tag_80\n  jump\t// in\ntag_154:\n    /* \"#utility.yul\":5703:5759   */\n  not\n    /* \"#utility.yul\":5788:5792   */\n  dup1\n    /* \"#utility.yul\":5782:5786   */\n  dup4\n    /* \"#utility.yul\":5778:5793   */\n  and\n    /* \"#utility.yul\":5768:5793   */\n  swap2\n  pop\n    /* \"#utility.yul\":5681:5799   */\n  pop\n    /* \"#utility.yul\":5630:5799   */\n  swap3\n  swap2\n  pop\n  pop\n  jump\t// out\n    /* \"#utility.yul\":5804:6099   */\ntag_82:\n    /* \"#utility.yul\":5880:5884   */\n  0x00\n    /* \"#utility.yul\":6026:6055   */\n  tag_156\n    /* \"#utility.yul\":6051:6054   */\n  dup4\n    /* \"#utility.yul\":6045:6049   */\n  dup4\n    /* \"#utility.yul\":6026:6055   */\n  tag_81\n  jump\t// in\ntag_156:\n    /* \"#utility.yul\":6018:6055   */\n  swap2\n  pop\n    /* \"#utility.yul\":6088:6091   */\n  dup3\n    /* \"#utility.yul\":6085:6086   */\n  0x02\n    /* \"#utility.yul\":6081:6092   */\n  mul\n    /* \"#utility.yul\":6075:6079   */\n  dup3\n    /* \"#utility.yul\":6072:6093   */\n  or\n    /* \"#utility.yul\":6064:6093   */\n  swap1\n  pop\n    /* \"#utility.yul\":5804:6099   */\n  swap3\n  swap2\n  pop\n  pop\n  jump\t// out\n    /* \"#utility.yul\":6104:7499   */\ntag_45:\n    /* \"#utility.yul\":6221:6258   */\n  tag_158\n    /* \"#utility.yul\":6254:6257   */\n  dup3\n    /* \"#utility.yul\":6221:6258   */\n  tag_63\n  jump\t// in\ntag_158:\n    /* \"#utility.yul\":6323:6341   */\n  0xffffffffffffffff\n    /* \"#utility.yul\":6315:6321   */\n  dup2\n    /* \"#utility.yul\":6312:6342   */\n  gt\n    /* \"#utility.yul\":6309:6365   */\n  iszero\n  tag_159\n  jumpi\n    /* \"#utility.yul\":6345:6363   */\n  tag_160\n  tag_67\n  jump\t// in\ntag_160:\n    /* \"#utility.yul\":6309:6365   */\ntag_159:\n    /* \"#utility.yul\":6389:6427   */\n  tag_161\n    /* \"#utility.yul\":6421:6425   */\n  dup3\n    /* \"#utility.yul\":6415:6426   */\n  sload\n    /* \"#utility.yul\":6389:6427   */\n  tag_15\n  jump\t// in\ntag_161:\n    /* \"#utility.yul\":6474:6541   */\n  tag_162\n    /* \"#utility.yul\":6534:6540   */\n  dup3\n    /* \"#utility.yul\":6526:6532   */\n  dup3\n    /* \"#utility.yul\":6520:6524   */\n  dup6\n    /* \"#utility.yul\":6474:6541   */\n  tag_79\n  jump\t// in\ntag_162:\n    /* \"#utility.yul\":6568:6569   */\n  0x00\n    /* \"#utility.yul\":6592:6596   */\n  0x20\n    /* \"#utility.yul\":6579:6596   */\n  swap1\n  pop\n    /* \"#utility.yul\":6624:6626   */\n  0x1f\n    /* \"#utility.yul\":6616:6622   */\n  dup4\n    /* \"#utility.yul\":6613:6627   */\n  gt\n    /* \"#utility.yul\":6641:6642   */\n  0x01\n    /* \"#utility.yul\":6636:7254   */\n  dup2\n  eq\n  tag_164\n  jumpi\n    /* \"#utility.yul\":7298:7299   */\n  0x00\n    /* \"#utility.yul\":7315:7321   */\n  dup5\n    /* \"#utility.yul\":7312:7389   */\n  iszero\n  tag_165\n  jumpi\n    /* \"#utility.yul\":7364:7373   */\n  dup3\n    /* \"#utility.yul\":7359:7362   */\n  dup8\n    /* \"#utility.yul\":7355:7374   */\n  add\n    /* \"#utility.yul\":7349:7375   */\n  mload\n    /* \"#utility.yul\":7340:7375   */\n  swap1\n  pop\n    /* \"#utility.yul\":7312:7389   */\ntag_165:\n    /* \"#utility.yul\":7415:7482   */\n  tag_166\n    /* \"#utility.yul\":7475:7481   */\n  dup6\n    /* \"#utility.yul\":7468:7473   */\n  dup3\n    /* \"#utility.yul\":7415:7482   */\n  tag_82\n  jump\t// in\ntag_166:\n    /* \"#utility.yul\":7409:7413   */\n  dup7\n    /* \"#utility.yul\":7402:7483   */\n  sstore\n    /* \"#utility.yul\":7271:7493   */\n  pop\n    /* \"#utility.yul\":6606:7493   */\n  jump(tag_163)\n    /* \"#utility.yul\":6636:7254   */\ntag_164:\n    /* \"#utility.yul\":6688:6692   */\n  0x1f\n    /* \"#utility.yul\":6684:6693   */\n  not\n    /* \"#utility.yul\":6676:6682   */\n  dup5\n    /* \"#utility.yul\":6672:6694   */\n  and\n    /* \"#utility.yul\":6722:6759   */\n  tag_167\n    /* \"#utility.yul\":6754:6758   */\n  dup7\n    /* \"#utility.yul\":6722:6759   */\n  tag_68\n  jump\t// in\ntag_167:\n    /* \"#utility.yul\":6781:6782   */\n  0x00\n    /* \"#utility.yul\":6795:7003   */\ntag_168:\n    /* \"#utility.yul\":6809:6816   */\n  dup3\n    /* \"#utility.yul\":6806:6807   */\n  dup2\n    /* \"#utility.yul\":6803:6817   */\n  lt\n    /* \"#utility.yul\":6795:7003   */\n  iszero\n  tag_170\n  jumpi\n    /* \"#utility.yul\":6888:6897   */\n  dup5\n    /* \"#utility.yul\":6883:6886   */\n  dup10\n    /* \"#utility.yul\":6879:6898   */\n  add\n    /* \"#utility.yul\":6873:6899   */\n  mload\n    /* \"#utility.yul\":6865:6871   */\n  dup3\n    /* \"#utility.yul\":6858:6900   */\n  sstore\n    /* \"#utility.yul\":6939:6940   */\n  0x01\n    /* \"#utility.yul\":6931:6937   */\n  dup3\n    /* \"#utility.yul\":6927:6941   */\n  add\n    /* \"#utility.yul\":6917:6941   */\n  swap2\n  pop\n    /* \"#utility.yul\":6986:6988   */\n  0x20\n    /* \"#utility.yul\":6975:6984   */\n  dup6\n    /* \"#utility.yul\":6971:6989   */\n  add\n    /* \"#utility.yul\":6958:6989   */\n  swap5\n  pop\n    /* \"#utility.yul\":6832:6836   */\n  0x20\n    /* \"#utility.yul\":6829:6830   */\n  dup2\n    /* \"#utility.yul\":6825:6837   */\n  add\n    /* \"#utility.yul\":6820:6837   */\n  swap1\n  pop\n    /* \"#utility.yul\":6795:7003   */\n  jump(tag_168)\ntag_170:\n    /* \"#utility.yul\":7031:7037   */\n  dup7\n    /* \"#utility.yul\":7022:7029   */\n  dup4\n    /* \"#utility.yul\":7019:7038   */\n  lt\n    /* \"#utility.yul\":7016:7195   */\n  iszero\n  tag_171\n  jumpi\n    /* \"#utility.yul\":7089:7098   */\n  dup5\n    /* \"#utility.yul\":7084:7087   */\n  dup10\n    /* \"#utility.yul\":7080:7099   */\n  add\n    /* \"#utility.yul\":7074:7100   */\n  mload\n    /* \"#utility.yul\":7132:7180   */\n  tag_172\n    /* \"#utility.yul\":7174:7178   */\n  0x1f\n    /* \"#utility.yul\":7166:7172   */\n  dup10\n    /* \"#utility.yul\":7162:7179   */\n  and\n    /* \"#utility.yul\":7151:7160   */\n  dup3\n    /* \"#utility.yul\":7132:7180   */\n  tag_81\n  jump\t// in\ntag_172:\n    /* \"#utility.yul\":7124:7130   */\n  dup4\n    /* \"#utility.yul\":7117:7181   */\n  sstore\n    /* \"#utility.yul\":7039:7195   */\n  pop\n    /* \"#utility.yul\":7016:7195   */\ntag_171:\n    /* \"#utility.yul\":7241:7242   */\n  0x01\n    /* \"#utility.yul\":7237:7238   */\n  0x02\n    /* \"#utility.yul\":7229:7235   */\n  dup9\n    /* \"#utility.yul\":7225:7239   */\n  mul\n    /* \"#utility.yul\":7221:7243   */\n  add\n    /* \"#utility.yul\":7215:7219   */\n  dup9\n    /* \"#utility.yul\":7208:7244   */\n  sstore\n    /* \"#utility.yul\":6643:7254   */\n  pop\n  pop\n  pop\n    /* \"#utility.yul\":6606:7493   */\ntag_163:\n  pop\n    /* \"#utility.yul\":6196:7499   */\n  pop\n  pop\n  pop\n    /* \"#utility.yul\":6104:7499   */\n  pop\n  pop\n  jump\t// out\n    /* \"contracts/Lesson_4.sol\":78:1130  contract MerkleTree... */\ntag_34:\n  dataSize(sub_0)\n  dup1\n  dataOffset(sub_0)\n  0x00\n  codecopy\n  0x00\n  return\nstop\n\nsub_0: assembly {\n        /* \"contracts/Lesson_4.sol\":78:1130  contract MerkleTree... */\n      mstore(0x40, 0x80)\n      callvalue\n      dup1\n      iszero\n      tag_1\n      jumpi\n      0x00\n      dup1\n      revert\n    tag_1:\n      pop\n      jumpi(tag_2, lt(calldatasize, 0x04))\n      shr(0xe0, calldataload(0x00))\n      dup1\n      0x501895ae\n      eq\n      tag_3\n      jumpi\n      dup1\n      0x52de70af\n      eq\n      tag_4\n      jumpi\n      dup1\n      0x6a11b2a8\n      eq\n      tag_5\n      jumpi\n    tag_2:\n      0x00\n      dup1\n      revert\n        /* \"contracts/Lesson_4.sol\":186:209  bytes32[] public hashes */\n    tag_3:\n      tag_6\n      0x04\n      dup1\n      calldatasize\n      sub\n      dup2\n      add\n      swap1\n      tag_7\n      swap2\n      swap1\n      tag_8\n      jump\t// in\n    tag_7:\n      tag_9\n      jump\t// in\n    tag_6:\n      mload(0x40)\n      tag_10\n      swap2\n      swap1\n      tag_11\n      jump\t// in\n    tag_10:\n      mload(0x40)\n      dup1\n      swap2\n      sub\n      swap1\n      return\n        /* \"contracts/Lesson_4.sol\":980:1127  function makeHash(string memory input) public pure returns(bytes32)... */\n    tag_4:\n      tag_12\n      0x04\n      dup1\n      calldatasize\n      sub\n      dup2\n      add\n      swap1\n      tag_13\n      swap2\n      swap1\n      tag_14\n      jump\t// in\n    tag_13:\n      tag_15\n      jump\t// in\n    tag_12:\n      mload(0x40)\n      tag_16\n      swap2\n      swap1\n      tag_11\n      jump\t// in\n    tag_16:\n      mload(0x40)\n      dup1\n      swap2\n      sub\n      swap1\n      return\n        /* \"contracts/Lesson_4.sol\":847:972  function encode(string memory input) public pure returns(bytes memory)... */\n    tag_5:\n      tag_17\n      0x04\n      dup1\n      calldatasize\n      sub\n      dup2\n      add\n      swap1\n      tag_18\n      swap2\n      swap1\n      tag_14\n      jump\t// in\n    tag_18:\n      tag_19\n      jump\t// in\n    tag_17:\n      mload(0x40)\n      tag_20\n      swap2\n      swap1\n      tag_21\n      jump\t// in\n    tag_20:\n      mload(0x40)\n      dup1\n      swap2\n      sub\n      swap1\n      return\n        /* \"contracts/Lesson_4.sol\":186:209  bytes32[] public hashes */\n    tag_9:\n      0x00\n      dup2\n      dup2\n      sload\n      dup2\n      lt\n      tag_22\n      jumpi\n      0x00\n      dup1\n      revert\n    tag_22:\n      swap1\n      0x00\n      mstore\n      keccak256(0x00, 0x20)\n      add\n      0x00\n      swap2\n      pop\n      swap1\n      pop\n      sload\n      dup2\n      jump\t// out\n        /* \"contracts/Lesson_4.sol\":980:1127  function makeHash(string memory input) public pure returns(bytes32)... */\n    tag_15:\n        /* \"contracts/Lesson_4.sol\":1039:1046  bytes32 */\n      0x00\n        /* \"contracts/Lesson_4.sol\":1095:1108  encode(input) */\n      tag_25\n        /* \"contracts/Lesson_4.sol\":1102:1107  input */\n      dup3\n        /* \"contracts/Lesson_4.sol\":1095:1101  encode */\n      tag_19\n        /* \"contracts/Lesson_4.sol\":1095:1108  encode(input) */\n      jump\t// in\n    tag_25:\n        /* \"contracts/Lesson_4.sol\":1071:1119  keccak256(... */\n      dup1\n      mload\n      swap1\n      0x20\n      add\n      keccak256\n        /* \"contracts/Lesson_4.sol\":1064:1119  return keccak256(... */\n      swap1\n      pop\n        /* \"contracts/Lesson_4.sol\":980:1127  function makeHash(string memory input) public pure returns(bytes32)... */\n      swap2\n      swap1\n      pop\n      jump\t// out\n        /* \"contracts/Lesson_4.sol\":847:972  function encode(string memory input) public pure returns(bytes memory)... */\n    tag_19:\n        /* \"contracts/Lesson_4.sol\":904:916  bytes memory */\n      0x60\n        /* \"contracts/Lesson_4.sol\":958:963  input */\n      dup2\n        /* \"contracts/Lesson_4.sol\":941:964  abi.encodePacked(input) */\n      add(0x20, mload(0x40))\n      tag_27\n      swap2\n      swap1\n      tag_28\n      jump\t// in\n    tag_27:\n      mload(0x40)\n      0x20\n      dup2\n      dup4\n      sub\n      sub\n      dup2\n      mstore\n      swap1\n      0x40\n      mstore\n        /* \"contracts/Lesson_4.sol\":934:964  return abi.encodePacked(input) */\n      swap1\n      pop\n        /* \"contracts/Lesson_4.sol\":847:972  function encode(string memory input) public pure returns(bytes memory)... */\n      swap2\n      swap1\n      pop\n      jump\t// out\n        /* \"#utility.yul\":7:82   */\n    tag_29:\n        /* \"#utility.yul\":40:46   */\n      0x00\n        /* \"#utility.yul\":73:75   */\n      0x40\n        /* \"#utility.yul\":67:76   */\n      mload\n        /* \"#utility.yul\":57:76   */\n      swap1\n      pop\n        /* \"#utility.yul\":7:82   */\n      swap1\n      jump\t// out\n        /* \"#utility.yul\":88:205   */\n    tag_30:\n        /* \"#utility.yul\":197:198   */\n      0x00\n        /* \"#utility.yul\":194:195   */\n      dup1\n        /* \"#utility.yul\":187:199   */\n      revert\n        /* \"#utility.yul\":211:328   */\n    tag_31:\n        /* \"#utility.yul\":320:321   */\n      0x00\n        /* \"#utility.yul\":317:318   */\n      dup1\n        /* \"#utility.yul\":310:322   */\n      revert\n        /* \"#utility.yul\":334:411   */\n    tag_32:\n        /* \"#utility.yul\":371:378   */\n      0x00\n        /* \"#utility.yul\":400:405   */\n      dup2\n        /* \"#utility.yul\":389:405   */\n      swap1\n      pop\n        /* \"#utility.yul\":334:411   */\n      swap2\n      swap1\n      pop\n      jump\t// out\n        /* \"#utility.yul\":417:539   */\n    tag_33:\n        /* \"#utility.yul\":490:514   */\n      tag_60\n        /* \"#utility.yul\":508:513   */\n      dup2\n        /* \"#utility.yul\":490:514   */\n      tag_32\n      jump\t// in\n    tag_60:\n        /* \"#utility.yul\":483:488   */\n      dup2\n        /* \"#utility.yul\":480:515   */\n      eq\n        /* \"#utility.yul\":470:533   */\n      tag_61\n      jumpi\n        /* \"#utility.yul\":529:530   */\n      0x00\n        /* \"#utility.yul\":526:527   */\n      dup1\n        /* \"#utility.yul\":519:531   */\n      revert\n        /* \"#utility.yul\":470:533   */\n    tag_61:\n        /* \"#utility.yul\":417:539   */\n      pop\n      jump\t// out\n        /* \"#utility.yul\":545:684   */\n    tag_34:\n        /* \"#utility.yul\":591:596   */\n      0x00\n        /* \"#utility.yul\":629:635   */\n      dup2\n        /* \"#utility.yul\":616:636   */\n      calldataload\n        /* \"#utility.yul\":607:636   */\n      swap1\n      pop\n        /* \"#utility.yul\":645:678   */\n      tag_63\n        /* \"#utility.yul\":672:677   */\n      dup2\n        /* \"#utility.yul\":645:678   */\n      tag_33\n      jump\t// in\n    tag_63:\n        /* \"#utility.yul\":545:684   */\n      swap3\n      swap2\n      pop\n      pop\n      jump\t// out\n        /* \"#utility.yul\":690:1019   */\n    tag_8:\n        /* \"#utility.yul\":749:755   */\n      0x00\n        /* \"#utility.yul\":798:800   */\n      0x20\n        /* \"#utility.yul\":786:795   */\n      dup3\n        /* \"#utility.yul\":777:784   */\n      dup5\n        /* \"#utility.yul\":773:796   */\n      sub\n        /* \"#utility.yul\":769:801   */\n      slt\n        /* \"#utility.yul\":766:885   */\n      iszero\n      tag_65\n      jumpi\n        /* \"#utility.yul\":804:883   */\n      tag_66\n      tag_30\n      jump\t// in\n    tag_66:\n        /* \"#utility.yul\":766:885   */\n    tag_65:\n        /* \"#utility.yul\":924:925   */\n      0x00\n        /* \"#utility.yul\":949:1002   */\n      tag_67\n        /* \"#utility.yul\":994:1001   */\n      dup5\n        /* \"#utility.yul\":985:991   */\n      dup3\n        /* \"#utility.yul\":974:983   */\n      dup6\n        /* \"#utility.yul\":970:992   */\n      add\n        /* \"#utility.yul\":949:1002   */\n      tag_34\n      jump\t// in\n    tag_67:\n        /* \"#utility.yul\":939:1002   */\n      swap2\n      pop\n        /* \"#utility.yul\":895:1012   */\n      pop\n        /* \"#utility.yul\":690:1019   */\n      swap3\n      swap2\n      pop\n      pop\n      jump\t// out\n        /* \"#utility.yul\":1025:1102   */\n    tag_35:\n        /* \"#utility.yul\":1062:1069   */\n      0x00\n        /* \"#utility.yul\":1091:1096   */\n      dup2\n        /* \"#utility.yul\":1080:1096   */\n      swap1\n      pop\n        /* \"#utility.yul\":1025:1102   */\n      swap2\n      swap1\n      pop\n      jump\t// out\n        /* \"#utility.yul\":1108:1226   */\n    tag_36:\n        /* \"#utility.yul\":1195:1219   */\n      tag_70\n        /* \"#utility.yul\":1213:1218   */\n      dup2\n        /* \"#utility.yul\":1195:1219   */\n      tag_35\n      jump\t// in\n    tag_70:\n        /* \"#utility.yul\":1190:1193   */\n      dup3\n        /* \"#utility.yul\":1183:1220   */\n      mstore\n        /* \"#utility.yul\":1108:1226   */\n      pop\n      pop\n      jump\t// out\n        /* \"#utility.yul\":1232:1454   */\n    tag_11:\n        /* \"#utility.yul\":1325:1329   */\n      0x00\n        /* \"#utility.yul\":1363:1365   */\n      0x20\n        /* \"#utility.yul\":1352:1361   */\n      dup3\n        /* \"#utility.yul\":1348:1366   */\n      add\n        /* \"#utility.yul\":1340:1366   */\n      swap1\n      pop\n        /* \"#utility.yul\":1376:1447   */\n      tag_72\n        /* \"#utility.yul\":1444:1445   */\n      0x00\n        /* \"#utility.yul\":1433:1442   */\n      dup4\n        /* \"#utility.yul\":1429:1446   */\n      add\n        /* \"#utility.yul\":1420:1426   */\n      dup5\n        /* \"#utility.yul\":1376:1447   */\n      tag_36\n      jump\t// in\n    tag_72:\n        /* \"#utility.yul\":1232:1454   */\n      swap3\n      swap2\n      pop\n      pop\n      jump\t// out\n        /* \"#utility.yul\":1460:1577   */\n    tag_37:\n        /* \"#utility.yul\":1569:1570   */\n      0x00\n        /* \"#utility.yul\":1566:1567   */\n      dup1\n        /* \"#utility.yul\":1559:1571   */\n      revert\n        /* \"#utility.yul\":1583:1700   */\n    tag_38:\n        /* \"#utility.yul\":1692:1693   */\n      0x00\n        /* \"#utility.yul\":1689:1690   */\n      dup1\n        /* \"#utility.yul\":1682:1694   */\n      revert\n        /* \"#utility.yul\":1706:1808   */\n    tag_39:\n        /* \"#utility.yul\":1747:1753   */\n      0x00\n        /* \"#utility.yul\":1798:1800   */\n      0x1f\n        /* \"#utility.yul\":1794:1801   */\n      not\n        /* \"#utility.yul\":1789:1791   */\n      0x1f\n        /* \"#utility.yul\":1782:1787   */\n      dup4\n        /* \"#utility.yul\":1778:1792   */\n      add\n        /* \"#utility.yul\":1774:1802   */\n      and\n        /* \"#utility.yul\":1764:1802   */\n      swap1\n      pop\n        /* \"#utility.yul\":1706:1808   */\n      swap2\n      swap1\n      pop\n      jump\t// out\n        /* \"#utility.yul\":1814:1994   */\n    tag_40:\n        /* \"#utility.yul\":1862:1939   */\n      0x4e487b7100000000000000000000000000000000000000000000000000000000\n        /* \"#utility.yul\":1859:1860   */\n      0x00\n        /* \"#utility.yul\":1852:1940   */\n      mstore\n        /* \"#utility.yul\":1959:1963   */\n      0x41\n        /* \"#utility.yul\":1956:1957   */\n      0x04\n        /* \"#utility.yul\":1949:1964   */\n      mstore\n        /* \"#utility.yul\":1983:1987   */\n      0x24\n        /* \"#utility.yul\":1980:1981   */\n      0x00\n        /* \"#utility.yul\":1973:1988   */\n      revert\n        /* \"#utility.yul\":2000:2281   */\n    tag_41:\n        /* \"#utility.yul\":2083:2110   */\n      tag_78\n        /* \"#utility.yul\":2105:2109   */\n      dup3\n        /* \"#utility.yul\":2083:2110   */\n      tag_39\n      jump\t// in\n    tag_78:\n        /* \"#utility.yul\":2075:2081   */\n      dup2\n        /* \"#utility.yul\":2071:2111   */\n      add\n        /* \"#utility.yul\":2213:2219   */\n      dup2\n        /* \"#utility.yul\":2201:2211   */\n      dup2\n        /* \"#utility.yul\":2198:2220   */\n      lt\n        /* \"#utility.yul\":2177:2195   */\n      0xffffffffffffffff\n        /* \"#utility.yul\":2165:2175   */\n      dup3\n        /* \"#utility.yul\":2162:2196   */\n      gt\n        /* \"#utility.yul\":2159:2221   */\n      or\n        /* \"#utility.yul\":2156:2244   */\n      iszero\n      tag_79\n      jumpi\n        /* \"#utility.yul\":2224:2242   */\n      tag_80\n      tag_40\n      jump\t// in\n    tag_80:\n        /* \"#utility.yul\":2156:2244   */\n    tag_79:\n        /* \"#utility.yul\":2264:2274   */\n      dup1\n        /* \"#utility.yul\":2260:2262   */\n      0x40\n        /* \"#utility.yul\":2253:2275   */\n      mstore\n        /* \"#utility.yul\":2043:2281   */\n      pop\n        /* \"#utility.yul\":2000:2281   */\n      pop\n      pop\n      jump\t// out\n        /* \"#utility.yul\":2287:2416   */\n    tag_42:\n        /* \"#utility.yul\":2321:2327   */\n      0x00\n        /* \"#utility.yul\":2348:2368   */\n      tag_82\n      tag_29\n      jump\t// in\n    tag_82:\n        /* \"#utility.yul\":2338:2368   */\n      swap1\n      pop\n        /* \"#utility.yul\":2377:2410   */\n      tag_83\n        /* \"#utility.yul\":2405:2409   */\n      dup3\n        /* \"#utility.yul\":2397:2403   */\n      dup3\n        /* \"#utility.yul\":2377:2410   */\n      tag_41\n      jump\t// in\n    tag_83:\n        /* \"#utility.yul\":2287:2416   */\n      swap2\n      swap1\n      pop\n      jump\t// out\n        /* \"#utility.yul\":2422:2730   */\n    tag_43:\n        /* \"#utility.yul\":2484:2488   */\n      0x00\n        /* \"#utility.yul\":2574:2592   */\n      0xffffffffffffffff\n        /* \"#utility.yul\":2566:2572   */\n      dup3\n        /* \"#utility.yul\":2563:2593   */\n      gt\n        /* \"#utility.yul\":2560:2616   */\n      iszero\n      tag_85\n      jumpi\n        /* \"#utility.yul\":2596:2614   */\n      tag_86\n      tag_40\n      jump\t// in\n    tag_86:\n        /* \"#utility.yul\":2560:2616   */\n    tag_85:\n        /* \"#utility.yul\":2634:2663   */\n      tag_87\n        /* \"#utility.yul\":2656:2662   */\n      dup3\n        /* \"#utility.yul\":2634:2663   */\n      tag_39\n      jump\t// in\n    tag_87:\n        /* \"#utility.yul\":2626:2663   */\n      swap1\n      pop\n        /* \"#utility.yul\":2718:2722   */\n      0x20\n        /* \"#utility.yul\":2712:2716   */\n      dup2\n        /* \"#utility.yul\":2708:2723   */\n      add\n        /* \"#utility.yul\":2700:2723   */\n      swap1\n      pop\n        /* \"#utility.yul\":2422:2730   */\n      swap2\n      swap1\n      pop\n      jump\t// out\n        /* \"#utility.yul\":2736:2882   */\n    tag_44:\n        /* \"#utility.yul\":2833:2839   */\n      dup3\n        /* \"#utility.yul\":2828:2831   */\n      dup2\n        /* \"#utility.yul\":2823:2826   */\n      dup4\n        /* \"#utility.yul\":2810:2840   */\n      calldatacopy\n        /* \"#utility.yul\":2874:2875   */\n      0x00\n        /* \"#utility.yul\":2865:2871   */\n      dup4\n        /* \"#utility.yul\":2860:2863   */\n      dup4\n        /* \"#utility.yul\":2856:2872   */\n      add\n        /* \"#utility.yul\":2849:2876   */\n      mstore\n        /* \"#utility.yul\":2736:2882   */\n      pop\n      pop\n      pop\n      jump\t// out\n        /* \"#utility.yul\":2888:3313   */\n    tag_45:\n        /* \"#utility.yul\":2966:2971   */\n      0x00\n        /* \"#utility.yul\":2991:3057   */\n      tag_90\n        /* \"#utility.yul\":3007:3056   */\n      tag_91\n        /* \"#utility.yul\":3049:3055   */\n      dup5\n        /* \"#utility.yul\":3007:3056   */\n      tag_43\n      jump\t// in\n    tag_91:\n        /* \"#utility.yul\":2991:3057   */\n      tag_42\n      jump\t// in\n    tag_90:\n        /* \"#utility.yul\":2982:3057   */\n      swap1\n      pop\n        /* \"#utility.yul\":3080:3086   */\n      dup3\n        /* \"#utility.yul\":3073:3078   */\n      dup2\n        /* \"#utility.yul\":3066:3087   */\n      mstore\n        /* \"#utility.yul\":3118:3122   */\n      0x20\n        /* \"#utility.yul\":3111:3116   */\n      dup2\n        /* \"#utility.yul\":3107:3123   */\n      add\n        /* \"#utility.yul\":3156:3159   */\n      dup5\n        /* \"#utility.yul\":3147:3153   */\n      dup5\n        /* \"#utility.yul\":3142:3145   */\n      dup5\n        /* \"#utility.yul\":3138:3154   */\n      add\n        /* \"#utility.yul\":3135:3160   */\n      gt\n        /* \"#utility.yul\":3132:3244   */\n      iszero\n      tag_92\n      jumpi\n        /* \"#utility.yul\":3163:3242   */\n      tag_93\n      tag_38\n      jump\t// in\n    tag_93:\n        /* \"#utility.yul\":3132:3244   */\n    tag_92:\n        /* \"#utility.yul\":3253:3307   */\n      tag_94\n        /* \"#utility.yul\":3300:3306   */\n      dup5\n        /* \"#utility.yul\":3295:3298   */\n      dup3\n        /* \"#utility.yul\":3290:3293   */\n      dup6\n        /* \"#utility.yul\":3253:3307   */\n      tag_44\n      jump\t// in\n    tag_94:\n        /* \"#utility.yul\":2972:3313   */\n      pop\n        /* \"#utility.yul\":2888:3313   */\n      swap4\n      swap3\n      pop\n      pop\n      pop\n      jump\t// out\n        /* \"#utility.yul\":3333:3673   */\n    tag_46:\n        /* \"#utility.yul\":3389:3394   */\n      0x00\n        /* \"#utility.yul\":3438:3441   */\n      dup3\n        /* \"#utility.yul\":3431:3435   */\n      0x1f\n        /* \"#utility.yul\":3423:3429   */\n      dup4\n        /* \"#utility.yul\":3419:3436   */\n      add\n        /* \"#utility.yul\":3415:3442   */\n      slt\n        /* \"#utility.yul\":3405:3527   */\n      tag_96\n      jumpi\n        /* \"#utility.yul\":3446:3525   */\n      tag_97\n      tag_37\n      jump\t// in\n    tag_97:\n        /* \"#utility.yul\":3405:3527   */\n    tag_96:\n        /* \"#utility.yul\":3563:3569   */\n      dup2\n        /* \"#utility.yul\":3550:3570   */\n      calldataload\n        /* \"#utility.yul\":3588:3667   */\n      tag_98\n        /* \"#utility.yul\":3663:3666   */\n      dup5\n        /* \"#utility.yul\":3655:3661   */\n      dup3\n        /* \"#utility.yul\":3648:3652   */\n      0x20\n        /* \"#utility.yul\":3640:3646   */\n      dup7\n        /* \"#utility.yul\":3636:3653   */\n      add\n        /* \"#utility.yul\":3588:3667   */\n      tag_45\n      jump\t// in\n    tag_98:\n        /* \"#utility.yul\":3579:3667   */\n      swap2\n      pop\n        /* \"#utility.yul\":3395:3673   */\n      pop\n        /* \"#utility.yul\":3333:3673   */\n      swap3\n      swap2\n      pop\n      pop\n      jump\t// out\n        /* \"#utility.yul\":3679:4188   */\n    tag_14:\n        /* \"#utility.yul\":3748:3754   */\n      0x00\n        /* \"#utility.yul\":3797:3799   */\n      0x20\n        /* \"#utility.yul\":3785:3794   */\n      dup3\n        /* \"#utility.yul\":3776:3783   */\n      dup5\n        /* \"#utility.yul\":3772:3795   */\n      sub\n        /* \"#utility.yul\":3768:3800   */\n      slt\n        /* \"#utility.yul\":3765:3884   */\n      iszero\n      tag_100\n      jumpi\n        /* \"#utility.yul\":3803:3882   */\n      tag_101\n      tag_30\n      jump\t// in\n    tag_101:\n        /* \"#utility.yul\":3765:3884   */\n    tag_100:\n        /* \"#utility.yul\":3951:3952   */\n      0x00\n        /* \"#utility.yul\":3940:3949   */\n      dup3\n        /* \"#utility.yul\":3936:3953   */\n      add\n        /* \"#utility.yul\":3923:3954   */\n      calldataload\n        /* \"#utility.yul\":3981:3999   */\n      0xffffffffffffffff\n        /* \"#utility.yul\":3973:3979   */\n      dup2\n        /* \"#utility.yul\":3970:4000   */\n      gt\n        /* \"#utility.yul\":3967:4084   */\n      iszero\n      tag_102\n      jumpi\n        /* \"#utility.yul\":4003:4082   */\n      tag_103\n      tag_31\n      jump\t// in\n    tag_103:\n        /* \"#utility.yul\":3967:4084   */\n    tag_102:\n        /* \"#utility.yul\":4108:4171   */\n      tag_104\n        /* \"#utility.yul\":4163:4170   */\n      dup5\n        /* \"#utility.yul\":4154:4160   */\n      dup3\n        /* \"#utility.yul\":4143:4152   */\n      dup6\n        /* \"#utility.yul\":4139:4161   */\n      add\n        /* \"#utility.yul\":4108:4171   */\n      tag_46\n      jump\t// in\n    tag_104:\n        /* \"#utility.yul\":4098:4171   */\n      swap2\n      pop\n        /* \"#utility.yul\":3894:4181   */\n      pop\n        /* \"#utility.yul\":3679:4188   */\n      swap3\n      swap2\n      pop\n      pop\n      jump\t// out\n        /* \"#utility.yul\":4194:4292   */\n    tag_47:\n        /* \"#utility.yul\":4245:4251   */\n      0x00\n        /* \"#utility.yul\":4279:4284   */\n      dup2\n        /* \"#utility.yul\":4273:4285   */\n      mload\n        /* \"#utility.yul\":4263:4285   */\n      swap1\n      pop\n        /* \"#utility.yul\":4194:4292   */\n      swap2\n      swap1\n      pop\n      jump\t// out\n        /* \"#utility.yul\":4298:4466   */\n    tag_48:\n        /* \"#utility.yul\":4381:4392   */\n      0x00\n        /* \"#utility.yul\":4415:4421   */\n      dup3\n        /* \"#utility.yul\":4410:4413   */\n      dup3\n        /* \"#utility.yul\":4403:4422   */\n      mstore\n        /* \"#utility.yul\":4455:4459   */\n      0x20\n        /* \"#utility.yul\":4450:4453   */\n      dup3\n        /* \"#utility.yul\":4446:4460   */\n      add\n        /* \"#utility.yul\":4431:4460   */\n      swap1\n      pop\n        /* \"#utility.yul\":4298:4466   */\n      swap3\n      swap2\n      pop\n      pop\n      jump\t// out\n        /* \"#utility.yul\":4472:4718   */\n    tag_49:\n        /* \"#utility.yul\":4553:4554   */\n      0x00\n        /* \"#utility.yul\":4563:4676   */\n    tag_108:\n        /* \"#utility.yul\":4577:4583   */\n      dup4\n        /* \"#utility.yul\":4574:4575   */\n      dup2\n        /* \"#utility.yul\":4571:4584   */\n      lt\n        /* \"#utility.yul\":4563:4676   */\n      iszero\n      tag_110\n      jumpi\n        /* \"#utility.yul\":4662:4663   */\n      dup1\n        /* \"#utility.yul\":4657:4660   */\n      dup3\n        /* \"#utility.yul\":4653:4664   */\n      add\n        /* \"#utility.yul\":4647:4665   */\n      mload\n        /* \"#utility.yul\":4643:4644   */\n      dup2\n        /* \"#utility.yul\":4638:4641   */\n      dup5\n        /* \"#utility.yul\":4634:4645   */\n      add\n        /* \"#utility.yul\":4627:4666   */\n      mstore\n        /* \"#utility.yul\":4599:4601   */\n      0x20\n        /* \"#utility.yul\":4596:4597   */\n      dup2\n        /* \"#utility.yul\":4592:4602   */\n      add\n        /* \"#utility.yul\":4587:4602   */\n      swap1\n      pop\n        /* \"#utility.yul\":4563:4676   */\n      jump(tag_108)\n    tag_110:\n        /* \"#utility.yul\":4710:4711   */\n      0x00\n        /* \"#utility.yul\":4701:4707   */\n      dup5\n        /* \"#utility.yul\":4696:4699   */\n      dup5\n        /* \"#utility.yul\":4692:4708   */\n      add\n        /* \"#utility.yul\":4685:4712   */\n      mstore\n        /* \"#utility.yul\":4534:4718   */\n      pop\n        /* \"#utility.yul\":4472:4718   */\n      pop\n      pop\n      pop\n      jump\t// out\n        /* \"#utility.yul\":4724:5097   */\n    tag_50:\n        /* \"#utility.yul\":4810:4813   */\n      0x00\n        /* \"#utility.yul\":4838:4876   */\n      tag_112\n        /* \"#utility.yul\":4870:4875   */\n      dup3\n        /* \"#utility.yul\":4838:4876   */\n      tag_47\n      jump\t// in\n    tag_112:\n        /* \"#utility.yul\":4892:4962   */\n      tag_113\n        /* \"#utility.yul\":4955:4961   */\n      dup2\n        /* \"#utility.yul\":4950:4953   */\n      dup6\n        /* \"#utility.yul\":4892:4962   */\n      tag_48\n      jump\t// in\n    tag_113:\n        /* \"#utility.yul\":4885:4962   */\n      swap4\n      pop\n        /* \"#utility.yul\":4971:5036   */\n      tag_114\n        /* \"#utility.yul\":5029:5035   */\n      dup2\n        /* \"#utility.yul\":5024:5027   */\n      dup6\n        /* \"#utility.yul\":5017:5021   */\n      0x20\n        /* \"#utility.yul\":5010:5015   */\n      dup7\n        /* \"#utility.yul\":5006:5022   */\n      add\n        /* \"#utility.yul\":4971:5036   */\n      tag_49\n      jump\t// in\n    tag_114:\n        /* \"#utility.yul\":5061:5090   */\n      tag_115\n        /* \"#utility.yul\":5083:5089   */\n      dup2\n        /* \"#utility.yul\":5061:5090   */\n      tag_39\n      jump\t// in\n    tag_115:\n        /* \"#utility.yul\":5056:5059   */\n      dup5\n        /* \"#utility.yul\":5052:5091   */\n      add\n        /* \"#utility.yul\":5045:5091   */\n      swap2\n      pop\n        /* \"#utility.yul\":4814:5097   */\n      pop\n        /* \"#utility.yul\":4724:5097   */\n      swap3\n      swap2\n      pop\n      pop\n      jump\t// out\n        /* \"#utility.yul\":5103:5412   */\n    tag_21:\n        /* \"#utility.yul\":5214:5218   */\n      0x00\n        /* \"#utility.yul\":5252:5254   */\n      0x20\n        /* \"#utility.yul\":5241:5250   */\n      dup3\n        /* \"#utility.yul\":5237:5255   */\n      add\n        /* \"#utility.yul\":5229:5255   */\n      swap1\n      pop\n        /* \"#utility.yul\":5301:5310   */\n      dup2\n        /* \"#utility.yul\":5295:5299   */\n      dup2\n        /* \"#utility.yul\":5291:5311   */\n      sub\n        /* \"#utility.yul\":5287:5288   */\n      0x00\n        /* \"#utility.yul\":5276:5285   */\n      dup4\n        /* \"#utility.yul\":5272:5289   */\n      add\n        /* \"#utility.yul\":5265:5312   */\n      mstore\n        /* \"#utility.yul\":5329:5405   */\n      tag_117\n        /* \"#utility.yul\":5400:5404   */\n      dup2\n        /* \"#utility.yul\":5391:5397   */\n      dup5\n        /* \"#utility.yul\":5329:5405   */\n      tag_50\n      jump\t// in\n    tag_117:\n        /* \"#utility.yul\":5321:5405   */\n      swap1\n      pop\n        /* \"#utility.yul\":5103:5412   */\n      swap3\n      swap2\n      pop\n      pop\n      jump\t// out\n        /* \"#utility.yul\":5418:5517   */\n    tag_51:\n        /* \"#utility.yul\":5470:5476   */\n      0x00\n        /* \"#utility.yul\":5504:5509   */\n      dup2\n        /* \"#utility.yul\":5498:5510   */\n      mload\n        /* \"#utility.yul\":5488:5510   */\n      swap1\n      pop\n        /* \"#utility.yul\":5418:5517   */\n      swap2\n      swap1\n      pop\n      jump\t// out\n        /* \"#utility.yul\":5523:5671   */\n    tag_52:\n        /* \"#utility.yul\":5625:5636   */\n      0x00\n        /* \"#utility.yul\":5662:5665   */\n      dup2\n        /* \"#utility.yul\":5647:5665   */\n      swap1\n      pop\n        /* \"#utility.yul\":5523:5671   */\n      swap3\n      swap2\n      pop\n      pop\n      jump\t// out\n        /* \"#utility.yul\":5677:6067   */\n    tag_53:\n        /* \"#utility.yul\":5783:5786   */\n      0x00\n        /* \"#utility.yul\":5811:5850   */\n      tag_121\n        /* \"#utility.yul\":5844:5849   */\n      dup3\n        /* \"#utility.yul\":5811:5850   */\n      tag_51\n      jump\t// in\n    tag_121:\n        /* \"#utility.yul\":5866:5955   */\n      tag_122\n        /* \"#utility.yul\":5948:5954   */\n      dup2\n        /* \"#utility.yul\":5943:5946   */\n      dup6\n        /* \"#utility.yul\":5866:5955   */\n      tag_52\n      jump\t// in\n    tag_122:\n        /* \"#utility.yul\":5859:5955   */\n      swap4\n      pop\n        /* \"#utility.yul\":5964:6029   */\n      tag_123\n        /* \"#utility.yul\":6022:6028   */\n      dup2\n        /* \"#utility.yul\":6017:6020   */\n      dup6\n        /* \"#utility.yul\":6010:6014   */\n      0x20\n        /* \"#utility.yul\":6003:6008   */\n      dup7\n        /* \"#utility.yul\":5999:6015   */\n      add\n        /* \"#utility.yul\":5964:6029   */\n      tag_49\n      jump\t// in\n    tag_123:\n        /* \"#utility.yul\":6054:6060   */\n      dup1\n        /* \"#utility.yul\":6049:6052   */\n      dup5\n        /* \"#utility.yul\":6045:6061   */\n      add\n        /* \"#utility.yul\":6038:6061   */\n      swap2\n      pop\n        /* \"#utility.yul\":5787:6067   */\n      pop\n        /* \"#utility.yul\":5677:6067   */\n      swap3\n      swap2\n      pop\n      pop\n      jump\t// out\n        /* \"#utility.yul\":6073:6348   */\n    tag_28:\n        /* \"#utility.yul\":6205:6208   */\n      0x00\n        /* \"#utility.yul\":6227:6322   */\n      tag_125\n        /* \"#utility.yul\":6318:6321   */\n      dup3\n        /* \"#utility.yul\":6309:6315   */\n      dup5\n        /* \"#utility.yul\":6227:6322   */\n      tag_53\n      jump\t// in\n    tag_125:\n        /* \"#utility.yul\":6220:6322   */\n      swap2\n      pop\n        /* \"#utility.yul\":6339:6342   */\n      dup2\n        /* \"#utility.yul\":6332:6342   */\n      swap1\n      pop\n        /* \"#utility.yul\":6073:6348   */\n      swap3\n      swap2\n      pop\n      pop\n      jump\t// out\n\n    auxdata: 0xa2646970667358221220a272909a7257dab483d40f6daf2de0b391bb3c2f7799469ce947c6b22a49f5bd64736f6c63430008110033\n}\n",
				"bytecode": {
					"linkReferences": {},
					"object": "608060405260405180608001604052806040518060400160405280601581526020017f5458313a20536865726c6f636b202d3e204a6f686e000000000000000000000081525081526020016040518060400160405280601581526020017f5458323a204a6f686e202d3e20536865726c6f636b000000000000000000000081525081526020016040518060400160405280601181526020017f5458333a204a6f686e202d3e204d61727900000000000000000000000000000081525081526020016040518060400160405280601581526020017f5458343a204d617279202d3e20536865726c6f636b000000000000000000000081525081525060019060046200010b929190620002ce565b503480156200011957600080fd5b5060005b60048110156200021e576000620001e260018360048110620001445762000143620003ae565b5b01805462000152906200040c565b80601f016020809104026020016040519081016040528092919081815260200182805462000180906200040c565b8015620001d15780601f10620001a557610100808354040283529160200191620001d1565b820191906000526020600020905b815481529060010190602001808311620001b357829003601f168201915b50505050506200028260201b60201c565b9080600181540180825580915050600190039060005260206000200160009091909190915055808062000215906200047a565b9150506200011d565b5060006004905060005b60008211156200027a5760005b600183620002449190620004c7565b81101562000273576002836200025b919062000531565b925080806200026a906200047a565b91505062000235565b5062000228565b5050620008e3565b60006200029582620002a360201b60201c565b805190602001209050919050565b606081604051602001620002b89190620005e2565b6040516020818303038152906040529050919050565b82600481019282156200030e579160200282015b828111156200030d578251829081620002fc9190620007fc565b5091602001919060010190620002e2565b5b5090506200031d919062000321565b5090565b5b808211156200034557600081816200033b919062000349565b5060010162000322565b5090565b50805462000357906200040c565b6000825580601f106200036b57506200038c565b601f0160209004906000526020600020908101906200038b91906200038f565b5b50565b5b80821115620003aa57600081600090555060010162000390565b5090565b7f4e487b7100000000000000000000000000000000000000000000000000000000600052603260045260246000fd5b7f4e487b7100000000000000000000000000000000000000000000000000000000600052602260045260246000fd5b600060028204905060018216806200042557607f821691505b6020821081036200043b576200043a620003dd565b5b50919050565b7f4e487b7100000000000000000000000000000000000000000000000000000000600052601160045260246000fd5b6000819050919050565b6000620004878262000470565b91507fffffffffffffffffffffffffffffffffffffffffffffffffffffffffffffffff8203620004bc57620004bb62000441565b5b600182019050919050565b6000620004d48262000470565b9150620004e18362000470565b9250828203905081811115620004fc57620004fb62000441565b5b92915050565b7f4e487b7100000000000000000000000000000000000000000000000000000000600052601260045260246000fd5b60006200053e8262000470565b91506200054b8362000470565b9250826200055e576200055d62000502565b5b828204905092915050565b600081519050919050565b600081905092915050565b60005b838110156200059f57808201518184015260208101905062000582565b60008484015250505050565b6000620005b88262000569565b620005c4818562000574565b9350620005d68185602086016200057f565b80840191505092915050565b6000620005f08284620005ab565b915081905092915050565b7f4e487b7100000000000000000000000000000000000000000000000000000000600052604160045260246000fd5b60008190508160005260206000209050919050565b60006020601f8301049050919050565b600082821b905092915050565b6000600883026200068e7fffffffffffffffffffffffffffffffffffffffffffffffffffffffffffffffff826200064f565b6200069a86836200064f565b95508019841693508086168417925050509392505050565b6000819050919050565b6000620006dd620006d7620006d18462000470565b620006b2565b62000470565b9050919050565b6000819050919050565b620006f983620006bc565b620007116200070882620006e4565b8484546200065c565b825550505050565b600090565b6200072862000719565b62000735818484620006ee565b505050565b5b818110156200075d57620007516000826200071e565b6001810190506200073b565b5050565b601f821115620007ac5762000776816200062a565b62000781846200063f565b8101602085101562000791578190505b620007a9620007a0856200063f565b8301826200073a565b50505b505050565b600082821c905092915050565b6000620007d160001984600802620007b1565b1980831691505092915050565b6000620007ec8383620007be565b9150826002028217905092915050565b620008078262000569565b67ffffffffffffffff811115620008235762000822620005fb565b5b6200082f82546200040c565b6200083c82828562000761565b600060209050601f8311600181146200087457600084156200085f578287015190505b6200086b8582620007de565b865550620008db565b601f19841662000884866200062a565b60005b82811015620008ae5784890151825560018201915060208501945060208101905062000887565b86831015620008ce5784890151620008ca601f891682620007be565b8355505b6001600288020188555050505b505050505050565b6104ab80620008f36000396000f3fe608060405234801561001057600080fd5b50600436106100415760003560e01c8063501895ae1461004657806352de70af146100765780636a11b2a8146100a6575b600080fd5b610060600480360381019061005b9190610186565b6100d6565b60405161006d91906101cc565b60405180910390f35b610090600480360381019061008b919061032d565b6100fa565b60405161009d91906101cc565b60405180910390f35b6100c060048036038101906100bb919061032d565b610113565b6040516100cd91906103f5565b60405180910390f35b600081815481106100e657600080fd5b906000526020600020016000915090505481565b600061010582610113565b805190602001209050919050565b606081604051602001610126919061045e565b6040516020818303038152906040529050919050565b6000604051905090565b600080fd5b600080fd5b6000819050919050565b61016381610150565b811461016e57600080fd5b50565b6000813590506101808161015a565b92915050565b60006020828403121561019c5761019b610146565b5b60006101aa84828501610171565b91505092915050565b6000819050919050565b6101c6816101b3565b82525050565b60006020820190506101e160008301846101bd565b92915050565b600080fd5b600080fd5b6000601f19601f8301169050919050565b7f4e487b7100000000000000000000000000000000000000000000000000000000600052604160045260246000fd5b61023a826101f1565b810181811067ffffffffffffffff8211171561025957610258610202565b5b80604052505050565b600061026c61013c565b90506102788282610231565b919050565b600067ffffffffffffffff82111561029857610297610202565b5b6102a1826101f1565b9050602081019050919050565b82818337600083830152505050565b60006102d06102cb8461027d565b610262565b9050828152602081018484840111156102ec576102eb6101ec565b5b6102f78482856102ae565b509392505050565b600082601f830112610314576103136101e7565b5b81356103248482602086016102bd565b91505092915050565b60006020828403121561034357610342610146565b5b600082013567ffffffffffffffff8111156103615761036061014b565b5b61036d848285016102ff565b91505092915050565b600081519050919050565b600082825260208201905092915050565b60005b838110156103b0578082015181840152602081019050610395565b60008484015250505050565b60006103c782610376565b6103d18185610381565b93506103e1818560208601610392565b6103ea816101f1565b840191505092915050565b6000602082019050818103600083015261040f81846103bc565b905092915050565b600081519050919050565b600081905092915050565b600061043882610417565b6104428185610422565b9350610452818560208601610392565b80840191505092915050565b600061046a828461042d565b91508190509291505056fea2646970667358221220a272909a7257dab483d40f6daf2de0b391bb3c2f7799469ce947c6b22a49f5bd64736f6c63430008110033",
					"opcodes": "PUSH1 0x80 PUSH1 0x40 MSTORE PUSH1 0x40 MLOAD DUP1 PUSH1 0x80 ADD PUSH1 0x40 MSTORE DUP1 PUSH1 0x40 MLOAD DUP1 PUSH1 0x40 ADD PUSH1 0x40 MSTORE DUP1 PUSH1 0x15 DUP2 MSTORE PUSH1 0x20 ADD PUSH32 0x5458313A20536865726C6F636B202D3E204A6F686E0000000000000000000000 DUP2 MSTORE POP DUP2 MSTORE PUSH1 0x20 ADD PUSH1 0x40 MLOAD DUP1 PUSH1 0x40 ADD PUSH1 0x40 MSTORE DUP1 PUSH1 0x15 DUP2 MSTORE PUSH1 0x20 ADD PUSH32 0x5458323A204A6F686E202D3E20536865726C6F636B0000000000000000000000 DUP2 MSTORE POP DUP2 MSTORE PUSH1 0x20 ADD PUSH1 0x40 MLOAD DUP1 PUSH1 0x40 ADD PUSH1 0x40 MSTORE DUP1 PUSH1 0x11 DUP2 MSTORE PUSH1 0x20 ADD PUSH32 0x5458333A204A6F686E202D3E204D617279000000000000000000000000000000 DUP2 MSTORE POP DUP2 MSTORE PUSH1 0x20 ADD PUSH1 0x40 MLOAD DUP1 PUSH1 0x40 ADD PUSH1 0x40 MSTORE DUP1 PUSH1 0x15 DUP2 MSTORE PUSH1 0x20 ADD PUSH32 0x5458343A204D617279202D3E20536865726C6F636B0000000000000000000000 DUP2 MSTORE POP DUP2 MSTORE POP PUSH1 0x1 SWAP1 PUSH1 0x4 PUSH3 0x10B SWAP3 SWAP2 SWAP1 PUSH3 0x2CE JUMP JUMPDEST POP CALLVALUE DUP1 ISZERO PUSH3 0x119 JUMPI PUSH1 0x0 DUP1 REVERT JUMPDEST POP PUSH1 0x0 JUMPDEST PUSH1 0x4 DUP2 LT ISZERO PUSH3 0x21E JUMPI PUSH1 0x0 PUSH3 0x1E2 PUSH1 0x1 DUP4 PUSH1 0x4 DUP2 LT PUSH3 0x144 JUMPI PUSH3 0x143 PUSH3 0x3AE JUMP JUMPDEST JUMPDEST ADD DUP1 SLOAD PUSH3 0x152 SWAP1 PUSH3 0x40C JUMP JUMPDEST DUP1 PUSH1 0x1F ADD PUSH1 0x20 DUP1 SWAP2 DIV MUL PUSH1 0x20 ADD PUSH1 0x40 MLOAD SWAP1 DUP2 ADD PUSH1 0x40 MSTORE DUP1 SWAP3 SWAP2 SWAP1 DUP2 DUP2 MSTORE PUSH1 0x20 ADD DUP3 DUP1 SLOAD PUSH3 0x180 SWAP1 PUSH3 0x40C JUMP JUMPDEST DUP1 ISZERO PUSH3 0x1D1 JUMPI DUP1 PUSH1 0x1F LT PUSH3 0x1A5 JUMPI PUSH2 0x100 DUP1 DUP4 SLOAD DIV MUL DUP4 MSTORE SWAP2 PUSH1 0x20 ADD SWAP2 PUSH3 0x1D1 JUMP JUMPDEST DUP3 ADD SWAP2 SWAP1 PUSH1 0x0 MSTORE PUSH1 0x20 PUSH1 0x0 KECCAK256 SWAP1 JUMPDEST DUP2 SLOAD DUP2 MSTORE SWAP1 PUSH1 0x1 ADD SWAP1 PUSH1 0x20 ADD DUP1 DUP4 GT PUSH3 0x1B3 JUMPI DUP3 SWAP1 SUB PUSH1 0x1F AND DUP3 ADD SWAP2 JUMPDEST POP POP POP POP POP PUSH3 0x282 PUSH1 0x20 SHL PUSH1 0x20 SHR JUMP JUMPDEST SWAP1 DUP1 PUSH1 0x1 DUP2 SLOAD ADD DUP1 DUP3 SSTORE DUP1 SWAP2 POP POP PUSH1 0x1 SWAP1 SUB SWAP1 PUSH1 0x0 MSTORE PUSH1 0x20 PUSH1 0x0 KECCAK256 ADD PUSH1 0x0 SWAP1 SWAP2 SWAP1 SWAP2 SWAP1 SWAP2 POP SSTORE DUP1 DUP1 PUSH3 0x215 SWAP1 PUSH3 0x47A JUMP JUMPDEST SWAP2 POP POP PUSH3 0x11D JUMP JUMPDEST POP PUSH1 0x0 PUSH1 0x4 SWAP1 POP PUSH1 0x0 JUMPDEST PUSH1 0x0 DUP3 GT ISZERO PUSH3 0x27A JUMPI PUSH1 0x0 JUMPDEST PUSH1 0x1 DUP4 PUSH3 0x244 SWAP2 SWAP1 PUSH3 0x4C7 JUMP JUMPDEST DUP2 LT ISZERO PUSH3 0x273 JUMPI PUSH1 0x2 DUP4 PUSH3 0x25B SWAP2 SWAP1 PUSH3 0x531 JUMP JUMPDEST SWAP3 POP DUP1 DUP1 PUSH3 0x26A SWAP1 PUSH3 0x47A JUMP JUMPDEST SWAP2 POP POP PUSH3 0x235 JUMP JUMPDEST POP PUSH3 0x228 JUMP JUMPDEST POP POP PUSH3 0x8E3 JUMP JUMPDEST PUSH1 0x0 PUSH3 0x295 DUP3 PUSH3 0x2A3 PUSH1 0x20 SHL PUSH1 0x20 SHR JUMP JUMPDEST DUP1 MLOAD SWAP1 PUSH1 0x20 ADD KECCAK256 SWAP1 POP SWAP2 SWAP1 POP JUMP JUMPDEST PUSH1 0x60 DUP2 PUSH1 0x40 MLOAD PUSH1 0x20 ADD PUSH3 0x2B8 SWAP2 SWAP1 PUSH3 0x5E2 JUMP JUMPDEST PUSH1 0x40 MLOAD PUSH1 0x20 DUP2 DUP4 SUB SUB DUP2 MSTORE SWAP1 PUSH1 0x40 MSTORE SWAP1 POP SWAP2 SWAP1 POP JUMP JUMPDEST DUP3 PUSH1 0x4 DUP2 ADD SWAP3 DUP3 ISZERO PUSH3 0x30E JUMPI SWAP2 PUSH1 0x20 MUL DUP3 ADD JUMPDEST DUP3 DUP2 GT ISZERO PUSH3 0x30D JUMPI DUP3 MLOAD DUP3 SWAP1 DUP2 PUSH3 0x2FC SWAP2 SWAP1 PUSH3 0x7FC JUMP JUMPDEST POP SWAP2 PUSH1 0x20 ADD SWAP2 SWAP1 PUSH1 0x1 ADD SWAP1 PUSH3 0x2E2 JUMP JUMPDEST JUMPDEST POP SWAP1 POP PUSH3 0x31D SWAP2 SWAP1 PUSH3 0x321 JUMP JUMPDEST POP SWAP1 JUMP JUMPDEST JUMPDEST DUP1 DUP3 GT ISZERO PUSH3 0x345 JUMPI PUSH1 0x0 DUP2 DUP2 PUSH3 0x33B SWAP2 SWAP1 PUSH3 0x349 JUMP JUMPDEST POP PUSH1 0x1 ADD PUSH3 0x322 JUMP JUMPDEST POP SWAP1 JUMP JUMPDEST POP DUP1 SLOAD PUSH3 0x357 SWAP1 PUSH3 0x40C JUMP JUMPDEST PUSH1 0x0 DUP3 SSTORE DUP1 PUSH1 0x1F LT PUSH3 0x36B JUMPI POP PUSH3 0x38C JUMP JUMPDEST PUSH1 0x1F ADD PUSH1 0x20 SWAP1 DIV SWAP1 PUSH1 0x0 MSTORE PUSH1 0x20 PUSH1 0x0 KECCAK256 SWAP1 DUP2 ADD SWAP1 PUSH3 0x38B SWAP2 SWAP1 PUSH3 0x38F JUMP JUMPDEST JUMPDEST POP JUMP JUMPDEST JUMPDEST DUP1 DUP3 GT ISZERO PUSH3 0x3AA JUMPI PUSH1 0x0 DUP2 PUSH1 0x0 SWAP1 SSTORE POP PUSH1 0x1 ADD PUSH3 0x390 JUMP JUMPDEST POP SWAP1 JUMP JUMPDEST PUSH32 0x4E487B7100000000000000000000000000000000000000000000000000000000 PUSH1 0x0 MSTORE PUSH1 0x32 PUSH1 0x4 MSTORE PUSH1 0x24 PUSH1 0x0 REVERT JUMPDEST PUSH32 0x4E487B7100000000000000000000000000000000000000000000000000000000 PUSH1 0x0 MSTORE PUSH1 0x22 PUSH1 0x4 MSTORE PUSH1 0x24 PUSH1 0x0 REVERT JUMPDEST PUSH1 0x0 PUSH1 0x2 DUP3 DIV SWAP1 POP PUSH1 0x1 DUP3 AND DUP1 PUSH3 0x425 JUMPI PUSH1 0x7F DUP3 AND SWAP2 POP JUMPDEST PUSH1 0x20 DUP3 LT DUP2 SUB PUSH3 0x43B JUMPI PUSH3 0x43A PUSH3 0x3DD JUMP JUMPDEST JUMPDEST POP SWAP2 SWAP1 POP JUMP JUMPDEST PUSH32 0x4E487B7100000000000000000000000000000000000000000000000000000000 PUSH1 0x0 MSTORE PUSH1 0x11 PUSH1 0x4 MSTORE PUSH1 0x24 PUSH1 0x0 REVERT JUMPDEST PUSH1 0x0 DUP2 SWAP1 POP SWAP2 SWAP1 POP JUMP JUMPDEST PUSH1 0x0 PUSH3 0x487 DUP3 PUSH3 0x470 JUMP JUMPDEST SWAP2 POP PUSH32 0xFFFFFFFFFFFFFFFFFFFFFFFFFFFFFFFFFFFFFFFFFFFFFFFFFFFFFFFFFFFFFFFF DUP3 SUB PUSH3 0x4BC JUMPI PUSH3 0x4BB PUSH3 0x441 JUMP JUMPDEST JUMPDEST PUSH1 0x1 DUP3 ADD SWAP1 POP SWAP2 SWAP1 POP JUMP JUMPDEST PUSH1 0x0 PUSH3 0x4D4 DUP3 PUSH3 0x470 JUMP JUMPDEST SWAP2 POP PUSH3 0x4E1 DUP4 PUSH3 0x470 JUMP JUMPDEST SWAP3 POP DUP3 DUP3 SUB SWAP1 POP DUP2 DUP2 GT ISZERO PUSH3 0x4FC JUMPI PUSH3 0x4FB PUSH3 0x441 JUMP JUMPDEST JUMPDEST SWAP3 SWAP2 POP POP JUMP JUMPDEST PUSH32 0x4E487B7100000000000000000000000000000000000000000000000000000000 PUSH1 0x0 MSTORE PUSH1 0x12 PUSH1 0x4 MSTORE PUSH1 0x24 PUSH1 0x0 REVERT JUMPDEST PUSH1 0x0 PUSH3 0x53E DUP3 PUSH3 0x470 JUMP JUMPDEST SWAP2 POP PUSH3 0x54B DUP4 PUSH3 0x470 JUMP JUMPDEST SWAP3 POP DUP3 PUSH3 0x55E JUMPI PUSH3 0x55D PUSH3 0x502 JUMP JUMPDEST JUMPDEST DUP3 DUP3 DIV SWAP1 POP SWAP3 SWAP2 POP POP JUMP JUMPDEST PUSH1 0x0 DUP2 MLOAD SWAP1 POP SWAP2 SWAP1 POP JUMP JUMPDEST PUSH1 0x0 DUP2 SWAP1 POP SWAP3 SWAP2 POP POP JUMP JUMPDEST PUSH1 0x0 JUMPDEST DUP4 DUP2 LT ISZERO PUSH3 0x59F JUMPI DUP1 DUP3 ADD MLOAD DUP2 DUP5 ADD MSTORE PUSH1 0x20 DUP2 ADD SWAP1 POP PUSH3 0x582 JUMP JUMPDEST PUSH1 0x0 DUP5 DUP5 ADD MSTORE POP POP POP POP JUMP JUMPDEST PUSH1 0x0 PUSH3 0x5B8 DUP3 PUSH3 0x569 JUMP JUMPDEST PUSH3 0x5C4 DUP2 DUP6 PUSH3 0x574 JUMP JUMPDEST SWAP4 POP PUSH3 0x5D6 DUP2 DUP6 PUSH1 0x20 DUP7 ADD PUSH3 0x57F JUMP JUMPDEST DUP1 DUP5 ADD SWAP2 POP POP SWAP3 SWAP2 POP POP JUMP JUMPDEST PUSH1 0x0 PUSH3 0x5F0 DUP3 DUP5 PUSH3 0x5AB JUMP JUMPDEST SWAP2 POP DUP2 SWAP1 POP SWAP3 SWAP2 POP POP JUMP JUMPDEST PUSH32 0x4E487B7100000000000000000000000000000000000000000000000000000000 PUSH1 0x0 MSTORE PUSH1 0x41 PUSH1 0x4 MSTORE PUSH1 0x24 PUSH1 0x0 REVERT JUMPDEST PUSH1 0x0 DUP2 SWAP1 POP DUP2 PUSH1 0x0 MSTORE PUSH1 0x20 PUSH1 0x0 KECCAK256 SWAP1 POP SWAP2 SWAP1 POP JUMP JUMPDEST PUSH1 0x0 PUSH1 0x20 PUSH1 0x1F DUP4 ADD DIV SWAP1 POP SWAP2 SWAP1 POP JUMP JUMPDEST PUSH1 0x0 DUP3 DUP3 SHL SWAP1 POP SWAP3 SWAP2 POP POP JUMP JUMPDEST PUSH1 0x0 PUSH1 0x8 DUP4 MUL PUSH3 0x68E PUSH32 0xFFFFFFFFFFFFFFFFFFFFFFFFFFFFFFFFFFFFFFFFFFFFFFFFFFFFFFFFFFFFFFFF DUP3 PUSH3 0x64F JUMP JUMPDEST PUSH3 0x69A DUP7 DUP4 PUSH3 0x64F JUMP JUMPDEST SWAP6 POP DUP1 NOT DUP5 AND SWAP4 POP DUP1 DUP7 AND DUP5 OR SWAP3 POP POP POP SWAP4 SWAP3 POP POP POP JUMP JUMPDEST PUSH1 0x0 DUP2 SWAP1 POP SWAP2 SWAP1 POP JUMP JUMPDEST PUSH1 0x0 PUSH3 0x6DD PUSH3 0x6D7 PUSH3 0x6D1 DUP5 PUSH3 0x470 JUMP JUMPDEST PUSH3 0x6B2 JUMP JUMPDEST PUSH3 0x470 JUMP JUMPDEST SWAP1 POP SWAP2 SWAP1 POP JUMP JUMPDEST PUSH1 0x0 DUP2 SWAP1 POP SWAP2 SWAP1 POP JUMP JUMPDEST PUSH3 0x6F9 DUP4 PUSH3 0x6BC JUMP JUMPDEST PUSH3 0x711 PUSH3 0x708 DUP3 PUSH3 0x6E4 JUMP JUMPDEST DUP5 DUP5 SLOAD PUSH3 0x65C JUMP JUMPDEST DUP3 SSTORE POP POP POP POP JUMP JUMPDEST PUSH1 0x0 SWAP1 JUMP JUMPDEST PUSH3 0x728 PUSH3 0x719 JUMP JUMPDEST PUSH3 0x735 DUP2 DUP5 DUP5 PUSH3 0x6EE JUMP JUMPDEST POP POP POP JUMP JUMPDEST JUMPDEST DUP2 DUP2 LT ISZERO PUSH3 0x75D JUMPI PUSH3 0x751 PUSH1 0x0 DUP3 PUSH3 0x71E JUMP JUMPDEST PUSH1 0x1 DUP2 ADD SWAP1 POP PUSH3 0x73B JUMP JUMPDEST POP POP JUMP JUMPDEST PUSH1 0x1F DUP3 GT ISZERO PUSH3 0x7AC JUMPI PUSH3 0x776 DUP2 PUSH3 0x62A JUMP JUMPDEST PUSH3 0x781 DUP5 PUSH3 0x63F JUMP JUMPDEST DUP2 ADD PUSH1 0x20 DUP6 LT ISZERO PUSH3 0x791 JUMPI DUP2 SWAP1 POP JUMPDEST PUSH3 0x7A9 PUSH3 0x7A0 DUP6 PUSH3 0x63F JUMP JUMPDEST DUP4 ADD DUP3 PUSH3 0x73A JUMP JUMPDEST POP POP JUMPDEST POP POP POP JUMP JUMPDEST PUSH1 0x0 DUP3 DUP3 SHR SWAP1 POP SWAP3 SWAP2 POP POP JUMP JUMPDEST PUSH1 0x0 PUSH3 0x7D1 PUSH1 0x0 NOT DUP5 PUSH1 0x8 MUL PUSH3 0x7B1 JUMP JUMPDEST NOT DUP1 DUP4 AND SWAP2 POP POP SWAP3 SWAP2 POP POP JUMP JUMPDEST PUSH1 0x0 PUSH3 0x7EC DUP4 DUP4 PUSH3 0x7BE JUMP JUMPDEST SWAP2 POP DUP3 PUSH1 0x2 MUL DUP3 OR SWAP1 POP SWAP3 SWAP2 POP POP JUMP JUMPDEST PUSH3 0x807 DUP3 PUSH3 0x569 JUMP JUMPDEST PUSH8 0xFFFFFFFFFFFFFFFF DUP2 GT ISZERO PUSH3 0x823 JUMPI PUSH3 0x822 PUSH3 0x5FB JUMP JUMPDEST JUMPDEST PUSH3 0x82F DUP3 SLOAD PUSH3 0x40C JUMP JUMPDEST PUSH3 0x83C DUP3 DUP3 DUP6 PUSH3 0x761 JUMP JUMPDEST PUSH1 0x0 PUSH1 0x20 SWAP1 POP PUSH1 0x1F DUP4 GT PUSH1 0x1 DUP2 EQ PUSH3 0x874 JUMPI PUSH1 0x0 DUP5 ISZERO PUSH3 0x85F JUMPI DUP3 DUP8 ADD MLOAD SWAP1 POP JUMPDEST PUSH3 0x86B DUP6 DUP3 PUSH3 0x7DE JUMP JUMPDEST DUP7 SSTORE POP PUSH3 0x8DB JUMP JUMPDEST PUSH1 0x1F NOT DUP5 AND PUSH3 0x884 DUP7 PUSH3 0x62A JUMP JUMPDEST PUSH1 0x0 JUMPDEST DUP3 DUP2 LT ISZERO PUSH3 0x8AE JUMPI DUP5 DUP10 ADD MLOAD DUP3 SSTORE PUSH1 0x1 DUP3 ADD SWAP2 POP PUSH1 0x20 DUP6 ADD SWAP5 POP PUSH1 0x20 DUP2 ADD SWAP1 POP PUSH3 0x887 JUMP JUMPDEST DUP7 DUP4 LT ISZERO PUSH3 0x8CE JUMPI DUP5 DUP10 ADD MLOAD PUSH3 0x8CA PUSH1 0x1F DUP10 AND DUP3 PUSH3 0x7BE JUMP JUMPDEST DUP4 SSTORE POP JUMPDEST PUSH1 0x1 PUSH1 0x2 DUP9 MUL ADD DUP9 SSTORE POP POP POP JUMPDEST POP POP POP POP POP POP JUMP JUMPDEST PUSH2 0x4AB DUP1 PUSH3 0x8F3 PUSH1 0x0 CODECOPY PUSH1 0x0 RETURN INVALID PUSH1 0x80 PUSH1 0x40 MSTORE CALLVALUE DUP1 ISZERO PUSH2 0x10 JUMPI PUSH1 0x0 DUP1 REVERT JUMPDEST POP PUSH1 0x4 CALLDATASIZE LT PUSH2 0x41 JUMPI PUSH1 0x0 CALLDATALOAD PUSH1 0xE0 SHR DUP1 PUSH4 0x501895AE EQ PUSH2 0x46 JUMPI DUP1 PUSH4 0x52DE70AF EQ PUSH2 0x76 JUMPI DUP1 PUSH4 0x6A11B2A8 EQ PUSH2 0xA6 JUMPI JUMPDEST PUSH1 0x0 DUP1 REVERT JUMPDEST PUSH2 0x60 PUSH1 0x4 DUP1 CALLDATASIZE SUB DUP2 ADD SWAP1 PUSH2 0x5B SWAP2 SWAP1 PUSH2 0x186 JUMP JUMPDEST PUSH2 0xD6 JUMP JUMPDEST PUSH1 0x40 MLOAD PUSH2 0x6D SWAP2 SWAP1 PUSH2 0x1CC JUMP JUMPDEST PUSH1 0x40 MLOAD DUP1 SWAP2 SUB SWAP1 RETURN JUMPDEST PUSH2 0x90 PUSH1 0x4 DUP1 CALLDATASIZE SUB DUP2 ADD SWAP1 PUSH2 0x8B SWAP2 SWAP1 PUSH2 0x32D JUMP JUMPDEST PUSH2 0xFA JUMP JUMPDEST PUSH1 0x40 MLOAD PUSH2 0x9D SWAP2 SWAP1 PUSH2 0x1CC JUMP JUMPDEST PUSH1 0x40 MLOAD DUP1 SWAP2 SUB SWAP1 RETURN JUMPDEST PUSH2 0xC0 PUSH1 0x4 DUP1 CALLDATASIZE SUB DUP2 ADD SWAP1 PUSH2 0xBB SWAP2 SWAP1 PUSH2 0x32D JUMP JUMPDEST PUSH2 0x113 JUMP JUMPDEST PUSH1 0x40 MLOAD PUSH2 0xCD SWAP2 SWAP1 PUSH2 0x3F5 JUMP JUMPDEST PUSH1 0x40 MLOAD DUP1 SWAP2 SUB SWAP1 RETURN JUMPDEST PUSH1 0x0 DUP2 DUP2 SLOAD DUP2 LT PUSH2 0xE6 JUMPI PUSH1 0x0 DUP1 REVERT JUMPDEST SWAP1 PUSH1 0x0 MSTORE PUSH1 0x20 PUSH1 0x0 KECCAK256 ADD PUSH1 0x0 SWAP2 POP SWAP1 POP SLOAD DUP2 JUMP JUMPDEST PUSH1 0x0 PUSH2 0x105 DUP3 PUSH2 0x113 JUMP JUMPDEST DUP1 MLOAD SWAP1 PUSH1 0x20 ADD KECCAK256 SWAP1 POP SWAP2 SWAP1 POP JUMP JUMPDEST PUSH1 0x60 DUP2 PUSH1 0x40 MLOAD PUSH1 0x20 ADD PUSH2 0x126 SWAP2 SWAP1 PUSH2 0x45E JUMP JUMPDEST PUSH1 0x40 MLOAD PUSH1 0x20 DUP2 DUP4 SUB SUB DUP2 MSTORE SWAP1 PUSH1 0x40 MSTORE SWAP1 POP SWAP2 SWAP1 POP JUMP JUMPDEST PUSH1 0x0 PUSH1 0x40 MLOAD SWAP1 POP SWAP1 JUMP JUMPDEST PUSH1 0x0 DUP1 REVERT JUMPDEST PUSH1 0x0 DUP1 REVERT JUMPDEST PUSH1 0x0 DUP2 SWAP1 POP SWAP2 SWAP1 POP JUMP JUMPDEST PUSH2 0x163 DUP2 PUSH2 0x150 JUMP JUMPDEST DUP2 EQ PUSH2 0x16E JUMPI PUSH1 0x0 DUP1 REVERT JUMPDEST POP JUMP JUMPDEST PUSH1 0x0 DUP2 CALLDATALOAD SWAP1 POP PUSH2 0x180 DUP2 PUSH2 0x15A JUMP JUMPDEST SWAP3 SWAP2 POP POP JUMP JUMPDEST PUSH1 0x0 PUSH1 0x20 DUP3 DUP5 SUB SLT ISZERO PUSH2 0x19C JUMPI PUSH2 0x19B PUSH2 0x146 JUMP JUMPDEST JUMPDEST PUSH1 0x0 PUSH2 0x1AA DUP5 DUP3 DUP6 ADD PUSH2 0x171 JUMP JUMPDEST SWAP2 POP POP SWAP3 SWAP2 POP POP JUMP JUMPDEST PUSH1 0x0 DUP2 SWAP1 POP SWAP2 SWAP1 POP JUMP JUMPDEST PUSH2 0x1C6 DUP2 PUSH2 0x1B3 JUMP JUMPDEST DUP3 MSTORE POP POP JUMP JUMPDEST PUSH1 0x0 PUSH1 0x20 DUP3 ADD SWAP1 POP PUSH2 0x1E1 PUSH1 0x0 DUP4 ADD DUP5 PUSH2 0x1BD JUMP JUMPDEST SWAP3 SWAP2 POP POP JUMP JUMPDEST PUSH1 0x0 DUP1 REVERT JUMPDEST PUSH1 0x0 DUP1 REVERT JUMPDEST PUSH1 0x0 PUSH1 0x1F NOT PUSH1 0x1F DUP4 ADD AND SWAP1 POP SWAP2 SWAP1 POP JUMP JUMPDEST PUSH32 0x4E487B7100000000000000000000000000000000000000000000000000000000 PUSH1 0x0 MSTORE PUSH1 0x41 PUSH1 0x4 MSTORE PUSH1 0x24 PUSH1 0x0 REVERT JUMPDEST PUSH2 0x23A DUP3 PUSH2 0x1F1 JUMP JUMPDEST DUP2 ADD DUP2 DUP2 LT PUSH8 0xFFFFFFFFFFFFFFFF DUP3 GT OR ISZERO PUSH2 0x259 JUMPI PUSH2 0x258 PUSH2 0x202 JUMP JUMPDEST JUMPDEST DUP1 PUSH1 0x40 MSTORE POP POP POP JUMP JUMPDEST PUSH1 0x0 PUSH2 0x26C PUSH2 0x13C JUMP JUMPDEST SWAP1 POP PUSH2 0x278 DUP3 DUP3 PUSH2 0x231 JUMP JUMPDEST SWAP2 SWAP1 POP JUMP JUMPDEST PUSH1 0x0 PUSH8 0xFFFFFFFFFFFFFFFF DUP3 GT ISZERO PUSH2 0x298 JUMPI PUSH2 0x297 PUSH2 0x202 JUMP JUMPDEST JUMPDEST PUSH2 0x2A1 DUP3 PUSH2 0x1F1 JUMP JUMPDEST SWAP1 POP PUSH1 0x20 DUP2 ADD SWAP1 POP SWAP2 SWAP1 POP JUMP JUMPDEST DUP3 DUP2 DUP4 CALLDATACOPY PUSH1 0x0 DUP4 DUP4 ADD MSTORE POP POP POP JUMP JUMPDEST PUSH1 0x0 PUSH2 0x2D0 PUSH2 0x2CB DUP5 PUSH2 0x27D JUMP JUMPDEST PUSH2 0x262 JUMP JUMPDEST SWAP1 POP DUP3 DUP2 MSTORE PUSH1 0x20 DUP2 ADD DUP5 DUP5 DUP5 ADD GT ISZERO PUSH2 0x2EC JUMPI PUSH2 0x2EB PUSH2 0x1EC JUMP JUMPDEST JUMPDEST PUSH2 0x2F7 DUP5 DUP3 DUP6 PUSH2 0x2AE JUMP JUMPDEST POP SWAP4 SWAP3 POP POP POP JUMP JUMPDEST PUSH1 0x0 DUP3 PUSH1 0x1F DUP4 ADD SLT PUSH2 0x314 JUMPI PUSH2 0x313 PUSH2 0x1E7 JUMP JUMPDEST JUMPDEST DUP2 CALLDATALOAD PUSH2 0x324 DUP5 DUP3 PUSH1 0x20 DUP7 ADD PUSH2 0x2BD JUMP JUMPDEST SWAP2 POP POP SWAP3 SWAP2 POP POP JUMP JUMPDEST PUSH1 0x0 PUSH1 0x20 DUP3 DUP5 SUB SLT ISZERO PUSH2 0x343 JUMPI PUSH2 0x342 PUSH2 0x146 JUMP JUMPDEST JUMPDEST PUSH1 0x0 DUP3 ADD CALLDATALOAD PUSH8 0xFFFFFFFFFFFFFFFF DUP2 GT ISZERO PUSH2 0x361 JUMPI PUSH2 0x360 PUSH2 0x14B JUMP JUMPDEST JUMPDEST PUSH2 0x36D DUP5 DUP3 DUP6 ADD PUSH2 0x2FF JUMP JUMPDEST SWAP2 POP POP SWAP3 SWAP2 POP POP JUMP JUMPDEST PUSH1 0x0 DUP2 MLOAD SWAP1 POP SWAP2 SWAP1 POP JUMP JUMPDEST PUSH1 0x0 DUP3 DUP3 MSTORE PUSH1 0x20 DUP3 ADD SWAP1 POP SWAP3 SWAP2 POP POP JUMP JUMPDEST PUSH1 0x0 JUMPDEST DUP4 DUP2 LT ISZERO PUSH2 0x3B0 JUMPI DUP1 DUP3 ADD MLOAD DUP2 DUP5 ADD MSTORE PUSH1 0x20 DUP2 ADD SWAP1 POP PUSH2 0x395 JUMP JUMPDEST PUSH1 0x0 DUP5 DUP5 ADD MSTORE POP POP POP POP JUMP JUMPDEST PUSH1 0x0 PUSH2 0x3C7 DUP3 PUSH2 0x376 JUMP JUMPDEST PUSH2 0x3D1 DUP2 DUP6 PUSH2 0x381 JUMP JUMPDEST SWAP4 POP PUSH2 0x3E1 DUP2 DUP6 PUSH1 0x20 DUP7 ADD PUSH2 0x392 JUMP JUMPDEST PUSH2 0x3EA DUP2 PUSH2 0x1F1 JUMP JUMPDEST DUP5 ADD SWAP2 POP POP SWAP3 SWAP2 POP POP JUMP JUMPDEST PUSH1 0x0 PUSH1 0x20 DUP3 ADD SWAP1 POP DUP2 DUP2 SUB PUSH1 0x0 DUP4 ADD MSTORE PUSH2 0x40F DUP2 DUP5 PUSH2 0x3BC JUMP JUMPDEST SWAP1 POP SWAP3 SWAP2 POP POP JUMP JUMPDEST PUSH1 0x0 DUP2 MLOAD SWAP1 POP SWAP2 SWAP1 POP JUMP JUMPDEST PUSH1 0x0 DUP2 SWAP1 POP SWAP3 SWAP2 POP POP JUMP JUMPDEST PUSH1 0x0 PUSH2 0x438 DUP3 PUSH2 0x417 JUMP JUMPDEST PUSH2 0x442 DUP2 DUP6 PUSH2 0x422 JUMP JUMPDEST SWAP4 POP PUSH2 0x452 DUP2 DUP6 PUSH1 0x20 DUP7 ADD PUSH2 0x392 JUMP JUMPDEST DUP1 DUP5 ADD SWAP2 POP POP SWAP3 SWAP2 POP POP JUMP JUMPDEST PUSH1 0x0 PUSH2 0x46A DUP3 DUP5 PUSH2 0x42D JUMP JUMPDEST SWAP2 POP DUP2 SWAP1 POP SWAP3 SWAP2 POP POP JUMP INVALID LOG2 PUSH5 0x6970667358 0x22 SLT KECCAK256 LOG2 PUSH19 0x909A7257DAB483D40F6DAF2DE0B391BB3C2F77 SWAP10 CHAINID SWAP13 0xE9 SELFBALANCE 0xC6 0xB2 0x2A 0x49 CREATE2 0xBD PUSH5 0x736F6C6343 STOP ADDMOD GT STOP CALLER "
				},
				"gasEstimates": {
					"creation": {
						"codeDepositCost": "239000",
						"executionCost": "infinite",
						"totalCost": "infinite"
					},
					"external": {
						"encode(string)": "infinite",
						"hashes(uint256)": "4860",
						"makeHash(string)": "infinite"
					}
				},
				"methodIdentifiers": {
					"encode(string)": "6a11b2a8",
					"hashes(uint256)": "501895ae",
					"makeHash(string)": "52de70af"
				}
			},
			"storageLayout": {
				"storage": [
					{
						"astId": 4,
						"contract": "contracts/Lesson_4.sol:MerkleTree",
						"label": "hashes",
						"offset": 0,
						"slot": "0",
						"type": "t_array(t_bytes32)dyn_storage"
					},
					{
						"astId": 13,
						"contract": "contracts/Lesson_4.sol:MerkleTree",
						"label": "transactions",
						"offset": 0,
						"slot": "1",
						"type": "t_array(t_string_storage)4_storage"
					}
				],
				"types": {
					"t_array(t_bytes32)dyn_storage": {
						"base": "t_bytes32",
						"encoding": "dynamic_array",
						"label": "bytes32[]",
						"numberOfBytes": "32"
					},
					"t_array(t_string_storage)4_storage": {
						"base": "t_string_storage",
						"encoding": "inplace",
						"label": "string[4]",
						"numberOfBytes": "128"
					},
					"t_bytes32": {
						"encoding": "inplace",
						"label": "bytes32",
						"numberOfBytes": "32"
					},
					"t_string_storage": {
						"encoding": "bytes",
						"label": "string",
						"numberOfBytes": "32"
					}
				}
			},
			"userdoc": {
				"kind": "user",
				"methods": {},
				"version": 1
			}
		}
	}
}