{
	"contracts/Lesson_4.sol": {
		"MerkleTree": {
			"abi": [
				{
					"inputs": [],
					"stateMutability": "nonpayable",
					"type": "constructor"
				},
				{
					"inputs": [
						{
							"internalType": "string",
							"name": "input",
							"type": "string"
						}
					],
					"name": "encode",
					"outputs": [
						{
							"internalType": "bytes",
							"name": "",
							"type": "bytes"
						}
					],
					"stateMutability": "pure",
					"type": "function"
				},
				{
					"inputs": [
						{
							"internalType": "uint256",
							"name": "",
							"type": "uint256"
						}
					],
					"name": "hashes",
					"outputs": [
						{
							"internalType": "bytes32",
							"name": "",
							"type": "bytes32"
						}
					],
					"stateMutability": "view",
					"type": "function"
				},
				{
					"inputs": [
						{
							"internalType": "string",
							"name": "input",
							"type": "string"
						}
					],
					"name": "makeHash",
					"outputs": [
						{
							"internalType": "bytes32",
							"name": "",
							"type": "bytes32"
						}
					],
					"stateMutability": "pure",
					"type": "function"
				},
				{
					"inputs": [
						{
							"internalType": "string",
							"name": "transaction",
							"type": "string"
						},
						{
							"internalType": "uint256",
							"name": "index",
							"type": "uint256"
						},
						{
							"internalType": "bytes32",
							"name": "rootHash",
							"type": "bytes32"
						},
						{
							"internalType": "bytes32[]",
							"name": "proof",
							"type": "bytes32[]"
						}
					],
					"name": "verify",
					"outputs": [
						{
							"internalType": "bool",
							"name": "",
							"type": "bool"
						}
					],
					"stateMutability": "pure",
					"type": "function"
				}
			],
			"devdoc": {
				"kind": "dev",
				"methods": {},
				"version": 1
			},
			"evm": {
				"assembly": "    /* \"contracts/Lesson_4.sol\":78:1840  contract MerkleTree... */\n  mstore(0x40, 0x80)\n    /* \"contracts/Lesson_4.sol\":237:401  string[4] transactions = [... */\n  mload(0x40)\n  dup1\n  0x80\n  add\n  0x40\n  mstore\n  dup1\n  mload(0x40)\n  dup1\n  0x40\n  add\n  0x40\n  mstore\n  dup1\n  0x15\n  dup2\n  mstore\n  0x20\n  add\n  0x5458313a20536865726c6f636b202d3e204a6f686e0000000000000000000000\n  dup2\n  mstore\n  pop\n  dup2\n  mstore\n  0x20\n  add\n  mload(0x40)\n  dup1\n  0x40\n  add\n  0x40\n  mstore\n  dup1\n  0x15\n  dup2\n  mstore\n  0x20\n  add\n  0x5458323a204a6f686e202d3e20536865726c6f636b0000000000000000000000\n  dup2\n  mstore\n  pop\n  dup2\n  mstore\n  0x20\n  add\n  mload(0x40)\n  dup1\n  0x40\n  add\n  0x40\n  mstore\n  dup1\n  0x11\n  dup2\n  mstore\n  0x20\n  add\n  0x5458333a204a6f686e202d3e204d617279000000000000000000000000000000\n  dup2\n  mstore\n  pop\n  dup2\n  mstore\n  0x20\n  add\n  mload(0x40)\n  dup1\n  0x40\n  add\n  0x40\n  mstore\n  dup1\n  0x15\n  dup2\n  mstore\n  0x20\n  add\n  0x5458343a204d617279202d3e20536865726c6f636b0000000000000000000000\n  dup2\n  mstore\n  pop\n  dup2\n  mstore\n  pop\n  0x01\n  swap1\n  0x04\n  tag_1\n  swap3\n  swap2\n  swap1\n  tag_2\n  jump\t// in\ntag_1:\n  pop\n    /* \"contracts/Lesson_4.sol\":410:1161  constructor()... */\n  callvalue\n  dup1\n  iszero\n  tag_3\n  jumpi\n  0x00\n  dup1\n  revert\ntag_3:\n  pop\n    /* \"contracts/Lesson_4.sol\":541:547  uint i */\n  0x00\n    /* \"contracts/Lesson_4.sol\":537:657  for(uint i = 0; i < transactions.length; i++)... */\ntag_6:\n    /* \"contracts/Lesson_4.sol\":557:576  transactions.length */\n  0x04\n    /* \"contracts/Lesson_4.sol\":553:554  i */\n  dup2\n    /* \"contracts/Lesson_4.sol\":553:576  i < transactions.length */\n  lt\n    /* \"contracts/Lesson_4.sol\":537:657  for(uint i = 0; i < transactions.length; i++)... */\n  iszero\n  tag_7\n  jumpi\n    /* \"contracts/Lesson_4.sol\":607:613  hashes */\n  0x00\n    /* \"contracts/Lesson_4.sol\":619:644  makeHash(transactions[i]) */\n  tag_9\n    /* \"contracts/Lesson_4.sol\":628:640  transactions */\n  0x01\n    /* \"contracts/Lesson_4.sol\":641:642  i */\n  dup4\n    /* \"contracts/Lesson_4.sol\":628:643  transactions[i] */\n  0x04\n  dup2\n  lt\n  tag_10\n  jumpi\n  tag_11\n  tag_12\n  jump\t// in\ntag_11:\ntag_10:\n  add\n    /* \"contracts/Lesson_4.sol\":619:644  makeHash(transactions[i]) */\n  dup1\n  sload\n  tag_14\n  swap1\n  tag_15\n  jump\t// in\ntag_14:\n  dup1\n  0x1f\n  add\n  0x20\n  dup1\n  swap2\n  div\n  mul\n  0x20\n  add\n  mload(0x40)\n  swap1\n  dup2\n  add\n  0x40\n  mstore\n  dup1\n  swap3\n  swap2\n  swap1\n  dup2\n  dup2\n  mstore\n  0x20\n  add\n  dup3\n  dup1\n  sload\n  tag_16\n  swap1\n  tag_15\n  jump\t// in\ntag_16:\n  dup1\n  iszero\n  tag_17\n  jumpi\n  dup1\n  0x1f\n  lt\n  tag_18\n  jumpi\n  0x0100\n  dup1\n  dup4\n  sload\n  div\n  mul\n  dup4\n  mstore\n  swap2\n  0x20\n  add\n  swap2\n  jump(tag_17)\ntag_18:\n  dup3\n  add\n  swap2\n  swap1\n  0x00\n  mstore\n  keccak256(0x00, 0x20)\n  swap1\ntag_19:\n  dup2\n  sload\n  dup2\n  mstore\n  swap1\n  0x01\n  add\n  swap1\n  0x20\n  add\n  dup1\n  dup4\n  gt\n  tag_19\n  jumpi\n  dup3\n  swap1\n  sub\n  0x1f\n  and\n  dup3\n  add\n  swap2\ntag_17:\n  pop\n  pop\n  pop\n  pop\n  pop\n    /* \"contracts/Lesson_4.sol\":619:627  makeHash */\n  shl(0x20, tag_20)\n    /* \"contracts/Lesson_4.sol\":619:644  makeHash(transactions[i]) */\n  0x20\n  shr\n  jump\t// in\ntag_9:\n    /* \"contracts/Lesson_4.sol\":607:645  hashes.push(makeHash(transactions[i])) */\n  swap1\n  dup1\n  0x01\n  dup2\n  sload\n  add\n  dup1\n  dup3\n  sstore\n  dup1\n  swap2\n  pop\n  pop\n  0x01\n  swap1\n  sub\n  swap1\n  0x00\n  mstore\n  keccak256(0x00, 0x20)\n  add\n  0x00\n  swap1\n  swap2\n  swap1\n  swap2\n  swap1\n  swap2\n  pop\n  sstore\n    /* \"contracts/Lesson_4.sol\":578:581  i++ */\n  dup1\n  dup1\n  tag_22\n  swap1\n  tag_23\n  jump\t// in\ntag_22:\n  swap2\n  pop\n  pop\n    /* \"contracts/Lesson_4.sol\":537:657  for(uint i = 0; i < transactions.length; i++)... */\n  jump(tag_6)\ntag_7:\n  pop\n    /* \"contracts/Lesson_4.sol\":669:679  uint count */\n  0x00\n    /* \"contracts/Lesson_4.sol\":682:701  transactions.length */\n  0x04\n    /* \"contracts/Lesson_4.sol\":669:701  uint count = transactions.length */\n  swap1\n  pop\n    /* \"contracts/Lesson_4.sol\":712:723  uint offset */\n  0x00\n    /* \"contracts/Lesson_4.sol\":785:1154  while(count > 0)... */\ntag_24:\n    /* \"contracts/Lesson_4.sol\":799:800  0 */\n  0x00\n    /* \"contracts/Lesson_4.sol\":791:796  count */\n  dup3\n    /* \"contracts/Lesson_4.sol\":791:800  count > 0 */\n  gt\n    /* \"contracts/Lesson_4.sol\":785:1154  while(count > 0)... */\n  iszero\n  tag_25\n  jumpi\n    /* \"contracts/Lesson_4.sol\":831:837  uint i */\n  0x00\n    /* \"contracts/Lesson_4.sol\":826:1086  for (uint i = 0; i < count - 1; i += 2)... */\ntag_26:\n    /* \"contracts/Lesson_4.sol\":855:856  1 */\n  0x01\n    /* \"contracts/Lesson_4.sol\":847:852  count */\n  dup4\n    /* \"contracts/Lesson_4.sol\":847:856  count - 1 */\n  tag_29\n  swap2\n  swap1\n  tag_30\n  jump\t// in\ntag_29:\n    /* \"contracts/Lesson_4.sol\":843:844  i */\n  dup2\n    /* \"contracts/Lesson_4.sol\":843:856  i < count - 1 */\n  lt\n    /* \"contracts/Lesson_4.sol\":826:1086  for (uint i = 0; i < count - 1; i += 2)... */\n  iszero\n  tag_27\n  jumpi\n    /* \"contracts/Lesson_4.sol\":898:904  hashes */\n  0x00\n    /* \"contracts/Lesson_4.sol\":985:991  hashes */\n  dup1\n    /* \"contracts/Lesson_4.sol\":1001:1002  i */\n  dup3\n    /* \"contracts/Lesson_4.sol\":992:998  offset */\n  dup5\n    /* \"contracts/Lesson_4.sol\":992:1002  offset + i */\n  tag_31\n  swap2\n  swap1\n  tag_32\n  jump\t// in\ntag_31:\n    /* \"contracts/Lesson_4.sol\":985:1003  hashes[offset + i] */\n  dup2\n  sload\n  dup2\n  lt\n  tag_33\n  jumpi\n  tag_34\n  tag_12\n  jump\t// in\ntag_34:\ntag_33:\n  swap1\n  0x00\n  mstore\n  keccak256(0x00, 0x20)\n  add\n  sload\n    /* \"contracts/Lesson_4.sol\":1005:1011  hashes */\n  0x00\n    /* \"contracts/Lesson_4.sol\":1025:1026  1 */\n  0x01\n    /* \"contracts/Lesson_4.sol\":1021:1022  i */\n  dup5\n    /* \"contracts/Lesson_4.sol\":1012:1018  offset */\n  dup7\n    /* \"contracts/Lesson_4.sol\":1012:1022  offset + i */\n  tag_36\n  swap2\n  swap1\n  tag_32\n  jump\t// in\ntag_36:\n    /* \"contracts/Lesson_4.sol\":1012:1026  offset + i + 1 */\n  tag_37\n  swap2\n  swap1\n  tag_32\n  jump\t// in\ntag_37:\n    /* \"contracts/Lesson_4.sol\":1005:1027  hashes[offset + i + 1] */\n  dup2\n  sload\n  dup2\n  lt\n  tag_38\n  jumpi\n  tag_39\n  tag_12\n  jump\t// in\ntag_39:\ntag_38:\n  swap1\n  0x00\n  mstore\n  keccak256(0x00, 0x20)\n  add\n  sload\n    /* \"contracts/Lesson_4.sol\":942:1050  abi.encodePacked(... */\n  add(0x20, mload(0x40))\n  tag_41\n  swap3\n  swap2\n  swap1\n  tag_42\n  jump\t// in\ntag_41:\n  mload(0x40)\n  0x20\n  dup2\n  dup4\n  sub\n  sub\n  dup2\n  mstore\n  swap1\n  0x40\n  mstore\n    /* \"contracts/Lesson_4.sol\":910:1069  keccak256(... */\n  dup1\n  mload\n  swap1\n  0x20\n  add\n  keccak256\n    /* \"contracts/Lesson_4.sol\":898:1070  hashes.push(keccak256(... */\n  swap1\n  dup1\n  0x01\n  dup2\n  sload\n  add\n  dup1\n  dup3\n  sstore\n  dup1\n  swap2\n  pop\n  pop\n  0x01\n  swap1\n  sub\n  swap1\n  0x00\n  mstore\n  keccak256(0x00, 0x20)\n  add\n  0x00\n  swap1\n  swap2\n  swap1\n  swap2\n  swap1\n  swap2\n  pop\n  sstore\n    /* \"contracts/Lesson_4.sol\":863:864  2 */\n  0x02\n    /* \"contracts/Lesson_4.sol\":858:864  i += 2 */\n  dup2\n  tag_44\n  swap2\n  swap1\n  tag_32\n  jump\t// in\ntag_44:\n  swap1\n  pop\n    /* \"contracts/Lesson_4.sol\":826:1086  for (uint i = 0; i < count - 1; i += 2)... */\n  jump(tag_26)\ntag_27:\n  pop\n    /* \"contracts/Lesson_4.sol\":1112:1117  count */\n  dup2\n    /* \"contracts/Lesson_4.sol\":1102:1117  offset += count */\n  dup2\n  tag_45\n  swap2\n  swap1\n  tag_32\n  jump\t// in\ntag_45:\n  swap1\n  pop\n    /* \"contracts/Lesson_4.sol\":1141:1142  2 */\n  0x02\n    /* \"contracts/Lesson_4.sol\":1132:1142  count /= 2 */\n  dup3\n  tag_46\n  swap2\n  swap1\n  tag_47\n  jump\t// in\ntag_46:\n  swap2\n  pop\n    /* \"contracts/Lesson_4.sol\":785:1154  while(count > 0)... */\n  jump(tag_24)\ntag_25:\n    /* \"contracts/Lesson_4.sol\":429:1161  {... */\n  pop\n  pop\n    /* \"contracts/Lesson_4.sol\":78:1840  contract MerkleTree... */\n  jump(tag_48)\n    /* \"contracts/Lesson_4.sol\":1690:1837  function makeHash(string memory input) public pure returns(bytes32)... */\ntag_20:\n    /* \"contracts/Lesson_4.sol\":1749:1756  bytes32 */\n  0x00\n    /* \"contracts/Lesson_4.sol\":1805:1818  encode(input) */\n  tag_50\n    /* \"contracts/Lesson_4.sol\":1812:1817  input */\n  dup3\n    /* \"contracts/Lesson_4.sol\":1805:1811  encode */\n  shl(0x20, tag_51)\n    /* \"contracts/Lesson_4.sol\":1805:1818  encode(input) */\n  0x20\n  shr\n  jump\t// in\ntag_50:\n    /* \"contracts/Lesson_4.sol\":1781:1829  keccak256(... */\n  dup1\n  mload\n  swap1\n  0x20\n  add\n  keccak256\n    /* \"contracts/Lesson_4.sol\":1774:1829  return keccak256(... */\n  swap1\n  pop\n    /* \"contracts/Lesson_4.sol\":1690:1837  function makeHash(string memory input) public pure returns(bytes32)... */\n  swap2\n  swap1\n  pop\n  jump\t// out\n    /* \"contracts/Lesson_4.sol\":1557:1682  function encode(string memory input) public pure returns(bytes memory)... */\ntag_51:\n    /* \"contracts/Lesson_4.sol\":1614:1626  bytes memory */\n  0x60\n    /* \"contracts/Lesson_4.sol\":1668:1673  input */\n  dup2\n    /* \"contracts/Lesson_4.sol\":1651:1674  abi.encodePacked(input) */\n  add(0x20, mload(0x40))\n  tag_53\n  swap2\n  swap1\n  tag_54\n  jump\t// in\ntag_53:\n  mload(0x40)\n  0x20\n  dup2\n  dup4\n  sub\n  sub\n  dup2\n  mstore\n  swap1\n  0x40\n  mstore\n    /* \"contracts/Lesson_4.sol\":1644:1674  return abi.encodePacked(input) */\n  swap1\n  pop\n    /* \"contracts/Lesson_4.sol\":1557:1682  function encode(string memory input) public pure returns(bytes memory)... */\n  swap2\n  swap1\n  pop\n  jump\t// out\n    /* \"contracts/Lesson_4.sol\":78:1840  contract MerkleTree... */\ntag_2:\n  dup3\n  0x04\n  dup2\n  add\n  swap3\n  dup3\n  iszero\n  tag_55\n  jumpi\n  swap2\n  0x20\n  mul\n  dup3\n  add\ntag_56:\n  dup3\n  dup2\n  gt\n  iszero\n  tag_57\n  jumpi\n  dup3\n  mload\n  dup3\n  swap1\n  dup2\n  tag_58\n  swap2\n  swap1\n  tag_59\n  jump\t// in\ntag_58:\n  pop\n  swap2\n  0x20\n  add\n  swap2\n  swap1\n  0x01\n  add\n  swap1\n  jump(tag_56)\ntag_57:\ntag_55:\n  pop\n  swap1\n  pop\n  tag_60\n  swap2\n  swap1\n  tag_61\n  jump\t// in\ntag_60:\n  pop\n  swap1\n  jump\t// out\ntag_61:\ntag_62:\n  dup1\n  dup3\n  gt\n  iszero\n  tag_63\n  jumpi\n  0x00\n  dup2\n  dup2\n  tag_64\n  swap2\n  swap1\n  tag_65\n  jump\t// in\ntag_64:\n  pop\n  0x01\n  add\n  jump(tag_62)\ntag_63:\n  pop\n  swap1\n  jump\t// out\ntag_65:\n  pop\n  dup1\n  sload\n  tag_66\n  swap1\n  tag_15\n  jump\t// in\ntag_66:\n  0x00\n  dup3\n  sstore\n  dup1\n  0x1f\n  lt\n  tag_68\n  jumpi\n  pop\n  jump(tag_67)\ntag_68:\n  0x1f\n  add\n  0x20\n  swap1\n  div\n  swap1\n  0x00\n  mstore\n  keccak256(0x00, 0x20)\n  swap1\n  dup2\n  add\n  swap1\n  tag_69\n  swap2\n  swap1\n  tag_70\n  jump\t// in\ntag_69:\ntag_67:\n  pop\n  jump\t// out\ntag_70:\ntag_71:\n  dup1\n  dup3\n  gt\n  iszero\n  tag_72\n  jumpi\n  0x00\n  dup2\n  0x00\n  swap1\n  sstore\n  pop\n  0x01\n  add\n  jump(tag_71)\ntag_72:\n  pop\n  swap1\n  jump\t// out\n    /* \"#utility.yul\":7:187   */\ntag_12:\n    /* \"#utility.yul\":55:132   */\n  0x4e487b7100000000000000000000000000000000000000000000000000000000\n    /* \"#utility.yul\":52:53   */\n  0x00\n    /* \"#utility.yul\":45:133   */\n  mstore\n    /* \"#utility.yul\":152:156   */\n  0x32\n    /* \"#utility.yul\":149:150   */\n  0x04\n    /* \"#utility.yul\":142:157   */\n  mstore\n    /* \"#utility.yul\":176:180   */\n  0x24\n    /* \"#utility.yul\":173:174   */\n  0x00\n    /* \"#utility.yul\":166:181   */\n  revert\n    /* \"#utility.yul\":193:373   */\ntag_73:\n    /* \"#utility.yul\":241:318   */\n  0x4e487b7100000000000000000000000000000000000000000000000000000000\n    /* \"#utility.yul\":238:239   */\n  0x00\n    /* \"#utility.yul\":231:319   */\n  mstore\n    /* \"#utility.yul\":338:342   */\n  0x22\n    /* \"#utility.yul\":335:336   */\n  0x04\n    /* \"#utility.yul\":328:343   */\n  mstore\n    /* \"#utility.yul\":362:366   */\n  0x24\n    /* \"#utility.yul\":359:360   */\n  0x00\n    /* \"#utility.yul\":352:367   */\n  revert\n    /* \"#utility.yul\":379:699   */\ntag_15:\n    /* \"#utility.yul\":423:429   */\n  0x00\n    /* \"#utility.yul\":460:461   */\n  0x02\n    /* \"#utility.yul\":454:458   */\n  dup3\n    /* \"#utility.yul\":450:462   */\n  div\n    /* \"#utility.yul\":440:462   */\n  swap1\n  pop\n    /* \"#utility.yul\":507:508   */\n  0x01\n    /* \"#utility.yul\":501:505   */\n  dup3\n    /* \"#utility.yul\":497:509   */\n  and\n    /* \"#utility.yul\":528:546   */\n  dup1\n    /* \"#utility.yul\":518:599   */\n  tag_104\n  jumpi\n    /* \"#utility.yul\":584:588   */\n  0x7f\n    /* \"#utility.yul\":576:582   */\n  dup3\n    /* \"#utility.yul\":572:589   */\n  and\n    /* \"#utility.yul\":562:589   */\n  swap2\n  pop\n    /* \"#utility.yul\":518:599   */\ntag_104:\n    /* \"#utility.yul\":646:648   */\n  0x20\n    /* \"#utility.yul\":638:644   */\n  dup3\n    /* \"#utility.yul\":635:649   */\n  lt\n    /* \"#utility.yul\":615:633   */\n  dup2\n    /* \"#utility.yul\":612:650   */\n  sub\n    /* \"#utility.yul\":609:693   */\n  tag_105\n  jumpi\n    /* \"#utility.yul\":665:683   */\n  tag_106\n  tag_73\n  jump\t// in\ntag_106:\n    /* \"#utility.yul\":609:693   */\ntag_105:\n    /* \"#utility.yul\":430:699   */\n  pop\n    /* \"#utility.yul\":379:699   */\n  swap2\n  swap1\n  pop\n  jump\t// out\n    /* \"#utility.yul\":705:885   */\ntag_74:\n    /* \"#utility.yul\":753:830   */\n  0x4e487b7100000000000000000000000000000000000000000000000000000000\n    /* \"#utility.yul\":750:751   */\n  0x00\n    /* \"#utility.yul\":743:831   */\n  mstore\n    /* \"#utility.yul\":850:854   */\n  0x11\n    /* \"#utility.yul\":847:848   */\n  0x04\n    /* \"#utility.yul\":840:855   */\n  mstore\n    /* \"#utility.yul\":874:878   */\n  0x24\n    /* \"#utility.yul\":871:872   */\n  0x00\n    /* \"#utility.yul\":864:879   */\n  revert\n    /* \"#utility.yul\":891:968   */\ntag_75:\n    /* \"#utility.yul\":928:935   */\n  0x00\n    /* \"#utility.yul\":957:962   */\n  dup2\n    /* \"#utility.yul\":946:962   */\n  swap1\n  pop\n    /* \"#utility.yul\":891:968   */\n  swap2\n  swap1\n  pop\n  jump\t// out\n    /* \"#utility.yul\":974:1207   */\ntag_23:\n    /* \"#utility.yul\":1013:1016   */\n  0x00\n    /* \"#utility.yul\":1036:1060   */\n  tag_110\n    /* \"#utility.yul\":1054:1059   */\n  dup3\n    /* \"#utility.yul\":1036:1060   */\n  tag_75\n  jump\t// in\ntag_110:\n    /* \"#utility.yul\":1027:1060   */\n  swap2\n  pop\n    /* \"#utility.yul\":1082:1148   */\n  0xffffffffffffffffffffffffffffffffffffffffffffffffffffffffffffffff\n    /* \"#utility.yul\":1075:1080   */\n  dup3\n    /* \"#utility.yul\":1072:1149   */\n  sub\n    /* \"#utility.yul\":1069:1172   */\n  tag_111\n  jumpi\n    /* \"#utility.yul\":1152:1170   */\n  tag_112\n  tag_74\n  jump\t// in\ntag_112:\n    /* \"#utility.yul\":1069:1172   */\ntag_111:\n    /* \"#utility.yul\":1199:1200   */\n  0x01\n    /* \"#utility.yul\":1192:1197   */\n  dup3\n    /* \"#utility.yul\":1188:1201   */\n  add\n    /* \"#utility.yul\":1181:1201   */\n  swap1\n  pop\n    /* \"#utility.yul\":974:1207   */\n  swap2\n  swap1\n  pop\n  jump\t// out\n    /* \"#utility.yul\":1213:1407   */\ntag_30:\n    /* \"#utility.yul\":1253:1257   */\n  0x00\n    /* \"#utility.yul\":1273:1293   */\n  tag_114\n    /* \"#utility.yul\":1291:1292   */\n  dup3\n    /* \"#utility.yul\":1273:1293   */\n  tag_75\n  jump\t// in\ntag_114:\n    /* \"#utility.yul\":1268:1293   */\n  swap2\n  pop\n    /* \"#utility.yul\":1307:1327   */\n  tag_115\n    /* \"#utility.yul\":1325:1326   */\n  dup4\n    /* \"#utility.yul\":1307:1327   */\n  tag_75\n  jump\t// in\ntag_115:\n    /* \"#utility.yul\":1302:1327   */\n  swap3\n  pop\n    /* \"#utility.yul\":1351:1352   */\n  dup3\n    /* \"#utility.yul\":1348:1349   */\n  dup3\n    /* \"#utility.yul\":1344:1353   */\n  sub\n    /* \"#utility.yul\":1336:1353   */\n  swap1\n  pop\n    /* \"#utility.yul\":1375:1376   */\n  dup2\n    /* \"#utility.yul\":1369:1373   */\n  dup2\n    /* \"#utility.yul\":1366:1377   */\n  gt\n    /* \"#utility.yul\":1363:1400   */\n  iszero\n  tag_116\n  jumpi\n    /* \"#utility.yul\":1380:1398   */\n  tag_117\n  tag_74\n  jump\t// in\ntag_117:\n    /* \"#utility.yul\":1363:1400   */\ntag_116:\n    /* \"#utility.yul\":1213:1407   */\n  swap3\n  swap2\n  pop\n  pop\n  jump\t// out\n    /* \"#utility.yul\":1413:1604   */\ntag_32:\n    /* \"#utility.yul\":1453:1456   */\n  0x00\n    /* \"#utility.yul\":1472:1492   */\n  tag_119\n    /* \"#utility.yul\":1490:1491   */\n  dup3\n    /* \"#utility.yul\":1472:1492   */\n  tag_75\n  jump\t// in\ntag_119:\n    /* \"#utility.yul\":1467:1492   */\n  swap2\n  pop\n    /* \"#utility.yul\":1506:1526   */\n  tag_120\n    /* \"#utility.yul\":1524:1525   */\n  dup4\n    /* \"#utility.yul\":1506:1526   */\n  tag_75\n  jump\t// in\ntag_120:\n    /* \"#utility.yul\":1501:1526   */\n  swap3\n  pop\n    /* \"#utility.yul\":1549:1550   */\n  dup3\n    /* \"#utility.yul\":1546:1547   */\n  dup3\n    /* \"#utility.yul\":1542:1551   */\n  add\n    /* \"#utility.yul\":1535:1551   */\n  swap1\n  pop\n    /* \"#utility.yul\":1570:1573   */\n  dup1\n    /* \"#utility.yul\":1567:1568   */\n  dup3\n    /* \"#utility.yul\":1564:1574   */\n  gt\n    /* \"#utility.yul\":1561:1597   */\n  iszero\n  tag_121\n  jumpi\n    /* \"#utility.yul\":1577:1595   */\n  tag_122\n  tag_74\n  jump\t// in\ntag_122:\n    /* \"#utility.yul\":1561:1597   */\ntag_121:\n    /* \"#utility.yul\":1413:1604   */\n  swap3\n  swap2\n  pop\n  pop\n  jump\t// out\n    /* \"#utility.yul\":1610:1687   */\ntag_76:\n    /* \"#utility.yul\":1647:1654   */\n  0x00\n    /* \"#utility.yul\":1676:1681   */\n  dup2\n    /* \"#utility.yul\":1665:1681   */\n  swap1\n  pop\n    /* \"#utility.yul\":1610:1687   */\n  swap2\n  swap1\n  pop\n  jump\t// out\n    /* \"#utility.yul\":1693:1772   */\ntag_77:\n    /* \"#utility.yul\":1732:1739   */\n  0x00\n    /* \"#utility.yul\":1761:1766   */\n  dup2\n    /* \"#utility.yul\":1750:1766   */\n  swap1\n  pop\n    /* \"#utility.yul\":1693:1772   */\n  swap2\n  swap1\n  pop\n  jump\t// out\n    /* \"#utility.yul\":1778:1935   */\ntag_78:\n    /* \"#utility.yul\":1883:1928   */\n  tag_126\n    /* \"#utility.yul\":1903:1927   */\n  tag_127\n    /* \"#utility.yul\":1921:1926   */\n  dup3\n    /* \"#utility.yul\":1903:1927   */\n  tag_76\n  jump\t// in\ntag_127:\n    /* \"#utility.yul\":1883:1928   */\n  tag_77\n  jump\t// in\ntag_126:\n    /* \"#utility.yul\":1878:1881   */\n  dup3\n    /* \"#utility.yul\":1871:1929   */\n  mstore\n    /* \"#utility.yul\":1778:1935   */\n  pop\n  pop\n  jump\t// out\n    /* \"#utility.yul\":1941:2338   */\ntag_42:\n    /* \"#utility.yul\":2081:2084   */\n  0x00\n    /* \"#utility.yul\":2096:2171   */\n  tag_129\n    /* \"#utility.yul\":2167:2170   */\n  dup3\n    /* \"#utility.yul\":2158:2164   */\n  dup6\n    /* \"#utility.yul\":2096:2171   */\n  tag_78\n  jump\t// in\ntag_129:\n    /* \"#utility.yul\":2196:2198   */\n  0x20\n    /* \"#utility.yul\":2191:2194   */\n  dup3\n    /* \"#utility.yul\":2187:2199   */\n  add\n    /* \"#utility.yul\":2180:2199   */\n  swap2\n  pop\n    /* \"#utility.yul\":2209:2284   */\n  tag_130\n    /* \"#utility.yul\":2280:2283   */\n  dup3\n    /* \"#utility.yul\":2271:2277   */\n  dup5\n    /* \"#utility.yul\":2209:2284   */\n  tag_78\n  jump\t// in\ntag_130:\n    /* \"#utility.yul\":2309:2311   */\n  0x20\n    /* \"#utility.yul\":2304:2307   */\n  dup3\n    /* \"#utility.yul\":2300:2312   */\n  add\n    /* \"#utility.yul\":2293:2312   */\n  swap2\n  pop\n    /* \"#utility.yul\":2329:2332   */\n  dup2\n    /* \"#utility.yul\":2322:2332   */\n  swap1\n  pop\n    /* \"#utility.yul\":1941:2338   */\n  swap4\n  swap3\n  pop\n  pop\n  pop\n  jump\t// out\n    /* \"#utility.yul\":2344:2524   */\ntag_79:\n    /* \"#utility.yul\":2392:2469   */\n  0x4e487b7100000000000000000000000000000000000000000000000000000000\n    /* \"#utility.yul\":2389:2390   */\n  0x00\n    /* \"#utility.yul\":2382:2470   */\n  mstore\n    /* \"#utility.yul\":2489:2493   */\n  0x12\n    /* \"#utility.yul\":2486:2487   */\n  0x04\n    /* \"#utility.yul\":2479:2494   */\n  mstore\n    /* \"#utility.yul\":2513:2517   */\n  0x24\n    /* \"#utility.yul\":2510:2511   */\n  0x00\n    /* \"#utility.yul\":2503:2518   */\n  revert\n    /* \"#utility.yul\":2530:2715   */\ntag_47:\n    /* \"#utility.yul\":2570:2571   */\n  0x00\n    /* \"#utility.yul\":2587:2607   */\n  tag_133\n    /* \"#utility.yul\":2605:2606   */\n  dup3\n    /* \"#utility.yul\":2587:2607   */\n  tag_75\n  jump\t// in\ntag_133:\n    /* \"#utility.yul\":2582:2607   */\n  swap2\n  pop\n    /* \"#utility.yul\":2621:2641   */\n  tag_134\n    /* \"#utility.yul\":2639:2640   */\n  dup4\n    /* \"#utility.yul\":2621:2641   */\n  tag_75\n  jump\t// in\ntag_134:\n    /* \"#utility.yul\":2616:2641   */\n  swap3\n  pop\n    /* \"#utility.yul\":2660:2661   */\n  dup3\n    /* \"#utility.yul\":2650:2685   */\n  tag_135\n  jumpi\n    /* \"#utility.yul\":2665:2683   */\n  tag_136\n  tag_79\n  jump\t// in\ntag_136:\n    /* \"#utility.yul\":2650:2685   */\ntag_135:\n    /* \"#utility.yul\":2707:2708   */\n  dup3\n    /* \"#utility.yul\":2704:2705   */\n  dup3\n    /* \"#utility.yul\":2700:2709   */\n  div\n    /* \"#utility.yul\":2695:2709   */\n  swap1\n  pop\n    /* \"#utility.yul\":2530:2715   */\n  swap3\n  swap2\n  pop\n  pop\n  jump\t// out\n    /* \"#utility.yul\":2721:2820   */\ntag_80:\n    /* \"#utility.yul\":2773:2779   */\n  0x00\n    /* \"#utility.yul\":2807:2812   */\n  dup2\n    /* \"#utility.yul\":2801:2813   */\n  mload\n    /* \"#utility.yul\":2791:2813   */\n  swap1\n  pop\n    /* \"#utility.yul\":2721:2820   */\n  swap2\n  swap1\n  pop\n  jump\t// out\n    /* \"#utility.yul\":2826:2974   */\ntag_81:\n    /* \"#utility.yul\":2928:2939   */\n  0x00\n    /* \"#utility.yul\":2965:2968   */\n  dup2\n    /* \"#utility.yul\":2950:2968   */\n  swap1\n  pop\n    /* \"#utility.yul\":2826:2974   */\n  swap3\n  swap2\n  pop\n  pop\n  jump\t// out\n    /* \"#utility.yul\":2980:3226   */\ntag_82:\n    /* \"#utility.yul\":3061:3062   */\n  0x00\n    /* \"#utility.yul\":3071:3184   */\ntag_140:\n    /* \"#utility.yul\":3085:3091   */\n  dup4\n    /* \"#utility.yul\":3082:3083   */\n  dup2\n    /* \"#utility.yul\":3079:3092   */\n  lt\n    /* \"#utility.yul\":3071:3184   */\n  iszero\n  tag_142\n  jumpi\n    /* \"#utility.yul\":3170:3171   */\n  dup1\n    /* \"#utility.yul\":3165:3168   */\n  dup3\n    /* \"#utility.yul\":3161:3172   */\n  add\n    /* \"#utility.yul\":3155:3173   */\n  mload\n    /* \"#utility.yul\":3151:3152   */\n  dup2\n    /* \"#utility.yul\":3146:3149   */\n  dup5\n    /* \"#utility.yul\":3142:3153   */\n  add\n    /* \"#utility.yul\":3135:3174   */\n  mstore\n    /* \"#utility.yul\":3107:3109   */\n  0x20\n    /* \"#utility.yul\":3104:3105   */\n  dup2\n    /* \"#utility.yul\":3100:3110   */\n  add\n    /* \"#utility.yul\":3095:3110   */\n  swap1\n  pop\n    /* \"#utility.yul\":3071:3184   */\n  jump(tag_140)\ntag_142:\n    /* \"#utility.yul\":3218:3219   */\n  0x00\n    /* \"#utility.yul\":3209:3215   */\n  dup5\n    /* \"#utility.yul\":3204:3207   */\n  dup5\n    /* \"#utility.yul\":3200:3216   */\n  add\n    /* \"#utility.yul\":3193:3220   */\n  mstore\n    /* \"#utility.yul\":3042:3226   */\n  pop\n    /* \"#utility.yul\":2980:3226   */\n  pop\n  pop\n  pop\n  jump\t// out\n    /* \"#utility.yul\":3232:3622   */\ntag_83:\n    /* \"#utility.yul\":3338:3341   */\n  0x00\n    /* \"#utility.yul\":3366:3405   */\n  tag_144\n    /* \"#utility.yul\":3399:3404   */\n  dup3\n    /* \"#utility.yul\":3366:3405   */\n  tag_80\n  jump\t// in\ntag_144:\n    /* \"#utility.yul\":3421:3510   */\n  tag_145\n    /* \"#utility.yul\":3503:3509   */\n  dup2\n    /* \"#utility.yul\":3498:3501   */\n  dup6\n    /* \"#utility.yul\":3421:3510   */\n  tag_81\n  jump\t// in\ntag_145:\n    /* \"#utility.yul\":3414:3510   */\n  swap4\n  pop\n    /* \"#utility.yul\":3519:3584   */\n  tag_146\n    /* \"#utility.yul\":3577:3583   */\n  dup2\n    /* \"#utility.yul\":3572:3575   */\n  dup6\n    /* \"#utility.yul\":3565:3569   */\n  0x20\n    /* \"#utility.yul\":3558:3563   */\n  dup7\n    /* \"#utility.yul\":3554:3570   */\n  add\n    /* \"#utility.yul\":3519:3584   */\n  tag_82\n  jump\t// in\ntag_146:\n    /* \"#utility.yul\":3609:3615   */\n  dup1\n    /* \"#utility.yul\":3604:3607   */\n  dup5\n    /* \"#utility.yul\":3600:3616   */\n  add\n    /* \"#utility.yul\":3593:3616   */\n  swap2\n  pop\n    /* \"#utility.yul\":3342:3622   */\n  pop\n    /* \"#utility.yul\":3232:3622   */\n  swap3\n  swap2\n  pop\n  pop\n  jump\t// out\n    /* \"#utility.yul\":3628:3903   */\ntag_54:\n    /* \"#utility.yul\":3760:3763   */\n  0x00\n    /* \"#utility.yul\":3782:3877   */\n  tag_148\n    /* \"#utility.yul\":3873:3876   */\n  dup3\n    /* \"#utility.yul\":3864:3870   */\n  dup5\n    /* \"#utility.yul\":3782:3877   */\n  tag_83\n  jump\t// in\ntag_148:\n    /* \"#utility.yul\":3775:3877   */\n  swap2\n  pop\n    /* \"#utility.yul\":3894:3897   */\n  dup2\n    /* \"#utility.yul\":3887:3897   */\n  swap1\n  pop\n    /* \"#utility.yul\":3628:3903   */\n  swap3\n  swap2\n  pop\n  pop\n  jump\t// out\n    /* \"#utility.yul\":3909:4089   */\ntag_84:\n    /* \"#utility.yul\":3957:4034   */\n  0x4e487b7100000000000000000000000000000000000000000000000000000000\n    /* \"#utility.yul\":3954:3955   */\n  0x00\n    /* \"#utility.yul\":3947:4035   */\n  mstore\n    /* \"#utility.yul\":4054:4058   */\n  0x41\n    /* \"#utility.yul\":4051:4052   */\n  0x04\n    /* \"#utility.yul\":4044:4059   */\n  mstore\n    /* \"#utility.yul\":4078:4082   */\n  0x24\n    /* \"#utility.yul\":4075:4076   */\n  0x00\n    /* \"#utility.yul\":4068:4083   */\n  revert\n    /* \"#utility.yul\":4095:4236   */\ntag_85:\n    /* \"#utility.yul\":4144:4148   */\n  0x00\n    /* \"#utility.yul\":4167:4170   */\n  dup2\n    /* \"#utility.yul\":4159:4170   */\n  swap1\n  pop\n    /* \"#utility.yul\":4190:4193   */\n  dup2\n    /* \"#utility.yul\":4187:4188   */\n  0x00\n    /* \"#utility.yul\":4180:4194   */\n  mstore\n    /* \"#utility.yul\":4224:4228   */\n  0x20\n    /* \"#utility.yul\":4221:4222   */\n  0x00\n    /* \"#utility.yul\":4211:4229   */\n  keccak256\n    /* \"#utility.yul\":4203:4229   */\n  swap1\n  pop\n    /* \"#utility.yul\":4095:4236   */\n  swap2\n  swap1\n  pop\n  jump\t// out\n    /* \"#utility.yul\":4242:4335   */\ntag_86:\n    /* \"#utility.yul\":4279:4285   */\n  0x00\n    /* \"#utility.yul\":4326:4328   */\n  0x20\n    /* \"#utility.yul\":4321:4323   */\n  0x1f\n    /* \"#utility.yul\":4314:4319   */\n  dup4\n    /* \"#utility.yul\":4310:4324   */\n  add\n    /* \"#utility.yul\":4306:4329   */\n  div\n    /* \"#utility.yul\":4296:4329   */\n  swap1\n  pop\n    /* \"#utility.yul\":4242:4335   */\n  swap2\n  swap1\n  pop\n  jump\t// out\n    /* \"#utility.yul\":4341:4448   */\ntag_87:\n    /* \"#utility.yul\":4385:4393   */\n  0x00\n    /* \"#utility.yul\":4435:4440   */\n  dup3\n    /* \"#utility.yul\":4429:4433   */\n  dup3\n    /* \"#utility.yul\":4425:4441   */\n  shl\n    /* \"#utility.yul\":4404:4441   */\n  swap1\n  pop\n    /* \"#utility.yul\":4341:4448   */\n  swap3\n  swap2\n  pop\n  pop\n  jump\t// out\n    /* \"#utility.yul\":4454:4847   */\ntag_88:\n    /* \"#utility.yul\":4523:4529   */\n  0x00\n    /* \"#utility.yul\":4573:4574   */\n  0x08\n    /* \"#utility.yul\":4561:4571   */\n  dup4\n    /* \"#utility.yul\":4557:4575   */\n  mul\n    /* \"#utility.yul\":4596:4693   */\n  tag_154\n    /* \"#utility.yul\":4626:4692   */\n  0xffffffffffffffffffffffffffffffffffffffffffffffffffffffffffffffff\n    /* \"#utility.yul\":4615:4624   */\n  dup3\n    /* \"#utility.yul\":4596:4693   */\n  tag_87\n  jump\t// in\ntag_154:\n    /* \"#utility.yul\":4714:4753   */\n  tag_155\n    /* \"#utility.yul\":4744:4752   */\n  dup7\n    /* \"#utility.yul\":4733:4742   */\n  dup4\n    /* \"#utility.yul\":4714:4753   */\n  tag_87\n  jump\t// in\ntag_155:\n    /* \"#utility.yul\":4702:4753   */\n  swap6\n  pop\n    /* \"#utility.yul\":4786:4790   */\n  dup1\n    /* \"#utility.yul\":4782:4791   */\n  not\n    /* \"#utility.yul\":4775:4780   */\n  dup5\n    /* \"#utility.yul\":4771:4792   */\n  and\n    /* \"#utility.yul\":4762:4792   */\n  swap4\n  pop\n    /* \"#utility.yul\":4835:4839   */\n  dup1\n    /* \"#utility.yul\":4825:4833   */\n  dup7\n    /* \"#utility.yul\":4821:4840   */\n  and\n    /* \"#utility.yul\":4814:4819   */\n  dup5\n    /* \"#utility.yul\":4811:4841   */\n  or\n    /* \"#utility.yul\":4801:4841   */\n  swap3\n  pop\n    /* \"#utility.yul\":4530:4847   */\n  pop\n  pop\n    /* \"#utility.yul\":4454:4847   */\n  swap4\n  swap3\n  pop\n  pop\n  pop\n  jump\t// out\n    /* \"#utility.yul\":4853:4913   */\ntag_89:\n    /* \"#utility.yul\":4881:4884   */\n  0x00\n    /* \"#utility.yul\":4902:4907   */\n  dup2\n    /* \"#utility.yul\":4895:4907   */\n  swap1\n  pop\n    /* \"#utility.yul\":4853:4913   */\n  swap2\n  swap1\n  pop\n  jump\t// out\n    /* \"#utility.yul\":4919:5061   */\ntag_90:\n    /* \"#utility.yul\":4969:4978   */\n  0x00\n    /* \"#utility.yul\":5002:5055   */\n  tag_158\n    /* \"#utility.yul\":5020:5054   */\n  tag_159\n    /* \"#utility.yul\":5029:5053   */\n  tag_160\n    /* \"#utility.yul\":5047:5052   */\n  dup5\n    /* \"#utility.yul\":5029:5053   */\n  tag_75\n  jump\t// in\ntag_160:\n    /* \"#utility.yul\":5020:5054   */\n  tag_89\n  jump\t// in\ntag_159:\n    /* \"#utility.yul\":5002:5055   */\n  tag_75\n  jump\t// in\ntag_158:\n    /* \"#utility.yul\":4989:5055   */\n  swap1\n  pop\n    /* \"#utility.yul\":4919:5061   */\n  swap2\n  swap1\n  pop\n  jump\t// out\n    /* \"#utility.yul\":5067:5142   */\ntag_91:\n    /* \"#utility.yul\":5110:5113   */\n  0x00\n    /* \"#utility.yul\":5131:5136   */\n  dup2\n    /* \"#utility.yul\":5124:5136   */\n  swap1\n  pop\n    /* \"#utility.yul\":5067:5142   */\n  swap2\n  swap1\n  pop\n  jump\t// out\n    /* \"#utility.yul\":5148:5417   */\ntag_92:\n    /* \"#utility.yul\":5258:5297   */\n  tag_163\n    /* \"#utility.yul\":5289:5296   */\n  dup4\n    /* \"#utility.yul\":5258:5297   */\n  tag_90\n  jump\t// in\ntag_163:\n    /* \"#utility.yul\":5319:5410   */\n  tag_164\n    /* \"#utility.yul\":5368:5409   */\n  tag_165\n    /* \"#utility.yul\":5392:5408   */\n  dup3\n    /* \"#utility.yul\":5368:5409   */\n  tag_91\n  jump\t// in\ntag_165:\n    /* \"#utility.yul\":5360:5366   */\n  dup5\n    /* \"#utility.yul\":5353:5357   */\n  dup5\n    /* \"#utility.yul\":5347:5358   */\n  sload\n    /* \"#utility.yul\":5319:5410   */\n  tag_88\n  jump\t// in\ntag_164:\n    /* \"#utility.yul\":5313:5317   */\n  dup3\n    /* \"#utility.yul\":5306:5411   */\n  sstore\n    /* \"#utility.yul\":5224:5417   */\n  pop\n    /* \"#utility.yul\":5148:5417   */\n  pop\n  pop\n  pop\n  jump\t// out\n    /* \"#utility.yul\":5423:5496   */\ntag_93:\n    /* \"#utility.yul\":5468:5471   */\n  0x00\n    /* \"#utility.yul\":5423:5496   */\n  swap1\n  jump\t// out\n    /* \"#utility.yul\":5502:5691   */\ntag_94:\n    /* \"#utility.yul\":5579:5611   */\n  tag_168\n  tag_93\n  jump\t// in\ntag_168:\n    /* \"#utility.yul\":5620:5685   */\n  tag_169\n    /* \"#utility.yul\":5678:5684   */\n  dup2\n    /* \"#utility.yul\":5670:5676   */\n  dup5\n    /* \"#utility.yul\":5664:5668   */\n  dup5\n    /* \"#utility.yul\":5620:5685   */\n  tag_92\n  jump\t// in\ntag_169:\n    /* \"#utility.yul\":5555:5691   */\n  pop\n    /* \"#utility.yul\":5502:5691   */\n  pop\n  pop\n  jump\t// out\n    /* \"#utility.yul\":5697:5883   */\ntag_95:\n    /* \"#utility.yul\":5757:5877   */\ntag_171:\n    /* \"#utility.yul\":5774:5777   */\n  dup2\n    /* \"#utility.yul\":5767:5772   */\n  dup2\n    /* \"#utility.yul\":5764:5778   */\n  lt\n    /* \"#utility.yul\":5757:5877   */\n  iszero\n  tag_173\n  jumpi\n    /* \"#utility.yul\":5828:5867   */\n  tag_174\n    /* \"#utility.yul\":5865:5866   */\n  0x00\n    /* \"#utility.yul\":5858:5863   */\n  dup3\n    /* \"#utility.yul\":5828:5867   */\n  tag_94\n  jump\t// in\ntag_174:\n    /* \"#utility.yul\":5801:5802   */\n  0x01\n    /* \"#utility.yul\":5794:5799   */\n  dup2\n    /* \"#utility.yul\":5790:5803   */\n  add\n    /* \"#utility.yul\":5781:5803   */\n  swap1\n  pop\n    /* \"#utility.yul\":5757:5877   */\n  jump(tag_171)\ntag_173:\n    /* \"#utility.yul\":5697:5883   */\n  pop\n  pop\n  jump\t// out\n    /* \"#utility.yul\":5889:6432   */\ntag_96:\n    /* \"#utility.yul\":5990:5992   */\n  0x1f\n    /* \"#utility.yul\":5985:5988   */\n  dup3\n    /* \"#utility.yul\":5982:5993   */\n  gt\n    /* \"#utility.yul\":5979:6425   */\n  iszero\n  tag_176\n  jumpi\n    /* \"#utility.yul\":6024:6062   */\n  tag_177\n    /* \"#utility.yul\":6056:6061   */\n  dup2\n    /* \"#utility.yul\":6024:6062   */\n  tag_85\n  jump\t// in\ntag_177:\n    /* \"#utility.yul\":6108:6137   */\n  tag_178\n    /* \"#utility.yul\":6126:6136   */\n  dup5\n    /* \"#utility.yul\":6108:6137   */\n  tag_86\n  jump\t// in\ntag_178:\n    /* \"#utility.yul\":6098:6106   */\n  dup2\n    /* \"#utility.yul\":6094:6138   */\n  add\n    /* \"#utility.yul\":6291:6293   */\n  0x20\n    /* \"#utility.yul\":6279:6289   */\n  dup6\n    /* \"#utility.yul\":6276:6294   */\n  lt\n    /* \"#utility.yul\":6273:6322   */\n  iszero\n  tag_179\n  jumpi\n    /* \"#utility.yul\":6312:6320   */\n  dup2\n    /* \"#utility.yul\":6297:6320   */\n  swap1\n  pop\n    /* \"#utility.yul\":6273:6322   */\ntag_179:\n    /* \"#utility.yul\":6335:6415   */\n  tag_180\n    /* \"#utility.yul\":6391:6413   */\n  tag_181\n    /* \"#utility.yul\":6409:6412   */\n  dup6\n    /* \"#utility.yul\":6391:6413   */\n  tag_86\n  jump\t// in\ntag_181:\n    /* \"#utility.yul\":6381:6389   */\n  dup4\n    /* \"#utility.yul\":6377:6414   */\n  add\n    /* \"#utility.yul\":6364:6375   */\n  dup3\n    /* \"#utility.yul\":6335:6415   */\n  tag_95\n  jump\t// in\ntag_180:\n    /* \"#utility.yul\":5994:6425   */\n  pop\n  pop\n    /* \"#utility.yul\":5979:6425   */\ntag_176:\n    /* \"#utility.yul\":5889:6432   */\n  pop\n  pop\n  pop\n  jump\t// out\n    /* \"#utility.yul\":6438:6555   */\ntag_97:\n    /* \"#utility.yul\":6492:6500   */\n  0x00\n    /* \"#utility.yul\":6542:6547   */\n  dup3\n    /* \"#utility.yul\":6536:6540   */\n  dup3\n    /* \"#utility.yul\":6532:6548   */\n  shr\n    /* \"#utility.yul\":6511:6548   */\n  swap1\n  pop\n    /* \"#utility.yul\":6438:6555   */\n  swap3\n  swap2\n  pop\n  pop\n  jump\t// out\n    /* \"#utility.yul\":6561:6730   */\ntag_98:\n    /* \"#utility.yul\":6605:6611   */\n  0x00\n    /* \"#utility.yul\":6638:6689   */\n  tag_184\n    /* \"#utility.yul\":6686:6687   */\n  0x00\n    /* \"#utility.yul\":6682:6688   */\n  not\n    /* \"#utility.yul\":6674:6679   */\n  dup5\n    /* \"#utility.yul\":6671:6672   */\n  0x08\n    /* \"#utility.yul\":6667:6680   */\n  mul\n    /* \"#utility.yul\":6638:6689   */\n  tag_97\n  jump\t// in\ntag_184:\n    /* \"#utility.yul\":6634:6690   */\n  not\n    /* \"#utility.yul\":6719:6723   */\n  dup1\n    /* \"#utility.yul\":6713:6717   */\n  dup4\n    /* \"#utility.yul\":6709:6724   */\n  and\n    /* \"#utility.yul\":6699:6724   */\n  swap2\n  pop\n    /* \"#utility.yul\":6612:6730   */\n  pop\n    /* \"#utility.yul\":6561:6730   */\n  swap3\n  swap2\n  pop\n  pop\n  jump\t// out\n    /* \"#utility.yul\":6735:7030   */\ntag_99:\n    /* \"#utility.yul\":6811:6815   */\n  0x00\n    /* \"#utility.yul\":6957:6986   */\n  tag_186\n    /* \"#utility.yul\":6982:6985   */\n  dup4\n    /* \"#utility.yul\":6976:6980   */\n  dup4\n    /* \"#utility.yul\":6957:6986   */\n  tag_98\n  jump\t// in\ntag_186:\n    /* \"#utility.yul\":6949:6986   */\n  swap2\n  pop\n    /* \"#utility.yul\":7019:7022   */\n  dup3\n    /* \"#utility.yul\":7016:7017   */\n  0x02\n    /* \"#utility.yul\":7012:7023   */\n  mul\n    /* \"#utility.yul\":7006:7010   */\n  dup3\n    /* \"#utility.yul\":7003:7024   */\n  or\n    /* \"#utility.yul\":6995:7024   */\n  swap1\n  pop\n    /* \"#utility.yul\":6735:7030   */\n  swap3\n  swap2\n  pop\n  pop\n  jump\t// out\n    /* \"#utility.yul\":7035:8430   */\ntag_59:\n    /* \"#utility.yul\":7152:7189   */\n  tag_188\n    /* \"#utility.yul\":7185:7188   */\n  dup3\n    /* \"#utility.yul\":7152:7189   */\n  tag_80\n  jump\t// in\ntag_188:\n    /* \"#utility.yul\":7254:7272   */\n  0xffffffffffffffff\n    /* \"#utility.yul\":7246:7252   */\n  dup2\n    /* \"#utility.yul\":7243:7273   */\n  gt\n    /* \"#utility.yul\":7240:7296   */\n  iszero\n  tag_189\n  jumpi\n    /* \"#utility.yul\":7276:7294   */\n  tag_190\n  tag_84\n  jump\t// in\ntag_190:\n    /* \"#utility.yul\":7240:7296   */\ntag_189:\n    /* \"#utility.yul\":7320:7358   */\n  tag_191\n    /* \"#utility.yul\":7352:7356   */\n  dup3\n    /* \"#utility.yul\":7346:7357   */\n  sload\n    /* \"#utility.yul\":7320:7358   */\n  tag_15\n  jump\t// in\ntag_191:\n    /* \"#utility.yul\":7405:7472   */\n  tag_192\n    /* \"#utility.yul\":7465:7471   */\n  dup3\n    /* \"#utility.yul\":7457:7463   */\n  dup3\n    /* \"#utility.yul\":7451:7455   */\n  dup6\n    /* \"#utility.yul\":7405:7472   */\n  tag_96\n  jump\t// in\ntag_192:\n    /* \"#utility.yul\":7499:7500   */\n  0x00\n    /* \"#utility.yul\":7523:7527   */\n  0x20\n    /* \"#utility.yul\":7510:7527   */\n  swap1\n  pop\n    /* \"#utility.yul\":7555:7557   */\n  0x1f\n    /* \"#utility.yul\":7547:7553   */\n  dup4\n    /* \"#utility.yul\":7544:7558   */\n  gt\n    /* \"#utility.yul\":7572:7573   */\n  0x01\n    /* \"#utility.yul\":7567:8185   */\n  dup2\n  eq\n  tag_194\n  jumpi\n    /* \"#utility.yul\":8229:8230   */\n  0x00\n    /* \"#utility.yul\":8246:8252   */\n  dup5\n    /* \"#utility.yul\":8243:8320   */\n  iszero\n  tag_195\n  jumpi\n    /* \"#utility.yul\":8295:8304   */\n  dup3\n    /* \"#utility.yul\":8290:8293   */\n  dup8\n    /* \"#utility.yul\":8286:8305   */\n  add\n    /* \"#utility.yul\":8280:8306   */\n  mload\n    /* \"#utility.yul\":8271:8306   */\n  swap1\n  pop\n    /* \"#utility.yul\":8243:8320   */\ntag_195:\n    /* \"#utility.yul\":8346:8413   */\n  tag_196\n    /* \"#utility.yul\":8406:8412   */\n  dup6\n    /* \"#utility.yul\":8399:8404   */\n  dup3\n    /* \"#utility.yul\":8346:8413   */\n  tag_99\n  jump\t// in\ntag_196:\n    /* \"#utility.yul\":8340:8344   */\n  dup7\n    /* \"#utility.yul\":8333:8414   */\n  sstore\n    /* \"#utility.yul\":8202:8424   */\n  pop\n    /* \"#utility.yul\":7537:8424   */\n  jump(tag_193)\n    /* \"#utility.yul\":7567:8185   */\ntag_194:\n    /* \"#utility.yul\":7619:7623   */\n  0x1f\n    /* \"#utility.yul\":7615:7624   */\n  not\n    /* \"#utility.yul\":7607:7613   */\n  dup5\n    /* \"#utility.yul\":7603:7625   */\n  and\n    /* \"#utility.yul\":7653:7690   */\n  tag_197\n    /* \"#utility.yul\":7685:7689   */\n  dup7\n    /* \"#utility.yul\":7653:7690   */\n  tag_85\n  jump\t// in\ntag_197:\n    /* \"#utility.yul\":7712:7713   */\n  0x00\n    /* \"#utility.yul\":7726:7934   */\ntag_198:\n    /* \"#utility.yul\":7740:7747   */\n  dup3\n    /* \"#utility.yul\":7737:7738   */\n  dup2\n    /* \"#utility.yul\":7734:7748   */\n  lt\n    /* \"#utility.yul\":7726:7934   */\n  iszero\n  tag_200\n  jumpi\n    /* \"#utility.yul\":7819:7828   */\n  dup5\n    /* \"#utility.yul\":7814:7817   */\n  dup10\n    /* \"#utility.yul\":7810:7829   */\n  add\n    /* \"#utility.yul\":7804:7830   */\n  mload\n    /* \"#utility.yul\":7796:7802   */\n  dup3\n    /* \"#utility.yul\":7789:7831   */\n  sstore\n    /* \"#utility.yul\":7870:7871   */\n  0x01\n    /* \"#utility.yul\":7862:7868   */\n  dup3\n    /* \"#utility.yul\":7858:7872   */\n  add\n    /* \"#utility.yul\":7848:7872   */\n  swap2\n  pop\n    /* \"#utility.yul\":7917:7919   */\n  0x20\n    /* \"#utility.yul\":7906:7915   */\n  dup6\n    /* \"#utility.yul\":7902:7920   */\n  add\n    /* \"#utility.yul\":7889:7920   */\n  swap5\n  pop\n    /* \"#utility.yul\":7763:7767   */\n  0x20\n    /* \"#utility.yul\":7760:7761   */\n  dup2\n    /* \"#utility.yul\":7756:7768   */\n  add\n    /* \"#utility.yul\":7751:7768   */\n  swap1\n  pop\n    /* \"#utility.yul\":7726:7934   */\n  jump(tag_198)\ntag_200:\n    /* \"#utility.yul\":7962:7968   */\n  dup7\n    /* \"#utility.yul\":7953:7960   */\n  dup4\n    /* \"#utility.yul\":7950:7969   */\n  lt\n    /* \"#utility.yul\":7947:8126   */\n  iszero\n  tag_201\n  jumpi\n    /* \"#utility.yul\":8020:8029   */\n  dup5\n    /* \"#utility.yul\":8015:8018   */\n  dup10\n    /* \"#utility.yul\":8011:8030   */\n  add\n    /* \"#utility.yul\":8005:8031   */\n  mload\n    /* \"#utility.yul\":8063:8111   */\n  tag_202\n    /* \"#utility.yul\":8105:8109   */\n  0x1f\n    /* \"#utility.yul\":8097:8103   */\n  dup10\n    /* \"#utility.yul\":8093:8110   */\n  and\n    /* \"#utility.yul\":8082:8091   */\n  dup3\n    /* \"#utility.yul\":8063:8111   */\n  tag_98\n  jump\t// in\ntag_202:\n    /* \"#utility.yul\":8055:8061   */\n  dup4\n    /* \"#utility.yul\":8048:8112   */\n  sstore\n    /* \"#utility.yul\":7970:8126   */\n  pop\n    /* \"#utility.yul\":7947:8126   */\ntag_201:\n    /* \"#utility.yul\":8172:8173   */\n  0x01\n    /* \"#utility.yul\":8168:8169   */\n  0x02\n    /* \"#utility.yul\":8160:8166   */\n  dup9\n    /* \"#utility.yul\":8156:8170   */\n  mul\n    /* \"#utility.yul\":8152:8174   */\n  add\n    /* \"#utility.yul\":8146:8150   */\n  dup9\n    /* \"#utility.yul\":8139:8175   */\n  sstore\n    /* \"#utility.yul\":7574:8185   */\n  pop\n  pop\n  pop\n    /* \"#utility.yul\":7537:8424   */\ntag_193:\n  pop\n    /* \"#utility.yul\":7127:8430   */\n  pop\n  pop\n  pop\n    /* \"#utility.yul\":7035:8430   */\n  pop\n  pop\n  jump\t// out\n    /* \"contracts/Lesson_4.sol\":78:1840  contract MerkleTree... */\ntag_48:\n  dataSize(sub_0)\n  dup1\n  dataOffset(sub_0)\n  0x00\n  codecopy\n  0x00\n  return\nstop\n\nsub_0: assembly {\n        /* \"contracts/Lesson_4.sol\":78:1840  contract MerkleTree... */\n      mstore(0x40, 0x80)\n      callvalue\n      dup1\n      iszero\n      tag_1\n      jumpi\n      0x00\n      dup1\n      revert\n    tag_1:\n      pop\n      jumpi(tag_2, lt(calldatasize, 0x04))\n      shr(0xe0, calldataload(0x00))\n      dup1\n      0x2637cccf\n      eq\n      tag_3\n      jumpi\n      dup1\n      0x501895ae\n      eq\n      tag_4\n      jumpi\n      dup1\n      0x52de70af\n      eq\n      tag_5\n      jumpi\n      dup1\n      0x6a11b2a8\n      eq\n      tag_6\n      jumpi\n    tag_2:\n      0x00\n      dup1\n      revert\n        /* \"contracts/Lesson_4.sol\":1170:1551  function verify(string memory transaction, uint index, bytes32 rootHash, bytes32[] memory proof) public pure returns(bool)... */\n    tag_3:\n      tag_7\n      0x04\n      dup1\n      calldatasize\n      sub\n      dup2\n      add\n      swap1\n      tag_8\n      swap2\n      swap1\n      tag_9\n      jump\t// in\n    tag_8:\n      tag_10\n      jump\t// in\n    tag_7:\n      mload(0x40)\n      tag_11\n      swap2\n      swap1\n      tag_12\n      jump\t// in\n    tag_11:\n      mload(0x40)\n      dup1\n      swap2\n      sub\n      swap1\n      return\n        /* \"contracts/Lesson_4.sol\":207:230  bytes32[] public hashes */\n    tag_4:\n      tag_13\n      0x04\n      dup1\n      calldatasize\n      sub\n      dup2\n      add\n      swap1\n      tag_14\n      swap2\n      swap1\n      tag_15\n      jump\t// in\n    tag_14:\n      tag_16\n      jump\t// in\n    tag_13:\n      mload(0x40)\n      tag_17\n      swap2\n      swap1\n      tag_18\n      jump\t// in\n    tag_17:\n      mload(0x40)\n      dup1\n      swap2\n      sub\n      swap1\n      return\n        /* \"contracts/Lesson_4.sol\":1690:1837  function makeHash(string memory input) public pure returns(bytes32)... */\n    tag_5:\n      tag_19\n      0x04\n      dup1\n      calldatasize\n      sub\n      dup2\n      add\n      swap1\n      tag_20\n      swap2\n      swap1\n      tag_21\n      jump\t// in\n    tag_20:\n      tag_22\n      jump\t// in\n    tag_19:\n      mload(0x40)\n      tag_23\n      swap2\n      swap1\n      tag_18\n      jump\t// in\n    tag_23:\n      mload(0x40)\n      dup1\n      swap2\n      sub\n      swap1\n      return\n        /* \"contracts/Lesson_4.sol\":1557:1682  function encode(string memory input) public pure returns(bytes memory)... */\n    tag_6:\n      tag_24\n      0x04\n      dup1\n      calldatasize\n      sub\n      dup2\n      add\n      swap1\n      tag_25\n      swap2\n      swap1\n      tag_21\n      jump\t// in\n    tag_25:\n      tag_26\n      jump\t// in\n    tag_24:\n      mload(0x40)\n      tag_27\n      swap2\n      swap1\n      tag_28\n      jump\t// in\n    tag_27:\n      mload(0x40)\n      dup1\n      swap2\n      sub\n      swap1\n      return\n        /* \"contracts/Lesson_4.sol\":1170:1551  function verify(string memory transaction, uint index, bytes32 rootHash, bytes32[] memory proof) public pure returns(bool)... */\n    tag_10:\n        /* \"contracts/Lesson_4.sol\":1287:1291  bool */\n      0x00\n        /* \"contracts/Lesson_4.sol\":1309:1321  bytes32 hash */\n      dup1\n        /* \"contracts/Lesson_4.sol\":1324:1345  makeHash(transaction) */\n      tag_30\n        /* \"contracts/Lesson_4.sol\":1333:1344  transaction */\n      dup7\n        /* \"contracts/Lesson_4.sol\":1324:1332  makeHash */\n      tag_22\n        /* \"contracts/Lesson_4.sol\":1324:1345  makeHash(transaction) */\n      jump\t// in\n    tag_30:\n        /* \"contracts/Lesson_4.sol\":1309:1345  bytes32 hash = makeHash(transaction) */\n      swap1\n      pop\n        /* \"contracts/Lesson_4.sol\":1362:1368  uint i */\n      0x00\n        /* \"contracts/Lesson_4.sol\":1358:1542  for(uint i = 0; i < proof.length; i++)... */\n    tag_31:\n        /* \"contracts/Lesson_4.sol\":1378:1383  proof */\n      dup4\n        /* \"contracts/Lesson_4.sol\":1378:1390  proof.length */\n      mload\n        /* \"contracts/Lesson_4.sol\":1374:1375  i */\n      dup2\n        /* \"contracts/Lesson_4.sol\":1374:1390  i < proof.length */\n      lt\n        /* \"contracts/Lesson_4.sol\":1358:1542  for(uint i = 0; i < proof.length; i++)... */\n      iszero\n      tag_32\n      jumpi\n        /* \"contracts/Lesson_4.sol\":1421:1436  bytes32 element */\n      0x00\n        /* \"contracts/Lesson_4.sol\":1439:1444  proof */\n      dup5\n        /* \"contracts/Lesson_4.sol\":1445:1446  i */\n      dup3\n        /* \"contracts/Lesson_4.sol\":1439:1447  proof[i] */\n      dup2\n      mload\n      dup2\n      lt\n      tag_34\n      jumpi\n      tag_35\n      tag_36\n      jump\t// in\n    tag_35:\n    tag_34:\n      0x20\n      mul\n      0x20\n      add\n      add\n      mload\n        /* \"contracts/Lesson_4.sol\":1421:1447  bytes32 element = proof[i] */\n      swap1\n      pop\n        /* \"contracts/Lesson_4.sol\":1481:1482  0 */\n      0x00\n        /* \"contracts/Lesson_4.sol\":1476:1477  2 */\n      0x02\n        /* \"contracts/Lesson_4.sol\":1468:1473  index */\n      dup9\n        /* \"contracts/Lesson_4.sol\":1468:1477  index % 2 */\n      tag_37\n      swap2\n      swap1\n      tag_38\n      jump\t// in\n    tag_37:\n        /* \"contracts/Lesson_4.sol\":1468:1482  index % 2 == 0 */\n      pop\n      pop\n        /* \"contracts/Lesson_4.sol\":1406:1542  {... */\n      pop\n        /* \"contracts/Lesson_4.sol\":1392:1395  i++ */\n      dup1\n      dup1\n      tag_40\n      swap1\n      tag_41\n      jump\t// in\n    tag_40:\n      swap2\n      pop\n      pop\n        /* \"contracts/Lesson_4.sol\":1358:1542  for(uint i = 0; i < proof.length; i++)... */\n      jump(tag_31)\n    tag_32:\n      pop\n        /* \"contracts/Lesson_4.sol\":1298:1551  {... */\n      pop\n        /* \"contracts/Lesson_4.sol\":1170:1551  function verify(string memory transaction, uint index, bytes32 rootHash, bytes32[] memory proof) public pure returns(bool)... */\n      swap5\n      swap4\n      pop\n      pop\n      pop\n      pop\n      jump\t// out\n        /* \"contracts/Lesson_4.sol\":207:230  bytes32[] public hashes */\n    tag_16:\n      0x00\n      dup2\n      dup2\n      sload\n      dup2\n      lt\n      tag_42\n      jumpi\n      0x00\n      dup1\n      revert\n    tag_42:\n      swap1\n      0x00\n      mstore\n      keccak256(0x00, 0x20)\n      add\n      0x00\n      swap2\n      pop\n      swap1\n      pop\n      sload\n      dup2\n      jump\t// out\n        /* \"contracts/Lesson_4.sol\":1690:1837  function makeHash(string memory input) public pure returns(bytes32)... */\n    tag_22:\n        /* \"contracts/Lesson_4.sol\":1749:1756  bytes32 */\n      0x00\n        /* \"contracts/Lesson_4.sol\":1805:1818  encode(input) */\n      tag_45\n        /* \"contracts/Lesson_4.sol\":1812:1817  input */\n      dup3\n        /* \"contracts/Lesson_4.sol\":1805:1811  encode */\n      tag_26\n        /* \"contracts/Lesson_4.sol\":1805:1818  encode(input) */\n      jump\t// in\n    tag_45:\n        /* \"contracts/Lesson_4.sol\":1781:1829  keccak256(... */\n      dup1\n      mload\n      swap1\n      0x20\n      add\n      keccak256\n        /* \"contracts/Lesson_4.sol\":1774:1829  return keccak256(... */\n      swap1\n      pop\n        /* \"contracts/Lesson_4.sol\":1690:1837  function makeHash(string memory input) public pure returns(bytes32)... */\n      swap2\n      swap1\n      pop\n      jump\t// out\n        /* \"contracts/Lesson_4.sol\":1557:1682  function encode(string memory input) public pure returns(bytes memory)... */\n    tag_26:\n        /* \"contracts/Lesson_4.sol\":1614:1626  bytes memory */\n      0x60\n        /* \"contracts/Lesson_4.sol\":1668:1673  input */\n      dup2\n        /* \"contracts/Lesson_4.sol\":1651:1674  abi.encodePacked(input) */\n      add(0x20, mload(0x40))\n      tag_47\n      swap2\n      swap1\n      tag_48\n      jump\t// in\n    tag_47:\n      mload(0x40)\n      0x20\n      dup2\n      dup4\n      sub\n      sub\n      dup2\n      mstore\n      swap1\n      0x40\n      mstore\n        /* \"contracts/Lesson_4.sol\":1644:1674  return abi.encodePacked(input) */\n      swap1\n      pop\n        /* \"contracts/Lesson_4.sol\":1557:1682  function encode(string memory input) public pure returns(bytes memory)... */\n      swap2\n      swap1\n      pop\n      jump\t// out\n        /* \"#utility.yul\":7:82   */\n    tag_49:\n        /* \"#utility.yul\":40:46   */\n      0x00\n        /* \"#utility.yul\":73:75   */\n      0x40\n        /* \"#utility.yul\":67:76   */\n      mload\n        /* \"#utility.yul\":57:76   */\n      swap1\n      pop\n        /* \"#utility.yul\":7:82   */\n      swap1\n      jump\t// out\n        /* \"#utility.yul\":88:205   */\n    tag_50:\n        /* \"#utility.yul\":197:198   */\n      0x00\n        /* \"#utility.yul\":194:195   */\n      dup1\n        /* \"#utility.yul\":187:199   */\n      revert\n        /* \"#utility.yul\":211:328   */\n    tag_51:\n        /* \"#utility.yul\":320:321   */\n      0x00\n        /* \"#utility.yul\":317:318   */\n      dup1\n        /* \"#utility.yul\":310:322   */\n      revert\n        /* \"#utility.yul\":334:451   */\n    tag_52:\n        /* \"#utility.yul\":443:444   */\n      0x00\n        /* \"#utility.yul\":440:441   */\n      dup1\n        /* \"#utility.yul\":433:445   */\n      revert\n        /* \"#utility.yul\":457:574   */\n    tag_53:\n        /* \"#utility.yul\":566:567   */\n      0x00\n        /* \"#utility.yul\":563:564   */\n      dup1\n        /* \"#utility.yul\":556:568   */\n      revert\n        /* \"#utility.yul\":580:682   */\n    tag_54:\n        /* \"#utility.yul\":621:627   */\n      0x00\n        /* \"#utility.yul\":672:674   */\n      0x1f\n        /* \"#utility.yul\":668:675   */\n      not\n        /* \"#utility.yul\":663:665   */\n      0x1f\n        /* \"#utility.yul\":656:661   */\n      dup4\n        /* \"#utility.yul\":652:666   */\n      add\n        /* \"#utility.yul\":648:676   */\n      and\n        /* \"#utility.yul\":638:676   */\n      swap1\n      pop\n        /* \"#utility.yul\":580:682   */\n      swap2\n      swap1\n      pop\n      jump\t// out\n        /* \"#utility.yul\":688:868   */\n    tag_55:\n        /* \"#utility.yul\":736:813   */\n      0x4e487b7100000000000000000000000000000000000000000000000000000000\n        /* \"#utility.yul\":733:734   */\n      0x00\n        /* \"#utility.yul\":726:814   */\n      mstore\n        /* \"#utility.yul\":833:837   */\n      0x41\n        /* \"#utility.yul\":830:831   */\n      0x04\n        /* \"#utility.yul\":823:838   */\n      mstore\n        /* \"#utility.yul\":857:861   */\n      0x24\n        /* \"#utility.yul\":854:855   */\n      0x00\n        /* \"#utility.yul\":847:862   */\n      revert\n        /* \"#utility.yul\":874:1155   */\n    tag_56:\n        /* \"#utility.yul\":957:984   */\n      tag_93\n        /* \"#utility.yul\":979:983   */\n      dup3\n        /* \"#utility.yul\":957:984   */\n      tag_54\n      jump\t// in\n    tag_93:\n        /* \"#utility.yul\":949:955   */\n      dup2\n        /* \"#utility.yul\":945:985   */\n      add\n        /* \"#utility.yul\":1087:1093   */\n      dup2\n        /* \"#utility.yul\":1075:1085   */\n      dup2\n        /* \"#utility.yul\":1072:1094   */\n      lt\n        /* \"#utility.yul\":1051:1069   */\n      0xffffffffffffffff\n        /* \"#utility.yul\":1039:1049   */\n      dup3\n        /* \"#utility.yul\":1036:1070   */\n      gt\n        /* \"#utility.yul\":1033:1095   */\n      or\n        /* \"#utility.yul\":1030:1118   */\n      iszero\n      tag_94\n      jumpi\n        /* \"#utility.yul\":1098:1116   */\n      tag_95\n      tag_55\n      jump\t// in\n    tag_95:\n        /* \"#utility.yul\":1030:1118   */\n    tag_94:\n        /* \"#utility.yul\":1138:1148   */\n      dup1\n        /* \"#utility.yul\":1134:1136   */\n      0x40\n        /* \"#utility.yul\":1127:1149   */\n      mstore\n        /* \"#utility.yul\":917:1155   */\n      pop\n        /* \"#utility.yul\":874:1155   */\n      pop\n      pop\n      jump\t// out\n        /* \"#utility.yul\":1161:1290   */\n    tag_57:\n        /* \"#utility.yul\":1195:1201   */\n      0x00\n        /* \"#utility.yul\":1222:1242   */\n      tag_97\n      tag_49\n      jump\t// in\n    tag_97:\n        /* \"#utility.yul\":1212:1242   */\n      swap1\n      pop\n        /* \"#utility.yul\":1251:1284   */\n      tag_98\n        /* \"#utility.yul\":1279:1283   */\n      dup3\n        /* \"#utility.yul\":1271:1277   */\n      dup3\n        /* \"#utility.yul\":1251:1284   */\n      tag_56\n      jump\t// in\n    tag_98:\n        /* \"#utility.yul\":1161:1290   */\n      swap2\n      swap1\n      pop\n      jump\t// out\n        /* \"#utility.yul\":1296:1604   */\n    tag_58:\n        /* \"#utility.yul\":1358:1362   */\n      0x00\n        /* \"#utility.yul\":1448:1466   */\n      0xffffffffffffffff\n        /* \"#utility.yul\":1440:1446   */\n      dup3\n        /* \"#utility.yul\":1437:1467   */\n      gt\n        /* \"#utility.yul\":1434:1490   */\n      iszero\n      tag_100\n      jumpi\n        /* \"#utility.yul\":1470:1488   */\n      tag_101\n      tag_55\n      jump\t// in\n    tag_101:\n        /* \"#utility.yul\":1434:1490   */\n    tag_100:\n        /* \"#utility.yul\":1508:1537   */\n      tag_102\n        /* \"#utility.yul\":1530:1536   */\n      dup3\n        /* \"#utility.yul\":1508:1537   */\n      tag_54\n      jump\t// in\n    tag_102:\n        /* \"#utility.yul\":1500:1537   */\n      swap1\n      pop\n        /* \"#utility.yul\":1592:1596   */\n      0x20\n        /* \"#utility.yul\":1586:1590   */\n      dup2\n        /* \"#utility.yul\":1582:1597   */\n      add\n        /* \"#utility.yul\":1574:1597   */\n      swap1\n      pop\n        /* \"#utility.yul\":1296:1604   */\n      swap2\n      swap1\n      pop\n      jump\t// out\n        /* \"#utility.yul\":1610:1756   */\n    tag_59:\n        /* \"#utility.yul\":1707:1713   */\n      dup3\n        /* \"#utility.yul\":1702:1705   */\n      dup2\n        /* \"#utility.yul\":1697:1700   */\n      dup4\n        /* \"#utility.yul\":1684:1714   */\n      calldatacopy\n        /* \"#utility.yul\":1748:1749   */\n      0x00\n        /* \"#utility.yul\":1739:1745   */\n      dup4\n        /* \"#utility.yul\":1734:1737   */\n      dup4\n        /* \"#utility.yul\":1730:1746   */\n      add\n        /* \"#utility.yul\":1723:1750   */\n      mstore\n        /* \"#utility.yul\":1610:1756   */\n      pop\n      pop\n      pop\n      jump\t// out\n        /* \"#utility.yul\":1762:2187   */\n    tag_60:\n        /* \"#utility.yul\":1840:1845   */\n      0x00\n        /* \"#utility.yul\":1865:1931   */\n      tag_105\n        /* \"#utility.yul\":1881:1930   */\n      tag_106\n        /* \"#utility.yul\":1923:1929   */\n      dup5\n        /* \"#utility.yul\":1881:1930   */\n      tag_58\n      jump\t// in\n    tag_106:\n        /* \"#utility.yul\":1865:1931   */\n      tag_57\n      jump\t// in\n    tag_105:\n        /* \"#utility.yul\":1856:1931   */\n      swap1\n      pop\n        /* \"#utility.yul\":1954:1960   */\n      dup3\n        /* \"#utility.yul\":1947:1952   */\n      dup2\n        /* \"#utility.yul\":1940:1961   */\n      mstore\n        /* \"#utility.yul\":1992:1996   */\n      0x20\n        /* \"#utility.yul\":1985:1990   */\n      dup2\n        /* \"#utility.yul\":1981:1997   */\n      add\n        /* \"#utility.yul\":2030:2033   */\n      dup5\n        /* \"#utility.yul\":2021:2027   */\n      dup5\n        /* \"#utility.yul\":2016:2019   */\n      dup5\n        /* \"#utility.yul\":2012:2028   */\n      add\n        /* \"#utility.yul\":2009:2034   */\n      gt\n        /* \"#utility.yul\":2006:2118   */\n      iszero\n      tag_107\n      jumpi\n        /* \"#utility.yul\":2037:2116   */\n      tag_108\n      tag_53\n      jump\t// in\n    tag_108:\n        /* \"#utility.yul\":2006:2118   */\n    tag_107:\n        /* \"#utility.yul\":2127:2181   */\n      tag_109\n        /* \"#utility.yul\":2174:2180   */\n      dup5\n        /* \"#utility.yul\":2169:2172   */\n      dup3\n        /* \"#utility.yul\":2164:2167   */\n      dup6\n        /* \"#utility.yul\":2127:2181   */\n      tag_59\n      jump\t// in\n    tag_109:\n        /* \"#utility.yul\":1846:2187   */\n      pop\n        /* \"#utility.yul\":1762:2187   */\n      swap4\n      swap3\n      pop\n      pop\n      pop\n      jump\t// out\n        /* \"#utility.yul\":2207:2547   */\n    tag_61:\n        /* \"#utility.yul\":2263:2268   */\n      0x00\n        /* \"#utility.yul\":2312:2315   */\n      dup3\n        /* \"#utility.yul\":2305:2309   */\n      0x1f\n        /* \"#utility.yul\":2297:2303   */\n      dup4\n        /* \"#utility.yul\":2293:2310   */\n      add\n        /* \"#utility.yul\":2289:2316   */\n      slt\n        /* \"#utility.yul\":2279:2401   */\n      tag_111\n      jumpi\n        /* \"#utility.yul\":2320:2399   */\n      tag_112\n      tag_52\n      jump\t// in\n    tag_112:\n        /* \"#utility.yul\":2279:2401   */\n    tag_111:\n        /* \"#utility.yul\":2437:2443   */\n      dup2\n        /* \"#utility.yul\":2424:2444   */\n      calldataload\n        /* \"#utility.yul\":2462:2541   */\n      tag_113\n        /* \"#utility.yul\":2537:2540   */\n      dup5\n        /* \"#utility.yul\":2529:2535   */\n      dup3\n        /* \"#utility.yul\":2522:2526   */\n      0x20\n        /* \"#utility.yul\":2514:2520   */\n      dup7\n        /* \"#utility.yul\":2510:2527   */\n      add\n        /* \"#utility.yul\":2462:2541   */\n      tag_60\n      jump\t// in\n    tag_113:\n        /* \"#utility.yul\":2453:2541   */\n      swap2\n      pop\n        /* \"#utility.yul\":2269:2547   */\n      pop\n        /* \"#utility.yul\":2207:2547   */\n      swap3\n      swap2\n      pop\n      pop\n      jump\t// out\n        /* \"#utility.yul\":2553:2630   */\n    tag_62:\n        /* \"#utility.yul\":2590:2597   */\n      0x00\n        /* \"#utility.yul\":2619:2624   */\n      dup2\n        /* \"#utility.yul\":2608:2624   */\n      swap1\n      pop\n        /* \"#utility.yul\":2553:2630   */\n      swap2\n      swap1\n      pop\n      jump\t// out\n        /* \"#utility.yul\":2636:2758   */\n    tag_63:\n        /* \"#utility.yul\":2709:2733   */\n      tag_116\n        /* \"#utility.yul\":2727:2732   */\n      dup2\n        /* \"#utility.yul\":2709:2733   */\n      tag_62\n      jump\t// in\n    tag_116:\n        /* \"#utility.yul\":2702:2707   */\n      dup2\n        /* \"#utility.yul\":2699:2734   */\n      eq\n        /* \"#utility.yul\":2689:2752   */\n      tag_117\n      jumpi\n        /* \"#utility.yul\":2748:2749   */\n      0x00\n        /* \"#utility.yul\":2745:2746   */\n      dup1\n        /* \"#utility.yul\":2738:2750   */\n      revert\n        /* \"#utility.yul\":2689:2752   */\n    tag_117:\n        /* \"#utility.yul\":2636:2758   */\n      pop\n      jump\t// out\n        /* \"#utility.yul\":2764:2903   */\n    tag_64:\n        /* \"#utility.yul\":2810:2815   */\n      0x00\n        /* \"#utility.yul\":2848:2854   */\n      dup2\n        /* \"#utility.yul\":2835:2855   */\n      calldataload\n        /* \"#utility.yul\":2826:2855   */\n      swap1\n      pop\n        /* \"#utility.yul\":2864:2897   */\n      tag_119\n        /* \"#utility.yul\":2891:2896   */\n      dup2\n        /* \"#utility.yul\":2864:2897   */\n      tag_63\n      jump\t// in\n    tag_119:\n        /* \"#utility.yul\":2764:2903   */\n      swap3\n      swap2\n      pop\n      pop\n      jump\t// out\n        /* \"#utility.yul\":2909:2986   */\n    tag_65:\n        /* \"#utility.yul\":2946:2953   */\n      0x00\n        /* \"#utility.yul\":2975:2980   */\n      dup2\n        /* \"#utility.yul\":2964:2980   */\n      swap1\n      pop\n        /* \"#utility.yul\":2909:2986   */\n      swap2\n      swap1\n      pop\n      jump\t// out\n        /* \"#utility.yul\":2992:3114   */\n    tag_66:\n        /* \"#utility.yul\":3065:3089   */\n      tag_122\n        /* \"#utility.yul\":3083:3088   */\n      dup2\n        /* \"#utility.yul\":3065:3089   */\n      tag_65\n      jump\t// in\n    tag_122:\n        /* \"#utility.yul\":3058:3063   */\n      dup2\n        /* \"#utility.yul\":3055:3090   */\n      eq\n        /* \"#utility.yul\":3045:3108   */\n      tag_123\n      jumpi\n        /* \"#utility.yul\":3104:3105   */\n      0x00\n        /* \"#utility.yul\":3101:3102   */\n      dup1\n        /* \"#utility.yul\":3094:3106   */\n      revert\n        /* \"#utility.yul\":3045:3108   */\n    tag_123:\n        /* \"#utility.yul\":2992:3114   */\n      pop\n      jump\t// out\n        /* \"#utility.yul\":3120:3259   */\n    tag_67:\n        /* \"#utility.yul\":3166:3171   */\n      0x00\n        /* \"#utility.yul\":3204:3210   */\n      dup2\n        /* \"#utility.yul\":3191:3211   */\n      calldataload\n        /* \"#utility.yul\":3182:3211   */\n      swap1\n      pop\n        /* \"#utility.yul\":3220:3253   */\n      tag_125\n        /* \"#utility.yul\":3247:3252   */\n      dup2\n        /* \"#utility.yul\":3220:3253   */\n      tag_66\n      jump\t// in\n    tag_125:\n        /* \"#utility.yul\":3120:3259   */\n      swap3\n      swap2\n      pop\n      pop\n      jump\t// out\n        /* \"#utility.yul\":3265:3576   */\n    tag_68:\n        /* \"#utility.yul\":3342:3346   */\n      0x00\n        /* \"#utility.yul\":3432:3450   */\n      0xffffffffffffffff\n        /* \"#utility.yul\":3424:3430   */\n      dup3\n        /* \"#utility.yul\":3421:3451   */\n      gt\n        /* \"#utility.yul\":3418:3474   */\n      iszero\n      tag_127\n      jumpi\n        /* \"#utility.yul\":3454:3472   */\n      tag_128\n      tag_55\n      jump\t// in\n    tag_128:\n        /* \"#utility.yul\":3418:3474   */\n    tag_127:\n        /* \"#utility.yul\":3504:3508   */\n      0x20\n        /* \"#utility.yul\":3496:3502   */\n      dup3\n        /* \"#utility.yul\":3492:3509   */\n      mul\n        /* \"#utility.yul\":3484:3509   */\n      swap1\n      pop\n        /* \"#utility.yul\":3564:3568   */\n      0x20\n        /* \"#utility.yul\":3558:3562   */\n      dup2\n        /* \"#utility.yul\":3554:3569   */\n      add\n        /* \"#utility.yul\":3546:3569   */\n      swap1\n      pop\n        /* \"#utility.yul\":3265:3576   */\n      swap2\n      swap1\n      pop\n      jump\t// out\n        /* \"#utility.yul\":3582:3699   */\n    tag_69:\n        /* \"#utility.yul\":3691:3692   */\n      0x00\n        /* \"#utility.yul\":3688:3689   */\n      dup1\n        /* \"#utility.yul\":3681:3693   */\n      revert\n        /* \"#utility.yul\":3722:4432   */\n    tag_70:\n        /* \"#utility.yul\":3818:3823   */\n      0x00\n        /* \"#utility.yul\":3843:3924   */\n      tag_131\n        /* \"#utility.yul\":3859:3923   */\n      tag_132\n        /* \"#utility.yul\":3916:3922   */\n      dup5\n        /* \"#utility.yul\":3859:3923   */\n      tag_68\n      jump\t// in\n    tag_132:\n        /* \"#utility.yul\":3843:3924   */\n      tag_57\n      jump\t// in\n    tag_131:\n        /* \"#utility.yul\":3834:3924   */\n      swap1\n      pop\n        /* \"#utility.yul\":3944:3949   */\n      dup1\n        /* \"#utility.yul\":3973:3979   */\n      dup4\n        /* \"#utility.yul\":3966:3971   */\n      dup3\n        /* \"#utility.yul\":3959:3980   */\n      mstore\n        /* \"#utility.yul\":4007:4011   */\n      0x20\n        /* \"#utility.yul\":4000:4005   */\n      dup3\n        /* \"#utility.yul\":3996:4012   */\n      add\n        /* \"#utility.yul\":3989:4012   */\n      swap1\n      pop\n        /* \"#utility.yul\":4060:4064   */\n      0x20\n        /* \"#utility.yul\":4052:4058   */\n      dup5\n        /* \"#utility.yul\":4048:4065   */\n      mul\n        /* \"#utility.yul\":4040:4046   */\n      dup4\n        /* \"#utility.yul\":4036:4066   */\n      add\n        /* \"#utility.yul\":4089:4092   */\n      dup6\n        /* \"#utility.yul\":4081:4087   */\n      dup2\n        /* \"#utility.yul\":4078:4093   */\n      gt\n        /* \"#utility.yul\":4075:4197   */\n      iszero\n      tag_133\n      jumpi\n        /* \"#utility.yul\":4108:4187   */\n      tag_134\n      tag_69\n      jump\t// in\n    tag_134:\n        /* \"#utility.yul\":4075:4197   */\n    tag_133:\n        /* \"#utility.yul\":4223:4229   */\n      dup4\n        /* \"#utility.yul\":4206:4426   */\n    tag_135:\n        /* \"#utility.yul\":4240:4246   */\n      dup2\n        /* \"#utility.yul\":4235:4238   */\n      dup2\n        /* \"#utility.yul\":4232:4247   */\n      lt\n        /* \"#utility.yul\":4206:4426   */\n      iszero\n      tag_137\n      jumpi\n        /* \"#utility.yul\":4315:4318   */\n      dup1\n        /* \"#utility.yul\":4344:4381   */\n      tag_138\n        /* \"#utility.yul\":4377:4380   */\n      dup9\n        /* \"#utility.yul\":4365:4375   */\n      dup3\n        /* \"#utility.yul\":4344:4381   */\n      tag_67\n      jump\t// in\n    tag_138:\n        /* \"#utility.yul\":4339:4342   */\n      dup5\n        /* \"#utility.yul\":4332:4382   */\n      mstore\n        /* \"#utility.yul\":4411:4415   */\n      0x20\n        /* \"#utility.yul\":4406:4409   */\n      dup5\n        /* \"#utility.yul\":4402:4416   */\n      add\n        /* \"#utility.yul\":4395:4416   */\n      swap4\n      pop\n        /* \"#utility.yul\":4282:4426   */\n      pop\n        /* \"#utility.yul\":4266:4270   */\n      0x20\n        /* \"#utility.yul\":4261:4264   */\n      dup2\n        /* \"#utility.yul\":4257:4271   */\n      add\n        /* \"#utility.yul\":4250:4271   */\n      swap1\n      pop\n        /* \"#utility.yul\":4206:4426   */\n      jump(tag_135)\n    tag_137:\n        /* \"#utility.yul\":4210:4231   */\n      pop\n        /* \"#utility.yul\":3824:4432   */\n      pop\n      pop\n        /* \"#utility.yul\":3722:4432   */\n      swap4\n      swap3\n      pop\n      pop\n      pop\n      jump\t// out\n        /* \"#utility.yul\":4455:4825   */\n    tag_71:\n        /* \"#utility.yul\":4526:4531   */\n      0x00\n        /* \"#utility.yul\":4575:4578   */\n      dup3\n        /* \"#utility.yul\":4568:4572   */\n      0x1f\n        /* \"#utility.yul\":4560:4566   */\n      dup4\n        /* \"#utility.yul\":4556:4573   */\n      add\n        /* \"#utility.yul\":4552:4579   */\n      slt\n        /* \"#utility.yul\":4542:4664   */\n      tag_140\n      jumpi\n        /* \"#utility.yul\":4583:4662   */\n      tag_141\n      tag_52\n      jump\t// in\n    tag_141:\n        /* \"#utility.yul\":4542:4664   */\n    tag_140:\n        /* \"#utility.yul\":4700:4706   */\n      dup2\n        /* \"#utility.yul\":4687:4707   */\n      calldataload\n        /* \"#utility.yul\":4725:4819   */\n      tag_142\n        /* \"#utility.yul\":4815:4818   */\n      dup5\n        /* \"#utility.yul\":4807:4813   */\n      dup3\n        /* \"#utility.yul\":4800:4804   */\n      0x20\n        /* \"#utility.yul\":4792:4798   */\n      dup7\n        /* \"#utility.yul\":4788:4805   */\n      add\n        /* \"#utility.yul\":4725:4819   */\n      tag_70\n      jump\t// in\n    tag_142:\n        /* \"#utility.yul\":4716:4819   */\n      swap2\n      pop\n        /* \"#utility.yul\":4532:4825   */\n      pop\n        /* \"#utility.yul\":4455:4825   */\n      swap3\n      swap2\n      pop\n      pop\n      jump\t// out\n        /* \"#utility.yul\":4831:5986   */\n    tag_9:\n        /* \"#utility.yul\":4952:4958   */\n      0x00\n        /* \"#utility.yul\":4960:4966   */\n      dup1\n        /* \"#utility.yul\":4968:4974   */\n      0x00\n        /* \"#utility.yul\":4976:4982   */\n      dup1\n        /* \"#utility.yul\":5025:5028   */\n      0x80\n        /* \"#utility.yul\":5013:5022   */\n      dup6\n        /* \"#utility.yul\":5004:5011   */\n      dup8\n        /* \"#utility.yul\":5000:5023   */\n      sub\n        /* \"#utility.yul\":4996:5029   */\n      slt\n        /* \"#utility.yul\":4993:5113   */\n      iszero\n      tag_144\n      jumpi\n        /* \"#utility.yul\":5032:5111   */\n      tag_145\n      tag_50\n      jump\t// in\n    tag_145:\n        /* \"#utility.yul\":4993:5113   */\n    tag_144:\n        /* \"#utility.yul\":5180:5181   */\n      0x00\n        /* \"#utility.yul\":5169:5178   */\n      dup6\n        /* \"#utility.yul\":5165:5182   */\n      add\n        /* \"#utility.yul\":5152:5183   */\n      calldataload\n        /* \"#utility.yul\":5210:5228   */\n      0xffffffffffffffff\n        /* \"#utility.yul\":5202:5208   */\n      dup2\n        /* \"#utility.yul\":5199:5229   */\n      gt\n        /* \"#utility.yul\":5196:5313   */\n      iszero\n      tag_146\n      jumpi\n        /* \"#utility.yul\":5232:5311   */\n      tag_147\n      tag_51\n      jump\t// in\n    tag_147:\n        /* \"#utility.yul\":5196:5313   */\n    tag_146:\n        /* \"#utility.yul\":5337:5400   */\n      tag_148\n        /* \"#utility.yul\":5392:5399   */\n      dup8\n        /* \"#utility.yul\":5383:5389   */\n      dup3\n        /* \"#utility.yul\":5372:5381   */\n      dup9\n        /* \"#utility.yul\":5368:5390   */\n      add\n        /* \"#utility.yul\":5337:5400   */\n      tag_61\n      jump\t// in\n    tag_148:\n        /* \"#utility.yul\":5327:5400   */\n      swap5\n      pop\n        /* \"#utility.yul\":5123:5410   */\n      pop\n        /* \"#utility.yul\":5449:5451   */\n      0x20\n        /* \"#utility.yul\":5475:5528   */\n      tag_149\n        /* \"#utility.yul\":5520:5527   */\n      dup8\n        /* \"#utility.yul\":5511:5517   */\n      dup3\n        /* \"#utility.yul\":5500:5509   */\n      dup9\n        /* \"#utility.yul\":5496:5518   */\n      add\n        /* \"#utility.yul\":5475:5528   */\n      tag_64\n      jump\t// in\n    tag_149:\n        /* \"#utility.yul\":5465:5528   */\n      swap4\n      pop\n        /* \"#utility.yul\":5420:5538   */\n      pop\n        /* \"#utility.yul\":5577:5579   */\n      0x40\n        /* \"#utility.yul\":5603:5656   */\n      tag_150\n        /* \"#utility.yul\":5648:5655   */\n      dup8\n        /* \"#utility.yul\":5639:5645   */\n      dup3\n        /* \"#utility.yul\":5628:5637   */\n      dup9\n        /* \"#utility.yul\":5624:5646   */\n      add\n        /* \"#utility.yul\":5603:5656   */\n      tag_67\n      jump\t// in\n    tag_150:\n        /* \"#utility.yul\":5593:5656   */\n      swap3\n      pop\n        /* \"#utility.yul\":5548:5666   */\n      pop\n        /* \"#utility.yul\":5733:5735   */\n      0x60\n        /* \"#utility.yul\":5722:5731   */\n      dup6\n        /* \"#utility.yul\":5718:5736   */\n      add\n        /* \"#utility.yul\":5705:5737   */\n      calldataload\n        /* \"#utility.yul\":5764:5782   */\n      0xffffffffffffffff\n        /* \"#utility.yul\":5756:5762   */\n      dup2\n        /* \"#utility.yul\":5753:5783   */\n      gt\n        /* \"#utility.yul\":5750:5867   */\n      iszero\n      tag_151\n      jumpi\n        /* \"#utility.yul\":5786:5865   */\n      tag_152\n      tag_51\n      jump\t// in\n    tag_152:\n        /* \"#utility.yul\":5750:5867   */\n    tag_151:\n        /* \"#utility.yul\":5891:5969   */\n      tag_153\n        /* \"#utility.yul\":5961:5968   */\n      dup8\n        /* \"#utility.yul\":5952:5958   */\n      dup3\n        /* \"#utility.yul\":5941:5950   */\n      dup9\n        /* \"#utility.yul\":5937:5959   */\n      add\n        /* \"#utility.yul\":5891:5969   */\n      tag_71\n      jump\t// in\n    tag_153:\n        /* \"#utility.yul\":5881:5969   */\n      swap2\n      pop\n        /* \"#utility.yul\":5676:5979   */\n      pop\n        /* \"#utility.yul\":4831:5986   */\n      swap3\n      swap6\n      swap2\n      swap5\n      pop\n      swap3\n      pop\n      jump\t// out\n        /* \"#utility.yul\":5992:6082   */\n    tag_72:\n        /* \"#utility.yul\":6026:6033   */\n      0x00\n        /* \"#utility.yul\":6069:6074   */\n      dup2\n        /* \"#utility.yul\":6062:6075   */\n      iszero\n        /* \"#utility.yul\":6055:6076   */\n      iszero\n        /* \"#utility.yul\":6044:6076   */\n      swap1\n      pop\n        /* \"#utility.yul\":5992:6082   */\n      swap2\n      swap1\n      pop\n      jump\t// out\n        /* \"#utility.yul\":6088:6197   */\n    tag_73:\n        /* \"#utility.yul\":6169:6190   */\n      tag_156\n        /* \"#utility.yul\":6184:6189   */\n      dup2\n        /* \"#utility.yul\":6169:6190   */\n      tag_72\n      jump\t// in\n    tag_156:\n        /* \"#utility.yul\":6164:6167   */\n      dup3\n        /* \"#utility.yul\":6157:6191   */\n      mstore\n        /* \"#utility.yul\":6088:6197   */\n      pop\n      pop\n      jump\t// out\n        /* \"#utility.yul\":6203:6413   */\n    tag_12:\n        /* \"#utility.yul\":6290:6294   */\n      0x00\n        /* \"#utility.yul\":6328:6330   */\n      0x20\n        /* \"#utility.yul\":6317:6326   */\n      dup3\n        /* \"#utility.yul\":6313:6331   */\n      add\n        /* \"#utility.yul\":6305:6331   */\n      swap1\n      pop\n        /* \"#utility.yul\":6341:6406   */\n      tag_158\n        /* \"#utility.yul\":6403:6404   */\n      0x00\n        /* \"#utility.yul\":6392:6401   */\n      dup4\n        /* \"#utility.yul\":6388:6405   */\n      add\n        /* \"#utility.yul\":6379:6385   */\n      dup5\n        /* \"#utility.yul\":6341:6406   */\n      tag_73\n      jump\t// in\n    tag_158:\n        /* \"#utility.yul\":6203:6413   */\n      swap3\n      swap2\n      pop\n      pop\n      jump\t// out\n        /* \"#utility.yul\":6419:6748   */\n    tag_15:\n        /* \"#utility.yul\":6478:6484   */\n      0x00\n        /* \"#utility.yul\":6527:6529   */\n      0x20\n        /* \"#utility.yul\":6515:6524   */\n      dup3\n        /* \"#utility.yul\":6506:6513   */\n      dup5\n        /* \"#utility.yul\":6502:6525   */\n      sub\n        /* \"#utility.yul\":6498:6530   */\n      slt\n        /* \"#utility.yul\":6495:6614   */\n      iszero\n      tag_160\n      jumpi\n        /* \"#utility.yul\":6533:6612   */\n      tag_161\n      tag_50\n      jump\t// in\n    tag_161:\n        /* \"#utility.yul\":6495:6614   */\n    tag_160:\n        /* \"#utility.yul\":6653:6654   */\n      0x00\n        /* \"#utility.yul\":6678:6731   */\n      tag_162\n        /* \"#utility.yul\":6723:6730   */\n      dup5\n        /* \"#utility.yul\":6714:6720   */\n      dup3\n        /* \"#utility.yul\":6703:6712   */\n      dup6\n        /* \"#utility.yul\":6699:6721   */\n      add\n        /* \"#utility.yul\":6678:6731   */\n      tag_64\n      jump\t// in\n    tag_162:\n        /* \"#utility.yul\":6668:6731   */\n      swap2\n      pop\n        /* \"#utility.yul\":6624:6741   */\n      pop\n        /* \"#utility.yul\":6419:6748   */\n      swap3\n      swap2\n      pop\n      pop\n      jump\t// out\n        /* \"#utility.yul\":6754:6872   */\n    tag_74:\n        /* \"#utility.yul\":6841:6865   */\n      tag_164\n        /* \"#utility.yul\":6859:6864   */\n      dup2\n        /* \"#utility.yul\":6841:6865   */\n      tag_65\n      jump\t// in\n    tag_164:\n        /* \"#utility.yul\":6836:6839   */\n      dup3\n        /* \"#utility.yul\":6829:6866   */\n      mstore\n        /* \"#utility.yul\":6754:6872   */\n      pop\n      pop\n      jump\t// out\n        /* \"#utility.yul\":6878:7100   */\n    tag_18:\n        /* \"#utility.yul\":6971:6975   */\n      0x00\n        /* \"#utility.yul\":7009:7011   */\n      0x20\n        /* \"#utility.yul\":6998:7007   */\n      dup3\n        /* \"#utility.yul\":6994:7012   */\n      add\n        /* \"#utility.yul\":6986:7012   */\n      swap1\n      pop\n        /* \"#utility.yul\":7022:7093   */\n      tag_166\n        /* \"#utility.yul\":7090:7091   */\n      0x00\n        /* \"#utility.yul\":7079:7088   */\n      dup4\n        /* \"#utility.yul\":7075:7092   */\n      add\n        /* \"#utility.yul\":7066:7072   */\n      dup5\n        /* \"#utility.yul\":7022:7093   */\n      tag_74\n      jump\t// in\n    tag_166:\n        /* \"#utility.yul\":6878:7100   */\n      swap3\n      swap2\n      pop\n      pop\n      jump\t// out\n        /* \"#utility.yul\":7106:7615   */\n    tag_21:\n        /* \"#utility.yul\":7175:7181   */\n      0x00\n        /* \"#utility.yul\":7224:7226   */\n      0x20\n        /* \"#utility.yul\":7212:7221   */\n      dup3\n        /* \"#utility.yul\":7203:7210   */\n      dup5\n        /* \"#utility.yul\":7199:7222   */\n      sub\n        /* \"#utility.yul\":7195:7227   */\n      slt\n        /* \"#utility.yul\":7192:7311   */\n      iszero\n      tag_168\n      jumpi\n        /* \"#utility.yul\":7230:7309   */\n      tag_169\n      tag_50\n      jump\t// in\n    tag_169:\n        /* \"#utility.yul\":7192:7311   */\n    tag_168:\n        /* \"#utility.yul\":7378:7379   */\n      0x00\n        /* \"#utility.yul\":7367:7376   */\n      dup3\n        /* \"#utility.yul\":7363:7380   */\n      add\n        /* \"#utility.yul\":7350:7381   */\n      calldataload\n        /* \"#utility.yul\":7408:7426   */\n      0xffffffffffffffff\n        /* \"#utility.yul\":7400:7406   */\n      dup2\n        /* \"#utility.yul\":7397:7427   */\n      gt\n        /* \"#utility.yul\":7394:7511   */\n      iszero\n      tag_170\n      jumpi\n        /* \"#utility.yul\":7430:7509   */\n      tag_171\n      tag_51\n      jump\t// in\n    tag_171:\n        /* \"#utility.yul\":7394:7511   */\n    tag_170:\n        /* \"#utility.yul\":7535:7598   */\n      tag_172\n        /* \"#utility.yul\":7590:7597   */\n      dup5\n        /* \"#utility.yul\":7581:7587   */\n      dup3\n        /* \"#utility.yul\":7570:7579   */\n      dup6\n        /* \"#utility.yul\":7566:7588   */\n      add\n        /* \"#utility.yul\":7535:7598   */\n      tag_61\n      jump\t// in\n    tag_172:\n        /* \"#utility.yul\":7525:7598   */\n      swap2\n      pop\n        /* \"#utility.yul\":7321:7608   */\n      pop\n        /* \"#utility.yul\":7106:7615   */\n      swap3\n      swap2\n      pop\n      pop\n      jump\t// out\n        /* \"#utility.yul\":7621:7719   */\n    tag_75:\n        /* \"#utility.yul\":7672:7678   */\n      0x00\n        /* \"#utility.yul\":7706:7711   */\n      dup2\n        /* \"#utility.yul\":7700:7712   */\n      mload\n        /* \"#utility.yul\":7690:7712   */\n      swap1\n      pop\n        /* \"#utility.yul\":7621:7719   */\n      swap2\n      swap1\n      pop\n      jump\t// out\n        /* \"#utility.yul\":7725:7893   */\n    tag_76:\n        /* \"#utility.yul\":7808:7819   */\n      0x00\n        /* \"#utility.yul\":7842:7848   */\n      dup3\n        /* \"#utility.yul\":7837:7840   */\n      dup3\n        /* \"#utility.yul\":7830:7849   */\n      mstore\n        /* \"#utility.yul\":7882:7886   */\n      0x20\n        /* \"#utility.yul\":7877:7880   */\n      dup3\n        /* \"#utility.yul\":7873:7887   */\n      add\n        /* \"#utility.yul\":7858:7887   */\n      swap1\n      pop\n        /* \"#utility.yul\":7725:7893   */\n      swap3\n      swap2\n      pop\n      pop\n      jump\t// out\n        /* \"#utility.yul\":7899:8145   */\n    tag_77:\n        /* \"#utility.yul\":7980:7981   */\n      0x00\n        /* \"#utility.yul\":7990:8103   */\n    tag_176:\n        /* \"#utility.yul\":8004:8010   */\n      dup4\n        /* \"#utility.yul\":8001:8002   */\n      dup2\n        /* \"#utility.yul\":7998:8011   */\n      lt\n        /* \"#utility.yul\":7990:8103   */\n      iszero\n      tag_178\n      jumpi\n        /* \"#utility.yul\":8089:8090   */\n      dup1\n        /* \"#utility.yul\":8084:8087   */\n      dup3\n        /* \"#utility.yul\":8080:8091   */\n      add\n        /* \"#utility.yul\":8074:8092   */\n      mload\n        /* \"#utility.yul\":8070:8071   */\n      dup2\n        /* \"#utility.yul\":8065:8068   */\n      dup5\n        /* \"#utility.yul\":8061:8072   */\n      add\n        /* \"#utility.yul\":8054:8093   */\n      mstore\n        /* \"#utility.yul\":8026:8028   */\n      0x20\n        /* \"#utility.yul\":8023:8024   */\n      dup2\n        /* \"#utility.yul\":8019:8029   */\n      add\n        /* \"#utility.yul\":8014:8029   */\n      swap1\n      pop\n        /* \"#utility.yul\":7990:8103   */\n      jump(tag_176)\n    tag_178:\n        /* \"#utility.yul\":8137:8138   */\n      0x00\n        /* \"#utility.yul\":8128:8134   */\n      dup5\n        /* \"#utility.yul\":8123:8126   */\n      dup5\n        /* \"#utility.yul\":8119:8135   */\n      add\n        /* \"#utility.yul\":8112:8139   */\n      mstore\n        /* \"#utility.yul\":7961:8145   */\n      pop\n        /* \"#utility.yul\":7899:8145   */\n      pop\n      pop\n      pop\n      jump\t// out\n        /* \"#utility.yul\":8151:8524   */\n    tag_78:\n        /* \"#utility.yul\":8237:8240   */\n      0x00\n        /* \"#utility.yul\":8265:8303   */\n      tag_180\n        /* \"#utility.yul\":8297:8302   */\n      dup3\n        /* \"#utility.yul\":8265:8303   */\n      tag_75\n      jump\t// in\n    tag_180:\n        /* \"#utility.yul\":8319:8389   */\n      tag_181\n        /* \"#utility.yul\":8382:8388   */\n      dup2\n        /* \"#utility.yul\":8377:8380   */\n      dup6\n        /* \"#utility.yul\":8319:8389   */\n      tag_76\n      jump\t// in\n    tag_181:\n        /* \"#utility.yul\":8312:8389   */\n      swap4\n      pop\n        /* \"#utility.yul\":8398:8463   */\n      tag_182\n        /* \"#utility.yul\":8456:8462   */\n      dup2\n        /* \"#utility.yul\":8451:8454   */\n      dup6\n        /* \"#utility.yul\":8444:8448   */\n      0x20\n        /* \"#utility.yul\":8437:8442   */\n      dup7\n        /* \"#utility.yul\":8433:8449   */\n      add\n        /* \"#utility.yul\":8398:8463   */\n      tag_77\n      jump\t// in\n    tag_182:\n        /* \"#utility.yul\":8488:8517   */\n      tag_183\n        /* \"#utility.yul\":8510:8516   */\n      dup2\n        /* \"#utility.yul\":8488:8517   */\n      tag_54\n      jump\t// in\n    tag_183:\n        /* \"#utility.yul\":8483:8486   */\n      dup5\n        /* \"#utility.yul\":8479:8518   */\n      add\n        /* \"#utility.yul\":8472:8518   */\n      swap2\n      pop\n        /* \"#utility.yul\":8241:8524   */\n      pop\n        /* \"#utility.yul\":8151:8524   */\n      swap3\n      swap2\n      pop\n      pop\n      jump\t// out\n        /* \"#utility.yul\":8530:8839   */\n    tag_28:\n        /* \"#utility.yul\":8641:8645   */\n      0x00\n        /* \"#utility.yul\":8679:8681   */\n      0x20\n        /* \"#utility.yul\":8668:8677   */\n      dup3\n        /* \"#utility.yul\":8664:8682   */\n      add\n        /* \"#utility.yul\":8656:8682   */\n      swap1\n      pop\n        /* \"#utility.yul\":8728:8737   */\n      dup2\n        /* \"#utility.yul\":8722:8726   */\n      dup2\n        /* \"#utility.yul\":8718:8738   */\n      sub\n        /* \"#utility.yul\":8714:8715   */\n      0x00\n        /* \"#utility.yul\":8703:8712   */\n      dup4\n        /* \"#utility.yul\":8699:8716   */\n      add\n        /* \"#utility.yul\":8692:8739   */\n      mstore\n        /* \"#utility.yul\":8756:8832   */\n      tag_185\n        /* \"#utility.yul\":8827:8831   */\n      dup2\n        /* \"#utility.yul\":8818:8824   */\n      dup5\n        /* \"#utility.yul\":8756:8832   */\n      tag_78\n      jump\t// in\n    tag_185:\n        /* \"#utility.yul\":8748:8832   */\n      swap1\n      pop\n        /* \"#utility.yul\":8530:8839   */\n      swap3\n      swap2\n      pop\n      pop\n      jump\t// out\n        /* \"#utility.yul\":8845:9025   */\n    tag_36:\n        /* \"#utility.yul\":8893:8970   */\n      0x4e487b7100000000000000000000000000000000000000000000000000000000\n        /* \"#utility.yul\":8890:8891   */\n      0x00\n        /* \"#utility.yul\":8883:8971   */\n      mstore\n        /* \"#utility.yul\":8990:8994   */\n      0x32\n        /* \"#utility.yul\":8987:8988   */\n      0x04\n        /* \"#utility.yul\":8980:8995   */\n      mstore\n        /* \"#utility.yul\":9014:9018   */\n      0x24\n        /* \"#utility.yul\":9011:9012   */\n      0x00\n        /* \"#utility.yul\":9004:9019   */\n      revert\n        /* \"#utility.yul\":9031:9211   */\n    tag_79:\n        /* \"#utility.yul\":9079:9156   */\n      0x4e487b7100000000000000000000000000000000000000000000000000000000\n        /* \"#utility.yul\":9076:9077   */\n      0x00\n        /* \"#utility.yul\":9069:9157   */\n      mstore\n        /* \"#utility.yul\":9176:9180   */\n      0x12\n        /* \"#utility.yul\":9173:9174   */\n      0x04\n        /* \"#utility.yul\":9166:9181   */\n      mstore\n        /* \"#utility.yul\":9200:9204   */\n      0x24\n        /* \"#utility.yul\":9197:9198   */\n      0x00\n        /* \"#utility.yul\":9190:9205   */\n      revert\n        /* \"#utility.yul\":9217:9393   */\n    tag_38:\n        /* \"#utility.yul\":9249:9250   */\n      0x00\n        /* \"#utility.yul\":9266:9286   */\n      tag_189\n        /* \"#utility.yul\":9284:9285   */\n      dup3\n        /* \"#utility.yul\":9266:9286   */\n      tag_62\n      jump\t// in\n    tag_189:\n        /* \"#utility.yul\":9261:9286   */\n      swap2\n      pop\n        /* \"#utility.yul\":9300:9320   */\n      tag_190\n        /* \"#utility.yul\":9318:9319   */\n      dup4\n        /* \"#utility.yul\":9300:9320   */\n      tag_62\n      jump\t// in\n    tag_190:\n        /* \"#utility.yul\":9295:9320   */\n      swap3\n      pop\n        /* \"#utility.yul\":9339:9340   */\n      dup3\n        /* \"#utility.yul\":9329:9364   */\n      tag_191\n      jumpi\n        /* \"#utility.yul\":9344:9362   */\n      tag_192\n      tag_79\n      jump\t// in\n    tag_192:\n        /* \"#utility.yul\":9329:9364   */\n    tag_191:\n        /* \"#utility.yul\":9385:9386   */\n      dup3\n        /* \"#utility.yul\":9382:9383   */\n      dup3\n        /* \"#utility.yul\":9378:9387   */\n      mod\n        /* \"#utility.yul\":9373:9387   */\n      swap1\n      pop\n        /* \"#utility.yul\":9217:9393   */\n      swap3\n      swap2\n      pop\n      pop\n      jump\t// out\n        /* \"#utility.yul\":9399:9579   */\n    tag_80:\n        /* \"#utility.yul\":9447:9524   */\n      0x4e487b7100000000000000000000000000000000000000000000000000000000\n        /* \"#utility.yul\":9444:9445   */\n      0x00\n        /* \"#utility.yul\":9437:9525   */\n      mstore\n        /* \"#utility.yul\":9544:9548   */\n      0x11\n        /* \"#utility.yul\":9541:9542   */\n      0x04\n        /* \"#utility.yul\":9534:9549   */\n      mstore\n        /* \"#utility.yul\":9568:9572   */\n      0x24\n        /* \"#utility.yul\":9565:9566   */\n      0x00\n        /* \"#utility.yul\":9558:9573   */\n      revert\n        /* \"#utility.yul\":9585:9818   */\n    tag_41:\n        /* \"#utility.yul\":9624:9627   */\n      0x00\n        /* \"#utility.yul\":9647:9671   */\n      tag_195\n        /* \"#utility.yul\":9665:9670   */\n      dup3\n        /* \"#utility.yul\":9647:9671   */\n      tag_62\n      jump\t// in\n    tag_195:\n        /* \"#utility.yul\":9638:9671   */\n      swap2\n      pop\n        /* \"#utility.yul\":9693:9759   */\n      0xffffffffffffffffffffffffffffffffffffffffffffffffffffffffffffffff\n        /* \"#utility.yul\":9686:9691   */\n      dup3\n        /* \"#utility.yul\":9683:9760   */\n      sub\n        /* \"#utility.yul\":9680:9783   */\n      tag_196\n      jumpi\n        /* \"#utility.yul\":9763:9781   */\n      tag_197\n      tag_80\n      jump\t// in\n    tag_197:\n        /* \"#utility.yul\":9680:9783   */\n    tag_196:\n        /* \"#utility.yul\":9810:9811   */\n      0x01\n        /* \"#utility.yul\":9803:9808   */\n      dup3\n        /* \"#utility.yul\":9799:9812   */\n      add\n        /* \"#utility.yul\":9792:9812   */\n      swap1\n      pop\n        /* \"#utility.yul\":9585:9818   */\n      swap2\n      swap1\n      pop\n      jump\t// out\n        /* \"#utility.yul\":9824:9923   */\n    tag_81:\n        /* \"#utility.yul\":9876:9882   */\n      0x00\n        /* \"#utility.yul\":9910:9915   */\n      dup2\n        /* \"#utility.yul\":9904:9916   */\n      mload\n        /* \"#utility.yul\":9894:9916   */\n      swap1\n      pop\n        /* \"#utility.yul\":9824:9923   */\n      swap2\n      swap1\n      pop\n      jump\t// out\n        /* \"#utility.yul\":9929:10077   */\n    tag_82:\n        /* \"#utility.yul\":10031:10042   */\n      0x00\n        /* \"#utility.yul\":10068:10071   */\n      dup2\n        /* \"#utility.yul\":10053:10071   */\n      swap1\n      pop\n        /* \"#utility.yul\":9929:10077   */\n      swap3\n      swap2\n      pop\n      pop\n      jump\t// out\n        /* \"#utility.yul\":10083:10473   */\n    tag_83:\n        /* \"#utility.yul\":10189:10192   */\n      0x00\n        /* \"#utility.yul\":10217:10256   */\n      tag_201\n        /* \"#utility.yul\":10250:10255   */\n      dup3\n        /* \"#utility.yul\":10217:10256   */\n      tag_81\n      jump\t// in\n    tag_201:\n        /* \"#utility.yul\":10272:10361   */\n      tag_202\n        /* \"#utility.yul\":10354:10360   */\n      dup2\n        /* \"#utility.yul\":10349:10352   */\n      dup6\n        /* \"#utility.yul\":10272:10361   */\n      tag_82\n      jump\t// in\n    tag_202:\n        /* \"#utility.yul\":10265:10361   */\n      swap4\n      pop\n        /* \"#utility.yul\":10370:10435   */\n      tag_203\n        /* \"#utility.yul\":10428:10434   */\n      dup2\n        /* \"#utility.yul\":10423:10426   */\n      dup6\n        /* \"#utility.yul\":10416:10420   */\n      0x20\n        /* \"#utility.yul\":10409:10414   */\n      dup7\n        /* \"#utility.yul\":10405:10421   */\n      add\n        /* \"#utility.yul\":10370:10435   */\n      tag_77\n      jump\t// in\n    tag_203:\n        /* \"#utility.yul\":10460:10466   */\n      dup1\n        /* \"#utility.yul\":10455:10458   */\n      dup5\n        /* \"#utility.yul\":10451:10467   */\n      add\n        /* \"#utility.yul\":10444:10467   */\n      swap2\n      pop\n        /* \"#utility.yul\":10193:10473   */\n      pop\n        /* \"#utility.yul\":10083:10473   */\n      swap3\n      swap2\n      pop\n      pop\n      jump\t// out\n        /* \"#utility.yul\":10479:10754   */\n    tag_48:\n        /* \"#utility.yul\":10611:10614   */\n      0x00\n        /* \"#utility.yul\":10633:10728   */\n      tag_205\n        /* \"#utility.yul\":10724:10727   */\n      dup3\n        /* \"#utility.yul\":10715:10721   */\n      dup5\n        /* \"#utility.yul\":10633:10728   */\n      tag_83\n      jump\t// in\n    tag_205:\n        /* \"#utility.yul\":10626:10728   */\n      swap2\n      pop\n        /* \"#utility.yul\":10745:10748   */\n      dup2\n        /* \"#utility.yul\":10738:10748   */\n      swap1\n      pop\n        /* \"#utility.yul\":10479:10754   */\n      swap3\n      swap2\n      pop\n      pop\n      jump\t// out\n\n    auxdata: 0xa2646970667358221220fd2d256c8fe942736585ef19be615287724c6356f2a4abd9f52f63487a14d2d564736f6c63430008110033\n}\n",
				"bytecode": {
					"linkReferences": {},
					"object": "608060405260405180608001604052806040518060400160405280601581526020017f5458313a20536865726c6f636b202d3e204a6f686e000000000000000000000081525081526020016040518060400160405280601581526020017f5458323a204a6f686e202d3e20536865726c6f636b000000000000000000000081525081526020016040518060400160405280601181526020017f5458333a204a6f686e202d3e204d61727900000000000000000000000000000081525081526020016040518060400160405280601581526020017f5458343a204d617279202d3e20536865726c6f636b000000000000000000000081525081525060019060046200010b9291906200039b565b503480156200011957600080fd5b5060005b60048110156200021e576000620001e2600183600481106200014457620001436200047b565b5b0180546200015290620004d9565b80601f01602080910402602001604051908101604052809291908181526020018280546200018090620004d9565b8015620001d15780601f10620001a557610100808354040283529160200191620001d1565b820191906000526020600020905b815481529060010190602001808311620001b357829003601f168201915b50505050506200034f60201b60201c565b90806001815401808255809150506001900390600052602060002001600090919091909150558080620002159062000547565b9150506200011d565b5060006004905060005b6000821115620003475760005b60018362000244919062000594565b8110156200031f5760008082846200025d9190620005cf565b815481106200027157620002706200047b565b5b90600052602060002001546000600184866200028e9190620005cf565b6200029a9190620005cf565b81548110620002ae57620002ad6200047b565b5b9060005260206000200154604051602001620002cc92919062000639565b604051602081830303815290604052805190602001209080600181540180825580915050600190039060005260206000200160009091909190915055600281620003179190620005cf565b905062000235565b5081816200032e9190620005cf565b90506002826200033f919062000698565b915062000228565b505062000a4a565b600062000362826200037060201b60201c565b805190602001209050919050565b60608160405160200162000385919062000749565b6040516020818303038152906040529050919050565b8260048101928215620003db579160200282015b82811115620003da578251829081620003c9919062000963565b5091602001919060010190620003af565b5b509050620003ea9190620003ee565b5090565b5b8082111562000412576000818162000408919062000416565b50600101620003ef565b5090565b5080546200042490620004d9565b6000825580601f1062000438575062000459565b601f0160209004906000526020600020908101906200045891906200045c565b5b50565b5b80821115620004775760008160009055506001016200045d565b5090565b7f4e487b7100000000000000000000000000000000000000000000000000000000600052603260045260246000fd5b7f4e487b7100000000000000000000000000000000000000000000000000000000600052602260045260246000fd5b60006002820490506001821680620004f257607f821691505b602082108103620005085762000507620004aa565b5b50919050565b7f4e487b7100000000000000000000000000000000000000000000000000000000600052601160045260246000fd5b6000819050919050565b600062000554826200053d565b91507fffffffffffffffffffffffffffffffffffffffffffffffffffffffffffffffff82036200058957620005886200050e565b5b600182019050919050565b6000620005a1826200053d565b9150620005ae836200053d565b9250828203905081811115620005c957620005c86200050e565b5b92915050565b6000620005dc826200053d565b9150620005e9836200053d565b92508282019050808211156200060457620006036200050e565b5b92915050565b6000819050919050565b6000819050919050565b620006336200062d826200060a565b62000614565b82525050565b60006200064782856200061e565b6020820191506200065982846200061e565b6020820191508190509392505050565b7f4e487b7100000000000000000000000000000000000000000000000000000000600052601260045260246000fd5b6000620006a5826200053d565b9150620006b2836200053d565b925082620006c557620006c462000669565b5b828204905092915050565b600081519050919050565b600081905092915050565b60005b8381101562000706578082015181840152602081019050620006e9565b60008484015250505050565b60006200071f82620006d0565b6200072b8185620006db565b93506200073d818560208601620006e6565b80840191505092915050565b600062000757828462000712565b915081905092915050565b7f4e487b7100000000000000000000000000000000000000000000000000000000600052604160045260246000fd5b60008190508160005260206000209050919050565b60006020601f8301049050919050565b600082821b905092915050565b600060088302620007f57fffffffffffffffffffffffffffffffffffffffffffffffffffffffffffffffff82620007b6565b620008018683620007b6565b95508019841693508086168417925050509392505050565b6000819050919050565b6000620008446200083e62000838846200053d565b62000819565b6200053d565b9050919050565b6000819050919050565b620008608362000823565b620008786200086f826200084b565b848454620007c3565b825550505050565b600090565b6200088f62000880565b6200089c81848462000855565b505050565b5b81811015620008c457620008b860008262000885565b600181019050620008a2565b5050565b601f8211156200091357620008dd8162000791565b620008e884620007a6565b81016020851015620008f8578190505b620009106200090785620007a6565b830182620008a1565b50505b505050565b600082821c905092915050565b6000620009386000198460080262000918565b1980831691505092915050565b600062000953838362000925565b9150826002028217905092915050565b6200096e82620006d0565b67ffffffffffffffff8111156200098a576200098962000762565b5b620009968254620004d9565b620009a3828285620008c8565b600060209050601f831160018114620009db5760008415620009c6578287015190505b620009d2858262000945565b86555062000a42565b601f198416620009eb8662000791565b60005b8281101562000a1557848901518255600182019150602085019450602081019050620009ee565b8683101562000a35578489015162000a31601f89168262000925565b8355505b6001600288020188555050505b505050505050565b61081d8062000a5a6000396000f3fe608060405234801561001057600080fd5b506004361061004c5760003560e01c80632637cccf14610051578063501895ae1461008157806352de70af146100b15780636a11b2a8146100e1575b600080fd5b61006b6004803603810190610066919061046d565b610111565b6040516100789190610527565b60405180910390f35b61009b60048036038101906100969190610542565b610179565b6040516100a8919061057e565b60405180910390f35b6100cb60048036038101906100c69190610599565b61019d565b6040516100d8919061057e565b60405180910390f35b6100fb60048036038101906100f69190610599565b6101b6565b6040516101089190610661565b60405180910390f35b60008061011d8661019d565b905060005b835181101561016f5760008482815181106101405761013f610683565b5b60200260200101519050600060028861015991906106e1565b505050808061016790610741565b915050610122565b5050949350505050565b6000818154811061018957600080fd5b906000526020600020016000915090505481565b60006101a8826101b6565b805190602001209050919050565b6060816040516020016101c991906107d0565b6040516020818303038152906040529050919050565b6000604051905090565b600080fd5b600080fd5b600080fd5b600080fd5b6000601f19601f8301169050919050565b7f4e487b7100000000000000000000000000000000000000000000000000000000600052604160045260246000fd5b610246826101fd565b810181811067ffffffffffffffff821117156102655761026461020e565b5b80604052505050565b60006102786101df565b9050610284828261023d565b919050565b600067ffffffffffffffff8211156102a4576102a361020e565b5b6102ad826101fd565b9050602081019050919050565b82818337600083830152505050565b60006102dc6102d784610289565b61026e565b9050828152602081018484840111156102f8576102f76101f8565b5b6103038482856102ba565b509392505050565b600082601f8301126103205761031f6101f3565b5b81356103308482602086016102c9565b91505092915050565b6000819050919050565b61034c81610339565b811461035757600080fd5b50565b60008135905061036981610343565b92915050565b6000819050919050565b6103828161036f565b811461038d57600080fd5b50565b60008135905061039f81610379565b92915050565b600067ffffffffffffffff8211156103c0576103bf61020e565b5b602082029050602081019050919050565b600080fd5b60006103e96103e4846103a5565b61026e565b9050808382526020820190506020840283018581111561040c5761040b6103d1565b5b835b8181101561043557806104218882610390565b84526020840193505060208101905061040e565b5050509392505050565b600082601f830112610454576104536101f3565b5b81356104648482602086016103d6565b91505092915050565b60008060008060808587031215610487576104866101e9565b5b600085013567ffffffffffffffff8111156104a5576104a46101ee565b5b6104b18782880161030b565b94505060206104c28782880161035a565b93505060406104d387828801610390565b925050606085013567ffffffffffffffff8111156104f4576104f36101ee565b5b6105008782880161043f565b91505092959194509250565b60008115159050919050565b6105218161050c565b82525050565b600060208201905061053c6000830184610518565b92915050565b600060208284031215610558576105576101e9565b5b60006105668482850161035a565b91505092915050565b6105788161036f565b82525050565b6000602082019050610593600083018461056f565b92915050565b6000602082840312156105af576105ae6101e9565b5b600082013567ffffffffffffffff8111156105cd576105cc6101ee565b5b6105d98482850161030b565b91505092915050565b600081519050919050565b600082825260208201905092915050565b60005b8381101561061c578082015181840152602081019050610601565b60008484015250505050565b6000610633826105e2565b61063d81856105ed565b935061064d8185602086016105fe565b610656816101fd565b840191505092915050565b6000602082019050818103600083015261067b8184610628565b905092915050565b7f4e487b7100000000000000000000000000000000000000000000000000000000600052603260045260246000fd5b7f4e487b7100000000000000000000000000000000000000000000000000000000600052601260045260246000fd5b60006106ec82610339565b91506106f783610339565b925082610707576107066106b2565b5b828206905092915050565b7f4e487b7100000000000000000000000000000000000000000000000000000000600052601160045260246000fd5b600061074c82610339565b91507fffffffffffffffffffffffffffffffffffffffffffffffffffffffffffffffff820361077e5761077d610712565b5b600182019050919050565b600081519050919050565b600081905092915050565b60006107aa82610789565b6107b48185610794565b93506107c48185602086016105fe565b80840191505092915050565b60006107dc828461079f565b91508190509291505056fea2646970667358221220fd2d256c8fe942736585ef19be615287724c6356f2a4abd9f52f63487a14d2d564736f6c63430008110033",
					"opcodes": "PUSH1 0x80 PUSH1 0x40 MSTORE PUSH1 0x40 MLOAD DUP1 PUSH1 0x80 ADD PUSH1 0x40 MSTORE DUP1 PUSH1 0x40 MLOAD DUP1 PUSH1 0x40 ADD PUSH1 0x40 MSTORE DUP1 PUSH1 0x15 DUP2 MSTORE PUSH1 0x20 ADD PUSH32 0x5458313A20536865726C6F636B202D3E204A6F686E0000000000000000000000 DUP2 MSTORE POP DUP2 MSTORE PUSH1 0x20 ADD PUSH1 0x40 MLOAD DUP1 PUSH1 0x40 ADD PUSH1 0x40 MSTORE DUP1 PUSH1 0x15 DUP2 MSTORE PUSH1 0x20 ADD PUSH32 0x5458323A204A6F686E202D3E20536865726C6F636B0000000000000000000000 DUP2 MSTORE POP DUP2 MSTORE PUSH1 0x20 ADD PUSH1 0x40 MLOAD DUP1 PUSH1 0x40 ADD PUSH1 0x40 MSTORE DUP1 PUSH1 0x11 DUP2 MSTORE PUSH1 0x20 ADD PUSH32 0x5458333A204A6F686E202D3E204D617279000000000000000000000000000000 DUP2 MSTORE POP DUP2 MSTORE PUSH1 0x20 ADD PUSH1 0x40 MLOAD DUP1 PUSH1 0x40 ADD PUSH1 0x40 MSTORE DUP1 PUSH1 0x15 DUP2 MSTORE PUSH1 0x20 ADD PUSH32 0x5458343A204D617279202D3E20536865726C6F636B0000000000000000000000 DUP2 MSTORE POP DUP2 MSTORE POP PUSH1 0x1 SWAP1 PUSH1 0x4 PUSH3 0x10B SWAP3 SWAP2 SWAP1 PUSH3 0x39B JUMP JUMPDEST POP CALLVALUE DUP1 ISZERO PUSH3 0x119 JUMPI PUSH1 0x0 DUP1 REVERT JUMPDEST POP PUSH1 0x0 JUMPDEST PUSH1 0x4 DUP2 LT ISZERO PUSH3 0x21E JUMPI PUSH1 0x0 PUSH3 0x1E2 PUSH1 0x1 DUP4 PUSH1 0x4 DUP2 LT PUSH3 0x144 JUMPI PUSH3 0x143 PUSH3 0x47B JUMP JUMPDEST JUMPDEST ADD DUP1 SLOAD PUSH3 0x152 SWAP1 PUSH3 0x4D9 JUMP JUMPDEST DUP1 PUSH1 0x1F ADD PUSH1 0x20 DUP1 SWAP2 DIV MUL PUSH1 0x20 ADD PUSH1 0x40 MLOAD SWAP1 DUP2 ADD PUSH1 0x40 MSTORE DUP1 SWAP3 SWAP2 SWAP1 DUP2 DUP2 MSTORE PUSH1 0x20 ADD DUP3 DUP1 SLOAD PUSH3 0x180 SWAP1 PUSH3 0x4D9 JUMP JUMPDEST DUP1 ISZERO PUSH3 0x1D1 JUMPI DUP1 PUSH1 0x1F LT PUSH3 0x1A5 JUMPI PUSH2 0x100 DUP1 DUP4 SLOAD DIV MUL DUP4 MSTORE SWAP2 PUSH1 0x20 ADD SWAP2 PUSH3 0x1D1 JUMP JUMPDEST DUP3 ADD SWAP2 SWAP1 PUSH1 0x0 MSTORE PUSH1 0x20 PUSH1 0x0 KECCAK256 SWAP1 JUMPDEST DUP2 SLOAD DUP2 MSTORE SWAP1 PUSH1 0x1 ADD SWAP1 PUSH1 0x20 ADD DUP1 DUP4 GT PUSH3 0x1B3 JUMPI DUP3 SWAP1 SUB PUSH1 0x1F AND DUP3 ADD SWAP2 JUMPDEST POP POP POP POP POP PUSH3 0x34F PUSH1 0x20 SHL PUSH1 0x20 SHR JUMP JUMPDEST SWAP1 DUP1 PUSH1 0x1 DUP2 SLOAD ADD DUP1 DUP3 SSTORE DUP1 SWAP2 POP POP PUSH1 0x1 SWAP1 SUB SWAP1 PUSH1 0x0 MSTORE PUSH1 0x20 PUSH1 0x0 KECCAK256 ADD PUSH1 0x0 SWAP1 SWAP2 SWAP1 SWAP2 SWAP1 SWAP2 POP SSTORE DUP1 DUP1 PUSH3 0x215 SWAP1 PUSH3 0x547 JUMP JUMPDEST SWAP2 POP POP PUSH3 0x11D JUMP JUMPDEST POP PUSH1 0x0 PUSH1 0x4 SWAP1 POP PUSH1 0x0 JUMPDEST PUSH1 0x0 DUP3 GT ISZERO PUSH3 0x347 JUMPI PUSH1 0x0 JUMPDEST PUSH1 0x1 DUP4 PUSH3 0x244 SWAP2 SWAP1 PUSH3 0x594 JUMP JUMPDEST DUP2 LT ISZERO PUSH3 0x31F JUMPI PUSH1 0x0 DUP1 DUP3 DUP5 PUSH3 0x25D SWAP2 SWAP1 PUSH3 0x5CF JUMP JUMPDEST DUP2 SLOAD DUP2 LT PUSH3 0x271 JUMPI PUSH3 0x270 PUSH3 0x47B JUMP JUMPDEST JUMPDEST SWAP1 PUSH1 0x0 MSTORE PUSH1 0x20 PUSH1 0x0 KECCAK256 ADD SLOAD PUSH1 0x0 PUSH1 0x1 DUP5 DUP7 PUSH3 0x28E SWAP2 SWAP1 PUSH3 0x5CF JUMP JUMPDEST PUSH3 0x29A SWAP2 SWAP1 PUSH3 0x5CF JUMP JUMPDEST DUP2 SLOAD DUP2 LT PUSH3 0x2AE JUMPI PUSH3 0x2AD PUSH3 0x47B JUMP JUMPDEST JUMPDEST SWAP1 PUSH1 0x0 MSTORE PUSH1 0x20 PUSH1 0x0 KECCAK256 ADD SLOAD PUSH1 0x40 MLOAD PUSH1 0x20 ADD PUSH3 0x2CC SWAP3 SWAP2 SWAP1 PUSH3 0x639 JUMP JUMPDEST PUSH1 0x40 MLOAD PUSH1 0x20 DUP2 DUP4 SUB SUB DUP2 MSTORE SWAP1 PUSH1 0x40 MSTORE DUP1 MLOAD SWAP1 PUSH1 0x20 ADD KECCAK256 SWAP1 DUP1 PUSH1 0x1 DUP2 SLOAD ADD DUP1 DUP3 SSTORE DUP1 SWAP2 POP POP PUSH1 0x1 SWAP1 SUB SWAP1 PUSH1 0x0 MSTORE PUSH1 0x20 PUSH1 0x0 KECCAK256 ADD PUSH1 0x0 SWAP1 SWAP2 SWAP1 SWAP2 SWAP1 SWAP2 POP SSTORE PUSH1 0x2 DUP2 PUSH3 0x317 SWAP2 SWAP1 PUSH3 0x5CF JUMP JUMPDEST SWAP1 POP PUSH3 0x235 JUMP JUMPDEST POP DUP2 DUP2 PUSH3 0x32E SWAP2 SWAP1 PUSH3 0x5CF JUMP JUMPDEST SWAP1 POP PUSH1 0x2 DUP3 PUSH3 0x33F SWAP2 SWAP1 PUSH3 0x698 JUMP JUMPDEST SWAP2 POP PUSH3 0x228 JUMP JUMPDEST POP POP PUSH3 0xA4A JUMP JUMPDEST PUSH1 0x0 PUSH3 0x362 DUP3 PUSH3 0x370 PUSH1 0x20 SHL PUSH1 0x20 SHR JUMP JUMPDEST DUP1 MLOAD SWAP1 PUSH1 0x20 ADD KECCAK256 SWAP1 POP SWAP2 SWAP1 POP JUMP JUMPDEST PUSH1 0x60 DUP2 PUSH1 0x40 MLOAD PUSH1 0x20 ADD PUSH3 0x385 SWAP2 SWAP1 PUSH3 0x749 JUMP JUMPDEST PUSH1 0x40 MLOAD PUSH1 0x20 DUP2 DUP4 SUB SUB DUP2 MSTORE SWAP1 PUSH1 0x40 MSTORE SWAP1 POP SWAP2 SWAP1 POP JUMP JUMPDEST DUP3 PUSH1 0x4 DUP2 ADD SWAP3 DUP3 ISZERO PUSH3 0x3DB JUMPI SWAP2 PUSH1 0x20 MUL DUP3 ADD JUMPDEST DUP3 DUP2 GT ISZERO PUSH3 0x3DA JUMPI DUP3 MLOAD DUP3 SWAP1 DUP2 PUSH3 0x3C9 SWAP2 SWAP1 PUSH3 0x963 JUMP JUMPDEST POP SWAP2 PUSH1 0x20 ADD SWAP2 SWAP1 PUSH1 0x1 ADD SWAP1 PUSH3 0x3AF JUMP JUMPDEST JUMPDEST POP SWAP1 POP PUSH3 0x3EA SWAP2 SWAP1 PUSH3 0x3EE JUMP JUMPDEST POP SWAP1 JUMP JUMPDEST JUMPDEST DUP1 DUP3 GT ISZERO PUSH3 0x412 JUMPI PUSH1 0x0 DUP2 DUP2 PUSH3 0x408 SWAP2 SWAP1 PUSH3 0x416 JUMP JUMPDEST POP PUSH1 0x1 ADD PUSH3 0x3EF JUMP JUMPDEST POP SWAP1 JUMP JUMPDEST POP DUP1 SLOAD PUSH3 0x424 SWAP1 PUSH3 0x4D9 JUMP JUMPDEST PUSH1 0x0 DUP3 SSTORE DUP1 PUSH1 0x1F LT PUSH3 0x438 JUMPI POP PUSH3 0x459 JUMP JUMPDEST PUSH1 0x1F ADD PUSH1 0x20 SWAP1 DIV SWAP1 PUSH1 0x0 MSTORE PUSH1 0x20 PUSH1 0x0 KECCAK256 SWAP1 DUP2 ADD SWAP1 PUSH3 0x458 SWAP2 SWAP1 PUSH3 0x45C JUMP JUMPDEST JUMPDEST POP JUMP JUMPDEST JUMPDEST DUP1 DUP3 GT ISZERO PUSH3 0x477 JUMPI PUSH1 0x0 DUP2 PUSH1 0x0 SWAP1 SSTORE POP PUSH1 0x1 ADD PUSH3 0x45D JUMP JUMPDEST POP SWAP1 JUMP JUMPDEST PUSH32 0x4E487B7100000000000000000000000000000000000000000000000000000000 PUSH1 0x0 MSTORE PUSH1 0x32 PUSH1 0x4 MSTORE PUSH1 0x24 PUSH1 0x0 REVERT JUMPDEST PUSH32 0x4E487B7100000000000000000000000000000000000000000000000000000000 PUSH1 0x0 MSTORE PUSH1 0x22 PUSH1 0x4 MSTORE PUSH1 0x24 PUSH1 0x0 REVERT JUMPDEST PUSH1 0x0 PUSH1 0x2 DUP3 DIV SWAP1 POP PUSH1 0x1 DUP3 AND DUP1 PUSH3 0x4F2 JUMPI PUSH1 0x7F DUP3 AND SWAP2 POP JUMPDEST PUSH1 0x20 DUP3 LT DUP2 SUB PUSH3 0x508 JUMPI PUSH3 0x507 PUSH3 0x4AA JUMP JUMPDEST JUMPDEST POP SWAP2 SWAP1 POP JUMP JUMPDEST PUSH32 0x4E487B7100000000000000000000000000000000000000000000000000000000 PUSH1 0x0 MSTORE PUSH1 0x11 PUSH1 0x4 MSTORE PUSH1 0x24 PUSH1 0x0 REVERT JUMPDEST PUSH1 0x0 DUP2 SWAP1 POP SWAP2 SWAP1 POP JUMP JUMPDEST PUSH1 0x0 PUSH3 0x554 DUP3 PUSH3 0x53D JUMP JUMPDEST SWAP2 POP PUSH32 0xFFFFFFFFFFFFFFFFFFFFFFFFFFFFFFFFFFFFFFFFFFFFFFFFFFFFFFFFFFFFFFFF DUP3 SUB PUSH3 0x589 JUMPI PUSH3 0x588 PUSH3 0x50E JUMP JUMPDEST JUMPDEST PUSH1 0x1 DUP3 ADD SWAP1 POP SWAP2 SWAP1 POP JUMP JUMPDEST PUSH1 0x0 PUSH3 0x5A1 DUP3 PUSH3 0x53D JUMP JUMPDEST SWAP2 POP PUSH3 0x5AE DUP4 PUSH3 0x53D JUMP JUMPDEST SWAP3 POP DUP3 DUP3 SUB SWAP1 POP DUP2 DUP2 GT ISZERO PUSH3 0x5C9 JUMPI PUSH3 0x5C8 PUSH3 0x50E JUMP JUMPDEST JUMPDEST SWAP3 SWAP2 POP POP JUMP JUMPDEST PUSH1 0x0 PUSH3 0x5DC DUP3 PUSH3 0x53D JUMP JUMPDEST SWAP2 POP PUSH3 0x5E9 DUP4 PUSH3 0x53D JUMP JUMPDEST SWAP3 POP DUP3 DUP3 ADD SWAP1 POP DUP1 DUP3 GT ISZERO PUSH3 0x604 JUMPI PUSH3 0x603 PUSH3 0x50E JUMP JUMPDEST JUMPDEST SWAP3 SWAP2 POP POP JUMP JUMPDEST PUSH1 0x0 DUP2 SWAP1 POP SWAP2 SWAP1 POP JUMP JUMPDEST PUSH1 0x0 DUP2 SWAP1 POP SWAP2 SWAP1 POP JUMP JUMPDEST PUSH3 0x633 PUSH3 0x62D DUP3 PUSH3 0x60A JUMP JUMPDEST PUSH3 0x614 JUMP JUMPDEST DUP3 MSTORE POP POP JUMP JUMPDEST PUSH1 0x0 PUSH3 0x647 DUP3 DUP6 PUSH3 0x61E JUMP JUMPDEST PUSH1 0x20 DUP3 ADD SWAP2 POP PUSH3 0x659 DUP3 DUP5 PUSH3 0x61E JUMP JUMPDEST PUSH1 0x20 DUP3 ADD SWAP2 POP DUP2 SWAP1 POP SWAP4 SWAP3 POP POP POP JUMP JUMPDEST PUSH32 0x4E487B7100000000000000000000000000000000000000000000000000000000 PUSH1 0x0 MSTORE PUSH1 0x12 PUSH1 0x4 MSTORE PUSH1 0x24 PUSH1 0x0 REVERT JUMPDEST PUSH1 0x0 PUSH3 0x6A5 DUP3 PUSH3 0x53D JUMP JUMPDEST SWAP2 POP PUSH3 0x6B2 DUP4 PUSH3 0x53D JUMP JUMPDEST SWAP3 POP DUP3 PUSH3 0x6C5 JUMPI PUSH3 0x6C4 PUSH3 0x669 JUMP JUMPDEST JUMPDEST DUP3 DUP3 DIV SWAP1 POP SWAP3 SWAP2 POP POP JUMP JUMPDEST PUSH1 0x0 DUP2 MLOAD SWAP1 POP SWAP2 SWAP1 POP JUMP JUMPDEST PUSH1 0x0 DUP2 SWAP1 POP SWAP3 SWAP2 POP POP JUMP JUMPDEST PUSH1 0x0 JUMPDEST DUP4 DUP2 LT ISZERO PUSH3 0x706 JUMPI DUP1 DUP3 ADD MLOAD DUP2 DUP5 ADD MSTORE PUSH1 0x20 DUP2 ADD SWAP1 POP PUSH3 0x6E9 JUMP JUMPDEST PUSH1 0x0 DUP5 DUP5 ADD MSTORE POP POP POP POP JUMP JUMPDEST PUSH1 0x0 PUSH3 0x71F DUP3 PUSH3 0x6D0 JUMP JUMPDEST PUSH3 0x72B DUP2 DUP6 PUSH3 0x6DB JUMP JUMPDEST SWAP4 POP PUSH3 0x73D DUP2 DUP6 PUSH1 0x20 DUP7 ADD PUSH3 0x6E6 JUMP JUMPDEST DUP1 DUP5 ADD SWAP2 POP POP SWAP3 SWAP2 POP POP JUMP JUMPDEST PUSH1 0x0 PUSH3 0x757 DUP3 DUP5 PUSH3 0x712 JUMP JUMPDEST SWAP2 POP DUP2 SWAP1 POP SWAP3 SWAP2 POP POP JUMP JUMPDEST PUSH32 0x4E487B7100000000000000000000000000000000000000000000000000000000 PUSH1 0x0 MSTORE PUSH1 0x41 PUSH1 0x4 MSTORE PUSH1 0x24 PUSH1 0x0 REVERT JUMPDEST PUSH1 0x0 DUP2 SWAP1 POP DUP2 PUSH1 0x0 MSTORE PUSH1 0x20 PUSH1 0x0 KECCAK256 SWAP1 POP SWAP2 SWAP1 POP JUMP JUMPDEST PUSH1 0x0 PUSH1 0x20 PUSH1 0x1F DUP4 ADD DIV SWAP1 POP SWAP2 SWAP1 POP JUMP JUMPDEST PUSH1 0x0 DUP3 DUP3 SHL SWAP1 POP SWAP3 SWAP2 POP POP JUMP JUMPDEST PUSH1 0x0 PUSH1 0x8 DUP4 MUL PUSH3 0x7F5 PUSH32 0xFFFFFFFFFFFFFFFFFFFFFFFFFFFFFFFFFFFFFFFFFFFFFFFFFFFFFFFFFFFFFFFF DUP3 PUSH3 0x7B6 JUMP JUMPDEST PUSH3 0x801 DUP7 DUP4 PUSH3 0x7B6 JUMP JUMPDEST SWAP6 POP DUP1 NOT DUP5 AND SWAP4 POP DUP1 DUP7 AND DUP5 OR SWAP3 POP POP POP SWAP4 SWAP3 POP POP POP JUMP JUMPDEST PUSH1 0x0 DUP2 SWAP1 POP SWAP2 SWAP1 POP JUMP JUMPDEST PUSH1 0x0 PUSH3 0x844 PUSH3 0x83E PUSH3 0x838 DUP5 PUSH3 0x53D JUMP JUMPDEST PUSH3 0x819 JUMP JUMPDEST PUSH3 0x53D JUMP JUMPDEST SWAP1 POP SWAP2 SWAP1 POP JUMP JUMPDEST PUSH1 0x0 DUP2 SWAP1 POP SWAP2 SWAP1 POP JUMP JUMPDEST PUSH3 0x860 DUP4 PUSH3 0x823 JUMP JUMPDEST PUSH3 0x878 PUSH3 0x86F DUP3 PUSH3 0x84B JUMP JUMPDEST DUP5 DUP5 SLOAD PUSH3 0x7C3 JUMP JUMPDEST DUP3 SSTORE POP POP POP POP JUMP JUMPDEST PUSH1 0x0 SWAP1 JUMP JUMPDEST PUSH3 0x88F PUSH3 0x880 JUMP JUMPDEST PUSH3 0x89C DUP2 DUP5 DUP5 PUSH3 0x855 JUMP JUMPDEST POP POP POP JUMP JUMPDEST JUMPDEST DUP2 DUP2 LT ISZERO PUSH3 0x8C4 JUMPI PUSH3 0x8B8 PUSH1 0x0 DUP3 PUSH3 0x885 JUMP JUMPDEST PUSH1 0x1 DUP2 ADD SWAP1 POP PUSH3 0x8A2 JUMP JUMPDEST POP POP JUMP JUMPDEST PUSH1 0x1F DUP3 GT ISZERO PUSH3 0x913 JUMPI PUSH3 0x8DD DUP2 PUSH3 0x791 JUMP JUMPDEST PUSH3 0x8E8 DUP5 PUSH3 0x7A6 JUMP JUMPDEST DUP2 ADD PUSH1 0x20 DUP6 LT ISZERO PUSH3 0x8F8 JUMPI DUP2 SWAP1 POP JUMPDEST PUSH3 0x910 PUSH3 0x907 DUP6 PUSH3 0x7A6 JUMP JUMPDEST DUP4 ADD DUP3 PUSH3 0x8A1 JUMP JUMPDEST POP POP JUMPDEST POP POP POP JUMP JUMPDEST PUSH1 0x0 DUP3 DUP3 SHR SWAP1 POP SWAP3 SWAP2 POP POP JUMP JUMPDEST PUSH1 0x0 PUSH3 0x938 PUSH1 0x0 NOT DUP5 PUSH1 0x8 MUL PUSH3 0x918 JUMP JUMPDEST NOT DUP1 DUP4 AND SWAP2 POP POP SWAP3 SWAP2 POP POP JUMP JUMPDEST PUSH1 0x0 PUSH3 0x953 DUP4 DUP4 PUSH3 0x925 JUMP JUMPDEST SWAP2 POP DUP3 PUSH1 0x2 MUL DUP3 OR SWAP1 POP SWAP3 SWAP2 POP POP JUMP JUMPDEST PUSH3 0x96E DUP3 PUSH3 0x6D0 JUMP JUMPDEST PUSH8 0xFFFFFFFFFFFFFFFF DUP2 GT ISZERO PUSH3 0x98A JUMPI PUSH3 0x989 PUSH3 0x762 JUMP JUMPDEST JUMPDEST PUSH3 0x996 DUP3 SLOAD PUSH3 0x4D9 JUMP JUMPDEST PUSH3 0x9A3 DUP3 DUP3 DUP6 PUSH3 0x8C8 JUMP JUMPDEST PUSH1 0x0 PUSH1 0x20 SWAP1 POP PUSH1 0x1F DUP4 GT PUSH1 0x1 DUP2 EQ PUSH3 0x9DB JUMPI PUSH1 0x0 DUP5 ISZERO PUSH3 0x9C6 JUMPI DUP3 DUP8 ADD MLOAD SWAP1 POP JUMPDEST PUSH3 0x9D2 DUP6 DUP3 PUSH3 0x945 JUMP JUMPDEST DUP7 SSTORE POP PUSH3 0xA42 JUMP JUMPDEST PUSH1 0x1F NOT DUP5 AND PUSH3 0x9EB DUP7 PUSH3 0x791 JUMP JUMPDEST PUSH1 0x0 JUMPDEST DUP3 DUP2 LT ISZERO PUSH3 0xA15 JUMPI DUP5 DUP10 ADD MLOAD DUP3 SSTORE PUSH1 0x1 DUP3 ADD SWAP2 POP PUSH1 0x20 DUP6 ADD SWAP5 POP PUSH1 0x20 DUP2 ADD SWAP1 POP PUSH3 0x9EE JUMP JUMPDEST DUP7 DUP4 LT ISZERO PUSH3 0xA35 JUMPI DUP5 DUP10 ADD MLOAD PUSH3 0xA31 PUSH1 0x1F DUP10 AND DUP3 PUSH3 0x925 JUMP JUMPDEST DUP4 SSTORE POP JUMPDEST PUSH1 0x1 PUSH1 0x2 DUP9 MUL ADD DUP9 SSTORE POP POP POP JUMPDEST POP POP POP POP POP POP JUMP JUMPDEST PUSH2 0x81D DUP1 PUSH3 0xA5A PUSH1 0x0 CODECOPY PUSH1 0x0 RETURN INVALID PUSH1 0x80 PUSH1 0x40 MSTORE CALLVALUE DUP1 ISZERO PUSH2 0x10 JUMPI PUSH1 0x0 DUP1 REVERT JUMPDEST POP PUSH1 0x4 CALLDATASIZE LT PUSH2 0x4C JUMPI PUSH1 0x0 CALLDATALOAD PUSH1 0xE0 SHR DUP1 PUSH4 0x2637CCCF EQ PUSH2 0x51 JUMPI DUP1 PUSH4 0x501895AE EQ PUSH2 0x81 JUMPI DUP1 PUSH4 0x52DE70AF EQ PUSH2 0xB1 JUMPI DUP1 PUSH4 0x6A11B2A8 EQ PUSH2 0xE1 JUMPI JUMPDEST PUSH1 0x0 DUP1 REVERT JUMPDEST PUSH2 0x6B PUSH1 0x4 DUP1 CALLDATASIZE SUB DUP2 ADD SWAP1 PUSH2 0x66 SWAP2 SWAP1 PUSH2 0x46D JUMP JUMPDEST PUSH2 0x111 JUMP JUMPDEST PUSH1 0x40 MLOAD PUSH2 0x78 SWAP2 SWAP1 PUSH2 0x527 JUMP JUMPDEST PUSH1 0x40 MLOAD DUP1 SWAP2 SUB SWAP1 RETURN JUMPDEST PUSH2 0x9B PUSH1 0x4 DUP1 CALLDATASIZE SUB DUP2 ADD SWAP1 PUSH2 0x96 SWAP2 SWAP1 PUSH2 0x542 JUMP JUMPDEST PUSH2 0x179 JUMP JUMPDEST PUSH1 0x40 MLOAD PUSH2 0xA8 SWAP2 SWAP1 PUSH2 0x57E JUMP JUMPDEST PUSH1 0x40 MLOAD DUP1 SWAP2 SUB SWAP1 RETURN JUMPDEST PUSH2 0xCB PUSH1 0x4 DUP1 CALLDATASIZE SUB DUP2 ADD SWAP1 PUSH2 0xC6 SWAP2 SWAP1 PUSH2 0x599 JUMP JUMPDEST PUSH2 0x19D JUMP JUMPDEST PUSH1 0x40 MLOAD PUSH2 0xD8 SWAP2 SWAP1 PUSH2 0x57E JUMP JUMPDEST PUSH1 0x40 MLOAD DUP1 SWAP2 SUB SWAP1 RETURN JUMPDEST PUSH2 0xFB PUSH1 0x4 DUP1 CALLDATASIZE SUB DUP2 ADD SWAP1 PUSH2 0xF6 SWAP2 SWAP1 PUSH2 0x599 JUMP JUMPDEST PUSH2 0x1B6 JUMP JUMPDEST PUSH1 0x40 MLOAD PUSH2 0x108 SWAP2 SWAP1 PUSH2 0x661 JUMP JUMPDEST PUSH1 0x40 MLOAD DUP1 SWAP2 SUB SWAP1 RETURN JUMPDEST PUSH1 0x0 DUP1 PUSH2 0x11D DUP7 PUSH2 0x19D JUMP JUMPDEST SWAP1 POP PUSH1 0x0 JUMPDEST DUP4 MLOAD DUP2 LT ISZERO PUSH2 0x16F JUMPI PUSH1 0x0 DUP5 DUP3 DUP2 MLOAD DUP2 LT PUSH2 0x140 JUMPI PUSH2 0x13F PUSH2 0x683 JUMP JUMPDEST JUMPDEST PUSH1 0x20 MUL PUSH1 0x20 ADD ADD MLOAD SWAP1 POP PUSH1 0x0 PUSH1 0x2 DUP9 PUSH2 0x159 SWAP2 SWAP1 PUSH2 0x6E1 JUMP JUMPDEST POP POP POP DUP1 DUP1 PUSH2 0x167 SWAP1 PUSH2 0x741 JUMP JUMPDEST SWAP2 POP POP PUSH2 0x122 JUMP JUMPDEST POP POP SWAP5 SWAP4 POP POP POP POP JUMP JUMPDEST PUSH1 0x0 DUP2 DUP2 SLOAD DUP2 LT PUSH2 0x189 JUMPI PUSH1 0x0 DUP1 REVERT JUMPDEST SWAP1 PUSH1 0x0 MSTORE PUSH1 0x20 PUSH1 0x0 KECCAK256 ADD PUSH1 0x0 SWAP2 POP SWAP1 POP SLOAD DUP2 JUMP JUMPDEST PUSH1 0x0 PUSH2 0x1A8 DUP3 PUSH2 0x1B6 JUMP JUMPDEST DUP1 MLOAD SWAP1 PUSH1 0x20 ADD KECCAK256 SWAP1 POP SWAP2 SWAP1 POP JUMP JUMPDEST PUSH1 0x60 DUP2 PUSH1 0x40 MLOAD PUSH1 0x20 ADD PUSH2 0x1C9 SWAP2 SWAP1 PUSH2 0x7D0 JUMP JUMPDEST PUSH1 0x40 MLOAD PUSH1 0x20 DUP2 DUP4 SUB SUB DUP2 MSTORE SWAP1 PUSH1 0x40 MSTORE SWAP1 POP SWAP2 SWAP1 POP JUMP JUMPDEST PUSH1 0x0 PUSH1 0x40 MLOAD SWAP1 POP SWAP1 JUMP JUMPDEST PUSH1 0x0 DUP1 REVERT JUMPDEST PUSH1 0x0 DUP1 REVERT JUMPDEST PUSH1 0x0 DUP1 REVERT JUMPDEST PUSH1 0x0 DUP1 REVERT JUMPDEST PUSH1 0x0 PUSH1 0x1F NOT PUSH1 0x1F DUP4 ADD AND SWAP1 POP SWAP2 SWAP1 POP JUMP JUMPDEST PUSH32 0x4E487B7100000000000000000000000000000000000000000000000000000000 PUSH1 0x0 MSTORE PUSH1 0x41 PUSH1 0x4 MSTORE PUSH1 0x24 PUSH1 0x0 REVERT JUMPDEST PUSH2 0x246 DUP3 PUSH2 0x1FD JUMP JUMPDEST DUP2 ADD DUP2 DUP2 LT PUSH8 0xFFFFFFFFFFFFFFFF DUP3 GT OR ISZERO PUSH2 0x265 JUMPI PUSH2 0x264 PUSH2 0x20E JUMP JUMPDEST JUMPDEST DUP1 PUSH1 0x40 MSTORE POP POP POP JUMP JUMPDEST PUSH1 0x0 PUSH2 0x278 PUSH2 0x1DF JUMP JUMPDEST SWAP1 POP PUSH2 0x284 DUP3 DUP3 PUSH2 0x23D JUMP JUMPDEST SWAP2 SWAP1 POP JUMP JUMPDEST PUSH1 0x0 PUSH8 0xFFFFFFFFFFFFFFFF DUP3 GT ISZERO PUSH2 0x2A4 JUMPI PUSH2 0x2A3 PUSH2 0x20E JUMP JUMPDEST JUMPDEST PUSH2 0x2AD DUP3 PUSH2 0x1FD JUMP JUMPDEST SWAP1 POP PUSH1 0x20 DUP2 ADD SWAP1 POP SWAP2 SWAP1 POP JUMP JUMPDEST DUP3 DUP2 DUP4 CALLDATACOPY PUSH1 0x0 DUP4 DUP4 ADD MSTORE POP POP POP JUMP JUMPDEST PUSH1 0x0 PUSH2 0x2DC PUSH2 0x2D7 DUP5 PUSH2 0x289 JUMP JUMPDEST PUSH2 0x26E JUMP JUMPDEST SWAP1 POP DUP3 DUP2 MSTORE PUSH1 0x20 DUP2 ADD DUP5 DUP5 DUP5 ADD GT ISZERO PUSH2 0x2F8 JUMPI PUSH2 0x2F7 PUSH2 0x1F8 JUMP JUMPDEST JUMPDEST PUSH2 0x303 DUP5 DUP3 DUP6 PUSH2 0x2BA JUMP JUMPDEST POP SWAP4 SWAP3 POP POP POP JUMP JUMPDEST PUSH1 0x0 DUP3 PUSH1 0x1F DUP4 ADD SLT PUSH2 0x320 JUMPI PUSH2 0x31F PUSH2 0x1F3 JUMP JUMPDEST JUMPDEST DUP2 CALLDATALOAD PUSH2 0x330 DUP5 DUP3 PUSH1 0x20 DUP7 ADD PUSH2 0x2C9 JUMP JUMPDEST SWAP2 POP POP SWAP3 SWAP2 POP POP JUMP JUMPDEST PUSH1 0x0 DUP2 SWAP1 POP SWAP2 SWAP1 POP JUMP JUMPDEST PUSH2 0x34C DUP2 PUSH2 0x339 JUMP JUMPDEST DUP2 EQ PUSH2 0x357 JUMPI PUSH1 0x0 DUP1 REVERT JUMPDEST POP JUMP JUMPDEST PUSH1 0x0 DUP2 CALLDATALOAD SWAP1 POP PUSH2 0x369 DUP2 PUSH2 0x343 JUMP JUMPDEST SWAP3 SWAP2 POP POP JUMP JUMPDEST PUSH1 0x0 DUP2 SWAP1 POP SWAP2 SWAP1 POP JUMP JUMPDEST PUSH2 0x382 DUP2 PUSH2 0x36F JUMP JUMPDEST DUP2 EQ PUSH2 0x38D JUMPI PUSH1 0x0 DUP1 REVERT JUMPDEST POP JUMP JUMPDEST PUSH1 0x0 DUP2 CALLDATALOAD SWAP1 POP PUSH2 0x39F DUP2 PUSH2 0x379 JUMP JUMPDEST SWAP3 SWAP2 POP POP JUMP JUMPDEST PUSH1 0x0 PUSH8 0xFFFFFFFFFFFFFFFF DUP3 GT ISZERO PUSH2 0x3C0 JUMPI PUSH2 0x3BF PUSH2 0x20E JUMP JUMPDEST JUMPDEST PUSH1 0x20 DUP3 MUL SWAP1 POP PUSH1 0x20 DUP2 ADD SWAP1 POP SWAP2 SWAP1 POP JUMP JUMPDEST PUSH1 0x0 DUP1 REVERT JUMPDEST PUSH1 0x0 PUSH2 0x3E9 PUSH2 0x3E4 DUP5 PUSH2 0x3A5 JUMP JUMPDEST PUSH2 0x26E JUMP JUMPDEST SWAP1 POP DUP1 DUP4 DUP3 MSTORE PUSH1 0x20 DUP3 ADD SWAP1 POP PUSH1 0x20 DUP5 MUL DUP4 ADD DUP6 DUP2 GT ISZERO PUSH2 0x40C JUMPI PUSH2 0x40B PUSH2 0x3D1 JUMP JUMPDEST JUMPDEST DUP4 JUMPDEST DUP2 DUP2 LT ISZERO PUSH2 0x435 JUMPI DUP1 PUSH2 0x421 DUP9 DUP3 PUSH2 0x390 JUMP JUMPDEST DUP5 MSTORE PUSH1 0x20 DUP5 ADD SWAP4 POP POP PUSH1 0x20 DUP2 ADD SWAP1 POP PUSH2 0x40E JUMP JUMPDEST POP POP POP SWAP4 SWAP3 POP POP POP JUMP JUMPDEST PUSH1 0x0 DUP3 PUSH1 0x1F DUP4 ADD SLT PUSH2 0x454 JUMPI PUSH2 0x453 PUSH2 0x1F3 JUMP JUMPDEST JUMPDEST DUP2 CALLDATALOAD PUSH2 0x464 DUP5 DUP3 PUSH1 0x20 DUP7 ADD PUSH2 0x3D6 JUMP JUMPDEST SWAP2 POP POP SWAP3 SWAP2 POP POP JUMP JUMPDEST PUSH1 0x0 DUP1 PUSH1 0x0 DUP1 PUSH1 0x80 DUP6 DUP8 SUB SLT ISZERO PUSH2 0x487 JUMPI PUSH2 0x486 PUSH2 0x1E9 JUMP JUMPDEST JUMPDEST PUSH1 0x0 DUP6 ADD CALLDATALOAD PUSH8 0xFFFFFFFFFFFFFFFF DUP2 GT ISZERO PUSH2 0x4A5 JUMPI PUSH2 0x4A4 PUSH2 0x1EE JUMP JUMPDEST JUMPDEST PUSH2 0x4B1 DUP8 DUP3 DUP9 ADD PUSH2 0x30B JUMP JUMPDEST SWAP5 POP POP PUSH1 0x20 PUSH2 0x4C2 DUP8 DUP3 DUP9 ADD PUSH2 0x35A JUMP JUMPDEST SWAP4 POP POP PUSH1 0x40 PUSH2 0x4D3 DUP8 DUP3 DUP9 ADD PUSH2 0x390 JUMP JUMPDEST SWAP3 POP POP PUSH1 0x60 DUP6 ADD CALLDATALOAD PUSH8 0xFFFFFFFFFFFFFFFF DUP2 GT ISZERO PUSH2 0x4F4 JUMPI PUSH2 0x4F3 PUSH2 0x1EE JUMP JUMPDEST JUMPDEST PUSH2 0x500 DUP8 DUP3 DUP9 ADD PUSH2 0x43F JUMP JUMPDEST SWAP2 POP POP SWAP3 SWAP6 SWAP2 SWAP5 POP SWAP3 POP JUMP JUMPDEST PUSH1 0x0 DUP2 ISZERO ISZERO SWAP1 POP SWAP2 SWAP1 POP JUMP JUMPDEST PUSH2 0x521 DUP2 PUSH2 0x50C JUMP JUMPDEST DUP3 MSTORE POP POP JUMP JUMPDEST PUSH1 0x0 PUSH1 0x20 DUP3 ADD SWAP1 POP PUSH2 0x53C PUSH1 0x0 DUP4 ADD DUP5 PUSH2 0x518 JUMP JUMPDEST SWAP3 SWAP2 POP POP JUMP JUMPDEST PUSH1 0x0 PUSH1 0x20 DUP3 DUP5 SUB SLT ISZERO PUSH2 0x558 JUMPI PUSH2 0x557 PUSH2 0x1E9 JUMP JUMPDEST JUMPDEST PUSH1 0x0 PUSH2 0x566 DUP5 DUP3 DUP6 ADD PUSH2 0x35A JUMP JUMPDEST SWAP2 POP POP SWAP3 SWAP2 POP POP JUMP JUMPDEST PUSH2 0x578 DUP2 PUSH2 0x36F JUMP JUMPDEST DUP3 MSTORE POP POP JUMP JUMPDEST PUSH1 0x0 PUSH1 0x20 DUP3 ADD SWAP1 POP PUSH2 0x593 PUSH1 0x0 DUP4 ADD DUP5 PUSH2 0x56F JUMP JUMPDEST SWAP3 SWAP2 POP POP JUMP JUMPDEST PUSH1 0x0 PUSH1 0x20 DUP3 DUP5 SUB SLT ISZERO PUSH2 0x5AF JUMPI PUSH2 0x5AE PUSH2 0x1E9 JUMP JUMPDEST JUMPDEST PUSH1 0x0 DUP3 ADD CALLDATALOAD PUSH8 0xFFFFFFFFFFFFFFFF DUP2 GT ISZERO PUSH2 0x5CD JUMPI PUSH2 0x5CC PUSH2 0x1EE JUMP JUMPDEST JUMPDEST PUSH2 0x5D9 DUP5 DUP3 DUP6 ADD PUSH2 0x30B JUMP JUMPDEST SWAP2 POP POP SWAP3 SWAP2 POP POP JUMP JUMPDEST PUSH1 0x0 DUP2 MLOAD SWAP1 POP SWAP2 SWAP1 POP JUMP JUMPDEST PUSH1 0x0 DUP3 DUP3 MSTORE PUSH1 0x20 DUP3 ADD SWAP1 POP SWAP3 SWAP2 POP POP JUMP JUMPDEST PUSH1 0x0 JUMPDEST DUP4 DUP2 LT ISZERO PUSH2 0x61C JUMPI DUP1 DUP3 ADD MLOAD DUP2 DUP5 ADD MSTORE PUSH1 0x20 DUP2 ADD SWAP1 POP PUSH2 0x601 JUMP JUMPDEST PUSH1 0x0 DUP5 DUP5 ADD MSTORE POP POP POP POP JUMP JUMPDEST PUSH1 0x0 PUSH2 0x633 DUP3 PUSH2 0x5E2 JUMP JUMPDEST PUSH2 0x63D DUP2 DUP6 PUSH2 0x5ED JUMP JUMPDEST SWAP4 POP PUSH2 0x64D DUP2 DUP6 PUSH1 0x20 DUP7 ADD PUSH2 0x5FE JUMP JUMPDEST PUSH2 0x656 DUP2 PUSH2 0x1FD JUMP JUMPDEST DUP5 ADD SWAP2 POP POP SWAP3 SWAP2 POP POP JUMP JUMPDEST PUSH1 0x0 PUSH1 0x20 DUP3 ADD SWAP1 POP DUP2 DUP2 SUB PUSH1 0x0 DUP4 ADD MSTORE PUSH2 0x67B DUP2 DUP5 PUSH2 0x628 JUMP JUMPDEST SWAP1 POP SWAP3 SWAP2 POP POP JUMP JUMPDEST PUSH32 0x4E487B7100000000000000000000000000000000000000000000000000000000 PUSH1 0x0 MSTORE PUSH1 0x32 PUSH1 0x4 MSTORE PUSH1 0x24 PUSH1 0x0 REVERT JUMPDEST PUSH32 0x4E487B7100000000000000000000000000000000000000000000000000000000 PUSH1 0x0 MSTORE PUSH1 0x12 PUSH1 0x4 MSTORE PUSH1 0x24 PUSH1 0x0 REVERT JUMPDEST PUSH1 0x0 PUSH2 0x6EC DUP3 PUSH2 0x339 JUMP JUMPDEST SWAP2 POP PUSH2 0x6F7 DUP4 PUSH2 0x339 JUMP JUMPDEST SWAP3 POP DUP3 PUSH2 0x707 JUMPI PUSH2 0x706 PUSH2 0x6B2 JUMP JUMPDEST JUMPDEST DUP3 DUP3 MOD SWAP1 POP SWAP3 SWAP2 POP POP JUMP JUMPDEST PUSH32 0x4E487B7100000000000000000000000000000000000000000000000000000000 PUSH1 0x0 MSTORE PUSH1 0x11 PUSH1 0x4 MSTORE PUSH1 0x24 PUSH1 0x0 REVERT JUMPDEST PUSH1 0x0 PUSH2 0x74C DUP3 PUSH2 0x339 JUMP JUMPDEST SWAP2 POP PUSH32 0xFFFFFFFFFFFFFFFFFFFFFFFFFFFFFFFFFFFFFFFFFFFFFFFFFFFFFFFFFFFFFFFF DUP3 SUB PUSH2 0x77E JUMPI PUSH2 0x77D PUSH2 0x712 JUMP JUMPDEST JUMPDEST PUSH1 0x1 DUP3 ADD SWAP1 POP SWAP2 SWAP1 POP JUMP JUMPDEST PUSH1 0x0 DUP2 MLOAD SWAP1 POP SWAP2 SWAP1 POP JUMP JUMPDEST PUSH1 0x0 DUP2 SWAP1 POP SWAP3 SWAP2 POP POP JUMP JUMPDEST PUSH1 0x0 PUSH2 0x7AA DUP3 PUSH2 0x789 JUMP JUMPDEST PUSH2 0x7B4 DUP2 DUP6 PUSH2 0x794 JUMP JUMPDEST SWAP4 POP PUSH2 0x7C4 DUP2 DUP6 PUSH1 0x20 DUP7 ADD PUSH2 0x5FE JUMP JUMPDEST DUP1 DUP5 ADD SWAP2 POP POP SWAP3 SWAP2 POP POP JUMP JUMPDEST PUSH1 0x0 PUSH2 0x7DC DUP3 DUP5 PUSH2 0x79F JUMP JUMPDEST SWAP2 POP DUP2 SWAP1 POP SWAP3 SWAP2 POP POP JUMP INVALID LOG2 PUSH5 0x6970667358 0x22 SLT KECCAK256 REVERT 0x2D 0x25 PUSH13 0x8FE942736585EF19BE61528772 0x4C PUSH4 0x56F2A4AB 0xD9 CREATE2 0x2F PUSH4 0x487A14D2 0xD5 PUSH5 0x736F6C6343 STOP ADDMOD GT STOP CALLER "
				},
				"gasEstimates": {
					"creation": {
						"codeDepositCost": "415400",
						"executionCost": "infinite",
						"totalCost": "infinite"
					},
					"external": {
						"encode(string)": "infinite",
						"hashes(uint256)": "4882",
						"makeHash(string)": "infinite",
						"verify(string,uint256,bytes32,bytes32[])": "infinite"
					}
				},
				"methodIdentifiers": {
					"encode(string)": "6a11b2a8",
					"hashes(uint256)": "501895ae",
					"makeHash(string)": "52de70af",
					"verify(string,uint256,bytes32,bytes32[])": "2637cccf"
				}
			},
			"storageLayout": {
				"storage": [
					{
						"astId": 4,
						"contract": "contracts/Lesson_4.sol:MerkleTree",
						"label": "hashes",
						"offset": 0,
						"slot": "0",
						"type": "t_array(t_bytes32)dyn_storage"
					},
					{
						"astId": 13,
						"contract": "contracts/Lesson_4.sol:MerkleTree",
						"label": "transactions",
						"offset": 0,
						"slot": "1",
						"type": "t_array(t_string_storage)4_storage"
					}
				],
				"types": {
					"t_array(t_bytes32)dyn_storage": {
						"base": "t_bytes32",
						"encoding": "dynamic_array",
						"label": "bytes32[]",
						"numberOfBytes": "32"
					},
					"t_array(t_string_storage)4_storage": {
						"base": "t_string_storage",
						"encoding": "inplace",
						"label": "string[4]",
						"numberOfBytes": "128"
					},
					"t_bytes32": {
						"encoding": "inplace",
						"label": "bytes32",
						"numberOfBytes": "32"
					},
					"t_string_storage": {
						"encoding": "bytes",
						"label": "string",
						"numberOfBytes": "32"
					}
				}
			},
			"userdoc": {
				"kind": "user",
				"methods": {},
				"version": 1
			}
		}
	}
}